{
  "contractName": "Products",
  "abi": [
    {
      "inputs": [],
      "payable": false,
      "stateMutability": "nonpayable",
      "type": "constructor"
    },
    {
      "anonymous": false,
      "inputs": [
        {
          "indexed": false,
          "internalType": "string",
          "name": "name",
          "type": "string"
        },
        {
          "indexed": false,
          "internalType": "uint256",
          "name": "ProductNumber",
          "type": "uint256"
        }
      ],
      "name": "ProductCreated",
      "type": "event"
    },
    {
      "constant": true,
      "inputs": [
        {
          "internalType": "uint256",
          "name": "",
          "type": "uint256"
        }
      ],
      "name": "products",
      "outputs": [
        {
          "internalType": "string",
          "name": "name",
          "type": "string"
        },
        {
          "internalType": "uint256",
          "name": "price",
          "type": "uint256"
        }
      ],
      "payable": false,
      "stateMutability": "view",
      "type": "function"
    },
    {
      "constant": true,
      "inputs": [],
      "name": "productsCount",
      "outputs": [
        {
          "internalType": "uint256",
          "name": "",
          "type": "uint256"
        }
      ],
      "payable": false,
      "stateMutability": "view",
      "type": "function"
    },
    {
      "constant": false,
      "inputs": [
        {
          "internalType": "string",
          "name": "_productName",
          "type": "string"
        },
        {
          "internalType": "uint256",
          "name": "_price",
          "type": "uint256"
        }
      ],
      "name": "createProduct",
      "outputs": [],
      "payable": false,
      "stateMutability": "nonpayable",
      "type": "function"
    }
  ],
  "bytecode": "0x608060405234801561001057600080fd5b5060008081905550610481806100276000396000f3fe608060405234801561001057600080fd5b50600436106100415760003560e01c80637acc0b2014610046578063e0df7bb6146100f4578063e9300c6c14610112575b600080fd5b6100726004803603602081101561005c57600080fd5b81019080803590602001909291905050506101d7565b6040518080602001838152602001828103825284818151815260200191508051906020019080838360005b838110156100b857808201518184015260208101905061009d565b50505050905090810190601f1680156100e55780820380516001836020036101000a031916815260200191505b50935050505060405180910390f35b6100fc610293565b6040518082815260200191505060405180910390f35b6101d56004803603604081101561012857600080fd5b810190808035906020019064010000000081111561014557600080fd5b82018360208201111561015757600080fd5b8035906020019184600183028401116401000000008311171561017957600080fd5b91908080601f016020809104026020016040519081016040528093929190818152602001838380828437600081840152601f19601f82011690508083019250505050505050919291929080359060200190929190505050610299565b005b6001602052806000526040600020600091509050806000018054600181600116156101000203166002900480601f0160208091040260200160405190810160405280929190818152602001828054600181600116156101000203166002900480156102835780601f1061025857610100808354040283529160200191610283565b820191906000526020600020905b81548152906001019060200180831161026657829003601f168201915b5050505050908060010154905082565b60005481565b6040518060400160405280838152602001828152506001600080600081548092919060010191905055815260200190815260200160002060008201518160000190805190602001906102ec9291906103a7565b50602082015181600101559050507fb040efd5b9ac3e016c34e7ba218414cec2f62f7405435784f124cf44a21dc137826001600054036040518080602001838152602001828103825284818151815260200191508051906020019080838360005b8381101561036857808201518184015260208101905061034d565b50505050905090810190601f1680156103955780820380516001836020036101000a031916815260200191505b50935050505060405180910390a15050565b828054600181600116156101000203166002900490600052602060002090601f016020900481019282601f106103e857805160ff1916838001178555610416565b82800160010185558215610416579182015b828111156104155782518255916020019190600101906103fa565b5b5090506104239190610427565b5090565b61044991905b8082111561044557600081600090555060010161042d565b5090565b9056fea265627a7a72315820d5b4abf4a3a99c90105ace7d026db9b18c3ce6479a983aa85964de8f38469efc64736f6c63430005100032",
  "source": "pragma solidity >=0.4.22 <0.9.0;\r\n\r\ncontract Products{\r\n    \r\n    uint public productsCount;\r\n    \r\n    struct Product{\r\n        \r\n        string name;\r\n        uint price;\r\n        \r\n    }\r\n    \r\n    mapping (uint => Product) public products;\r\n    \r\n    event ProductCreated(string name, uint ProductNumber);\r\n    \r\n    constructor() public{\r\n        productsCount = 0;\r\n    }\r\n    \r\n    \r\n    function createProduct(string memory _productName, uint _price) public{\r\n        products[productsCount++] = Product(_productName, _price);\r\n        emit ProductCreated(_productName, productsCount - 1);\r\n        \r\n    }\r\n    \r\n    \r\n}",
  "sourcePath": "C:/Users/Korisnik/Desktop/products_test/contracts/Products.sol",
  "compiler": {
    "name": "solc",
    "version": "0.5.16+commit.9c3226ce.Emscripten.clang"
  },
  "schemaVersion": "3.3.4",
  "updatedAt": "2021-03-28T17:20:02.513Z",
  "networkType": "ethereum",
  "devdoc": {
    "methods": {}
  },
  "userdoc": {
    "methods": {}
  }
}