{
    "contractName": "Users",
    "abi": [
        {
            "inputs": [],
            "stateMutability": "nonpayable",
            "type": "constructor"
        },
        {
            "anonymous": false,
            "inputs": [
                {
                    "indexed": false,
                    "internalType": "string",
                    "name": "user",
                    "type": "string"
                },
                {
                    "indexed": false,
                    "internalType": "uint256",
                    "name": "userNumber",
                    "type": "uint256"
                }
            ],
            "name": "UserCreated",
            "type": "event"
        },
        {
            "inputs": [
                {
                    "internalType": "string",
                    "name": "_metamaskAddress",
                    "type": "string"
                },
                {
                    "internalType": "string",
                    "name": "_privateKey",
                    "type": "string"
                }
            ],
            "name": "checkForUser",
            "outputs": [
                {
                    "internalType": "uint256",
                    "name": "bl",
                    "type": "uint256"
                }
            ],
            "stateMutability": "nonpayable",
            "type": "function"
        },
        {
            "inputs": [
                {
                    "internalType": "string",
                    "name": "_name",
                    "type": "string"
                },
                {
                    "internalType": "string",
                    "name": "_surname",
                    "type": "string"
                },
                {
                    "internalType": "string",
                    "name": "_privateKey",
                    "type": "string"
                },
                {
                    "internalType": "string",
                    "name": "_metamaskAddress",
                    "type": "string"
                },
                {
                    "internalType": "string",
                    "name": "_photoUrl",
                    "type": "string"
                },
                {
                    "internalType": "string",
                    "name": "_desc",
                    "type": "string"
                },
                {
                    "internalType": "string",
                    "name": "_email",
                    "type": "string"
                },
                {
                    "internalType": "string",
                    "name": "_phoneNumber",
                    "type": "string"
                },
                {
                    "internalType": "string",
                    "name": "_homeAddress",
                    "type": "string"
                },
                {
                    "internalType": "string",
                    "name": "_birthday",
                    "type": "string"
                },
                {
                    "internalType": "uint256",
                    "name": "_uType",
                    "type": "uint256"
                }
            ],
            "name": "createUser",
            "outputs": [
                {
                    "internalType": "uint256",
                    "name": "",
                    "type": "uint256"
                }
            ],
            "stateMutability": "nonpayable",
            "type": "function"
        },
        {
            "inputs": [
                {
                    "internalType": "uint256",
                    "name": "_id",
                    "type": "uint256"
                },
                {
                    "internalType": "string",
                    "name": "_photoUrl",
                    "type": "string"
                },
                {
                    "internalType": "string",
                    "name": "_desc",
                    "type": "string"
                },
                {
                    "internalType": "string",
                    "name": "_email",
                    "type": "string"
                },
                {
                    "internalType": "string",
                    "name": "_phoneNumber",
                    "type": "string"
                },
                {
                    "internalType": "string",
                    "name": "_homeAddress",
                    "type": "string"
                }
            ],
            "name": "editUser",
            "outputs": [],
            "stateMutability": "nonpayable",
            "type": "function"
        },
        {
            "inputs": [
                {
                    "internalType": "string",
                    "name": "privateKey",
                    "type": "string"
                },
                {
                    "internalType": "string",
                    "name": "accountAddress",
                    "type": "string"
                }
            ],
            "name": "getUser",
            "outputs": [
                {
                    "components": [
                        {
                            "internalType": "uint256",
                            "name": "id",
                            "type": "uint256"
                        },
                        {
                            "internalType": "string",
                            "name": "name",
                            "type": "string"
                        },
                        {
                            "internalType": "string",
                            "name": "surname",
                            "type": "string"
                        },
                        {
                            "internalType": "string",
                            "name": "privateKey",
                            "type": "string"
                        },
                        {
                            "internalType": "string",
                            "name": "metamaskAddress",
                            "type": "string"
                        },
                        {
                            "internalType": "string",
                            "name": "photoUrl",
                            "type": "string"
                        },
                        {
                            "internalType": "string",
                            "name": "desc",
                            "type": "string"
                        },
                        {
                            "internalType": "string",
                            "name": "email",
                            "type": "string"
                        },
                        {
                            "internalType": "string",
                            "name": "phoneNumber",
                            "type": "string"
                        },
                        {
                            "internalType": "string",
                            "name": "homeAddress",
                            "type": "string"
                        },
                        {
                            "internalType": "string",
                            "name": "birthday",
                            "type": "string"
                        },
                        {
                            "internalType": "uint256",
                            "name": "uType",
                            "type": "uint256"
                        }
                    ],
                    "internalType": "struct Users.User",
                    "name": "",
                    "type": "tuple"
                }
            ],
            "stateMutability": "nonpayable",
            "type": "function"
        },
        {
            "inputs": [
                {
                    "internalType": "uint256",
                    "name": "id",
                    "type": "uint256"
                }
            ],
            "name": "getUserById",
            "outputs": [
                {
                    "components": [
                        {
                            "internalType": "uint256",
                            "name": "id",
                            "type": "uint256"
                        },
                        {
                            "internalType": "string",
                            "name": "name",
                            "type": "string"
                        },
                        {
                            "internalType": "string",
                            "name": "surname",
                            "type": "string"
                        },
                        {
                            "internalType": "string",
                            "name": "privateKey",
                            "type": "string"
                        },
                        {
                            "internalType": "string",
                            "name": "metamaskAddress",
                            "type": "string"
                        },
                        {
                            "internalType": "string",
                            "name": "photoUrl",
                            "type": "string"
                        },
                        {
                            "internalType": "string",
                            "name": "desc",
                            "type": "string"
                        },
                        {
                            "internalType": "string",
                            "name": "email",
                            "type": "string"
                        },
                        {
                            "internalType": "string",
                            "name": "phoneNumber",
                            "type": "string"
                        },
                        {
                            "internalType": "string",
                            "name": "homeAddress",
                            "type": "string"
                        },
                        {
                            "internalType": "string",
                            "name": "birthday",
                            "type": "string"
                        },
                        {
                            "internalType": "uint256",
                            "name": "uType",
                            "type": "uint256"
                        }
                    ],
                    "internalType": "struct Users.User",
                    "name": "",
                    "type": "tuple"
                }
            ],
            "stateMutability": "nonpayable",
            "type": "function"
        },
        {
            "inputs": [
                {
                    "internalType": "uint256",
                    "name": "",
                    "type": "uint256"
                }
            ],
            "name": "users",
            "outputs": [
                {
                    "internalType": "uint256",
                    "name": "id",
                    "type": "uint256"
                },
                {
                    "internalType": "string",
                    "name": "name",
                    "type": "string"
                },
                {
                    "internalType": "string",
                    "name": "surname",
                    "type": "string"
                },
                {
                    "internalType": "string",
                    "name": "privateKey",
                    "type": "string"
                },
                {
                    "internalType": "string",
                    "name": "metamaskAddress",
                    "type": "string"
                },
                {
                    "internalType": "string",
                    "name": "photoUrl",
                    "type": "string"
                },
                {
                    "internalType": "string",
                    "name": "desc",
                    "type": "string"
                },
                {
                    "internalType": "string",
                    "name": "email",
                    "type": "string"
                },
                {
                    "internalType": "string",
                    "name": "phoneNumber",
                    "type": "string"
                },
                {
                    "internalType": "string",
                    "name": "homeAddress",
                    "type": "string"
                },
                {
                    "internalType": "string",
                    "name": "birthday",
                    "type": "string"
                },
                {
                    "internalType": "uint256",
                    "name": "uType",
                    "type": "uint256"
                }
            ],
            "stateMutability": "view",
            "type": "function"
        },
        {
            "inputs": [],
            "name": "usersCount",
            "outputs": [
                {
                    "internalType": "uint256",
                    "name": "",
                    "type": "uint256"
                }
            ],
            "stateMutability": "view",
            "type": "function"
        }
    ],
    "bytecode": "6080604052600080553480156200001557600080fd5b5060405180610180016040528060348152602001604051806040016040528060058152602001642537bb30b760d91b815250815260200160405180604001604052806008815260200167506574726f76696360c01b815250815260200160405180606001604052806040815260200162002c2460409139815260200160405180606001604052806028815260200162002bd460289139815260200160405180608001604052806043815260200162002ca460439139815260200160405180606001604052806026815260200162002b46602691398152604080518082018252601381527f6a706574726f76696340676d61696c2e636f6d000000000000000000000000006020828101919091528084019190915281518083018352600a8152693036323334393635323160b01b818301528284015281518083018352600880825267139bdd9a481cd85960c21b8284015260608501919091528251808401909352825267323032302d332d3360c01b828201526080830191909152600160a09092018290526000805290815281517fa6eef7e35abe7026729641147f7915573c7e97b47efa546f5f6e3230263bcb49908155828201518051919262000200927fa6eef7e35abe7026729641147f7915573c7e97b47efa546f5f6e3230263bcb4a929091019062000944565b50604082015180516200021e91600284019160209091019062000944565b50606082015180516200023c91600384019160209091019062000944565b50608082015180516200025a91600484019160209091019062000944565b5060a082015180516200027891600584019160209091019062000944565b5060c082015180516200029691600684019160209091019062000944565b5060e08201518051620002b491600784019160209091019062000944565b506101008201518051620002d391600884019160209091019062000944565b506101208201518051620002f291600984019160209091019062000944565b5061014082015180516200031191600a84019160209091019062000944565b5061016082015181600b01559050506040518061018001604052806035815260200160405180604001604052806005815260200164223ab9b0b760d91b81525081526020016040518060400160405280600b81526020016a4a616b6f766c6a6576696360a81b815250815260200160405180606001604052806040815260200162002b6c60409139815260200160405180606001604052806028815260200162002bac60289139815260200160405180608001604052806043815260200162002ca460439139815260200160405180606001604052806026815260200162002b46602691398152604080518082018252601681527f646a616b6f766c6a6576696340676d61696c2e636f6d000000000000000000006020828101919091528084019190915281518083018352600a808252690c0d8d0c4ccd8e4e4d4d60b21b828401528385019190915282518084018452908152694b726167756a6576616360b01b81830152606084015281518083019092526008825267323032302d332d3360c01b828201526080830191909152600160a0909201829052600082905290815281517fcc69885fda6bcc1a4ace058b4a62bf5e179ea78fd58a1ccd71c22cc9b688792f908155828201518051919262000511927fcc69885fda6bcc1a4ace058b4a62bf5e179ea78fd58a1ccd71c22cc9b6887930929091019062000944565b50604082015180516200052f91600284019160209091019062000944565b50606082015180516200054d91600384019160209091019062000944565b50608082015180516200056b91600484019160209091019062000944565b5060a082015180516200058991600584019160209091019062000944565b5060c08201518051620005a791600684019160209091019062000944565b5060e08201518051620005c591600784019160209091019062000944565b506101008201518051620005e491600884019160209091019062000944565b5061012082015180516200060391600984019160209091019062000944565b5061014082015180516200062291600a84019160209091019062000944565b5061016082015181600b0155905050604051806101800160405280603681526020016040518060400160405280600681526020016529ba32bb30b760d11b8152508152602001604051806040016040528060088152602001674d6974726f76696360c01b815250815260200160405180606001604052806040815260200162002c6460409139815260200160405180606001604052806028815260200162002bfc60289139815260200160405180608001604052806043815260200162002ca460439139815260200160405180606001604052806026815260200162002b46602691398152604080518082018252601381527f736d6974726f76696340676d61696c2e636f6d000000000000000000000000006020828101919091528084019190915281518083018352600981526830363633323134353960b81b818301528284015281518083018352600781526610995bd9dc985960ca1b81830152606084015281518083019092526008825267323032302d332d3360c01b828201526080830191909152600160a0909201829052600260005290815281517fd9d16d34ffb15ba3a3d852f0d403e2ce1d691fb54de27ac87cd2f993f3ec330f908155828201518051919262000819927fd9d16d34ffb15ba3a3d852f0d403e2ce1d691fb54de27ac87cd2f993f3ec3310929091019062000944565b50604082015180516200083791600284019160209091019062000944565b50606082015180516200085591600384019160209091019062000944565b50608082015180516200087391600484019160209091019062000944565b5060a082015180516200089191600584019160209091019062000944565b5060c08201518051620008af91600684019160209091019062000944565b5060e08201518051620008cd91600784019160209091019062000944565b506101008201518051620008ec91600884019160209091019062000944565b5061012082015180516200090b91600984019160209091019062000944565b5061014082015180516200092a91600a84019160209091019062000944565b506101609190910151600b90910155600360005562000a27565b8280546200095290620009ea565b90600052602060002090601f016020900481019282620009765760008555620009c1565b82601f106200099157805160ff1916838001178555620009c1565b82800160010185558215620009c1579182015b82811115620009c1578251825591602001919060010190620009a4565b50620009cf929150620009d3565b5090565b5b80821115620009cf5760008155600101620009d4565b600181811c90821680620009ff57607f821691505b6020821081141562000a2157634e487b7160e01b600052602260045260246000fd5b50919050565b61210f8062000a376000396000f3fe608060405234801561001057600080fd5b506004361061007d5760003560e01c80636ba13a821161005b5780636ba13a82146100e85780636ed6da9e146100f157806383e6858f1461011157806388dce9e71461012457600080fd5b80632c4141c214610082578063365b98b2146100a857806346e6f94a146100d3575b600080fd5b610095610090366004611aa2565b610137565b6040519081526020015b60405180910390f35b6100bb6100b6366004611c98565b6102cf565b60405161009f9c9b9a99989796959493929190611f3c565b6100e66100e1366004611cb0565b610877565b005b61009560005481565b6101046100ff366004611c98565b610978565b60405161009f9190611df1565b61010461011f366004611aa2565b610fab565b610095610132366004611b03565b61169d565b6000805b6000548110156102c357600081815260016020526040902060040180546101ea919061016690612057565b80601f016020809104026020016040519081016040528092919081815260200182805461019290612057565b80156101df5780601f106101b4576101008083540402835291602001916101df565b820191906000526020600020905b8154815290600101906020018083116101c257829003601f168201915b5050505050856118f6565b8015610296575060008181526001602052604090206003018054610296919061021290612057565b80601f016020809104026020016040519081016040528092919081815260200182805461023e90612057565b801561028b5780601f106102605761010080835404028352916020019161028b565b820191906000526020600020905b81548152906001019060200180831161026e57829003601f168201915b5050505050846118f6565b156102b15760009081526001602052604090205490506102c9565b806102bb81612092565b91505061013b565b50506000545b92915050565b6001602081905260009182526040909120805491810180546102f090612057565b80601f016020809104026020016040519081016040528092919081815260200182805461031c90612057565b80156103695780601f1061033e57610100808354040283529160200191610369565b820191906000526020600020905b81548152906001019060200180831161034c57829003601f168201915b50505050509080600201805461037e90612057565b80601f01602080910402602001604051908101604052809291908181526020018280546103aa90612057565b80156103f75780601f106103cc576101008083540402835291602001916103f7565b820191906000526020600020905b8154815290600101906020018083116103da57829003601f168201915b50505050509080600301805461040c90612057565b80601f016020809104026020016040519081016040528092919081815260200182805461043890612057565b80156104855780601f1061045a57610100808354040283529160200191610485565b820191906000526020600020905b81548152906001019060200180831161046857829003601f168201915b50505050509080600401805461049a90612057565b80601f01602080910402602001604051908101604052809291908181526020018280546104c690612057565b80156105135780601f106104e857610100808354040283529160200191610513565b820191906000526020600020905b8154815290600101906020018083116104f657829003601f168201915b50505050509080600501805461052890612057565b80601f016020809104026020016040519081016040528092919081815260200182805461055490612057565b80156105a15780601f10610576576101008083540402835291602001916105a1565b820191906000526020600020905b81548152906001019060200180831161058457829003601f168201915b5050505050908060060180546105b690612057565b80601f01602080910402602001604051908101604052809291908181526020018280546105e290612057565b801561062f5780601f106106045761010080835404028352916020019161062f565b820191906000526020600020905b81548152906001019060200180831161061257829003601f168201915b50505050509080600701805461064490612057565b80601f016020809104026020016040519081016040528092919081815260200182805461067090612057565b80156106bd5780601f10610692576101008083540402835291602001916106bd565b820191906000526020600020905b8154815290600101906020018083116106a057829003601f168201915b5050505050908060080180546106d290612057565b80601f01602080910402602001604051908101604052809291908181526020018280546106fe90612057565b801561074b5780601f106107205761010080835404028352916020019161074b565b820191906000526020600020905b81548152906001019060200180831161072e57829003601f168201915b50505050509080600901805461076090612057565b80601f016020809104026020016040519081016040528092919081815260200182805461078c90612057565b80156107d95780601f106107ae576101008083540402835291602001916107d9565b820191906000526020600020905b8154815290600101906020018083116107bc57829003601f168201915b50505050509080600a0180546107ee90612057565b80601f016020809104026020016040519081016040528092919081815260200182805461081a90612057565b80156108675780601f1061083c57610100808354040283529160200191610867565b820191906000526020600020905b81548152906001019060200180831161084a57829003601f168201915b50505050509080600b015490508c565b60005b60005481101561096f5760008181526001602052604090205487141561095d57600081815260016020908152604090912087516108bf92600590920191890190611921565b50600081815260016020908152604090912086516108e592600690920191880190611921565b506000818152600160209081526040909120855161090b92600790920191870190611921565b506000818152600160209081526040909120845161093192600890920191860190611921565b506000818152600160209081526040909120835161095792600990920191850190611921565b5061096f565b8061096781612092565b91505061087a565b50505050505050565b6109806119a5565b6109886119a5565b60005b600054811015610fa457600081815260016020526040902054841415610f925760008181526001602081815260409283902083516101808101909452805484529182018054918401916109dd90612057565b80601f0160208091040260200160405190810160405280929190818152602001828054610a0990612057565b8015610a565780601f10610a2b57610100808354040283529160200191610a56565b820191906000526020600020905b815481529060010190602001808311610a3957829003601f168201915b50505050508152602001600282018054610a6f90612057565b80601f0160208091040260200160405190810160405280929190818152602001828054610a9b90612057565b8015610ae85780601f10610abd57610100808354040283529160200191610ae8565b820191906000526020600020905b815481529060010190602001808311610acb57829003601f168201915b50505050508152602001600382018054610b0190612057565b80601f0160208091040260200160405190810160405280929190818152602001828054610b2d90612057565b8015610b7a5780601f10610b4f57610100808354040283529160200191610b7a565b820191906000526020600020905b815481529060010190602001808311610b5d57829003601f168201915b50505050508152602001600482018054610b9390612057565b80601f0160208091040260200160405190810160405280929190818152602001828054610bbf90612057565b8015610c0c5780601f10610be157610100808354040283529160200191610c0c565b820191906000526020600020905b815481529060010190602001808311610bef57829003601f168201915b50505050508152602001600582018054610c2590612057565b80601f0160208091040260200160405190810160405280929190818152602001828054610c5190612057565b8015610c9e5780601f10610c7357610100808354040283529160200191610c9e565b820191906000526020600020905b815481529060010190602001808311610c8157829003601f168201915b50505050508152602001600682018054610cb790612057565b80601f0160208091040260200160405190810160405280929190818152602001828054610ce390612057565b8015610d305780601f10610d0557610100808354040283529160200191610d30565b820191906000526020600020905b815481529060010190602001808311610d1357829003601f168201915b50505050508152602001600782018054610d4990612057565b80601f0160208091040260200160405190810160405280929190818152602001828054610d7590612057565b8015610dc25780601f10610d9757610100808354040283529160200191610dc2565b820191906000526020600020905b815481529060010190602001808311610da557829003601f168201915b50505050508152602001600882018054610ddb90612057565b80601f0160208091040260200160405190810160405280929190818152602001828054610e0790612057565b8015610e545780601f10610e2957610100808354040283529160200191610e54565b820191906000526020600020905b815481529060010190602001808311610e3757829003601f168201915b50505050508152602001600982018054610e6d90612057565b80601f0160208091040260200160405190810160405280929190818152602001828054610e9990612057565b8015610ee65780601f10610ebb57610100808354040283529160200191610ee6565b820191906000526020600020905b815481529060010190602001808311610ec957829003601f168201915b50505050508152602001600a82018054610eff90612057565b80601f0160208091040260200160405190810160405280929190818152602001828054610f2b90612057565b8015610f785780601f10610f4d57610100808354040283529160200191610f78565b820191906000526020600020905b815481529060010190602001808311610f5b57829003601f168201915b50505050508152602001600b820154815250509150610fa4565b80610f9c81612092565b91505061098b565b5092915050565b610fb36119a5565b610fbb6119a5565b60005b600054811015611695576000818152600160205260409020600301805461106d9190610fe990612057565b80601f016020809104026020016040519081016040528092919081815260200182805461101590612057565b80156110625780601f1061103757610100808354040283529160200191611062565b820191906000526020600020905b81548152906001019060200180831161104557829003601f168201915b5050505050866118f6565b8015611095575060008181526001602052604090206004018054611095919061016690612057565b156116835760008181526001602081815260409283902083516101808101909452805484529182018054918401916110cc90612057565b80601f01602080910402602001604051908101604052809291908181526020018280546110f890612057565b80156111455780601f1061111a57610100808354040283529160200191611145565b820191906000526020600020905b81548152906001019060200180831161112857829003601f168201915b5050505050815260200160028201805461115e90612057565b80601f016020809104026020016040519081016040528092919081815260200182805461118a90612057565b80156111d75780601f106111ac576101008083540402835291602001916111d7565b820191906000526020600020905b8154815290600101906020018083116111ba57829003601f168201915b505050505081526020016003820180546111f090612057565b80601f016020809104026020016040519081016040528092919081815260200182805461121c90612057565b80156112695780601f1061123e57610100808354040283529160200191611269565b820191906000526020600020905b81548152906001019060200180831161124c57829003601f168201915b5050505050815260200160048201805461128290612057565b80601f01602080910402602001604051908101604052809291908181526020018280546112ae90612057565b80156112fb5780601f106112d0576101008083540402835291602001916112fb565b820191906000526020600020905b8154815290600101906020018083116112de57829003601f168201915b5050505050815260200160058201805461131490612057565b80601f016020809104026020016040519081016040528092919081815260200182805461134090612057565b801561138d5780601f106113625761010080835404028352916020019161138d565b820191906000526020600020905b81548152906001019060200180831161137057829003601f168201915b505050505081526020016006820180546113a690612057565b80601f01602080910402602001604051908101604052809291908181526020018280546113d290612057565b801561141f5780601f106113f45761010080835404028352916020019161141f565b820191906000526020600020905b81548152906001019060200180831161140257829003601f168201915b5050505050815260200160078201805461143890612057565b80601f016020809104026020016040519081016040528092919081815260200182805461146490612057565b80156114b15780601f10611486576101008083540402835291602001916114b1565b820191906000526020600020905b81548152906001019060200180831161149457829003601f168201915b505050505081526020016008820180546114ca90612057565b80601f01602080910402602001604051908101604052809291908181526020018280546114f690612057565b80156115435780601f1061151857610100808354040283529160200191611543565b820191906000526020600020905b81548152906001019060200180831161152657829003601f168201915b5050505050815260200160098201805461155c90612057565b80601f016020809104026020016040519081016040528092919081815260200182805461158890612057565b80156115d55780601f106115aa576101008083540402835291602001916115d5565b820191906000526020600020905b8154815290600101906020018083116115b857829003601f168201915b50505050508152602001600a820180546115ee90612057565b80601f016020809104026020016040519081016040528092919081815260200182805461161a90612057565b80156116675780601f1061163c57610100808354040283529160200191611667565b820191906000526020600020905b81548152906001019060200180831161164a57829003601f168201915b50505050508152602001600b82015481525050925050506102c9565b8061168d81612092565b915050610fbe565b509392505050565b60006040518061018001604052806001600060016000546116be9190612040565b81526020810191909152604001600020546116da906001612028565b81526020018d81526020018c81526020018b81526020018a8152602001898152602001888152602001878152602001868152602001858152602001848152602001838152506001600080548152602001908152602001600020600082015181600001556020820151816001019080519060200190611759929190611921565b5060408201518051611775916002840191602090910190611921565b5060608201518051611791916003840191602090910190611921565b50608082015180516117ad916004840191602090910190611921565b5060a082015180516117c9916005840191602090910190611921565b5060c082015180516117e5916006840191602090910190611921565b5060e08201518051611801916007840191602090910190611921565b50610100820151805161181e916008840191602090910190611921565b50610120820151805161183b916009840191602090910190611921565b50610140820151805161185891600a840191602090910190611921565b506101609190910151600b9091015560008054908061187683612092565b91905055507f7fa2200db6d5ae99b26bc877cbae73fdb888db23bd9bd4b4d1ea273013186bb78c60016000546118ac9190612040565b6040516118ba929190611dcf565b60405180910390a16001600060016000546118d59190612040565b81526020810191909152604001600020549c9b505050505050505050505050565b60008151835114611909575060006102c9565b818051906020012083805190602001201490506102c9565b82805461192d90612057565b90600052602060002090601f01602090048101928261194f5760008555611995565b82601f1061196857805160ff1916838001178555611995565b82800160010185558215611995579182015b8281111561199557825182559160200191906001019061197a565b506119a1929150611a06565b5090565b6040518061018001604052806000815260200160608152602001606081526020016060815260200160608152602001606081526020016060815260200160608152602001606081526020016060815260200160608152602001600081525090565b5b808211156119a15760008155600101611a07565b600082601f830112611a2b578081fd5b813567ffffffffffffffff80821115611a4657611a466120c3565b604051601f8301601f19908116603f01168101908282118183101715611a6e57611a6e6120c3565b81604052838152866020858801011115611a86578485fd5b8360208701602083013792830160200193909352509392505050565b60008060408385031215611ab4578182fd5b823567ffffffffffffffff80821115611acb578384fd5b611ad786838701611a1b565b93506020850135915080821115611aec578283fd5b50611af985828601611a1b565b9150509250929050565b60008060008060008060008060008060006101608c8e031215611b24578687fd5b67ffffffffffffffff808d351115611b3a578788fd5b611b478e8e358f01611a1b565b9b508060208e01351115611b59578788fd5b611b698e60208f01358f01611a1b565b9a508060408e01351115611b7b578788fd5b611b8b8e60408f01358f01611a1b565b99508060608e01351115611b9d578788fd5b611bad8e60608f01358f01611a1b565b98508060808e01351115611bbf578788fd5b611bcf8e60808f01358f01611a1b565b97508060a08e01351115611be1578687fd5b611bf18e60a08f01358f01611a1b565b96508060c08e01351115611c03578586fd5b611c138e60c08f01358f01611a1b565b95508060e08e01351115611c25578485fd5b611c358e60e08f01358f01611a1b565b9450806101008e01351115611c48578384fd5b611c598e6101008f01358f01611a1b565b9350806101208e01351115611c6c578283fd5b50611c7e8d6101208e01358e01611a1b565b91506101408c013590509295989b509295989b9093969950565b600060208284031215611ca9578081fd5b5035919050565b60008060008060008060c08789031215611cc8578182fd5b86359550602087013567ffffffffffffffff80821115611ce6578384fd5b611cf28a838b01611a1b565b96506040890135915080821115611d07578384fd5b611d138a838b01611a1b565b95506060890135915080821115611d28578384fd5b611d348a838b01611a1b565b94506080890135915080821115611d49578384fd5b611d558a838b01611a1b565b935060a0890135915080821115611d6a578283fd5b50611d7789828a01611a1b565b9150509295509295509295565b60008151808452815b81811015611da957602081850181015186830182015201611d8d565b81811115611dba5782602083870101525b50601f01601f19169290920160200192915050565b604081526000611de26040830185611d84565b90508260208301529392505050565b602081528151602082015260006020830151610180806040850152611e1a6101a0850183611d84565b91506040850151601f1980868503016060870152611e388483611d84565b93506060870151915080868503016080870152611e558483611d84565b935060808701519150808685030160a0870152611e728483611d84565b935060a08701519150808685030160c0870152611e8f8483611d84565b935060c08701519150808685030160e0870152611eac8483611d84565b935060e08701519150610100818786030181880152611ecb8584611d84565b945080880151925050610120818786030181880152611eea8584611d84565b945080880151925050610140818786030181880152611f098584611d84565b945080880151925050610160818786030181880152611f288584611d84565b970151959092019490945250929392505050565b60006101808e8352806020840152611f568184018f611d84565b90508281036040840152611f6a818e611d84565b90508281036060840152611f7e818d611d84565b90508281036080840152611f92818c611d84565b905082810360a0840152611fa6818b611d84565b905082810360c0840152611fba818a611d84565b905082810360e0840152611fce8189611d84565b9050828103610100840152611fe38188611d84565b9050828103610120840152611ff88187611d84565b905082810361014084015261200d8186611d84565b915050826101608301529d9c50505050505050505050505050565b6000821982111561203b5761203b6120ad565b500190565b600082821015612052576120526120ad565b500390565b600181811c9082168061206b57607f821691505b6020821081141561208c57634e487b7160e01b600052602260045260246000fd5b50919050565b60006000198214156120a6576120a66120ad565b5060010190565b634e487b7160e01b600052601160045260246000fd5b634e487b7160e01b600052604160045260246000fdfea2646970667358221220cb30f3dad823f8c7e67be462ce7c3f3bf86a1ad7fe67cbadb68cdf206394c18764736f6c63430008040033506f6c6a6f707269767265646e696b20736120323020676f64696e612069736b75737476612e61303136326562303161363738346665646636666532333137666463356437383762336138393830613630366266653961343839376361343930626262626231333730643131306134636137396133613935353263303637326436613234373865636639643732613239643537613938353734313863666362633436373231326339626463353265383734376531346434306565383430623535393761386133633537353536363265313739643634303636326461363663626435376336303839613839643036323931613339623435623465386436623166343366336435323766396636663138306230343663653263323061613033643431626464306434326263383239393033333530663639366539613530363361343336303164633666643764656533656533386337633637646262663036643868747470733a2f2f697066732e696f2f697066732f516d5943796b47755a4d4d6248636a7a4a59594a454d59575272487235673967666b5571546b686b614334676e6d",
    "sourcePath": "c:/Users/97ste/Desktop/Catalyst/src/frontend_mobile/contracts/Users.sol",
    "compiler": {
        "name": "solc",
        "version": "0.8.4+commit.c7e474f2"
    },
    "functionHashes": {
        "checkForUser(string,string)": "2c4141c2",
        "createUser(string,string,string,string,string,string,string,string,string,string,uint256)": "88dce9e7",
        "editUser(uint256,string,string,string,string,string)": "46e6f94a",
        "getUser(string,string)": "83e6858f",
        "getUserById(uint256)": "6ed6da9e",
        "users(uint256)": "365b98b2",
        "usersCount()": "6ba13a82"
    },
    "gasEstimates": {
        "creation": {
            "codeDepositCost": "1692600",
            "executionCost": "infinite",
            "totalCost": "infinite"
        },
        "external": {
            "checkForUser(string,string)": "infinite",
            "createUser(string,string,string,string,string,string,string,string,string,string,uint256)": "infinite",
            "editUser(uint256,string,string,string,string,string)": "infinite",
            "getUser(string,string)": "infinite",
            "getUserById(uint256)": "infinite",
            "users(uint256)": "infinite",
            "usersCount()": "984"
        },
        "internal": {
            "hashCompareWithLengthCheck(string memory,string memory)": "infinite"
        }
    }
}