{
  "contractName": "Categories",
  "abi": [
    {
      "inputs": [],
      "payable": false,
      "stateMutability": "nonpayable",
      "type": "constructor"
    },
    {
      "constant": true,
      "inputs": [
        {
          "internalType": "uint256",
          "name": "",
          "type": "uint256"
        }
      ],
      "name": "categories",
      "outputs": [
        {
          "internalType": "uint256",
          "name": "id",
          "type": "uint256"
        },
        {
          "internalType": "string",
          "name": "name",
          "type": "string"
        },
        {
          "internalType": "string",
          "name": "assetUrl",
          "type": "string"
        }
      ],
      "payable": false,
      "stateMutability": "view",
      "type": "function"
    },
    {
      "constant": true,
      "inputs": [],
      "name": "categoriesCount",
      "outputs": [
        {
          "internalType": "uint256",
          "name": "",
          "type": "uint256"
        }
      ],
      "payable": false,
      "stateMutability": "view",
      "type": "function"
    }
  ],
  "bytecode": "0x608060405234801561001057600080fd5b506040518060600160405280600081526020016040518060400160405280600681526020017f50656369766100000000000000000000000000000000000000000000000000008152508152602001604051806080016040528060438152602001610c4a60439139815250600160008081526020019081526020016000206000820151816000015560208201518160010190805190602001906100b39291906107c5565b5060408201518160020190805190602001906100d09291906107c5565b509050506040518060600160405280600181526020016040518060400160405280600b81526020017f5375686f6d65736e61746f0000000000000000000000000000000000000000008152508152602001604051806080016040528060438152602001610cd06043913981525060016000600181526020019081526020016000206000820151816000015560208201518160010190805190602001906101779291906107c5565b5060408201518160020190805190602001906101949291906107c5565b509050506040518060600160405280600281526020016040518060400160405280601181526020017f4d6c65c48d6e692070726f697a766f64690000000000000000000000000000008152508152602001604051806080016040528060438152602001610d5660439139815250600160006002815260200190815260200160002060008201518160000155602082015181600101908051906020019061023b9291906107c5565b5060408201518160020190805190602001906102589291906107c5565b509050506040518060600160405280600381526020016040518060400160405280600f81526020017f566fc48765206920706f7672c4876500000000000000000000000000000000008152508152602001604051806080016040528060438152602001610bc46043913981525060016000600381526020019081526020016000206000820151816000015560208201518160010190805190602001906102ff9291906107c5565b50604082015181600201908051906020019061031c9291906107c5565b509050506040518060600160405280600481526020016040518060400160405280601281526020017f42657a616c6b6f686f6c6e61207069c4876100000000000000000000000000008152508152602001604051806080016040528060438152602001610b816043913981525060016000600481526020019081526020016000206000820151816000015560208201518160010190805190602001906103c39291906107c5565b5060408201518160020190805190602001906103e09291906107c5565b509050506040518060600160405280600581526020016040518060400160405280600781526020017f416c6b6f686f6c000000000000000000000000000000000000000000000000008152508152602001604051806080016040528060438152602001610c8d6043913981525060016000600581526020019081526020016000206000820151816000015560208201518160010190805190602001906104879291906107c5565b5060408201518160020190805190602001906104a49291906107c5565b509050506040518060600160405280600681526020016040518060400160405280600581526020017fc5bd6974610000000000000000000000000000000000000000000000000000008152508152602001604051806080016040528060438152602001610ddc60439139815250600160006006815260200190815260200160002060008201518160000155602082015181600101908051906020019061054b9291906107c5565b5060408201518160020190805190602001906105689291906107c5565b509050506040518060600160405280600781526020016040518060400160405280600781526020017fc5bd6976696e61000000000000000000000000000000000000000000000000008152508152602001604051806080016040528060438152602001610c0760439139815250600160006007815260200190815260200160002060008201518160000155602082015181600101908051906020019061060f9291906107c5565b50604082015181600201908051906020019061062c9291906107c5565b509050506040518060600160405280600881526020016040518060400160405280600781526020017f5a696d6e696365000000000000000000000000000000000000000000000000008152508152602001604051806080016040528060438152602001610d136043913981525060016000600881526020019081526020016000206000820151816000015560208201518160010190805190602001906106d39291906107c5565b5060408201518160020190805190602001906106f09291906107c5565b509050506040518060600160405280600981526020016040518060400160405280601081526020017f4f7374616c692070726f697a766f6469000000000000000000000000000000008152508152602001604051806080016040528060438152602001610d996043913981525060016000600981526020019081526020016000206000820151816000015560208201518160010190805190602001906107979291906107c5565b5060408201518160020190805190602001906107b49291906107c5565b50905050600a60008190555061086a565b828054600181600116156101000203166002900490600052602060002090601f016020900481019282601f1061080657805160ff1916838001178555610834565b82800160010185558215610834579182015b82811115610833578251825591602001919060010190610818565b5b5090506108419190610845565b5090565b61086791905b8082111561086357600081600090555060010161084b565b5090565b90565b610308806108796000396000f3fe608060405234801561001057600080fd5b50600436106100365760003560e01c8063b7ccc4661461003b578063c6cdbe5e14610059575b600080fd5b610043610173565b6040518082815260200191505060405180910390f35b6100856004803603602081101561006f57600080fd5b8101908080359060200190929190505050610179565b604051808481526020018060200180602001838103835285818151815260200191508051906020019080838360005b838110156100cf5780820151818401526020810190506100b4565b50505050905090810190601f1680156100fc5780820380516001836020036101000a031916815260200191505b50838103825284818151815260200191508051906020019080838360005b8381101561013557808201518184015260208101905061011a565b50505050905090810190601f1680156101625780820380516001836020036101000a031916815260200191505b509550505050505060405180910390f35b60005481565b6001602052806000526040600020600091509050806000015490806001018054600181600116156101000203166002900480601f01602080910402602001604051908101604052809291908181526020018280546001816001161561010002031660029004801561022b5780601f106102005761010080835404028352916020019161022b565b820191906000526020600020905b81548152906001019060200180831161020e57829003601f168201915b505050505090806002018054600181600116156101000203166002900480601f0160208091040260200160405190810160405280929190818152602001828054600181600116156101000203166002900480156102c95780601f1061029e576101008083540402835291602001916102c9565b820191906000526020600020905b8154815290600101906020018083116102ac57829003601f168201915b505050505090508356fea265627a7a72315820654e41c33946189964ff945ff6a35b2a0ba0a0d85c1648c6a051a31eeace458b64736f6c6343000510003268747470733a2f2f697066732e696f2f697066732f516d576332423632376f7077777141674a3941443653556e7756763163486b4a78557869556a69364e4c4836597468747470733a2f2f697066732e696f2f697066732f516d55773333347a5856546165427355424342376a75597a4346744c76444a6f3875484c694b58523747784b436968747470733a2f2f697066732e696f2f697066732f516d65346b5a734e3459574b3642626957486f4c354d333952693361544d774c6248504e6451544b563456574e3168747470733a2f2f697066732e696f2f697066732f516d6572464d684a37723557534551354462485a583232434a596d5337344b334c56706f654d5441726e594c715568747470733a2f2f697066732e696f2f697066732f516d506e69644b58797165343266427161695750757755574c70577868584a784a53526156646e35324c784d6f7168747470733a2f2f697066732e696f2f697066732f516d5534366870657a435a6b46436e507051574e7531336b39704b553978526d76576b645734736f4e4d584a556e68747470733a2f2f697066732e696f2f697066732f516d6273334531794b35546a594c644d6e3454516246775959716352594b78653134656b45347a33444e6354796368747470733a2f2f697066732e696f2f697066732f516d5565337166697952766b4c6178455344324d7a39384d6f486b3573454773554d414477394a516647555a716e68747470733a2f2f697066732e696f2f697066732f516d5932714c75386e4b45396938515861654e424b5456525157714e4a513638706b3479365a527139364d5a424368747470733a2f2f697066732e696f2f697066732f516d5756683676644a7234626254454570734d5334374b725646774e516a41435234727558776444744d64435355",
  "source": "pragma solidity >=0.4.22 <0.9.0;\r\n\r\ncontract Categories {\r\n    uint public categoriesCount;\r\n\r\n    struct Category{\r\n        uint id;\r\n        string name;\r\n        string assetUrl;\r\n    }\r\n\r\n    mapping (uint => Category) public categories;\r\n\r\n    constructor() public{\r\n\r\n        categories[0] = Category(0, \"Peciva\",'https://ipfs.io/ipfs/QmerFMhJ7r5WSEQ5DbHZX22CJYmS74K3LVpoeMTArnYLqU');\r\n        categories[1] = Category(1, \"Suhomesnato\",'https://ipfs.io/ipfs/QmU46hpezCZkFCnPpQWNu13k9pKU9xRmvWkdW4soNMXJUn');\r\n        categories[2] = Category(2, \"Mlečni proizvodi\",'https://ipfs.io/ipfs/QmUe3qfiyRvkLaxESD2Mz98MoHk5sEGsUMADw9JQfGUZqn');\r\n        categories[3] = Category(3, \"Voće i povrće\",'https://ipfs.io/ipfs/QmUw334zXVTaeBsUBCB7juYzCFtLvDJo8uHLiKXR7GxKCi');\r\n        categories[4] = Category(4, 'Bezalkoholna pića','https://ipfs.io/ipfs/QmWc2B627opwwqAgJ9AD6SUnwVv1cHkJxUxiUji6NLH6Yt');\r\n        categories[5] = Category(5, \"Alkohol\",'https://ipfs.io/ipfs/QmPnidKXyqe42fBqaiWPuwUWLpWxhXJxJSRaVdn52LxMoq');\r\n        categories[6] = Category(6, \"Žita\",'https://ipfs.io/ipfs/QmWVh6vdJr4bbTEEpsMS47KrVFwNQjACR4ruXwdDtMdCSU');\r\n        categories[7] = Category(7, \"Živina\",'https://ipfs.io/ipfs/Qme4kZsN4YWK6BbiWHoL5M39Ri3aTMwLbHPNdQTKV4VWN1');\r\n        categories[8] = Category(8, \"Zimnice\",'https://ipfs.io/ipfs/Qmbs3E1yK5TjYLdMn4TQbFwYYqcRYKxe14ekE4z3DNcTyc');\r\n        categories[9] = Category(9, \"Ostali proizvodi\",'https://ipfs.io/ipfs/QmY2qLu8nKE9i8QXaeNBKTVRQWqNJQ68pk4y6ZRq96MZBC');\r\n        categoriesCount = 10;\r\n    }\r\n}\r\n",
  "sourcePath": "C:/Users/97ste/Desktop/Catalyst/src/frontend_mobile/contracts/Categories.sol",
  "compiler": {
    "name": "solc",
    "version": "0.5.16+commit.9c3226ce.Emscripten.clang"
  },
  "schemaVersion": "3.3.4",
  "updatedAt": "2021-05-10T22:10:33.693Z",
  "networkType": "ethereum",
  "devdoc": {
    "methods": {}
  },
  "userdoc": {
    "methods": {}
  }
}