{
  "contractName": "Categories",
  "abi": [
    {
      "inputs": [],
      "payable": false,
      "stateMutability": "nonpayable",
      "type": "constructor"
    },
    {
      "constant": true,
      "inputs": [
        {
          "internalType": "uint256",
          "name": "",
          "type": "uint256"
        }
      ],
      "name": "categories",
      "outputs": [
        {
          "internalType": "uint256",
          "name": "id",
          "type": "uint256"
        },
        {
          "internalType": "string",
          "name": "name",
          "type": "string"
        },
        {
          "internalType": "string",
          "name": "assetUrl",
          "type": "string"
        }
      ],
      "payable": false,
      "stateMutability": "view",
      "type": "function"
    },
    {
      "constant": true,
      "inputs": [],
      "name": "categoriesCount",
      "outputs": [
        {
          "internalType": "uint256",
          "name": "",
          "type": "uint256"
        }
      ],
      "payable": false,
      "stateMutability": "view",
      "type": "function"
    }
  ],
  "bytecode": "0x608060405234801561001057600080fd5b506040518060600160405280600081526020016040518060400160405280600681526020017f50656369766100000000000000000000000000000000000000000000000000008152508152602001604051806060016040528060398152602001610bf660399139815250600160008081526020019081526020016000206000820151816000015560208201518160010190805190602001906100b39291906107c5565b5060408201518160020190805190602001906100d09291906107c5565b509050506040518060600160405280600181526020016040518060400160405280600b81526020017f5375686f6d65736e61746f00000000000000000000000000000000000000000081525081526020016040518060600160405280603b8152602001610cae603b913981525060016000600181526020019081526020016000206000820151816000015560208201518160010190805190602001906101779291906107c5565b5060408201518160020190805190602001906101949291906107c5565b509050506040518060600160405280600281526020016040518060400160405280601181526020017f4d6c65c48d6e692070726f697a766f64690000000000000000000000000000008152508152602001604051806060016040528060378152602001610b8160379139815250600160006002815260200190815260200160002060008201518160000155602082015181600101908051906020019061023b9291906107c5565b5060408201518160020190805190602001906102589291906107c5565b509050506040518060600160405280600381526020016040518060400160405280600f81526020017f566fc48765206920706f7672c48765000000000000000000000000000000000081525081526020016040518060600160405280603e8152602001610d22603e913981525060016000600381526020019081526020016000206000820151816000015560208201518160010190805190602001906102ff9291906107c5565b50604082015181600201908051906020019061031c9291906107c5565b509050506040518060600160405280600481526020016040518060400160405280601281526020017f42657a616c6b6f686f6c6e61207069c4876100000000000000000000000000008152508152602001604051806060016040528060378152602001610d9c6037913981525060016000600481526020019081526020016000206000820151816000015560208201518160010190805190602001906103c39291906107c5565b5060408201518160020190805190602001906103e09291906107c5565b509050506040518060600160405280600581526020016040518060400160405280600781526020017f416c6b6f686f6c0000000000000000000000000000000000000000000000000081525081526020016040518060600160405280603c8152602001610d60603c913981525060016000600581526020019081526020016000206000820151816000015560208201518160010190805190602001906104879291906107c5565b5060408201518160020190805190602001906104a49291906107c5565b509050506040518060600160405280600681526020016040518060400160405280600581526020017fc5bd6974610000000000000000000000000000000000000000000000000000008152508152602001604051806080016040528060418152602001610c6d60419139815250600160006006815260200190815260200160002060008201518160000155602082015181600101908051906020019061054b9291906107c5565b5060408201518160020190805190602001906105689291906107c5565b509050506040518060600160405280600781526020016040518060400160405280600781526020017fc5bd6976696e61000000000000000000000000000000000000000000000000008152508152602001604051806060016040528060398152602001610ce960399139815250600160006007815260200190815260200160002060008201518160000155602082015181600101908051906020019061060f9291906107c5565b50604082015181600201908051906020019061062c9291906107c5565b509050506040518060600160405280600881526020016040518060400160405280600781526020017f5a696d6e6963650000000000000000000000000000000000000000000000000081525081526020016040518060600160405280603e8152602001610c2f603e913981525060016000600881526020019081526020016000206000820151816000015560208201518160010190805190602001906106d39291906107c5565b5060408201518160020190805190602001906106f09291906107c5565b509050506040518060600160405280600981526020016040518060400160405280601081526020017f4f7374616c692070726f697a766f64690000000000000000000000000000000081525081526020016040518060600160405280603e8152602001610bb8603e913981525060016000600981526020019081526020016000206000820151816000015560208201518160010190805190602001906107979291906107c5565b5060408201518160020190805190602001906107b49291906107c5565b50905050600a60008190555061086a565b828054600181600116156101000203166002900490600052602060002090601f016020900481019282601f1061080657805160ff1916838001178555610834565b82800160010185558215610834579182015b82811115610833578251825591602001919060010190610818565b5b5090506108419190610845565b5090565b61086791905b8082111561086357600081600090555060010161084b565b5090565b90565b610308806108796000396000f3fe608060405234801561001057600080fd5b50600436106100365760003560e01c8063b7ccc4661461003b578063c6cdbe5e14610059575b600080fd5b610043610173565b6040518082815260200191505060405180910390f35b6100856004803603602081101561006f57600080fd5b8101908080359060200190929190505050610179565b604051808481526020018060200180602001838103835285818151815260200191508051906020019080838360005b838110156100cf5780820151818401526020810190506100b4565b50505050905090810190601f1680156100fc5780820380516001836020036101000a031916815260200191505b50838103825284818151815260200191508051906020019080838360005b8381101561013557808201518184015260208101905061011a565b50505050905090810190601f1680156101625780820380516001836020036101000a031916815260200191505b509550505050505060405180910390f35b60005481565b6001602052806000526040600020600091509050806000015490806001018054600181600116156101000203166002900480601f01602080910402602001604051908101604052809291908181526020018280546001816001161561010002031660029004801561022b5780601f106102005761010080835404028352916020019161022b565b820191906000526020600020905b81548152906001019060200180831161020e57829003601f168201915b505050505090806002018054600181600116156101000203166002900480601f0160208091040260200160405190810160405280929190818152602001828054600181600116156101000203166002900480156102c95780601f1061029e576101008083540402835291602001916102c9565b820191906000526020600020905b8154815290600101906020018083116102ac57829003601f168201915b505050505090508356fea265627a7a723158208a2aeae6c3c2f82ad1f1877481679bec3f29e94b7347a002203a2ff9dc86914e64736f6c634300051000326173736574732f70726f647563745f63617465676f726965732f64616972795f62656e6a616d696e5f686f726e5f63635f62792e6a70676173736574732f70726f647563745f63617465676f726965732f616e696d616c5f70726f647563655f6a6f686e5f6d6f7267616e5f63635f62792e6a70676173736574732f70726f647563745f63617465676f726965732f62616b65645f676f6f64735f62656e6564696b74765f63635f62792e6a70676173736574732f70726f647563745f63617465676f726965732f7072657365727665645f666f6f645f64656e6e69735f79616e675f63635f62792e6a70676173736574732f70726f647563745f63617465676f726965732f677261696e735f63687269737469616e5f7363686e657474656c6b65725f63635f62792e6a70676173736574732f70726f647563745f63617465676f726965732f63757265645f6d656174735f6d6172636f5f76657263685f63635f62792e6a70676173736574732f70726f647563745f63617465676f726965732f6c69766573746f636b5f6d6172636f5f76657263685f63635f62792e6a70676173736574732f70726f647563745f63617465676f726965732f6672756974735f616e645f7665675f6d6172636f5f76657263685f63635f62792e6a70676173736574732f70726f647563745f63617465676f726965732f616c636f686f6c5f7368756e696368695f6b6f75726f6b695f63635f62792e6a70676173736574732f70726f647563745f63617465676f726965732f6a756963655f636169746c696e5f726567616e5f63635f62792e6a7067",
  "source": "pragma solidity >=0.4.22 <0.9.0;\r\n\r\ncontract Categories {\r\n    uint public categoriesCount;\r\n\r\n    struct Category{\r\n        uint id;\r\n        string name;\r\n        string assetUrl;\r\n    }\r\n\r\n    mapping (uint => Category) public categories;\r\n\r\n    constructor() public{\r\n\r\n        categories[0] = Category(0, \"Peciva\",'assets/product_categories/baked_goods_benediktv_cc_by.jpg');\r\n        categories[1] = Category(1, \"Suhomesnato\",'assets/product_categories/cured_meats_marco_verch_cc_by.jpg');\r\n        categories[2] = Category(2, \"Mlečni proizvodi\",'assets/product_categories/dairy_benjamin_horn_cc_by.jpg');\r\n        categories[3] = Category(3, \"Voće i povrće\",'assets/product_categories/fruits_and_veg_marco_verch_cc_by.jpg');\r\n        categories[4] = Category(4, 'Bezalkoholna pića','assets/product_categories/juice_caitlin_regan_cc_by.jpg');\r\n        categories[5] = Category(5, \"Alkohol\",'assets/product_categories/alcohol_shunichi_kouroki_cc_by.jpg');\r\n        categories[6] = Category(6, \"Žita\",'assets/product_categories/grains_christian_schnettelker_cc_by.jpg');\r\n        categories[7] = Category(7, \"Živina\",'assets/product_categories/livestock_marco_verch_cc_by.jpg');\r\n        categories[8] = Category(8, \"Zimnice\",'assets/product_categories/preserved_food_dennis_yang_cc_by.jpg');\r\n        categories[9] = Category(9, \"Ostali proizvodi\",'assets/product_categories/animal_produce_john_morgan_cc_by.jpg');\r\n        categoriesCount = 10;\r\n    }\r\n}\r\n",
  "sourcePath": "F:/SI/Catalyst/src/frontend_mobile/contracts/Categories.sol",
  "compiler": {
    "name": "solc",
    "version": "0.5.16+commit.9c3226ce.Emscripten.clang"
  },
  "schemaVersion": "3.3.4",
  "updatedAt": "2021-04-28T10:21:57.003Z",
  "networkType": "ethereum",
  "devdoc": {
    "methods": {}
  },
  "userdoc": {
    "methods": {}
  }
}