{
  "contractName": "Orders",
  "abi": [
    {
      "inputs": [],
      "payable": false,
      "stateMutability": "nonpayable",
      "type": "constructor"
    },
    {
      "anonymous": false,
      "inputs": [
        {
          "indexed": false,
          "internalType": "uint256",
          "name": "id",
          "type": "uint256"
        },
        {
          "indexed": false,
          "internalType": "uint256",
          "name": "OrderNumber",
          "type": "uint256"
        }
      ],
      "name": "OrderCreated",
      "type": "event"
    },
    {
      "constant": true,
      "inputs": [
        {
          "internalType": "uint256",
          "name": "",
          "type": "uint256"
        }
      ],
      "name": "orders",
      "outputs": [
        {
          "internalType": "uint256",
          "name": "id",
          "type": "uint256"
        },
        {
          "internalType": "uint256",
          "name": "productId",
          "type": "uint256"
        },
        {
          "internalType": "uint256",
          "name": "amount",
          "type": "uint256"
        },
        {
          "internalType": "string",
          "name": "date",
          "type": "string"
        },
        {
          "internalType": "uint256",
          "name": "status",
          "type": "uint256"
        },
        {
          "internalType": "uint256",
          "name": "buyerId",
          "type": "uint256"
        },
        {
          "internalType": "uint256",
          "name": "sellerId",
          "type": "uint256"
        },
        {
          "internalType": "string",
          "name": "deliveryAddress",
          "type": "string"
        },
        {
          "internalType": "uint256",
          "name": "paymentType",
          "type": "uint256"
        },
        {
          "internalType": "uint256",
          "name": "price_numerator",
          "type": "uint256"
        },
        {
          "internalType": "uint256",
          "name": "price_denominator",
          "type": "uint256"
        },
        {
          "internalType": "string",
          "name": "delivery_date",
          "type": "string"
        }
      ],
      "payable": false,
      "stateMutability": "view",
      "type": "function"
    },
    {
      "constant": true,
      "inputs": [],
      "name": "ordersCount",
      "outputs": [
        {
          "internalType": "uint256",
          "name": "",
          "type": "uint256"
        }
      ],
      "payable": false,
      "stateMutability": "view",
      "type": "function"
    },
    {
      "constant": false,
      "inputs": [
        {
          "internalType": "uint256",
          "name": "_productId",
          "type": "uint256"
        },
        {
          "internalType": "uint256",
          "name": "_amount",
          "type": "uint256"
        },
        {
          "internalType": "string",
          "name": "_date",
          "type": "string"
        },
        {
          "internalType": "uint256",
          "name": "_buyerId",
          "type": "uint256"
        },
        {
          "internalType": "uint256",
          "name": "_sellerId",
          "type": "uint256"
        },
        {
          "internalType": "string",
          "name": "_deliveryAddress",
          "type": "string"
        },
        {
          "internalType": "uint256",
          "name": "_paymentType",
          "type": "uint256"
        },
        {
          "internalType": "uint256",
          "name": "_price_numerator",
          "type": "uint256"
        },
        {
          "internalType": "uint256",
          "name": "_price_denominator",
          "type": "uint256"
        },
        {
          "internalType": "string",
          "name": "_delivery_date",
          "type": "string"
        }
      ],
      "name": "createOrder",
      "outputs": [],
      "payable": false,
      "stateMutability": "nonpayable",
      "type": "function"
    },
    {
      "constant": false,
      "inputs": [
        {
          "internalType": "uint256",
          "name": "_buyerId",
          "type": "uint256"
        },
        {
          "internalType": "uint256",
          "name": "totalOrders",
          "type": "uint256"
        }
      ],
      "name": "getOrders",
      "outputs": [
        {
          "components": [
            {
              "internalType": "uint256",
              "name": "id",
              "type": "uint256"
            },
            {
              "internalType": "uint256",
              "name": "productId",
              "type": "uint256"
            },
            {
              "internalType": "uint256",
              "name": "amount",
              "type": "uint256"
            },
            {
              "internalType": "string",
              "name": "date",
              "type": "string"
            },
            {
              "internalType": "uint256",
              "name": "status",
              "type": "uint256"
            },
            {
              "internalType": "uint256",
              "name": "buyerId",
              "type": "uint256"
            },
            {
              "internalType": "uint256",
              "name": "sellerId",
              "type": "uint256"
            },
            {
              "internalType": "string",
              "name": "deliveryAddress",
              "type": "string"
            },
            {
              "internalType": "uint256",
              "name": "paymentType",
              "type": "uint256"
            },
            {
              "internalType": "uint256",
              "name": "price_numerator",
              "type": "uint256"
            },
            {
              "internalType": "uint256",
              "name": "price_denominator",
              "type": "uint256"
            },
            {
              "internalType": "string",
              "name": "delivery_date",
              "type": "string"
            }
          ],
          "internalType": "struct Orders.Order[]",
          "name": "",
          "type": "tuple[]"
        }
      ],
      "payable": false,
      "stateMutability": "nonpayable",
      "type": "function"
    },
    {
      "constant": false,
      "inputs": [
        {
          "internalType": "uint256",
          "name": "buyerId",
          "type": "uint256"
        }
      ],
      "name": "getOrdersCount",
      "outputs": [
        {
          "internalType": "uint256",
          "name": "count",
          "type": "uint256"
        }
      ],
      "payable": false,
      "stateMutability": "nonpayable",
      "type": "function"
    },
    {
      "constant": false,
      "inputs": [
        {
          "internalType": "uint256",
          "name": "buyerId",
          "type": "uint256"
        },
        {
          "internalType": "uint256",
          "name": "productId",
          "type": "uint256"
        }
      ],
      "name": "checkForOrder",
      "outputs": [
        {
          "internalType": "bool",
          "name": "b",
          "type": "bool"
        }
      ],
      "payable": false,
      "stateMutability": "nonpayable",
      "type": "function"
    },
    {
      "constant": false,
      "inputs": [
        {
          "internalType": "uint256",
          "name": "_sellerId",
          "type": "uint256"
        },
        {
          "internalType": "uint256",
          "name": "totalOrders",
          "type": "uint256"
        }
      ],
      "name": "getDeliveryOrders",
      "outputs": [
        {
          "components": [
            {
              "internalType": "uint256",
              "name": "id",
              "type": "uint256"
            },
            {
              "internalType": "uint256",
              "name": "productId",
              "type": "uint256"
            },
            {
              "internalType": "uint256",
              "name": "amount",
              "type": "uint256"
            },
            {
              "internalType": "string",
              "name": "date",
              "type": "string"
            },
            {
              "internalType": "uint256",
              "name": "status",
              "type": "uint256"
            },
            {
              "internalType": "uint256",
              "name": "buyerId",
              "type": "uint256"
            },
            {
              "internalType": "uint256",
              "name": "sellerId",
              "type": "uint256"
            },
            {
              "internalType": "string",
              "name": "deliveryAddress",
              "type": "string"
            },
            {
              "internalType": "uint256",
              "name": "paymentType",
              "type": "uint256"
            },
            {
              "internalType": "uint256",
              "name": "price_numerator",
              "type": "uint256"
            },
            {
              "internalType": "uint256",
              "name": "price_denominator",
              "type": "uint256"
            },
            {
              "internalType": "string",
              "name": "delivery_date",
              "type": "string"
            }
          ],
          "internalType": "struct Orders.Order[]",
          "name": "",
          "type": "tuple[]"
        }
      ],
      "payable": false,
      "stateMutability": "nonpayable",
      "type": "function"
    },
    {
      "constant": false,
      "inputs": [
        {
          "internalType": "uint256",
          "name": "_sellerId",
          "type": "uint256"
        }
      ],
      "name": "getDeliveryOrdersCount",
      "outputs": [
        {
          "internalType": "uint256",
          "name": "count",
          "type": "uint256"
        }
      ],
      "payable": false,
      "stateMutability": "nonpayable",
      "type": "function"
    },
    {
      "constant": false,
      "inputs": [
        {
          "internalType": "uint256",
          "name": "_orderId",
          "type": "uint256"
        },
        {
          "internalType": "uint256",
          "name": "_status",
          "type": "uint256"
        }
      ],
      "name": "setStatus",
      "outputs": [],
      "payable": false,
      "stateMutability": "nonpayable",
      "type": "function"
    }
  ],
  "bytecode": "0x6080604052600080553480156200001557600080fd5b506040518061018001604052806000815260200160008152602001600181526020016040518060400160405280600a81526020017f323032312d30322d30310000000000000000000000000000000000000000000081525081526020016000815260200160348152602001603581526020016040518060400160405280602081526020017f4b72616c6a612050657472612c204b726167756a657661632c20537262696a61815250815260200160008152602001602b8152602001600381526020016040518060400160405280600581526020017f4f444d41480000000000000000000000000000000000000000000000000000008152508152506001600080815260200190815260200160002060008201518160000155602082015181600101556040820151816002015560608201518160030190805190602001906200015f92919062000aeb565b506080820151816004015560a0820151816005015560c0820151816006015560e08201518160070190805190602001906200019c92919062000aeb565b506101008201518160080155610120820151816009015561014082015181600a015561016082015181600b019080519060200190620001dd92919062000aeb565b509050506040518061018001604052806001815260200160018152602001600281526020016040518060400160405280600a81526020017f323032312d30332d30310000000000000000000000000000000000000000000081525081526020016000815260200160348152602001603581526020016040518060400160405280602081526020017f4b72616c6a612050657472612c204b726167756a657661632c20537262696a61815250815260200160008152602001602b8152602001600381526020016040518060400160405280600581526020017f4f444d4148000000000000000000000000000000000000000000000000000000815250815250600160006001815260200190815260200160002060008201518160000155602082015181600101556040820151816002015560608201518160030190805190602001906200032b92919062000aeb565b506080820151816004015560a0820151816005015560c0820151816006015560e08201518160070190805190602001906200036892919062000aeb565b506101008201518160080155610120820151816009015561014082015181600a015561016082015181600b019080519060200190620003a992919062000aeb565b509050506040518061018001604052806002815260200160028152602001600181526020016040518060400160405280600a81526020017f323032312d30332d30310000000000000000000000000000000000000000000081525081526020016000815260200160348152602001603581526020016040518060400160405280602081526020017f4b72616c6a612050657472612c204b726167756a657661632c20537262696a61815250815260200160008152602001602b8152602001600381526020016040518060400160405280600581526020017f4f444d414800000000000000000000000000000000000000000000000000000081525081525060016000600281526020019081526020016000206000820151816000015560208201518160010155604082015181600201556060820151816003019080519060200190620004f792919062000aeb565b506080820151816004015560a0820151816005015560c0820151816006015560e08201518160070190805190602001906200053492919062000aeb565b506101008201518160080155610120820151816009015561014082015181600a015561016082015181600b0190805190602001906200057592919062000aeb565b509050506040518061018001604052806003815260200160038152602001600381526020016040518060400160405280600a81526020017f323032312d30342d30310000000000000000000000000000000000000000000081525081526020016000815260200160348152602001603581526020016040518060400160405280602081526020017f4b72616c6a612050657472612c204b726167756a657661632c20537262696a61815250815260200160008152602001602b8152602001600381526020016040518060400160405280600581526020017f4f444d414800000000000000000000000000000000000000000000000000000081525081525060016000600381526020019081526020016000206000820151816000015560208201518160010155604082015181600201556060820151816003019080519060200190620006c392919062000aeb565b506080820151816004015560a0820151816005015560c0820151816006015560e08201518160070190805190602001906200070092919062000aeb565b506101008201518160080155610120820151816009015561014082015181600a015561016082015181600b0190805190602001906200074192919062000aeb565b509050506040518061018001604052806004815260200160048152602001600181526020016040518060400160405280600a81526020017f323032312d30342d30310000000000000000000000000000000000000000000081525081526020016000815260200160348152602001603581526020016040518060400160405280602081526020017f4b72616c6a612050657472612c204b726167756a657661632c20537262696a61815250815260200160008152602001602b8152602001600381526020016040518060400160405280600581526020017f4f444d4148000000000000000000000000000000000000000000000000000000815250815250600160006004815260200190815260200160002060008201518160000155602082015181600101556040820151816002015560608201518160030190805190602001906200088f92919062000aeb565b506080820151816004015560a0820151816005015560c0820151816006015560e0820151816007019080519060200190620008cc92919062000aeb565b506101008201518160080155610120820151816009015561014082015181600a015561016082015181600b0190805190602001906200090d92919062000aeb565b509050506040518061018001604052806005815260200160058152602001600181526020016040518060400160405280600a81526020017f323032312d30342d30310000000000000000000000000000000000000000000081525081526020016000815260200160348152602001603581526020016040518060400160405280602081526020017f4b72616c6a612050657472612c204b726167756a657661632c20537262696a61815250815260200160008152602001602b8152602001600381526020016040518060400160405280600581526020017f4f444d41480000000000000000000000000000000000000000000000000000008152508152506001600060058152602001908152602001600020600082015181600001556020820151816001015560408201518160020155606082015181600301908051906020019062000a5b92919062000aeb565b506080820151816004015560a0820151816005015560c0820151816006015560e082015181600701908051906020019062000a9892919062000aeb565b506101008201518160080155610120820151816009015561014082015181600a015561016082015181600b01908051906020019062000ad992919062000aeb565b50905050600660008190555062000b9a565b828054600181600116156101000203166002900490600052602060002090601f016020900481019282601f1062000b2e57805160ff191683800117855562000b5f565b8280016001018555821562000b5f579182015b8281111562000b5e57825182559160200191906001019062000b41565b5b50905062000b6e919062000b72565b5090565b62000b9791905b8082111562000b9357600081600090555060010162000b79565b5090565b90565b6116db8062000baa6000396000f3fe608060405234801561001057600080fd5b50600436106100935760003560e01c80635d5ce89c116100665780635d5ce89c1461013257806382e40813146101625780638f72fc771461017e578063a85c38ef146101ae578063ffeceb25146101e957610093565b80630b28c9b31461009857806312208886146100c857806335daa731146100e457806346b23ee114610102575b600080fd5b6100b260048036036100ad9190810190611047565b610219565b6040516100bf9190611446565b60405180910390f35b6100e260048036036100dd91908101906110ac565b61026e565b005b6100ec6103e7565b6040516100f99190611446565b60405180910390f35b61011c60048036036101179190810190611047565b6103ed565b6040516101299190611446565b60405180910390f35b61014c60048036036101479190810190611070565b610442565b6040516101599190611409565b60405180910390f35b61017c60048036036101779190810190611070565b61080f565b005b61019860048036036101939190810190611070565b61086f565b6040516101a59190611409565b60405180910390f35b6101c860048036036101c39190810190611047565b610c3c565b6040516101e09c9b9a9998979695949392919061148a565b60405180910390f35b61020360048036036101fe9190810190611070565b610e64565b604051610210919061142b565b60405180910390f35b6000806000905060008090505b6000548110156102645783600160008381526020019081526020016000206005015414156102575781806001019250505b8080600101915050610226565b5080915050919050565b60405180610180016040528060005481526020018b81526020018a8152602001898152602001600081526020018881526020018781526020018681526020018581526020018481526020018381526020018281525060016000806000815480929190600101919050558152602001908152602001600020600082015181600001556020820151816001015560408201518160020155606082015181600301908051906020019061031f929190610ed8565b506080820151816004015560a0820151816005015560c0820151816006015560e082015181600701908051906020019061035a929190610ed8565b506101008201518160080155610120820151816009015561014082015181600a015561016082015181600b019080519060200190610399929190610ed8565b509050507f7ab7b5bf31475b82f820e7fdfd6387632fc391f3bbd3f28afa54804f30bebd4d8a6001600054036040516103d3929190611461565b60405180910390a150505050505050505050565b60005481565b6000806000905060008090505b60005481101561043857836001600083815260200190815260200160002060060154141561042b5781806001019250505b80806001019150506103fa565b5080915050919050565b6060600080905060608360405190808252806020026020018201604052801561048557816020015b610472610f58565b81526020019060019003908161046a5790505b50905060008090505b6000548110156108035785600160008381526020019081526020016000206006015414156107f657604051806101800160405280600160008481526020019081526020016000206000015481526020016001600084815260200190815260200160002060010154815260200160016000848152602001908152602001600020600201548152602001600160008481526020019081526020016000206003018054600181600116156101000203166002900480601f0160208091040260200160405190810160405280929190818152602001828054600181600116156101000203166002900480156105c05780601f10610595576101008083540402835291602001916105c0565b820191906000526020600020905b8154815290600101906020018083116105a357829003601f168201915b50505050508152602001600160008481526020019081526020016000206004015481526020016001600084815260200190815260200160002060050154815260200160016000848152602001908152602001600020600601548152602001600160008481526020019081526020016000206007018054600181600116156101000203166002900480601f0160208091040260200160405190810160405280929190818152602001828054600181600116156101000203166002900480156106c85780601f1061069d576101008083540402835291602001916106c8565b820191906000526020600020905b8154815290600101906020018083116106ab57829003601f168201915b50505050508152602001600160008481526020019081526020016000206008015481526020016001600084815260200190815260200160002060090154815260200160016000848152602001908152602001600020600a0154815260200160016000848152602001908152602001600020600b018054600181600116156101000203166002900480601f0160208091040260200160405190810160405280929190818152602001828054600181600116156101000203166002900480156107d05780601f106107a5576101008083540402835291602001916107d0565b820191906000526020600020905b8154815290600101906020018083116107b357829003601f168201915b50505050508152508284806001019550815181106107ea57fe5b60200260200101819052505b808060010191505061048e565b50809250505092915050565b60008090505b60005481101561086a57826001600083815260200190815260200160002060000154141561085d5781600160008381526020019081526020016000206004018190555061086a565b8080600101915050610815565b505050565b606060008090506060836040519080825280602002602001820160405280156108b257816020015b61089f610f58565b8152602001906001900390816108975790505b50905060008090505b600054811015610c30578560016000838152602001908152602001600020600501541415610c2357604051806101800160405280600160008481526020019081526020016000206000015481526020016001600084815260200190815260200160002060010154815260200160016000848152602001908152602001600020600201548152602001600160008481526020019081526020016000206003018054600181600116156101000203166002900480601f0160208091040260200160405190810160405280929190818152602001828054600181600116156101000203166002900480156109ed5780601f106109c2576101008083540402835291602001916109ed565b820191906000526020600020905b8154815290600101906020018083116109d057829003601f168201915b50505050508152602001600160008481526020019081526020016000206004015481526020016001600084815260200190815260200160002060050154815260200160016000848152602001908152602001600020600601548152602001600160008481526020019081526020016000206007018054600181600116156101000203166002900480601f016020809104026020016040519081016040528092919081815260200182805460018160011615610100020316600290048015610af55780601f10610aca57610100808354040283529160200191610af5565b820191906000526020600020905b815481529060010190602001808311610ad857829003601f168201915b50505050508152602001600160008481526020019081526020016000206008015481526020016001600084815260200190815260200160002060090154815260200160016000848152602001908152602001600020600a0154815260200160016000848152602001908152602001600020600b018054600181600116156101000203166002900480601f016020809104026020016040519081016040528092919081815260200182805460018160011615610100020316600290048015610bfd5780601f10610bd257610100808354040283529160200191610bfd565b820191906000526020600020905b815481529060010190602001808311610be057829003601f168201915b5050505050815250828480600101955081518110610c1757fe5b60200260200101819052505b80806001019150506108bb565b50809250505092915050565b6001602052806000526040600020600091509050806000015490806001015490806002015490806003018054600181600116156101000203166002900480601f016020809104026020016040519081016040528092919081815260200182805460018160011615610100020316600290048015610cfa5780601f10610ccf57610100808354040283529160200191610cfa565b820191906000526020600020905b815481529060010190602001808311610cdd57829003601f168201915b505050505090806004015490806005015490806006015490806007018054600181600116156101000203166002900480601f016020809104026020016040519081016040528092919081815260200182805460018160011615610100020316600290048015610daa5780601f10610d7f57610100808354040283529160200191610daa565b820191906000526020600020905b815481529060010190602001808311610d8d57829003601f168201915b50505050509080600801549080600901549080600a01549080600b018054600181600116156101000203166002900480601f016020809104026020016040519081016040528092919081815260200182805460018160011615610100020316600290048015610e5a5780601f10610e2f57610100808354040283529160200191610e5a565b820191906000526020600020905b815481529060010190602001808311610e3d57829003601f168201915b505050505090508c565b600080600090505b600054811015610ecc57836001600083815260200190815260200160002060050154148015610eb05750826001600083815260200190815260200160002060010154145b15610ebf576001915050610ed2565b8080600101915050610e6c565b50600090505b92915050565b828054600181600116156101000203166002900490600052602060002090601f016020900481019282601f10610f1957805160ff1916838001178555610f47565b82800160010185558215610f47579182015b82811115610f46578251825591602001919060010190610f2b565b5b509050610f549190610fb9565b5090565b6040518061018001604052806000815260200160008152602001600081526020016060815260200160008152602001600081526020016000815260200160608152602001600081526020016000815260200160008152602001606081525090565b610fdb91905b80821115610fd7576000816000905550600101610fbf565b5090565b90565b600082601f830112610fef57600080fd5b8135611002610ffd82611586565b611559565b9150808252602083016020830185838301111561101e57600080fd5b61102983828461162e565b50505092915050565b60008135905061104181611681565b92915050565b60006020828403121561105957600080fd5b600061106784828501611032565b91505092915050565b6000806040838503121561108357600080fd5b600061109185828601611032565b92505060206110a285828601611032565b9150509250929050565b6000806000806000806000806000806101408b8d0312156110cc57600080fd5b60006110da8d828e01611032565b9a505060206110eb8d828e01611032565b99505060408b013567ffffffffffffffff81111561110857600080fd5b6111148d828e01610fde565b98505060606111258d828e01611032565b97505060806111368d828e01611032565b96505060a08b013567ffffffffffffffff81111561115357600080fd5b61115f8d828e01610fde565b95505060c06111708d828e01611032565b94505060e06111818d828e01611032565b9350506101006111938d828e01611032565b9250506101208b013567ffffffffffffffff8111156111b157600080fd5b6111bd8d828e01610fde565b9150509295989b9194979a5092959850565b60006111db83836112d9565b905092915050565b60006111ee826115c2565b6111f881856115e5565b93508360208202850161120a856115b2565b8060005b85811015611246578484038952815161122785826111cf565b9450611232836115d8565b925060208a0199505060018101905061120e565b50829750879550505050505092915050565b61126181611618565b82525050565b6000611272826115cd565b61127c81856115f6565b935061128c81856020860161163d565b61129581611670565b840191505092915050565b60006112ab826115cd565b6112b58185611607565b93506112c581856020860161163d565b6112ce81611670565b840191505092915050565b6000610180830160008301516112f260008601826113eb565b50602083015161130560208601826113eb565b50604083015161131860408601826113eb565b50606083015184820360608601526113308282611267565b915050608083015161134560808601826113eb565b5060a083015161135860a08601826113eb565b5060c083015161136b60c08601826113eb565b5060e083015184820360e08601526113838282611267565b91505061010083015161139a6101008601826113eb565b506101208301516113af6101208601826113eb565b506101408301516113c46101408601826113eb565b506101608301518482036101608601526113de8282611267565b9150508091505092915050565b6113f481611624565b82525050565b61140381611624565b82525050565b6000602082019050818103600083015261142381846111e3565b905092915050565b60006020820190506114406000830184611258565b92915050565b600060208201905061145b60008301846113fa565b92915050565b600060408201905061147660008301856113fa565b61148360208301846113fa565b9392505050565b6000610180820190506114a0600083018f6113fa565b6114ad602083018e6113fa565b6114ba604083018d6113fa565b81810360608301526114cc818c6112a0565b90506114db608083018b6113fa565b6114e860a083018a6113fa565b6114f560c08301896113fa565b81810360e083015261150781886112a0565b90506115176101008301876113fa565b6115256101208301866113fa565b6115336101408301856113fa565b81810361016083015261154681846112a0565b90509d9c50505050505050505050505050565b6000604051905081810181811067ffffffffffffffff8211171561157c57600080fd5b8060405250919050565b600067ffffffffffffffff82111561159d57600080fd5b601f19601f8301169050602081019050919050565b6000819050602082019050919050565b600081519050919050565b600081519050919050565b6000602082019050919050565b600082825260208201905092915050565b600082825260208201905092915050565b600082825260208201905092915050565b60008115159050919050565b6000819050919050565b82818337600083830152505050565b60005b8381101561165b578082015181840152602081019050611640565b8381111561166a576000848401525b50505050565b6000601f19601f8301169050919050565b61168a81611624565b811461169557600080fd5b5056fea365627a7a72315820d4bb7bf2f8dcf7482a7f850683992973e5fbcfae7b5840ec495f1d76e362d9e46c6578706572696d656e74616cf564736f6c63430005100040",
  "source": "pragma solidity >=0.4.22 <0.9.0;\r\npragma experimental ABIEncoderV2;\r\ncontract Orders{\r\n    uint public ordersCount = 0;\r\n\r\n    struct Order{\r\n        uint id;\r\n        uint productId;\r\n        uint amount;\r\n        string date;\r\n        uint status;    //  pending, confirmed, delivered, refunded\r\n        uint buyerId;\r\n        uint sellerId;\r\n        string deliveryAddress;\r\n        uint paymentType; //    0 - placanje pouzecem //   1 - eterijum\r\n        uint price_numerator;\r\n        uint price_denominator;\r\n        string delivery_date;\r\n    }\r\n\r\n    mapping (uint => Order) public orders;\r\n\r\n    event OrderCreated(uint id, uint OrderNumber);\r\n\r\n    constructor() public{\r\n\r\n        orders[0] = Order(0, 0, 1, \"2021-02-01\", 0, 52, 53, \"Kralja Petra, Kragujevac, Srbija\", 0, 43, 3, \"ODMAH\");\r\n        orders[1] = Order(1, 1, 2, \"2021-03-01\", 0, 52, 53, \"Kralja Petra, Kragujevac, Srbija\", 0, 43, 3, \"ODMAH\");\r\n        orders[2] = Order(2, 2, 1, \"2021-03-01\", 0, 52, 53, \"Kralja Petra, Kragujevac, Srbija\", 0, 43, 3, \"ODMAH\");\r\n        orders[3] = Order(3, 3, 3, \"2021-04-01\", 0, 52, 53, \"Kralja Petra, Kragujevac, Srbija\", 0, 43, 3, \"ODMAH\");\r\n        orders[4] = Order(4, 4, 1, \"2021-04-01\", 0, 52, 53, \"Kralja Petra, Kragujevac, Srbija\", 0, 43, 3, \"ODMAH\");\r\n        orders[5] = Order(5, 5, 1, \"2021-04-01\", 0, 52, 53, \"Kralja Petra, Kragujevac, Srbija\", 0, 43, 3, \"ODMAH\");\r\n        ordersCount = 6;\r\n    }\r\n\r\n    function createOrder(uint _productId, uint _amount, string memory _date,  uint _buyerId, uint _sellerId, string memory _deliveryAddress, uint _paymentType, uint _price_numerator, uint _price_denominator, string memory _delivery_date) public{\r\n\r\n        orders[ordersCount++] = Order(ordersCount, _productId, _amount, _date, 0, _buyerId, _sellerId, _deliveryAddress, _paymentType, _price_numerator, _price_denominator, _delivery_date);\r\n        emit OrderCreated(_productId, ordersCount - 1);\r\n\r\n    }\r\n    function getOrders(uint _buyerId, uint totalOrders) public returns (Order[] memory){\r\n        uint countTemp = 0;\r\n        Order[] memory y = new Order[](totalOrders);\r\n        for (uint i= 0; i < ordersCount; i++) {\r\n            if (orders[i].buyerId == _buyerId){\r\n                y[countTemp++] = Order(orders[i].id,\r\n                    orders[i].productId,\r\n                    orders[i].amount,\r\n                    orders[i].date,\r\n                    orders[i].status,\r\n                    orders[i].buyerId,\r\n                    orders[i].sellerId,\r\n                    orders[i].deliveryAddress,\r\n                    orders[i].paymentType,\r\n                orders[i].price_numerator,\r\n                orders[i].price_denominator,\r\n            orders[i].delivery_date\r\n                );\r\n            }\r\n        }\r\n        return y;\r\n    }\r\n    function getOrdersCount(uint buyerId) public returns (uint count){\r\n        uint countTemp = 0;\r\n        for (uint i= 0; i < ordersCount; i++) {\r\n            if (orders[i].buyerId == buyerId){\r\n                countTemp++;\r\n            }\r\n        }\r\n        return countTemp;\r\n    }\r\n    function checkForOrder(uint buyerId, uint productId) public returns (bool b){\r\n        for (uint i=0; i< ordersCount; i++) {\r\n            if (orders[i].buyerId == buyerId && orders[i].productId ==  productId)\r\n                return true;\r\n        }\r\n        return false;\r\n    }\r\n\r\n    function getDeliveryOrders(uint _sellerId, uint totalOrders) public returns (Order[] memory){\r\n        uint countTemp = 0;\r\n        Order[] memory y = new Order[](totalOrders);\r\n        for (uint i= 0; i < ordersCount; i++) {\r\n            if (orders[i].sellerId == _sellerId){\r\n                y[countTemp++] = Order(orders[i].id,\r\n                    orders[i].productId,\r\n                    orders[i].amount,\r\n                    orders[i].date,\r\n                    orders[i].status,\r\n                    orders[i].buyerId,\r\n                    orders[i].sellerId,\r\n                    orders[i].deliveryAddress,\r\n                    orders[i].paymentType,\r\n                orders[i].price_numerator,\r\n                orders[i].price_denominator,\r\n                orders[i].delivery_date);\r\n            }\r\n        }\r\n        return y;\r\n    }\r\n    function getDeliveryOrdersCount(uint _sellerId) public returns (uint count){\r\n        uint countTemp = 0;\r\n        for (uint i= 0; i < ordersCount; i++) {\r\n            if (orders[i].sellerId == _sellerId){\r\n                countTemp++;\r\n            }\r\n        }\r\n        return countTemp;\r\n    }\r\n    function setStatus(uint _orderId, uint _status) public {\r\n        for (uint i= 0; i < ordersCount; i++) {\r\n            if (orders[i].id == _orderId){\r\n                orders[i].status = _status;\r\n                break;\r\n            }\r\n        }\r\n    }\r\n\r\n}",
  "sourcePath": "C:/Users/Korisnik/Desktop/dev2/Catalyst/src/frontend_mobile/contracts/Orders.sol",
  "compiler": {
    "name": "solc",
    "version": "0.5.16+commit.9c3226ce.Emscripten.clang"
  },
  "schemaVersion": "3.4.1",
  "updatedAt": "2021-06-04T21:10:42.193Z",
  "networkType": "ethereum",
  "devdoc": {
    "methods": {}
  },
  "userdoc": {
    "methods": {}
  }
}