{
  "contractName": "Orders",
  "abi": [
    {
      "inputs": [],
      "payable": false,
      "stateMutability": "nonpayable",
      "type": "constructor"
    },
    {
      "anonymous": false,
      "inputs": [
        {
          "indexed": false,
          "internalType": "uint256",
          "name": "id",
          "type": "uint256"
        },
        {
          "indexed": false,
          "internalType": "uint256",
          "name": "OrderNumber",
          "type": "uint256"
        }
      ],
      "name": "OrderCreated",
      "type": "event"
    },
    {
      "constant": true,
      "inputs": [
        {
          "internalType": "uint256",
          "name": "",
          "type": "uint256"
        }
      ],
      "name": "orders",
      "outputs": [
        {
          "internalType": "uint256",
          "name": "id",
          "type": "uint256"
        },
        {
          "internalType": "uint256",
          "name": "productId",
          "type": "uint256"
        },
        {
          "internalType": "uint256",
          "name": "amount",
          "type": "uint256"
        },
        {
          "internalType": "string",
          "name": "date",
          "type": "string"
        },
        {
          "internalType": "uint256",
          "name": "status",
          "type": "uint256"
        },
        {
          "internalType": "uint256",
          "name": "buyerId",
          "type": "uint256"
        },
        {
          "internalType": "uint256",
          "name": "sellerId",
          "type": "uint256"
        }
      ],
      "payable": false,
      "stateMutability": "view",
      "type": "function"
    },
    {
      "constant": true,
      "inputs": [],
      "name": "ordersCount",
      "outputs": [
        {
          "internalType": "uint256",
          "name": "",
          "type": "uint256"
        }
      ],
      "payable": false,
      "stateMutability": "view",
      "type": "function"
    },
    {
      "constant": false,
      "inputs": [
        {
          "internalType": "uint256",
          "name": "_productId",
          "type": "uint256"
        },
        {
          "internalType": "uint256",
          "name": "_amount",
          "type": "uint256"
        },
        {
          "internalType": "string",
          "name": "_date",
          "type": "string"
        },
        {
          "internalType": "uint256",
          "name": "_buyerId",
          "type": "uint256"
        },
        {
          "internalType": "uint256",
          "name": "_sellerId",
          "type": "uint256"
        }
      ],
      "name": "createOrder",
      "outputs": [],
      "payable": false,
      "stateMutability": "nonpayable",
      "type": "function"
    },
    {
      "constant": false,
      "inputs": [
        {
          "internalType": "uint256",
          "name": "_buyerId",
          "type": "uint256"
        },
        {
          "internalType": "uint256",
          "name": "totalOrders",
          "type": "uint256"
        }
      ],
      "name": "getOrders",
      "outputs": [
        {
          "components": [
            {
              "internalType": "uint256",
              "name": "id",
              "type": "uint256"
            },
            {
              "internalType": "uint256",
              "name": "productId",
              "type": "uint256"
            },
            {
              "internalType": "uint256",
              "name": "amount",
              "type": "uint256"
            },
            {
              "internalType": "string",
              "name": "date",
              "type": "string"
            },
            {
              "internalType": "uint256",
              "name": "status",
              "type": "uint256"
            },
            {
              "internalType": "uint256",
              "name": "buyerId",
              "type": "uint256"
            },
            {
              "internalType": "uint256",
              "name": "sellerId",
              "type": "uint256"
            }
          ],
          "internalType": "struct Orders.Order[]",
          "name": "",
          "type": "tuple[]"
        }
      ],
      "payable": false,
      "stateMutability": "nonpayable",
      "type": "function"
    },
    {
      "constant": false,
      "inputs": [
        {
          "internalType": "uint256",
          "name": "buyerId",
          "type": "uint256"
        }
      ],
      "name": "getOrdersCount",
      "outputs": [
        {
          "internalType": "uint256",
          "name": "count",
          "type": "uint256"
        }
      ],
      "payable": false,
      "stateMutability": "nonpayable",
      "type": "function"
    }
  ],
  "bytecode": "0x6080604052600080553480156200001557600080fd5b506040518060e001604052806000815260200160008152602001600181526020016040518060400160405280600a81526020017f323032312d30322d303100000000000000000000000000000000000000000000815250815260200160008152602001600081526020016000815250600160008081526020019081526020016000206000820151816000015560208201518160010155604082015181600201556060820151816003019080519060200190620000d392919062000563565b506080820151816004015560a0820151816005015560c082015181600601559050506040518060e001604052806001815260200160018152602001600281526020016040518060400160405280600a81526020017f323032312d30332d30310000000000000000000000000000000000000000000081525081526020016000815260200160008152602001600081525060016000600181526020019081526020016000206000820151816000015560208201518160010155604082015181600201556060820151816003019080519060200190620001b392919062000563565b506080820151816004015560a0820151816005015560c082015181600601559050506040518060e001604052806002815260200160028152602001600181526020016040518060400160405280600a81526020017f323032312d30332d303100000000000000000000000000000000000000000000815250815260200160008152602001600081526020016000815250600160006002815260200190815260200160002060008201518160000155602082015181600101556040820151816002015560608201518160030190805190602001906200029392919062000563565b506080820151816004015560a0820151816005015560c082015181600601559050506040518060e001604052806003815260200160038152602001600381526020016040518060400160405280600a81526020017f323032312d30342d303100000000000000000000000000000000000000000000815250815260200160008152602001600081526020016000815250600160006003815260200190815260200160002060008201518160000155602082015181600101556040820151816002015560608201518160030190805190602001906200037392919062000563565b506080820151816004015560a0820151816005015560c082015181600601559050506040518060e001604052806004815260200160048152602001600181526020016040518060400160405280600a81526020017f323032312d30342d303100000000000000000000000000000000000000000000815250815260200160008152602001600081526020016000815250600160006004815260200190815260200160002060008201518160000155602082015181600101556040820151816002015560608201518160030190805190602001906200045392919062000563565b506080820151816004015560a0820151816005015560c082015181600601559050506040518060e001604052806005815260200160058152602001600181526020016040518060400160405280600a81526020017f323032312d30342d303100000000000000000000000000000000000000000000815250815260200160008152602001600181526020016000815250600160006005815260200190815260200160002060008201518160000155602082015181600101556040820151816002015560608201518160030190805190602001906200053392919062000563565b506080820151816004015560a0820151816005015560c08201518160060155905050600660008190555062000612565b828054600181600116156101000203166002900490600052602060002090601f016020900481019282601f10620005a657805160ff1916838001178555620005d7565b82800160010185558215620005d7579182015b82811115620005d6578251825591602001919060010190620005b9565b5b509050620005e69190620005ea565b5090565b6200060f91905b808211156200060b576000816000905550600101620005f1565b5090565b90565b610bb080620006226000396000f3fe608060405234801561001057600080fd5b50600436106100575760003560e01c80630404d2e21461005c5780630b28c9b31461007857806335daa731146100a85780638f72fc77146100c6578063a85c38ef146100f6575b600080fd5b6100766004803603610071919081019061071a565b61012c565b005b610092600480360361008d91908101906106b5565b610225565b60405161009f9190610980565b60405180910390f35b6100b061027a565b6040516100bd9190610980565b60405180910390f35b6100e060048036036100db91908101906106de565b610280565b6040516100ed919061095e565b60405180910390f35b610110600480360361010b91908101906106b5565b610490565b60405161012397969594939291906109c4565b60405180910390f35b6040518060e00160405280600054815260200186815260200185815260200184815260200160008152602001838152602001828152506001600080600081548092919060010191905055815260200190815260200160002060008201518160000155602082015181600101556040820151816002015560608201518160030190805190602001906101be92919061056a565b506080820151816004015560a0820151816005015560c082015181600601559050507f7ab7b5bf31475b82f820e7fdfd6387632fc391f3bbd3f28afa54804f30bebd4d8560016000540360405161021692919061099b565b60405180910390a15050505050565b6000806000905060008090505b6000548110156102705783600160008381526020019081526020016000206005015414156102635781806001019250505b8080600101915050610232565b5080915050919050565b60005481565b606060008090506060836040519080825280602002602001820160405280156102c357816020015b6102b06105ea565b8152602001906001900390816102a85790505b50905060008090505b600054811015610484578560016000838152602001908152602001600020600501541415610477576040518060e00160405280600160008481526020019081526020016000206000015481526020016001600084815260200190815260200160002060010154815260200160016000848152602001908152602001600020600201548152602001600160008481526020019081526020016000206003018054600181600116156101000203166002900480601f0160208091040260200160405190810160405280929190818152602001828054600181600116156101000203166002900480156103fd5780601f106103d2576101008083540402835291602001916103fd565b820191906000526020600020905b8154815290600101906020018083116103e057829003601f168201915b505050505081526020016001600084815260200190815260200160002060040154815260200160016000848152602001908152602001600020600501548152602001600160008481526020019081526020016000206006015481525082848060010195508151811061046b57fe5b60200260200101819052505b80806001019150506102cc565b50809250505092915050565b6001602052806000526040600020600091509050806000015490806001015490806002015490806003018054600181600116156101000203166002900480601f01602080910402602001604051908101604052809291908181526020018280546001816001161561010002031660029004801561054e5780601f106105235761010080835404028352916020019161054e565b820191906000526020600020905b81548152906001019060200180831161053157829003601f168201915b5050505050908060040154908060050154908060060154905087565b828054600181600116156101000203166002900490600052602060002090601f016020900481019282601f106105ab57805160ff19168380011785556105d9565b828001600101855582156105d9579182015b828111156105d85782518255916020019190600101906105bd565b5b5090506105e69190610627565b5090565b6040518060e00160405280600081526020016000815260200160008152602001606081526020016000815260200160008152602001600081525090565b61064991905b8082111561064557600081600090555060010161062d565b5090565b90565b600082601f83011261065d57600080fd5b813561067061066b82610a67565b610a3a565b9150808252602083016020830185838301111561068c57600080fd5b610697838284610b03565b50505092915050565b6000813590506106af81610b56565b92915050565b6000602082840312156106c757600080fd5b60006106d5848285016106a0565b91505092915050565b600080604083850312156106f157600080fd5b60006106ff858286016106a0565b9250506020610710858286016106a0565b9150509250929050565b600080600080600060a0868803121561073257600080fd5b6000610740888289016106a0565b9550506020610751888289016106a0565b945050604086013567ffffffffffffffff81111561076e57600080fd5b61077a8882890161064c565b935050606061078b888289016106a0565b925050608061079c888289016106a0565b9150509295509295909350565b60006107b583836108a4565b905092915050565b60006107c882610aa3565b6107d28185610ac6565b9350836020820285016107e485610a93565b8060005b85811015610820578484038952815161080185826107a9565b945061080c83610ab9565b925060208a019950506001810190506107e8565b50829750879550505050505092915050565b600061083d82610aae565b6108478185610ad7565b9350610857818560208601610b12565b61086081610b45565b840191505092915050565b600061087682610aae565b6108808185610ae8565b9350610890818560208601610b12565b61089981610b45565b840191505092915050565b600060e0830160008301516108bc6000860182610940565b5060208301516108cf6020860182610940565b5060408301516108e26040860182610940565b50606083015184820360608601526108fa8282610832565b915050608083015161090f6080860182610940565b5060a083015161092260a0860182610940565b5060c083015161093560c0860182610940565b508091505092915050565b61094981610af9565b82525050565b61095881610af9565b82525050565b6000602082019050818103600083015261097881846107bd565b905092915050565b6000602082019050610995600083018461094f565b92915050565b60006040820190506109b0600083018561094f565b6109bd602083018461094f565b9392505050565b600060e0820190506109d9600083018a61094f565b6109e6602083018961094f565b6109f3604083018861094f565b8181036060830152610a05818761086b565b9050610a14608083018661094f565b610a2160a083018561094f565b610a2e60c083018461094f565b98975050505050505050565b6000604051905081810181811067ffffffffffffffff82111715610a5d57600080fd5b8060405250919050565b600067ffffffffffffffff821115610a7e57600080fd5b601f19601f8301169050602081019050919050565b6000819050602082019050919050565b600081519050919050565b600081519050919050565b6000602082019050919050565b600082825260208201905092915050565b600082825260208201905092915050565b600082825260208201905092915050565b6000819050919050565b82818337600083830152505050565b60005b83811015610b30578082015181840152602081019050610b15565b83811115610b3f576000848401525b50505050565b6000601f19601f8301169050919050565b610b5f81610af9565b8114610b6a57600080fd5b5056fea365627a7a72315820d7add56beaff37d26c744384c722b33c0fdf9dfcc58dc8bbe5a9967073572eac6c6578706572696d656e74616cf564736f6c63430005100040",
  "source": "pragma solidity >=0.4.22 <0.9.0;\r\npragma experimental ABIEncoderV2;\r\ncontract Orders{\r\n    uint public ordersCount = 0;\r\n\r\n    struct Order{\r\n        uint id;\r\n        uint productId;\r\n        uint amount;\r\n        string date;\r\n        uint status;\r\n        uint buyerId;   //  pending, confirmed, delivered, refunded\r\n        uint sellerId;\r\n\r\n    }\r\n\r\n    mapping (uint => Order) public orders;\r\n\r\n    event OrderCreated(uint id, uint OrderNumber);\r\n\r\n    constructor() public{\r\n\r\n        orders[0] = Order(0, 0, 1, \"2021-02-01\", 0, 0, 0);\r\n        orders[1] = Order(1, 1, 2, \"2021-03-01\", 0, 0, 0);\r\n        orders[2] = Order(2, 2, 1, \"2021-03-01\", 0, 0, 0);\r\n        orders[3] = Order(3, 3, 3, \"2021-04-01\", 0, 0, 0);\r\n        orders[4] = Order(4, 4, 1, \"2021-04-01\", 0, 0, 0);\r\n        orders[5] = Order(5, 5, 1, \"2021-04-01\", 0, 1, 0);\r\n        ordersCount = 6;\r\n    }\r\n\r\n    function createOrder(uint _productId, uint _amount, string memory _date,  uint _buyerId, uint _sellerId) public{\r\n\r\n        orders[ordersCount++] = Order(ordersCount, _productId, _amount, _date, 0, _buyerId, _sellerId);\r\n        emit OrderCreated(_productId, ordersCount - 1);\r\n\r\n    }\r\n    function getOrders(uint _buyerId, uint totalOrders) public returns (Order[] memory){\r\n        uint countTemp = 0;\r\n        Order[] memory y = new Order[](totalOrders);\r\n        for (uint i= 0; i < ordersCount; i++) {\r\n            if (orders[i].buyerId == _buyerId){\r\n                y[countTemp++] = Order(orders[i].id,\r\n                    orders[i].productId,\r\n                    orders[i].amount,\r\n                    orders[i].date,\r\n                    orders[i].status,\r\n                    orders[i].buyerId,\r\n                    orders[i].sellerId);\r\n            }\r\n        }\r\n        return y;\r\n    }\r\n    function getOrdersCount(uint buyerId) public returns (uint count){\r\n        uint countTemp = 0;\r\n        for (uint i= 0; i < ordersCount; i++) {\r\n            if (orders[i].buyerId == buyerId){\r\n                countTemp++;\r\n            }\r\n        }\r\n        return countTemp;\r\n    }\r\n}",
  "sourcePath": "C:/Users/Korisnik/Desktop/dev/Catalyst/src/frontend_mobile/contracts/Orders.sol",
  "compiler": {
    "name": "solc",
    "version": "0.5.16+commit.9c3226ce.Emscripten.clang"
  },
  "schemaVersion": "3.3.4",
  "updatedAt": "2021-04-21T01:18:12.950Z",
  "networkType": "ethereum",
  "devdoc": {
    "methods": {}
  },
  "userdoc": {
    "methods": {}
  }
}