{
  "contractName": "Orders",
  "abi": [
    {
      "inputs": [],
      "payable": false,
      "stateMutability": "nonpayable",
      "type": "constructor"
    },
    {
      "anonymous": false,
      "inputs": [
        {
          "indexed": false,
          "internalType": "string",
          "name": "ids",
          "type": "string"
        },
        {
          "indexed": false,
          "internalType": "uint256",
          "name": "OrderNumber",
          "type": "uint256"
        }
      ],
      "name": "OrderCreated",
      "type": "event"
    },
    {
      "constant": true,
      "inputs": [
        {
          "internalType": "uint256",
          "name": "",
          "type": "uint256"
        }
      ],
      "name": "orders",
      "outputs": [
        {
          "internalType": "uint256",
          "name": "id",
          "type": "uint256"
        },
        {
          "internalType": "string",
          "name": "productIds",
          "type": "string"
        },
        {
          "internalType": "uint256",
          "name": "priceDenominator",
          "type": "uint256"
        },
        {
          "internalType": "uint256",
          "name": "priceNominator",
          "type": "uint256"
        },
        {
          "internalType": "string",
          "name": "date",
          "type": "string"
        },
        {
          "internalType": "uint256",
          "name": "status",
          "type": "uint256"
        },
        {
          "internalType": "uint256",
          "name": "buyerId",
          "type": "uint256"
        }
      ],
      "payable": false,
      "stateMutability": "view",
      "type": "function"
    },
    {
      "constant": true,
      "inputs": [],
      "name": "ordersCount",
      "outputs": [
        {
          "internalType": "uint256",
          "name": "",
          "type": "uint256"
        }
      ],
      "payable": false,
      "stateMutability": "view",
      "type": "function"
    },
    {
      "constant": false,
      "inputs": [
        {
          "internalType": "string",
          "name": "_productIds",
          "type": "string"
        },
        {
          "internalType": "uint256",
          "name": "_buyerId",
          "type": "uint256"
        },
        {
          "internalType": "uint256",
          "name": "_priceDenominator",
          "type": "uint256"
        },
        {
          "internalType": "uint256",
          "name": "_priceNominator",
          "type": "uint256"
        },
        {
          "internalType": "string",
          "name": "_date",
          "type": "string"
        }
      ],
      "name": "createOrder",
      "outputs": [],
      "payable": false,
      "stateMutability": "nonpayable",
      "type": "function"
    },
    {
      "constant": false,
      "inputs": [
        {
          "internalType": "uint256",
          "name": "_buyerId",
          "type": "uint256"
        },
        {
          "internalType": "uint256",
          "name": "totalOrders",
          "type": "uint256"
        }
      ],
      "name": "getOrders",
      "outputs": [
        {
          "components": [
            {
              "internalType": "uint256",
              "name": "id",
              "type": "uint256"
            },
            {
              "internalType": "string",
              "name": "productIds",
              "type": "string"
            },
            {
              "internalType": "uint256",
              "name": "priceDenominator",
              "type": "uint256"
            },
            {
              "internalType": "uint256",
              "name": "priceNominator",
              "type": "uint256"
            },
            {
              "internalType": "string",
              "name": "date",
              "type": "string"
            },
            {
              "internalType": "uint256",
              "name": "status",
              "type": "uint256"
            },
            {
              "internalType": "uint256",
              "name": "buyerId",
              "type": "uint256"
            }
          ],
          "internalType": "struct Orders.Order[]",
          "name": "",
          "type": "tuple[]"
        }
      ],
      "payable": false,
      "stateMutability": "nonpayable",
      "type": "function"
    },
    {
      "constant": false,
      "inputs": [
        {
          "internalType": "uint256",
          "name": "buyerId",
          "type": "uint256"
        }
      ],
      "name": "getOrdersCount",
      "outputs": [
        {
          "internalType": "uint256",
          "name": "count",
          "type": "uint256"
        }
      ],
      "payable": false,
      "stateMutability": "nonpayable",
      "type": "function"
    }
  ],
  "bytecode": "0x6080604052600080553480156200001557600080fd5b506040518060e00160405280600081526020016040518060400160405280600181526020017f30000000000000000000000000000000000000000000000000000000000000008152508152602001600c8152602001600381526020016040518060400160405280600a81526020017f323032312d30322d303100000000000000000000000000000000000000000000815250815260200160008152602001600081525060016000808152602001908152602001600020600082015181600001556020820151816001019080519060200190620000f39291906200039e565b5060408201518160020155606082015181600301556080820151816004019080519060200190620001269291906200039e565b5060a0820151816005015560c082015181600601559050506040518060e00160405280600181526020016040518060400160405280600181526020017f30000000000000000000000000000000000000000000000000000000000000008152508152602001600c8152602001600481526020016040518060400160405280600a81526020017f323032312d30332d303100000000000000000000000000000000000000000000815250815260200160008152602001600081525060016000600181526020019081526020016000206000820151816000015560208201518160010190805190602001906200021c9291906200039e565b50604082015181600201556060820151816003015560808201518160040190805190602001906200024f9291906200039e565b5060a0820151816005015560c082015181600601559050506040518060e00160405280600281526020016040518060400160405280600181526020017f30000000000000000000000000000000000000000000000000000000000000008152508152602001600c8152602001600581526020016040518060400160405280600a81526020017f323032312d30342d30310000000000000000000000000000000000000000000081525081526020016000815260200160008152506001600060028152602001908152602001600020600082015181600001556020820151816001019080519060200190620003459291906200039e565b5060408201518160020155606082015181600301556080820151816004019080519060200190620003789291906200039e565b5060a0820151816005015560c0820151816006015590505060036000819055506200044d565b828054600181600116156101000203166002900490600052602060002090601f016020900481019282601f10620003e157805160ff191683800117855562000412565b8280016001018555821562000412579182015b8281111562000411578251825591602001919060010190620003f4565b5b50905062000421919062000425565b5090565b6200044a91905b80821115620004465760008160009055506001016200042c565b5090565b90565b610d64806200045d6000396000f3fe608060405234801561001057600080fd5b50600436106100575760003560e01c80630b28c9b31461005c57806335daa7311461008c578063840b07d0146100aa5780638f72fc77146100c6578063a85c38ef146100f6575b600080fd5b6100766004803603610071919081019061089f565b61012c565b6040516100839190610b4b565b60405180910390f35b610094610181565b6040516100a19190610b4b565b60405180910390f35b6100c460048036036100bf91908101906107f8565b610187565b005b6100e060048036036100db91908101906108c8565b610293565b6040516100ed9190610af9565b60405180910390f35b610110600480360361010b919081019061089f565b61053b565b6040516101239796959493929190610b66565b60405180910390f35b6000806000905060008090505b60005481101561017757836001600083815260200190815260200160002060060154141561016a5781806001019250505b8080600101915050610139565b5080915050919050565b60005481565b6040518060e0016040528060005481526020018681526020018481526020018381526020018281526020016000815260200185815250600160008060008154809291906001019190505581526020019081526020016000206000820151816000015560208201518160010190805190602001906102059291906106ad565b50604082015181600201556060820151816003015560808201518160040190805190602001906102369291906106ad565b5060a0820151816005015560c082015181600601559050507f1a72d6383b1fc1b015bedc584a040a3cba7b0a5e33b00a43a1693b852be2382e85600160005403604051610284929190610b1b565b60405180910390a15050505050565b606060008090506060836040519080825280602002602001820160405280156102d657816020015b6102c361072d565b8152602001906001900390816102bb5790505b50905060008090505b60005481101561052f578560016000838152602001908152602001600020600601541415610522576040518060e0016040528060016000848152602001908152602001600020600001548152602001600160008481526020019081526020016000206001018054600181600116156101000203166002900480601f0160208091040260200160405190810160405280929190818152602001828054600181600116156101000203166002900480156103d85780601f106103ad576101008083540402835291602001916103d8565b820191906000526020600020905b8154815290600101906020018083116103bb57829003601f168201915b505050505081526020016001600084815260200190815260200160002060020154815260200160016000848152602001908152602001600020600301548152602001600160008481526020019081526020016000206004018054600181600116156101000203166002900480601f0160208091040260200160405190810160405280929190818152602001828054600181600116156101000203166002900480156104c45780601f10610499576101008083540402835291602001916104c4565b820191906000526020600020905b8154815290600101906020018083116104a757829003601f168201915b5050505050815260200160016000848152602001908152602001600020600501548152602001600160008481526020019081526020016000206006015481525082848060010195508151811061051657fe5b60200260200101819052505b80806001019150506102df565b50809250505092915050565b6001602052806000526040600020600091509050806000015490806001018054600181600116156101000203166002900480601f0160208091040260200160405190810160405280929190818152602001828054600181600116156101000203166002900480156105ed5780601f106105c2576101008083540402835291602001916105ed565b820191906000526020600020905b8154815290600101906020018083116105d057829003601f168201915b505050505090806002015490806003015490806004018054600181600116156101000203166002900480601f0160208091040260200160405190810160405280929190818152602001828054600181600116156101000203166002900480156106975780601f1061066c57610100808354040283529160200191610697565b820191906000526020600020905b81548152906001019060200180831161067a57829003601f168201915b5050505050908060050154908060060154905087565b828054600181600116156101000203166002900490600052602060002090601f016020900481019282601f106106ee57805160ff191683800117855561071c565b8280016001018555821561071c579182015b8281111561071b578251825591602001919060010190610700565b5b509050610729919061076a565b5090565b6040518060e00160405280600081526020016060815260200160008152602001600081526020016060815260200160008152602001600081525090565b61078c91905b80821115610788576000816000905550600101610770565b5090565b90565b600082601f8301126107a057600080fd5b81356107b36107ae82610c10565b610be3565b915080825260208301602083018583830111156107cf57600080fd5b6107da838284610cb7565b50505092915050565b6000813590506107f281610d0a565b92915050565b600080600080600060a0868803121561081057600080fd5b600086013567ffffffffffffffff81111561082a57600080fd5b6108368882890161078f565b9550506020610847888289016107e3565b9450506040610858888289016107e3565b9350506060610869888289016107e3565b925050608086013567ffffffffffffffff81111561088657600080fd5b6108928882890161078f565b9150509295509295909350565b6000602082840312156108b157600080fd5b60006108bf848285016107e3565b91505092915050565b600080604083850312156108db57600080fd5b60006108e9858286016107e3565b92505060206108fa858286016107e3565b9150509250929050565b60006109108383610a38565b905092915050565b600061092382610c4c565b61092d8185610c7a565b93508360208202850161093f85610c3c565b8060005b8581101561097b578484038952815161095c8582610904565b945061096783610c6d565b925060208a01995050600181019050610943565b50829750879550505050505092915050565b600061099882610c62565b6109a28185610c9c565b93506109b2818560208601610cc6565b6109bb81610cf9565b840191505092915050565b60006109d182610c57565b6109db8185610c8b565b93506109eb818560208601610cc6565b6109f481610cf9565b840191505092915050565b6000610a0a82610c57565b610a148185610c9c565b9350610a24818560208601610cc6565b610a2d81610cf9565b840191505092915050565b600060e083016000830151610a506000860182610adb565b5060208301518482036020860152610a6882826109c6565b9150506040830151610a7d6040860182610adb565b506060830151610a906060860182610adb565b5060808301518482036080860152610aa882826109c6565b91505060a0830151610abd60a0860182610adb565b5060c0830151610ad060c0860182610adb565b508091505092915050565b610ae481610cad565b82525050565b610af381610cad565b82525050565b60006020820190508181036000830152610b138184610918565b905092915050565b60006040820190508181036000830152610b35818561098d565b9050610b446020830184610aea565b9392505050565b6000602082019050610b606000830184610aea565b92915050565b600060e082019050610b7b600083018a610aea565b8181036020830152610b8d81896109ff565b9050610b9c6040830188610aea565b610ba96060830187610aea565b8181036080830152610bbb81866109ff565b9050610bca60a0830185610aea565b610bd760c0830184610aea565b98975050505050505050565b6000604051905081810181811067ffffffffffffffff82111715610c0657600080fd5b8060405250919050565b600067ffffffffffffffff821115610c2757600080fd5b601f19601f8301169050602081019050919050565b6000819050602082019050919050565b600081519050919050565b600081519050919050565b600081519050919050565b6000602082019050919050565b600082825260208201905092915050565b600082825260208201905092915050565b600082825260208201905092915050565b6000819050919050565b82818337600083830152505050565b60005b83811015610ce4578082015181840152602081019050610cc9565b83811115610cf3576000848401525b50505050565b6000601f19601f8301169050919050565b610d1381610cad565b8114610d1e57600080fd5b5056fea365627a7a72315820edf3462f0927d9cf0dbdc253ba2474f7436e73f00d7357bceb3941530798bab96c6578706572696d656e74616cf564736f6c63430005100040",
  "source": "pragma solidity >=0.4.22 <0.9.0;\npragma experimental ABIEncoderV2;\ncontract Orders{\n    uint public ordersCount = 0;\n\n    struct Order{\n        uint id;\n        string productIds;\n        uint priceDenominator;\n        uint priceNominator;\n        string date;\n        uint status;    //  pending, confirmed, delivered, refunded\n        uint buyerId;\n    }\n\n    mapping (uint => Order) public orders;\n\n    event OrderCreated(string ids, uint OrderNumber);\n\n    constructor() public{\n\n        orders[0] = Order(0, \"0\", 12, 3, \"2021-02-01\", 0, 0);\n        orders[1] = Order(1, \"0\", 12, 4, \"2021-03-01\", 0, 0);\n        orders[2] = Order(2, \"0\", 12, 5, \"2021-04-01\", 0, 0);\n        ordersCount = 3;\n    }\n\n    function createOrder(string memory _productIds, uint _buyerId, uint _priceDenominator, uint _priceNominator, string memory _date) public{\n\n        orders[ordersCount++] = Order(ordersCount, _productIds, _priceDenominator, _priceNominator, _date, 0, _buyerId);\n        emit OrderCreated(_productIds, ordersCount - 1);\n\n    }\n    function getOrders(uint _buyerId, uint totalOrders) public returns (Order[] memory){\n        uint countTemp = 0;\n        Order[] memory y = new Order[](totalOrders);\n        for (uint i= 0; i < ordersCount; i++) {\n            if (orders[i].buyerId == _buyerId){\n                y[countTemp++] = Order(orders[i].id,\n                    orders[i].productIds,\n                    orders[i].priceDenominator,\n                    orders[i].priceNominator,\n                    orders[i].date,\n                    orders[i].status,\n                    orders[i].buyerId);\n            }\n        }\n        return y;\n    }\n    function getOrdersCount(uint buyerId) public returns (uint count){\n        uint countTemp = 0;\n        for (uint i= 0; i < ordersCount; i++) {\n            if (orders[i].buyerId == buyerId){\n                countTemp++;\n            }\n        }\n        return countTemp;\n    }\n}",
  "sourcePath": "/home/jovan/Catalyst/src/frontend_mobile/contracts/Orders.sol",
  "compiler": {
    "name": "solc",
    "version": "0.5.16+commit.9c3226ce.Emscripten.clang"
  },
  "schemaVersion": "3.3.4",
  "updatedAt": "2021-04-13T16:25:45.493Z",
  "networkType": "ethereum",
  "devdoc": {
    "methods": {}
  },
  "userdoc": {
    "methods": {}
  }
}