{
  "contractName": "Orders",
  "abi": [
    {
      "inputs": [],
      "payable": false,
      "stateMutability": "nonpayable",
      "type": "constructor"
    },
    {
      "anonymous": false,
      "inputs": [
        {
          "indexed": false,
          "internalType": "uint256",
          "name": "id",
          "type": "uint256"
        },
        {
          "indexed": false,
          "internalType": "uint256",
          "name": "OrderNumber",
          "type": "uint256"
        }
      ],
      "name": "OrderCreated",
      "type": "event"
    },
    {
      "constant": true,
      "inputs": [
        {
          "internalType": "uint256",
          "name": "",
          "type": "uint256"
        }
      ],
      "name": "orders",
      "outputs": [
        {
          "internalType": "uint256",
          "name": "id",
          "type": "uint256"
        },
        {
          "internalType": "uint256",
          "name": "productId",
          "type": "uint256"
        },
        {
          "internalType": "uint256",
          "name": "amount",
          "type": "uint256"
        },
        {
          "internalType": "string",
          "name": "date",
          "type": "string"
        },
        {
          "internalType": "uint256",
          "name": "status",
          "type": "uint256"
        },
        {
          "internalType": "uint256",
          "name": "buyerId",
          "type": "uint256"
        },
        {
          "internalType": "uint256",
          "name": "sellerId",
          "type": "uint256"
        },
        {
          "internalType": "string",
          "name": "deliveryAddress",
          "type": "string"
        },
        {
          "internalType": "uint256",
          "name": "paymentType",
          "type": "uint256"
        }
      ],
      "payable": false,
      "stateMutability": "view",
      "type": "function"
    },
    {
      "constant": true,
      "inputs": [],
      "name": "ordersCount",
      "outputs": [
        {
          "internalType": "uint256",
          "name": "",
          "type": "uint256"
        }
      ],
      "payable": false,
      "stateMutability": "view",
      "type": "function"
    },
    {
      "constant": false,
      "inputs": [
        {
          "internalType": "uint256",
          "name": "_productId",
          "type": "uint256"
        },
        {
          "internalType": "uint256",
          "name": "_amount",
          "type": "uint256"
        },
        {
          "internalType": "string",
          "name": "_date",
          "type": "string"
        },
        {
          "internalType": "uint256",
          "name": "_buyerId",
          "type": "uint256"
        },
        {
          "internalType": "uint256",
          "name": "_sellerId",
          "type": "uint256"
        },
        {
          "internalType": "string",
          "name": "_deliveryAddress",
          "type": "string"
        },
        {
          "internalType": "uint256",
          "name": "_paymentType",
          "type": "uint256"
        }
      ],
      "name": "createOrder",
      "outputs": [],
      "payable": false,
      "stateMutability": "nonpayable",
      "type": "function"
    },
    {
      "constant": false,
      "inputs": [
        {
          "internalType": "uint256",
          "name": "_buyerId",
          "type": "uint256"
        },
        {
          "internalType": "uint256",
          "name": "totalOrders",
          "type": "uint256"
        }
      ],
      "name": "getOrders",
      "outputs": [
        {
          "components": [
            {
              "internalType": "uint256",
              "name": "id",
              "type": "uint256"
            },
            {
              "internalType": "uint256",
              "name": "productId",
              "type": "uint256"
            },
            {
              "internalType": "uint256",
              "name": "amount",
              "type": "uint256"
            },
            {
              "internalType": "string",
              "name": "date",
              "type": "string"
            },
            {
              "internalType": "uint256",
              "name": "status",
              "type": "uint256"
            },
            {
              "internalType": "uint256",
              "name": "buyerId",
              "type": "uint256"
            },
            {
              "internalType": "uint256",
              "name": "sellerId",
              "type": "uint256"
            },
            {
              "internalType": "string",
              "name": "deliveryAddress",
              "type": "string"
            },
            {
              "internalType": "uint256",
              "name": "paymentType",
              "type": "uint256"
            }
          ],
          "internalType": "struct Orders.Order[]",
          "name": "",
          "type": "tuple[]"
        }
      ],
      "payable": false,
      "stateMutability": "nonpayable",
      "type": "function"
    },
    {
      "constant": false,
      "inputs": [
        {
          "internalType": "uint256",
          "name": "buyerId",
          "type": "uint256"
        }
      ],
      "name": "getOrdersCount",
      "outputs": [
        {
          "internalType": "uint256",
          "name": "count",
          "type": "uint256"
        }
      ],
      "payable": false,
      "stateMutability": "nonpayable",
      "type": "function"
    },
    {
      "constant": false,
      "inputs": [
        {
          "internalType": "uint256",
          "name": "buyerId",
          "type": "uint256"
        },
        {
          "internalType": "uint256",
          "name": "productId",
          "type": "uint256"
        }
      ],
      "name": "checkForOrder",
      "outputs": [
        {
          "internalType": "bool",
          "name": "b",
          "type": "bool"
        }
      ],
      "payable": false,
      "stateMutability": "nonpayable",
      "type": "function"
    },
    {
      "constant": false,
      "inputs": [
        {
          "internalType": "uint256",
          "name": "_sellerId",
          "type": "uint256"
        },
        {
          "internalType": "uint256",
          "name": "totalOrders",
          "type": "uint256"
        }
      ],
      "name": "getDeliveryOrders",
      "outputs": [
        {
          "components": [
            {
              "internalType": "uint256",
              "name": "id",
              "type": "uint256"
            },
            {
              "internalType": "uint256",
              "name": "productId",
              "type": "uint256"
            },
            {
              "internalType": "uint256",
              "name": "amount",
              "type": "uint256"
            },
            {
              "internalType": "string",
              "name": "date",
              "type": "string"
            },
            {
              "internalType": "uint256",
              "name": "status",
              "type": "uint256"
            },
            {
              "internalType": "uint256",
              "name": "buyerId",
              "type": "uint256"
            },
            {
              "internalType": "uint256",
              "name": "sellerId",
              "type": "uint256"
            },
            {
              "internalType": "string",
              "name": "deliveryAddress",
              "type": "string"
            },
            {
              "internalType": "uint256",
              "name": "paymentType",
              "type": "uint256"
            }
          ],
          "internalType": "struct Orders.Order[]",
          "name": "",
          "type": "tuple[]"
        }
      ],
      "payable": false,
      "stateMutability": "nonpayable",
      "type": "function"
    },
    {
      "constant": false,
      "inputs": [
        {
          "internalType": "uint256",
          "name": "_sellerId",
          "type": "uint256"
        }
      ],
      "name": "getDeliveryOrdersCount",
      "outputs": [
        {
          "internalType": "uint256",
          "name": "count",
          "type": "uint256"
        }
      ],
      "payable": false,
      "stateMutability": "nonpayable",
      "type": "function"
    },
    {
      "constant": false,
      "inputs": [
        {
          "internalType": "uint256",
          "name": "_orderId",
          "type": "uint256"
        },
        {
          "internalType": "uint256",
          "name": "_status",
          "type": "uint256"
        }
      ],
      "name": "setStatus",
      "outputs": [],
      "payable": false,
      "stateMutability": "nonpayable",
      "type": "function"
    }
  ],
  "bytecode": "0x6080604052600080553480156200001557600080fd5b506040518061012001604052806000815260200160008152602001600181526020016040518060400160405280600a81526020017f323032312d30322d30310000000000000000000000000000000000000000000081525081526020016000815260200160008152602001600081526020016040518060400160405280602081526020017f4b72616c6a612050657472612c204b726167756a657661632c20537262696a618152508152602001600081525060016000808152602001908152602001600020600082015181600001556020820151816001015560408201518160020155606082015181600301908051906020019062000116929190620007f1565b506080820151816004015560a0820151816005015560c0820151816006015560e082015181600701908051906020019062000153929190620007f1565b5061010082015181600801559050506040518061012001604052806001815260200160018152602001600281526020016040518060400160405280600a81526020017f323032312d30332d30310000000000000000000000000000000000000000000081525081526020016000815260200160008152602001600081526020016040518060400160405280602081526020017f4b72616c6a612050657472612c204b726167756a657661632c20537262696a61815250815260200160008152506001600060018152602001908152602001600020600082015181600001556020820151816001015560408201518160020155606082015181600301908051906020019062000263929190620007f1565b506080820151816004015560a0820151816005015560c0820151816006015560e0820151816007019080519060200190620002a0929190620007f1565b5061010082015181600801559050506040518061012001604052806002815260200160028152602001600181526020016040518060400160405280600a81526020017f323032312d30332d30310000000000000000000000000000000000000000000081525081526020016000815260200160008152602001600081526020016040518060400160405280602081526020017f4b72616c6a612050657472612c204b726167756a657661632c20537262696a618152508152602001600081525060016000600281526020019081526020016000206000820151816000015560208201518160010155604082015181600201556060820151816003019080519060200190620003b0929190620007f1565b506080820151816004015560a0820151816005015560c0820151816006015560e0820151816007019080519060200190620003ed929190620007f1565b5061010082015181600801559050506040518061012001604052806003815260200160038152602001600381526020016040518060400160405280600a81526020017f323032312d30342d30310000000000000000000000000000000000000000000081525081526020016000815260200160008152602001600081526020016040518060400160405280602081526020017f4b72616c6a612050657472612c204b726167756a657661632c20537262696a618152508152602001600081525060016000600381526020019081526020016000206000820151816000015560208201518160010155604082015181600201556060820151816003019080519060200190620004fd929190620007f1565b506080820151816004015560a0820151816005015560c0820151816006015560e08201518160070190805190602001906200053a929190620007f1565b5061010082015181600801559050506040518061012001604052806004815260200160048152602001600181526020016040518060400160405280600a81526020017f323032312d30342d30310000000000000000000000000000000000000000000081525081526020016000815260200160008152602001600081526020016040518060400160405280602081526020017f4b72616c6a612050657472612c204b726167756a657661632c20537262696a6181525081526020016000815250600160006004815260200190815260200160002060008201518160000155602082015181600101556040820151816002015560608201518160030190805190602001906200064a929190620007f1565b506080820151816004015560a0820151816005015560c0820151816006015560e082015181600701908051906020019062000687929190620007f1565b5061010082015181600801559050506040518061012001604052806005815260200160058152602001600181526020016040518060400160405280600a81526020017f323032312d30342d30310000000000000000000000000000000000000000000081525081526020016000815260200160018152602001600081526020016040518060400160405280602081526020017f4b72616c6a612050657472612c204b726167756a657661632c20537262696a61815250815260200160008152506001600060058152602001908152602001600020600082015181600001556020820151816001015560408201518160020155606082015181600301908051906020019062000797929190620007f1565b506080820151816004015560a0820151816005015560c0820151816006015560e0820151816007019080519060200190620007d4929190620007f1565b5061010082015181600801559050506006600081905550620008a0565b828054600181600116156101000203166002900490600052602060002090601f016020900481019282601f106200083457805160ff191683800117855562000865565b8280016001018555821562000865579182015b828111156200086457825182559160200191906001019062000847565b5b50905062000874919062000878565b5090565b6200089d91905b80821115620008995760008160009055506001016200087f565b5090565b90565b61132980620008b06000396000f3fe608060405234801561001057600080fd5b50600436106100935760003560e01c806382e408131161006657806382e40813146101465780638f72fc7714610162578063a5ee226c14610192578063a85c38ef146101ae578063ffeceb25146101e657610093565b80630b28c9b31461009857806335daa731146100c857806346b23ee1146100e65780635d5ce89c14610116575b600080fd5b6100b260048036036100ad9190810190610d64565b610216565b6040516100bf91906110c8565b60405180910390f35b6100d061026b565b6040516100dd91906110c8565b60405180910390f35b61010060048036036100fb9190810190610d64565b610271565b60405161010d91906110c8565b60405180910390f35b610130600480360361012b9190810190610d8d565b6102c6565b60405161013d919061108b565b60405180910390f35b610160600480360361015b9190810190610d8d565b6105a7565b005b61017c60048036036101779190810190610d8d565b610607565b604051610189919061108b565b60405180910390f35b6101ac60048036036101a79190810190610dc9565b6108e8565b005b6101c860048036036101c39190810190610d64565b610a18565b6040516101dd9998979695949392919061110c565b60405180910390f35b61020060048036036101fb9190810190610d8d565b610b96565b60405161020d91906110ad565b60405180910390f35b6000806000905060008090505b6000548110156102615783600160008381526020019081526020016000206005015414156102545781806001019250505b8080600101915050610223565b5080915050919050565b60005481565b6000806000905060008090505b6000548110156102bc5783600160008381526020019081526020016000206006015414156102af5781806001019250505b808060010191505061027e565b5080915050919050565b6060600080905060608360405190808252806020026020018201604052801561030957816020015b6102f6610c0a565b8152602001906001900390816102ee5790505b50905060008090505b60005481101561059b57856001600083815260200190815260200160002060060154141561058e57604051806101200160405280600160008481526020019081526020016000206000015481526020016001600084815260200190815260200160002060010154815260200160016000848152602001908152602001600020600201548152602001600160008481526020019081526020016000206003018054600181600116156101000203166002900480601f0160208091040260200160405190810160405280929190818152602001828054600181600116156101000203166002900480156104445780601f1061041957610100808354040283529160200191610444565b820191906000526020600020905b81548152906001019060200180831161042757829003601f168201915b50505050508152602001600160008481526020019081526020016000206004015481526020016001600084815260200190815260200160002060050154815260200160016000848152602001908152602001600020600601548152602001600160008481526020019081526020016000206007018054600181600116156101000203166002900480601f01602080910402602001604051908101604052809291908181526020018280546001816001161561010002031660029004801561054c5780601f106105215761010080835404028352916020019161054c565b820191906000526020600020905b81548152906001019060200180831161052f57829003601f168201915b50505050508152602001600160008481526020019081526020016000206008015481525082848060010195508151811061058257fe5b60200260200101819052505b8080600101915050610312565b50809250505092915050565b60008090505b6000548110156106025782600160008381526020019081526020016000206000015414156105f557816001600083815260200190815260200160002060040181905550610602565b80806001019150506105ad565b505050565b6060600080905060608360405190808252806020026020018201604052801561064a57816020015b610637610c0a565b81526020019060019003908161062f5790505b50905060008090505b6000548110156108dc5785600160008381526020019081526020016000206005015414156108cf57604051806101200160405280600160008481526020019081526020016000206000015481526020016001600084815260200190815260200160002060010154815260200160016000848152602001908152602001600020600201548152602001600160008481526020019081526020016000206003018054600181600116156101000203166002900480601f0160208091040260200160405190810160405280929190818152602001828054600181600116156101000203166002900480156107855780601f1061075a57610100808354040283529160200191610785565b820191906000526020600020905b81548152906001019060200180831161076857829003601f168201915b50505050508152602001600160008481526020019081526020016000206004015481526020016001600084815260200190815260200160002060050154815260200160016000848152602001908152602001600020600601548152602001600160008481526020019081526020016000206007018054600181600116156101000203166002900480601f01602080910402602001604051908101604052809291908181526020018280546001816001161561010002031660029004801561088d5780601f106108625761010080835404028352916020019161088d565b820191906000526020600020905b81548152906001019060200180831161087057829003601f168201915b5050505050815260200160016000848152602001908152602001600020600801548152508284806001019550815181106108c357fe5b60200260200101819052505b8080600101915050610653565b50809250505092915050565b60405180610120016040528060005481526020018881526020018781526020018681526020016000815260200185815260200184815260200183815260200182815250600160008060008154809291906001019190505581526020019081526020016000206000820151816000015560208201518160010155604082015181600201556060820151816003019080519060200190610987929190610c56565b506080820151816004015560a0820151816005015560c0820151816006015560e08201518160070190805190602001906109c2929190610c56565b5061010082015181600801559050507f7ab7b5bf31475b82f820e7fdfd6387632fc391f3bbd3f28afa54804f30bebd4d87600160005403604051610a079291906110e3565b60405180910390a150505050505050565b6001602052806000526040600020600091509050806000015490806001015490806002015490806003018054600181600116156101000203166002900480601f016020809104026020016040519081016040528092919081815260200182805460018160011615610100020316600290048015610ad65780601f10610aab57610100808354040283529160200191610ad6565b820191906000526020600020905b815481529060010190602001808311610ab957829003601f168201915b505050505090806004015490806005015490806006015490806007018054600181600116156101000203166002900480601f016020809104026020016040519081016040528092919081815260200182805460018160011615610100020316600290048015610b865780601f10610b5b57610100808354040283529160200191610b86565b820191906000526020600020905b815481529060010190602001808311610b6957829003601f168201915b5050505050908060080154905089565b600080600090505b600054811015610bfe57836001600083815260200190815260200160002060050154148015610be25750826001600083815260200190815260200160002060010154145b15610bf1576001915050610c04565b8080600101915050610b9e565b50600090505b92915050565b6040518061012001604052806000815260200160008152602001600081526020016060815260200160008152602001600081526020016000815260200160608152602001600081525090565b828054600181600116156101000203166002900490600052602060002090601f016020900481019282601f10610c9757805160ff1916838001178555610cc5565b82800160010185558215610cc5579182015b82811115610cc4578251825591602001919060010190610ca9565b5b509050610cd29190610cd6565b5090565b610cf891905b80821115610cf4576000816000905550600101610cdc565b5090565b90565b600082601f830112610d0c57600080fd5b8135610d1f610d1a826111d4565b6111a7565b91508082526020830160208301858383011115610d3b57600080fd5b610d4683828461127c565b50505092915050565b600081359050610d5e816112cf565b92915050565b600060208284031215610d7657600080fd5b6000610d8484828501610d4f565b91505092915050565b60008060408385031215610da057600080fd5b6000610dae85828601610d4f565b9250506020610dbf85828601610d4f565b9150509250929050565b600080600080600080600060e0888a031215610de457600080fd5b6000610df28a828b01610d4f565b9750506020610e038a828b01610d4f565b965050604088013567ffffffffffffffff811115610e2057600080fd5b610e2c8a828b01610cfb565b9550506060610e3d8a828b01610d4f565b9450506080610e4e8a828b01610d4f565b93505060a088013567ffffffffffffffff811115610e6b57600080fd5b610e778a828b01610cfb565b92505060c0610e888a828b01610d4f565b91505092959891949750929550565b6000610ea38383610fa1565b905092915050565b6000610eb682611210565b610ec08185611233565b935083602082028501610ed285611200565b8060005b85811015610f0e5784840389528151610eef8582610e97565b9450610efa83611226565b925060208a01995050600181019050610ed6565b50829750879550505050505092915050565b610f2981611266565b82525050565b6000610f3a8261121b565b610f448185611244565b9350610f5481856020860161128b565b610f5d816112be565b840191505092915050565b6000610f738261121b565b610f7d8185611255565b9350610f8d81856020860161128b565b610f96816112be565b840191505092915050565b600061012083016000830151610fba600086018261106d565b506020830151610fcd602086018261106d565b506040830151610fe0604086018261106d565b5060608301518482036060860152610ff88282610f2f565b915050608083015161100d608086018261106d565b5060a083015161102060a086018261106d565b5060c083015161103360c086018261106d565b5060e083015184820360e086015261104b8282610f2f565b91505061010083015161106261010086018261106d565b508091505092915050565b61107681611272565b82525050565b61108581611272565b82525050565b600060208201905081810360008301526110a58184610eab565b905092915050565b60006020820190506110c26000830184610f20565b92915050565b60006020820190506110dd600083018461107c565b92915050565b60006040820190506110f8600083018561107c565b611105602083018461107c565b9392505050565b600061012082019050611122600083018c61107c565b61112f602083018b61107c565b61113c604083018a61107c565b818103606083015261114e8189610f68565b905061115d608083018861107c565b61116a60a083018761107c565b61117760c083018661107c565b81810360e08301526111898185610f68565b905061119961010083018461107c565b9a9950505050505050505050565b6000604051905081810181811067ffffffffffffffff821117156111ca57600080fd5b8060405250919050565b600067ffffffffffffffff8211156111eb57600080fd5b601f19601f8301169050602081019050919050565b6000819050602082019050919050565b600081519050919050565b600081519050919050565b6000602082019050919050565b600082825260208201905092915050565b600082825260208201905092915050565b600082825260208201905092915050565b60008115159050919050565b6000819050919050565b82818337600083830152505050565b60005b838110156112a957808201518184015260208101905061128e565b838111156112b8576000848401525b50505050565b6000601f19601f8301169050919050565b6112d881611272565b81146112e357600080fd5b5056fea365627a7a723158201574c66700bade82b943893fd126a3e852178a5146453b96181fb830eeda718f6c6578706572696d656e74616cf564736f6c63430005100040",
  "source": "pragma solidity >=0.4.22 <0.9.0;\r\npragma experimental ABIEncoderV2;\r\ncontract Orders{\r\n    uint public ordersCount = 0;\r\n\r\n    struct Order{\r\n        uint id;\r\n        uint productId;\r\n        uint amount;\r\n        string date;\r\n        uint status;    //  pending, confirmed, delivered, refunded\r\n        uint buyerId;\r\n        uint sellerId;\r\n        string deliveryAddress;\r\n        uint paymentType; //    0 - placanje pouzecem //   1 - eterijum\r\n\r\n    }\r\n\r\n    mapping (uint => Order) public orders;\r\n\r\n    event OrderCreated(uint id, uint OrderNumber);\r\n\r\n    constructor() public{\r\n\r\n        orders[0] = Order(0, 0, 1, \"2021-02-01\", 0, 0, 0, \"Kralja Petra, Kragujevac, Srbija\", 0);\r\n        orders[1] = Order(1, 1, 2, \"2021-03-01\", 0, 0, 0, \"Kralja Petra, Kragujevac, Srbija\", 0);\r\n        orders[2] = Order(2, 2, 1, \"2021-03-01\", 0, 0, 0, \"Kralja Petra, Kragujevac, Srbija\", 0);\r\n        orders[3] = Order(3, 3, 3, \"2021-04-01\", 0, 0, 0, \"Kralja Petra, Kragujevac, Srbija\", 0);\r\n        orders[4] = Order(4, 4, 1, \"2021-04-01\", 0, 0, 0, \"Kralja Petra, Kragujevac, Srbija\", 0);\r\n        orders[5] = Order(5, 5, 1, \"2021-04-01\", 0, 1, 0, \"Kralja Petra, Kragujevac, Srbija\", 0);\r\n        ordersCount = 6;\r\n    }\r\n\r\n    function createOrder(uint _productId, uint _amount, string memory _date,  uint _buyerId, uint _sellerId, string memory _deliveryAddress, uint _paymentType) public{\r\n\r\n        orders[ordersCount++] = Order(ordersCount, _productId, _amount, _date, 0, _buyerId, _sellerId, _deliveryAddress, _paymentType);\r\n        emit OrderCreated(_productId, ordersCount - 1);\r\n\r\n    }\r\n    function getOrders(uint _buyerId, uint totalOrders) public returns (Order[] memory){\r\n        uint countTemp = 0;\r\n        Order[] memory y = new Order[](totalOrders);\r\n        for (uint i= 0; i < ordersCount; i++) {\r\n            if (orders[i].buyerId == _buyerId){\r\n                y[countTemp++] = Order(orders[i].id,\r\n                    orders[i].productId,\r\n                    orders[i].amount,\r\n                    orders[i].date,\r\n                    orders[i].status,\r\n                    orders[i].buyerId,\r\n                    orders[i].sellerId,\r\n                    orders[i].deliveryAddress,\r\n                    orders[i].paymentType);\r\n            }\r\n        }\r\n        return y;\r\n    }\r\n    function getOrdersCount(uint buyerId) public returns (uint count){\r\n        uint countTemp = 0;\r\n        for (uint i= 0; i < ordersCount; i++) {\r\n            if (orders[i].buyerId == buyerId){\r\n                countTemp++;\r\n            }\r\n        }\r\n        return countTemp;\r\n    }\r\n    function checkForOrder(uint buyerId, uint productId) public returns (bool b){\r\n        for (uint i=0; i< ordersCount; i++) {\r\n            if (orders[i].buyerId == buyerId && orders[i].productId ==  productId)\r\n                return true;\r\n        }\r\n        return false;\r\n    }\r\n\r\n    function getDeliveryOrders(uint _sellerId, uint totalOrders) public returns (Order[] memory){\r\n        uint countTemp = 0;\r\n        Order[] memory y = new Order[](totalOrders);\r\n        for (uint i= 0; i < ordersCount; i++) {\r\n            if (orders[i].sellerId == _sellerId){\r\n                y[countTemp++] = Order(orders[i].id,\r\n                    orders[i].productId,\r\n                    orders[i].amount,\r\n                    orders[i].date,\r\n                    orders[i].status,\r\n                    orders[i].buyerId,\r\n                    orders[i].sellerId,\r\n                    orders[i].deliveryAddress,\r\n                    orders[i].paymentType);\r\n            }\r\n        }\r\n        return y;\r\n    }\r\n    function getDeliveryOrdersCount(uint _sellerId) public returns (uint count){\r\n        uint countTemp = 0;\r\n        for (uint i= 0; i < ordersCount; i++) {\r\n            if (orders[i].sellerId == _sellerId){\r\n                countTemp++;\r\n            }\r\n        }\r\n        return countTemp;\r\n    }\r\n    function setStatus(uint _orderId, uint _status) public {\r\n        for (uint i= 0; i < ordersCount; i++) {\r\n            if (orders[i].id == _orderId){\r\n                orders[i].status = _status;\r\n                break;\r\n            }\r\n        }\r\n    }\r\n\r\n}",
  "sourcePath": "C:/Users/Korisnik/Desktop/dev/Catalyst/src/frontend_mobile/contracts/Orders.sol",
  "compiler": {
    "name": "solc",
    "version": "0.5.16+commit.9c3226ce.Emscripten.clang"
  },
  "schemaVersion": "3.3.4",
  "updatedAt": "2021-05-17T15:00:48.025Z",
  "networkType": "ethereum",
  "devdoc": {
    "methods": {}
  },
  "userdoc": {
    "methods": {}
  }
}