{
  "contractName": "Orders",
  "abi": [
    {
      "inputs": [],
      "payable": false,
      "stateMutability": "nonpayable",
      "type": "constructor"
    },
    {
      "anonymous": false,
      "inputs": [
        {
          "indexed": false,
          "internalType": "uint256",
          "name": "id",
          "type": "uint256"
        },
        {
          "indexed": false,
          "internalType": "uint256",
          "name": "OrderNumber",
          "type": "uint256"
        }
      ],
      "name": "OrderCreated",
      "type": "event"
    },
    {
      "constant": true,
      "inputs": [
        {
          "internalType": "uint256",
          "name": "",
          "type": "uint256"
        }
      ],
      "name": "orders",
      "outputs": [
        {
          "internalType": "uint256",
          "name": "id",
          "type": "uint256"
        },
        {
          "internalType": "uint256",
          "name": "productId",
          "type": "uint256"
        },
        {
          "internalType": "uint256",
          "name": "amount",
          "type": "uint256"
        },
        {
          "internalType": "string",
          "name": "date",
          "type": "string"
        },
        {
          "internalType": "uint256",
          "name": "status",
          "type": "uint256"
        },
        {
          "internalType": "uint256",
          "name": "buyerId",
          "type": "uint256"
        },
        {
          "internalType": "uint256",
          "name": "sellerId",
          "type": "uint256"
        },
        {
          "internalType": "string",
          "name": "deliveryAddress",
          "type": "string"
        },
        {
          "internalType": "uint256",
          "name": "paymentType",
          "type": "uint256"
        },
        {
          "internalType": "uint256",
          "name": "price_numerator",
          "type": "uint256"
        },
        {
          "internalType": "uint256",
          "name": "price_denominator",
          "type": "uint256"
        }
      ],
      "payable": false,
      "stateMutability": "view",
      "type": "function"
    },
    {
      "constant": true,
      "inputs": [],
      "name": "ordersCount",
      "outputs": [
        {
          "internalType": "uint256",
          "name": "",
          "type": "uint256"
        }
      ],
      "payable": false,
      "stateMutability": "view",
      "type": "function"
    },
    {
      "constant": false,
      "inputs": [
        {
          "internalType": "uint256",
          "name": "_productId",
          "type": "uint256"
        },
        {
          "internalType": "uint256",
          "name": "_amount",
          "type": "uint256"
        },
        {
          "internalType": "string",
          "name": "_date",
          "type": "string"
        },
        {
          "internalType": "uint256",
          "name": "_buyerId",
          "type": "uint256"
        },
        {
          "internalType": "uint256",
          "name": "_sellerId",
          "type": "uint256"
        },
        {
          "internalType": "string",
          "name": "_deliveryAddress",
          "type": "string"
        },
        {
          "internalType": "uint256",
          "name": "_paymentType",
          "type": "uint256"
        },
        {
          "internalType": "uint256",
          "name": "_price_numerator",
          "type": "uint256"
        },
        {
          "internalType": "uint256",
          "name": "_price_denominator",
          "type": "uint256"
        }
      ],
      "name": "createOrder",
      "outputs": [],
      "payable": false,
      "stateMutability": "nonpayable",
      "type": "function"
    },
    {
      "constant": false,
      "inputs": [
        {
          "internalType": "uint256",
          "name": "_buyerId",
          "type": "uint256"
        },
        {
          "internalType": "uint256",
          "name": "totalOrders",
          "type": "uint256"
        }
      ],
      "name": "getOrders",
      "outputs": [
        {
          "components": [
            {
              "internalType": "uint256",
              "name": "id",
              "type": "uint256"
            },
            {
              "internalType": "uint256",
              "name": "productId",
              "type": "uint256"
            },
            {
              "internalType": "uint256",
              "name": "amount",
              "type": "uint256"
            },
            {
              "internalType": "string",
              "name": "date",
              "type": "string"
            },
            {
              "internalType": "uint256",
              "name": "status",
              "type": "uint256"
            },
            {
              "internalType": "uint256",
              "name": "buyerId",
              "type": "uint256"
            },
            {
              "internalType": "uint256",
              "name": "sellerId",
              "type": "uint256"
            },
            {
              "internalType": "string",
              "name": "deliveryAddress",
              "type": "string"
            },
            {
              "internalType": "uint256",
              "name": "paymentType",
              "type": "uint256"
            },
            {
              "internalType": "uint256",
              "name": "price_numerator",
              "type": "uint256"
            },
            {
              "internalType": "uint256",
              "name": "price_denominator",
              "type": "uint256"
            }
          ],
          "internalType": "struct Orders.Order[]",
          "name": "",
          "type": "tuple[]"
        }
      ],
      "payable": false,
      "stateMutability": "nonpayable",
      "type": "function"
    },
    {
      "constant": false,
      "inputs": [
        {
          "internalType": "uint256",
          "name": "buyerId",
          "type": "uint256"
        }
      ],
      "name": "getOrdersCount",
      "outputs": [
        {
          "internalType": "uint256",
          "name": "count",
          "type": "uint256"
        }
      ],
      "payable": false,
      "stateMutability": "nonpayable",
      "type": "function"
    },
    {
      "constant": false,
      "inputs": [
        {
          "internalType": "uint256",
          "name": "buyerId",
          "type": "uint256"
        },
        {
          "internalType": "uint256",
          "name": "productId",
          "type": "uint256"
        }
      ],
      "name": "checkForOrder",
      "outputs": [
        {
          "internalType": "bool",
          "name": "b",
          "type": "bool"
        }
      ],
      "payable": false,
      "stateMutability": "nonpayable",
      "type": "function"
    },
    {
      "constant": false,
      "inputs": [
        {
          "internalType": "uint256",
          "name": "_sellerId",
          "type": "uint256"
        },
        {
          "internalType": "uint256",
          "name": "totalOrders",
          "type": "uint256"
        }
      ],
      "name": "getDeliveryOrders",
      "outputs": [
        {
          "components": [
            {
              "internalType": "uint256",
              "name": "id",
              "type": "uint256"
            },
            {
              "internalType": "uint256",
              "name": "productId",
              "type": "uint256"
            },
            {
              "internalType": "uint256",
              "name": "amount",
              "type": "uint256"
            },
            {
              "internalType": "string",
              "name": "date",
              "type": "string"
            },
            {
              "internalType": "uint256",
              "name": "status",
              "type": "uint256"
            },
            {
              "internalType": "uint256",
              "name": "buyerId",
              "type": "uint256"
            },
            {
              "internalType": "uint256",
              "name": "sellerId",
              "type": "uint256"
            },
            {
              "internalType": "string",
              "name": "deliveryAddress",
              "type": "string"
            },
            {
              "internalType": "uint256",
              "name": "paymentType",
              "type": "uint256"
            },
            {
              "internalType": "uint256",
              "name": "price_numerator",
              "type": "uint256"
            },
            {
              "internalType": "uint256",
              "name": "price_denominator",
              "type": "uint256"
            }
          ],
          "internalType": "struct Orders.Order[]",
          "name": "",
          "type": "tuple[]"
        }
      ],
      "payable": false,
      "stateMutability": "nonpayable",
      "type": "function"
    },
    {
      "constant": false,
      "inputs": [
        {
          "internalType": "uint256",
          "name": "_sellerId",
          "type": "uint256"
        }
      ],
      "name": "getDeliveryOrdersCount",
      "outputs": [
        {
          "internalType": "uint256",
          "name": "count",
          "type": "uint256"
        }
      ],
      "payable": false,
      "stateMutability": "nonpayable",
      "type": "function"
    },
    {
      "constant": false,
      "inputs": [
        {
          "internalType": "uint256",
          "name": "_orderId",
          "type": "uint256"
        },
        {
          "internalType": "uint256",
          "name": "_status",
          "type": "uint256"
        }
      ],
      "name": "setStatus",
      "outputs": [],
      "payable": false,
      "stateMutability": "nonpayable",
      "type": "function"
    }
  ],
  "bytecode": "0x6080604052600080553480156200001557600080fd5b506040518061016001604052806000815260200160008152602001600181526020016040518060400160405280600a81526020017f323032312d30322d30310000000000000000000000000000000000000000000081525081526020016000815260200160008152602001600181526020016040518060400160405280602081526020017f4b72616c6a612050657472612c204b726167756a657661632c20537262696a61815250815260200160008152602001602b8152602001600381525060016000808152602001908152602001600020600082015181600001556020820151816001015560408201518160020155606082015181600301908051906020019062000124929190620008c9565b506080820151816004015560a0820151816005015560c0820151816006015560e082015181600701908051906020019062000161929190620008c9565b506101008201518160080155610120820151816009015561014082015181600a01559050506040518061016001604052806001815260200160018152602001600281526020016040518060400160405280600a81526020017f323032312d30332d30310000000000000000000000000000000000000000000081525081526020016000815260200160008152602001600181526020016040518060400160405280602081526020017f4b72616c6a612050657472612c204b726167756a657661632c20537262696a61815250815260200160008152602001602b815260200160038152506001600060018152602001908152602001600020600082015181600001556020820151816001015560408201518160020155606082015181600301908051906020019062000295929190620008c9565b506080820151816004015560a0820151816005015560c0820151816006015560e0820151816007019080519060200190620002d2929190620008c9565b506101008201518160080155610120820151816009015561014082015181600a01559050506040518061016001604052806002815260200160028152602001600181526020016040518060400160405280600a81526020017f323032312d30332d30310000000000000000000000000000000000000000000081525081526020016000815260200160008152602001600181526020016040518060400160405280602081526020017f4b72616c6a612050657472612c204b726167756a657661632c20537262696a61815250815260200160008152602001602b815260200160038152506001600060028152602001908152602001600020600082015181600001556020820151816001015560408201518160020155606082015181600301908051906020019062000406929190620008c9565b506080820151816004015560a0820151816005015560c0820151816006015560e082015181600701908051906020019062000443929190620008c9565b506101008201518160080155610120820151816009015561014082015181600a01559050506040518061016001604052806003815260200160038152602001600381526020016040518060400160405280600a81526020017f323032312d30342d30310000000000000000000000000000000000000000000081525081526020016000815260200160008152602001600181526020016040518060400160405280602081526020017f4b72616c6a612050657472612c204b726167756a657661632c20537262696a61815250815260200160008152602001602b815260200160038152506001600060038152602001908152602001600020600082015181600001556020820151816001015560408201518160020155606082015181600301908051906020019062000577929190620008c9565b506080820151816004015560a0820151816005015560c0820151816006015560e0820151816007019080519060200190620005b4929190620008c9565b506101008201518160080155610120820151816009015561014082015181600a01559050506040518061016001604052806004815260200160048152602001600181526020016040518060400160405280600a81526020017f323032312d30342d30310000000000000000000000000000000000000000000081525081526020016000815260200160008152602001600181526020016040518060400160405280602081526020017f4b72616c6a612050657472612c204b726167756a657661632c20537262696a61815250815260200160008152602001602b8152602001600381525060016000600481526020019081526020016000206000820151816000015560208201518160010155604082015181600201556060820151816003019080519060200190620006e8929190620008c9565b506080820151816004015560a0820151816005015560c0820151816006015560e082015181600701908051906020019062000725929190620008c9565b506101008201518160080155610120820151816009015561014082015181600a01559050506040518061016001604052806005815260200160058152602001600181526020016040518060400160405280600a81526020017f323032312d30342d30310000000000000000000000000000000000000000000081525081526020016000815260200160008152602001600181526020016040518060400160405280602081526020017f4b72616c6a612050657472612c204b726167756a657661632c20537262696a61815250815260200160008152602001602b815260200160038152506001600060058152602001908152602001600020600082015181600001556020820151816001015560408201518160020155606082015181600301908051906020019062000859929190620008c9565b506080820151816004015560a0820151816005015560c0820151816006015560e082015181600701908051906020019062000896929190620008c9565b506101008201518160080155610120820151816009015561014082015181600a0155905050600660008190555062000978565b828054600181600116156101000203166002900490600052602060002090601f016020900481019282601f106200090c57805160ff19168380011785556200093d565b828001600101855582156200093d579182015b828111156200093c5782518255916020019190600101906200091f565b5b5090506200094c919062000950565b5090565b6200097591905b808211156200097157600081600090555060010162000957565b5090565b90565b61144980620009886000396000f3fe608060405234801561001057600080fd5b50600436106100935760003560e01c806382e408131161006657806382e40813146101465780638f72fc7714610162578063a85c38ef14610192578063bb8ed8c6146101cc578063ffeceb25146101e857610093565b80630b28c9b31461009857806335daa731146100c857806346b23ee1146100e65780635d5ce89c14610116575b600080fd5b6100b260048036036100ad9190810190610e14565b610218565b6040516100bf91906111ca565b60405180910390f35b6100d061026d565b6040516100dd91906111ca565b60405180910390f35b61010060048036036100fb9190810190610e14565b610273565b60405161010d91906111ca565b60405180910390f35b610130600480360361012b9190810190610e3d565b6102c8565b60405161013d919061118d565b60405180910390f35b610160600480360361015b9190810190610e3d565b6105e1565b005b61017c60048036036101779190810190610e3d565b610641565b604051610189919061118d565b60405180910390f35b6101ac60048036036101a79190810190610e14565b61095a565b6040516101c39b9a9998979695949392919061120e565b60405180910390f35b6101e660048036036101e19190810190610e79565b610ae4565b005b61020260048036036101fd9190810190610e3d565b610c38565b60405161020f91906111af565b60405180910390f35b6000806000905060008090505b6000548110156102635783600160008381526020019081526020016000206005015414156102565781806001019250505b8080600101915050610225565b5080915050919050565b60005481565b6000806000905060008090505b6000548110156102be5783600160008381526020019081526020016000206006015414156102b15781806001019250505b8080600101915050610280565b5080915050919050565b6060600080905060608360405190808252806020026020018201604052801561030b57816020015b6102f8610cac565b8152602001906001900390816102f05790505b50905060008090505b6000548110156105d55785600160008381526020019081526020016000206006015414156105c857604051806101600160405280600160008481526020019081526020016000206000015481526020016001600084815260200190815260200160002060010154815260200160016000848152602001908152602001600020600201548152602001600160008481526020019081526020016000206003018054600181600116156101000203166002900480601f0160208091040260200160405190810160405280929190818152602001828054600181600116156101000203166002900480156104465780601f1061041b57610100808354040283529160200191610446565b820191906000526020600020905b81548152906001019060200180831161042957829003601f168201915b50505050508152602001600160008481526020019081526020016000206004015481526020016001600084815260200190815260200160002060050154815260200160016000848152602001908152602001600020600601548152602001600160008481526020019081526020016000206007018054600181600116156101000203166002900480601f01602080910402602001604051908101604052809291908181526020018280546001816001161561010002031660029004801561054e5780601f106105235761010080835404028352916020019161054e565b820191906000526020600020905b81548152906001019060200180831161053157829003601f168201915b50505050508152602001600160008481526020019081526020016000206008015481526020016001600084815260200190815260200160002060090154815260200160016000848152602001908152602001600020600a01548152508284806001019550815181106105bc57fe5b60200260200101819052505b8080600101915050610314565b50809250505092915050565b60008090505b60005481101561063c57826001600083815260200190815260200160002060000154141561062f5781600160008381526020019081526020016000206004018190555061063c565b80806001019150506105e7565b505050565b6060600080905060608360405190808252806020026020018201604052801561068457816020015b610671610cac565b8152602001906001900390816106695790505b50905060008090505b60005481101561094e57856001600083815260200190815260200160002060050154141561094157604051806101600160405280600160008481526020019081526020016000206000015481526020016001600084815260200190815260200160002060010154815260200160016000848152602001908152602001600020600201548152602001600160008481526020019081526020016000206003018054600181600116156101000203166002900480601f0160208091040260200160405190810160405280929190818152602001828054600181600116156101000203166002900480156107bf5780601f10610794576101008083540402835291602001916107bf565b820191906000526020600020905b8154815290600101906020018083116107a257829003601f168201915b50505050508152602001600160008481526020019081526020016000206004015481526020016001600084815260200190815260200160002060050154815260200160016000848152602001908152602001600020600601548152602001600160008481526020019081526020016000206007018054600181600116156101000203166002900480601f0160208091040260200160405190810160405280929190818152602001828054600181600116156101000203166002900480156108c75780601f1061089c576101008083540402835291602001916108c7565b820191906000526020600020905b8154815290600101906020018083116108aa57829003601f168201915b50505050508152602001600160008481526020019081526020016000206008015481526020016001600084815260200190815260200160002060090154815260200160016000848152602001908152602001600020600a015481525082848060010195508151811061093557fe5b60200260200101819052505b808060010191505061068d565b50809250505092915050565b6001602052806000526040600020600091509050806000015490806001015490806002015490806003018054600181600116156101000203166002900480601f016020809104026020016040519081016040528092919081815260200182805460018160011615610100020316600290048015610a185780601f106109ed57610100808354040283529160200191610a18565b820191906000526020600020905b8154815290600101906020018083116109fb57829003601f168201915b505050505090806004015490806005015490806006015490806007018054600181600116156101000203166002900480601f016020809104026020016040519081016040528092919081815260200182805460018160011615610100020316600290048015610ac85780601f10610a9d57610100808354040283529160200191610ac8565b820191906000526020600020905b815481529060010190602001808311610aab57829003601f168201915b50505050509080600801549080600901549080600a015490508b565b60405180610160016040528060005481526020018a81526020018981526020018881526020016000815260200187815260200186815260200185815260200184815260200183815260200182815250600160008060008154809291906001019190505581526020019081526020016000206000820151816000015560208201518160010155604082015181600201556060820151816003019080519060200190610b8f929190610d06565b506080820151816004015560a0820151816005015560c0820151816006015560e0820151816007019080519060200190610bca929190610d06565b506101008201518160080155610120820151816009015561014082015181600a01559050507f7ab7b5bf31475b82f820e7fdfd6387632fc391f3bbd3f28afa54804f30bebd4d89600160005403604051610c259291906111e5565b60405180910390a1505050505050505050565b600080600090505b600054811015610ca057836001600083815260200190815260200160002060050154148015610c845750826001600083815260200190815260200160002060010154145b15610c93576001915050610ca6565b8080600101915050610c40565b50600090505b92915050565b60405180610160016040528060008152602001600081526020016000815260200160608152602001600081526020016000815260200160008152602001606081526020016000815260200160008152602001600081525090565b828054600181600116156101000203166002900490600052602060002090601f016020900481019282601f10610d4757805160ff1916838001178555610d75565b82800160010185558215610d75579182015b82811115610d74578251825591602001919060010190610d59565b5b509050610d829190610d86565b5090565b610da891905b80821115610da4576000816000905550600101610d8c565b5090565b90565b600082601f830112610dbc57600080fd5b8135610dcf610dca826112f4565b6112c7565b91508082526020830160208301858383011115610deb57600080fd5b610df683828461139c565b50505092915050565b600081359050610e0e816113ef565b92915050565b600060208284031215610e2657600080fd5b6000610e3484828501610dff565b91505092915050565b60008060408385031215610e5057600080fd5b6000610e5e85828601610dff565b9250506020610e6f85828601610dff565b9150509250929050565b60008060008060008060008060006101208a8c031215610e9857600080fd5b6000610ea68c828d01610dff565b9950506020610eb78c828d01610dff565b98505060408a013567ffffffffffffffff811115610ed457600080fd5b610ee08c828d01610dab565b9750506060610ef18c828d01610dff565b9650506080610f028c828d01610dff565b95505060a08a013567ffffffffffffffff811115610f1f57600080fd5b610f2b8c828d01610dab565b94505060c0610f3c8c828d01610dff565b93505060e0610f4d8c828d01610dff565b925050610100610f5f8c828d01610dff565b9150509295985092959850929598565b6000610f7b8383611079565b905092915050565b6000610f8e82611330565b610f988185611353565b935083602082028501610faa85611320565b8060005b85811015610fe65784840389528151610fc78582610f6f565b9450610fd283611346565b925060208a01995050600181019050610fae565b50829750879550505050505092915050565b61100181611386565b82525050565b60006110128261133b565b61101c8185611364565b935061102c8185602086016113ab565b611035816113de565b840191505092915050565b600061104b8261133b565b6110558185611375565b93506110658185602086016113ab565b61106e816113de565b840191505092915050565b600061016083016000830151611092600086018261116f565b5060208301516110a5602086018261116f565b5060408301516110b8604086018261116f565b50606083015184820360608601526110d08282611007565b91505060808301516110e5608086018261116f565b5060a08301516110f860a086018261116f565b5060c083015161110b60c086018261116f565b5060e083015184820360e08601526111238282611007565b91505061010083015161113a61010086018261116f565b5061012083015161114f61012086018261116f565b5061014083015161116461014086018261116f565b508091505092915050565b61117881611392565b82525050565b61118781611392565b82525050565b600060208201905081810360008301526111a78184610f83565b905092915050565b60006020820190506111c46000830184610ff8565b92915050565b60006020820190506111df600083018461117e565b92915050565b60006040820190506111fa600083018561117e565b611207602083018461117e565b9392505050565b600061016082019050611224600083018e61117e565b611231602083018d61117e565b61123e604083018c61117e565b8181036060830152611250818b611040565b905061125f608083018a61117e565b61126c60a083018961117e565b61127960c083018861117e565b81810360e083015261128b8187611040565b905061129b61010083018661117e565b6112a961012083018561117e565b6112b761014083018461117e565b9c9b505050505050505050505050565b6000604051905081810181811067ffffffffffffffff821117156112ea57600080fd5b8060405250919050565b600067ffffffffffffffff82111561130b57600080fd5b601f19601f8301169050602081019050919050565b6000819050602082019050919050565b600081519050919050565b600081519050919050565b6000602082019050919050565b600082825260208201905092915050565b600082825260208201905092915050565b600082825260208201905092915050565b60008115159050919050565b6000819050919050565b82818337600083830152505050565b60005b838110156113c95780820151818401526020810190506113ae565b838111156113d8576000848401525b50505050565b6000601f19601f8301169050919050565b6113f881611392565b811461140357600080fd5b5056fea365627a7a72315820ce7c102a772ca2eaa20b2e8bb285b0291fe0c7604d5c1b6a8dd7b0404412d3356c6578706572696d656e74616cf564736f6c63430005100040",
  "source": "pragma solidity >=0.4.22 <0.9.0;\npragma experimental ABIEncoderV2;\ncontract Orders{\n    uint public ordersCount = 0;\n\n    struct Order{\n        uint id;\n        uint productId;\n        uint amount;\n        string date;\n        uint status;    //  pending, confirmed, delivered, refunded\n        uint buyerId;\n        uint sellerId;\n        string deliveryAddress;\n        uint paymentType; //    0 - placanje pouzecem //   1 - eterijum\n        uint price_numerator;\n        uint price_denominator;\n    }\n\n    mapping (uint => Order) public orders;\n\n    event OrderCreated(uint id, uint OrderNumber);\n\n    constructor() public{\n\n        orders[0] = Order(0, 0, 1, \"2021-02-01\", 0, 0, 1, \"Kralja Petra, Kragujevac, Srbija\", 0, 43, 3);\n        orders[1] = Order(1, 1, 2, \"2021-03-01\", 0, 0, 1, \"Kralja Petra, Kragujevac, Srbija\", 0, 43, 3);\n        orders[2] = Order(2, 2, 1, \"2021-03-01\", 0, 0, 1, \"Kralja Petra, Kragujevac, Srbija\", 0, 43, 3);\n        orders[3] = Order(3, 3, 3, \"2021-04-01\", 0, 0, 1, \"Kralja Petra, Kragujevac, Srbija\", 0, 43, 3);\n        orders[4] = Order(4, 4, 1, \"2021-04-01\", 0, 0, 1, \"Kralja Petra, Kragujevac, Srbija\", 0, 43, 3);\n        orders[5] = Order(5, 5, 1, \"2021-04-01\", 0, 0, 1, \"Kralja Petra, Kragujevac, Srbija\", 0, 43, 3);\n        ordersCount = 6;\n    }\n\n    function createOrder(uint _productId, uint _amount, string memory _date,  uint _buyerId, uint _sellerId, string memory _deliveryAddress, uint _paymentType, uint _price_numerator, uint _price_denominator) public{\n\n        orders[ordersCount++] = Order(ordersCount, _productId, _amount, _date, 0, _buyerId, _sellerId, _deliveryAddress, _paymentType, _price_numerator, _price_denominator);\n        emit OrderCreated(_productId, ordersCount - 1);\n\n    }\n    function getOrders(uint _buyerId, uint totalOrders) public returns (Order[] memory){\n        uint countTemp = 0;\n        Order[] memory y = new Order[](totalOrders);\n        for (uint i= 0; i < ordersCount; i++) {\n            if (orders[i].buyerId == _buyerId){\n                y[countTemp++] = Order(orders[i].id,\n                    orders[i].productId,\n                    orders[i].amount,\n                    orders[i].date,\n                    orders[i].status,\n                    orders[i].buyerId,\n                    orders[i].sellerId,\n                    orders[i].deliveryAddress,\n                    orders[i].paymentType,\n                orders[i].price_numerator,\n                orders[i].price_denominator\n                );\n            }\n        }\n        return y;\n    }\n    function getOrdersCount(uint buyerId) public returns (uint count){\n        uint countTemp = 0;\n        for (uint i= 0; i < ordersCount; i++) {\n            if (orders[i].buyerId == buyerId){\n                countTemp++;\n            }\n        }\n        return countTemp;\n    }\n    function checkForOrder(uint buyerId, uint productId) public returns (bool b){\n        for (uint i=0; i< ordersCount; i++) {\n            if (orders[i].buyerId == buyerId && orders[i].productId ==  productId)\n                return true;\n        }\n        return false;\n    }\n\n    function getDeliveryOrders(uint _sellerId, uint totalOrders) public returns (Order[] memory){\n        uint countTemp = 0;\n        Order[] memory y = new Order[](totalOrders);\n        for (uint i= 0; i < ordersCount; i++) {\n            if (orders[i].sellerId == _sellerId){\n                y[countTemp++] = Order(orders[i].id,\n                    orders[i].productId,\n                    orders[i].amount,\n                    orders[i].date,\n                    orders[i].status,\n                    orders[i].buyerId,\n                    orders[i].sellerId,\n                    orders[i].deliveryAddress,\n                    orders[i].paymentType,\n                orders[i].price_numerator,\n                orders[i].price_denominator);\n            }\n        }\n        return y;\n    }\n    function getDeliveryOrdersCount(uint _sellerId) public returns (uint count){\n        uint countTemp = 0;\n        for (uint i= 0; i < ordersCount; i++) {\n            if (orders[i].sellerId == _sellerId){\n                countTemp++;\n            }\n        }\n        return countTemp;\n    }\n    function setStatus(uint _orderId, uint _status) public {\n        for (uint i= 0; i < ordersCount; i++) {\n            if (orders[i].id == _orderId){\n                orders[i].status = _status;\n                break;\n            }\n        }\n    }\n\n}",
  "sourcePath": "/home/jovan/Catalyst/src/frontend_mobile/contracts/Orders.sol",
  "compiler": {
    "name": "solc",
    "version": "0.5.16+commit.9c3226ce.Emscripten.clang"
  },
  "schemaVersion": "3.3.4",
  "updatedAt": "2021-05-19T03:55:45.425Z",
  "networkType": "ethereum",
  "devdoc": {
    "methods": {}
  },
  "userdoc": {
    "methods": {}
  }
}