{
  "contractName": "Orders",
  "abi": [
    {
      "inputs": [],
      "payable": false,
      "stateMutability": "nonpayable",
      "type": "constructor"
    },
    {
      "anonymous": false,
      "inputs": [
        {
          "indexed": false,
          "internalType": "uint256",
          "name": "id",
          "type": "uint256"
        },
        {
          "indexed": false,
          "internalType": "uint256",
          "name": "OrderNumber",
          "type": "uint256"
        }
      ],
      "name": "OrderCreated",
      "type": "event"
    },
    {
      "constant": true,
      "inputs": [
        {
          "internalType": "uint256",
          "name": "",
          "type": "uint256"
        }
      ],
      "name": "orders",
      "outputs": [
        {
          "internalType": "uint256",
          "name": "id",
          "type": "uint256"
        },
        {
          "internalType": "uint256",
          "name": "productId",
          "type": "uint256"
        },
        {
          "internalType": "uint256",
          "name": "amount",
          "type": "uint256"
        },
        {
          "internalType": "string",
          "name": "date",
          "type": "string"
        },
        {
          "internalType": "uint256",
          "name": "status",
          "type": "uint256"
        },
        {
          "internalType": "uint256",
          "name": "buyerId",
          "type": "uint256"
        },
        {
          "internalType": "uint256",
          "name": "sellerId",
          "type": "uint256"
        },
        {
          "internalType": "string",
          "name": "deliveryAddress",
          "type": "string"
        },
        {
          "internalType": "uint256",
          "name": "paymentType",
          "type": "uint256"
        }
      ],
      "payable": false,
      "stateMutability": "view",
      "type": "function"
    },
    {
      "constant": true,
      "inputs": [],
      "name": "ordersCount",
      "outputs": [
        {
          "internalType": "uint256",
          "name": "",
          "type": "uint256"
        }
      ],
      "payable": false,
      "stateMutability": "view",
      "type": "function"
    },
    {
      "constant": false,
      "inputs": [
        {
          "internalType": "uint256",
          "name": "_productId",
          "type": "uint256"
        },
        {
          "internalType": "uint256",
          "name": "_amount",
          "type": "uint256"
        },
        {
          "internalType": "string",
          "name": "_date",
          "type": "string"
        },
        {
          "internalType": "uint256",
          "name": "_buyerId",
          "type": "uint256"
        },
        {
          "internalType": "uint256",
          "name": "_sellerId",
          "type": "uint256"
        },
        {
          "internalType": "string",
          "name": "_deliveryAddress",
          "type": "string"
        },
        {
          "internalType": "uint256",
          "name": "_paymentType",
          "type": "uint256"
        }
      ],
      "name": "createOrder",
      "outputs": [],
      "payable": false,
      "stateMutability": "nonpayable",
      "type": "function"
    },
    {
      "constant": false,
      "inputs": [
        {
          "internalType": "uint256",
          "name": "_buyerId",
          "type": "uint256"
        },
        {
          "internalType": "uint256",
          "name": "totalOrders",
          "type": "uint256"
        }
      ],
      "name": "getOrders",
      "outputs": [
        {
          "components": [
            {
              "internalType": "uint256",
              "name": "id",
              "type": "uint256"
            },
            {
              "internalType": "uint256",
              "name": "productId",
              "type": "uint256"
            },
            {
              "internalType": "uint256",
              "name": "amount",
              "type": "uint256"
            },
            {
              "internalType": "string",
              "name": "date",
              "type": "string"
            },
            {
              "internalType": "uint256",
              "name": "status",
              "type": "uint256"
            },
            {
              "internalType": "uint256",
              "name": "buyerId",
              "type": "uint256"
            },
            {
              "internalType": "uint256",
              "name": "sellerId",
              "type": "uint256"
            },
            {
              "internalType": "string",
              "name": "deliveryAddress",
              "type": "string"
            },
            {
              "internalType": "uint256",
              "name": "paymentType",
              "type": "uint256"
            }
          ],
          "internalType": "struct Orders.Order[]",
          "name": "",
          "type": "tuple[]"
        }
      ],
      "payable": false,
      "stateMutability": "nonpayable",
      "type": "function"
    },
    {
      "constant": false,
      "inputs": [
        {
          "internalType": "uint256",
          "name": "buyerId",
          "type": "uint256"
        }
      ],
      "name": "getOrdersCount",
      "outputs": [
        {
          "internalType": "uint256",
          "name": "count",
          "type": "uint256"
        }
      ],
      "payable": false,
      "stateMutability": "nonpayable",
      "type": "function"
    },
    {
      "constant": false,
      "inputs": [
        {
          "internalType": "uint256",
          "name": "buyerId",
          "type": "uint256"
        },
        {
          "internalType": "uint256",
          "name": "productId",
          "type": "uint256"
        }
      ],
      "name": "checkForOrder",
      "outputs": [
        {
          "internalType": "bool",
          "name": "b",
          "type": "bool"
        }
      ],
      "payable": false,
      "stateMutability": "nonpayable",
      "type": "function"
    }
  ],
  "bytecode": "0x6080604052600080553480156200001557600080fd5b506040518061012001604052806000815260200160008152602001600181526020016040518060400160405280600a81526020017f323032312d30322d30310000000000000000000000000000000000000000000081525081526020016000815260200160008152602001600081526020016040518060400160405280602081526020017f4b72616c6a612050657472612c204b726167756a657661632c20537262696a618152508152602001600081525060016000808152602001908152602001600020600082015181600001556020820151816001015560408201518160020155606082015181600301908051906020019062000116929190620007f1565b506080820151816004015560a0820151816005015560c0820151816006015560e082015181600701908051906020019062000153929190620007f1565b5061010082015181600801559050506040518061012001604052806001815260200160018152602001600281526020016040518060400160405280600a81526020017f323032312d30332d30310000000000000000000000000000000000000000000081525081526020016000815260200160008152602001600081526020016040518060400160405280602081526020017f4b72616c6a612050657472612c204b726167756a657661632c20537262696a61815250815260200160008152506001600060018152602001908152602001600020600082015181600001556020820151816001015560408201518160020155606082015181600301908051906020019062000263929190620007f1565b506080820151816004015560a0820151816005015560c0820151816006015560e0820151816007019080519060200190620002a0929190620007f1565b5061010082015181600801559050506040518061012001604052806002815260200160028152602001600181526020016040518060400160405280600a81526020017f323032312d30332d30310000000000000000000000000000000000000000000081525081526020016000815260200160008152602001600081526020016040518060400160405280602081526020017f4b72616c6a612050657472612c204b726167756a657661632c20537262696a618152508152602001600081525060016000600281526020019081526020016000206000820151816000015560208201518160010155604082015181600201556060820151816003019080519060200190620003b0929190620007f1565b506080820151816004015560a0820151816005015560c0820151816006015560e0820151816007019080519060200190620003ed929190620007f1565b5061010082015181600801559050506040518061012001604052806003815260200160038152602001600381526020016040518060400160405280600a81526020017f323032312d30342d30310000000000000000000000000000000000000000000081525081526020016000815260200160008152602001600081526020016040518060400160405280602081526020017f4b72616c6a612050657472612c204b726167756a657661632c20537262696a618152508152602001600081525060016000600381526020019081526020016000206000820151816000015560208201518160010155604082015181600201556060820151816003019080519060200190620004fd929190620007f1565b506080820151816004015560a0820151816005015560c0820151816006015560e08201518160070190805190602001906200053a929190620007f1565b5061010082015181600801559050506040518061012001604052806004815260200160048152602001600181526020016040518060400160405280600a81526020017f323032312d30342d30310000000000000000000000000000000000000000000081525081526020016000815260200160008152602001600081526020016040518060400160405280602081526020017f4b72616c6a612050657472612c204b726167756a657661632c20537262696a6181525081526020016000815250600160006004815260200190815260200160002060008201518160000155602082015181600101556040820151816002015560608201518160030190805190602001906200064a929190620007f1565b506080820151816004015560a0820151816005015560c0820151816006015560e082015181600701908051906020019062000687929190620007f1565b5061010082015181600801559050506040518061012001604052806005815260200160058152602001600181526020016040518060400160405280600a81526020017f323032312d30342d30310000000000000000000000000000000000000000000081525081526020016000815260200160018152602001600081526020016040518060400160405280602081526020017f4b72616c6a612050657472612c204b726167756a657661632c20537262696a61815250815260200160008152506001600060058152602001908152602001600020600082015181600001556020820151816001015560408201518160020155606082015181600301908051906020019062000797929190620007f1565b506080820151816004015560a0820151816005015560c0820151816006015560e0820151816007019080519060200190620007d4929190620007f1565b5061010082015181600801559050506006600081905550620008a0565b828054600181600116156101000203166002900490600052602060002090601f016020900481019282601f106200083457805160ff191683800117855562000865565b8280016001018555821562000865579182015b828111156200086457825182559160200191906001019062000847565b5b50905062000874919062000878565b5090565b6200089d91905b80821115620008995760008160009055506001016200087f565b5090565b90565b610ee680620008b06000396000f3fe608060405234801561001057600080fd5b50600436106100625760003560e01c80630b28c9b31461006757806335daa731146100975780638f72fc77146100b5578063a5ee226c146100e5578063a85c38ef14610101578063ffeceb2514610139575b600080fd5b610081600480360361007c9190810190610921565b610169565b60405161008e9190610c85565b60405180910390f35b61009f6101be565b6040516100ac9190610c85565b60405180910390f35b6100cf60048036036100ca919081019061094a565b6101c4565b6040516100dc9190610c48565b60405180910390f35b6100ff60048036036100fa9190810190610986565b6104a5565b005b61011b60048036036101169190810190610921565b6105d5565b60405161013099989796959493929190610cc9565b60405180910390f35b610153600480360361014e919081019061094a565b610753565b6040516101609190610c6a565b60405180910390f35b6000806000905060008090505b6000548110156101b45783600160008381526020019081526020016000206005015414156101a75781806001019250505b8080600101915050610176565b5080915050919050565b60005481565b6060600080905060608360405190808252806020026020018201604052801561020757816020015b6101f46107c7565b8152602001906001900390816101ec5790505b50905060008090505b60005481101561049957856001600083815260200190815260200160002060050154141561048c57604051806101200160405280600160008481526020019081526020016000206000015481526020016001600084815260200190815260200160002060010154815260200160016000848152602001908152602001600020600201548152602001600160008481526020019081526020016000206003018054600181600116156101000203166002900480601f0160208091040260200160405190810160405280929190818152602001828054600181600116156101000203166002900480156103425780601f1061031757610100808354040283529160200191610342565b820191906000526020600020905b81548152906001019060200180831161032557829003601f168201915b50505050508152602001600160008481526020019081526020016000206004015481526020016001600084815260200190815260200160002060050154815260200160016000848152602001908152602001600020600601548152602001600160008481526020019081526020016000206007018054600181600116156101000203166002900480601f01602080910402602001604051908101604052809291908181526020018280546001816001161561010002031660029004801561044a5780601f1061041f5761010080835404028352916020019161044a565b820191906000526020600020905b81548152906001019060200180831161042d57829003601f168201915b50505050508152602001600160008481526020019081526020016000206008015481525082848060010195508151811061048057fe5b60200260200101819052505b8080600101915050610210565b50809250505092915050565b60405180610120016040528060005481526020018881526020018781526020018681526020016000815260200185815260200184815260200183815260200182815250600160008060008154809291906001019190505581526020019081526020016000206000820151816000015560208201518160010155604082015181600201556060820151816003019080519060200190610544929190610813565b506080820151816004015560a0820151816005015560c0820151816006015560e082015181600701908051906020019061057f929190610813565b5061010082015181600801559050507f7ab7b5bf31475b82f820e7fdfd6387632fc391f3bbd3f28afa54804f30bebd4d876001600054036040516105c4929190610ca0565b60405180910390a150505050505050565b6001602052806000526040600020600091509050806000015490806001015490806002015490806003018054600181600116156101000203166002900480601f0160208091040260200160405190810160405280929190818152602001828054600181600116156101000203166002900480156106935780601f1061066857610100808354040283529160200191610693565b820191906000526020600020905b81548152906001019060200180831161067657829003601f168201915b505050505090806004015490806005015490806006015490806007018054600181600116156101000203166002900480601f0160208091040260200160405190810160405280929190818152602001828054600181600116156101000203166002900480156107435780601f1061071857610100808354040283529160200191610743565b820191906000526020600020905b81548152906001019060200180831161072657829003601f168201915b5050505050908060080154905089565b600080600090505b6000548110156107bb5783600160008381526020019081526020016000206005015414801561079f5750826001600083815260200190815260200160002060010154145b156107ae5760019150506107c1565b808060010191505061075b565b50600090505b92915050565b6040518061012001604052806000815260200160008152602001600081526020016060815260200160008152602001600081526020016000815260200160608152602001600081525090565b828054600181600116156101000203166002900490600052602060002090601f016020900481019282601f1061085457805160ff1916838001178555610882565b82800160010185558215610882579182015b82811115610881578251825591602001919060010190610866565b5b50905061088f9190610893565b5090565b6108b591905b808211156108b1576000816000905550600101610899565b5090565b90565b600082601f8301126108c957600080fd5b81356108dc6108d782610d91565b610d64565b915080825260208301602083018583830111156108f857600080fd5b610903838284610e39565b50505092915050565b60008135905061091b81610e8c565b92915050565b60006020828403121561093357600080fd5b60006109418482850161090c565b91505092915050565b6000806040838503121561095d57600080fd5b600061096b8582860161090c565b925050602061097c8582860161090c565b9150509250929050565b600080600080600080600060e0888a0312156109a157600080fd5b60006109af8a828b0161090c565b97505060206109c08a828b0161090c565b965050604088013567ffffffffffffffff8111156109dd57600080fd5b6109e98a828b016108b8565b95505060606109fa8a828b0161090c565b9450506080610a0b8a828b0161090c565b93505060a088013567ffffffffffffffff811115610a2857600080fd5b610a348a828b016108b8565b92505060c0610a458a828b0161090c565b91505092959891949750929550565b6000610a608383610b5e565b905092915050565b6000610a7382610dcd565b610a7d8185610df0565b935083602082028501610a8f85610dbd565b8060005b85811015610acb5784840389528151610aac8582610a54565b9450610ab783610de3565b925060208a01995050600181019050610a93565b50829750879550505050505092915050565b610ae681610e23565b82525050565b6000610af782610dd8565b610b018185610e01565b9350610b11818560208601610e48565b610b1a81610e7b565b840191505092915050565b6000610b3082610dd8565b610b3a8185610e12565b9350610b4a818560208601610e48565b610b5381610e7b565b840191505092915050565b600061012083016000830151610b776000860182610c2a565b506020830151610b8a6020860182610c2a565b506040830151610b9d6040860182610c2a565b5060608301518482036060860152610bb58282610aec565b9150506080830151610bca6080860182610c2a565b5060a0830151610bdd60a0860182610c2a565b5060c0830151610bf060c0860182610c2a565b5060e083015184820360e0860152610c088282610aec565b915050610100830151610c1f610100860182610c2a565b508091505092915050565b610c3381610e2f565b82525050565b610c4281610e2f565b82525050565b60006020820190508181036000830152610c628184610a68565b905092915050565b6000602082019050610c7f6000830184610add565b92915050565b6000602082019050610c9a6000830184610c39565b92915050565b6000604082019050610cb56000830185610c39565b610cc26020830184610c39565b9392505050565b600061012082019050610cdf600083018c610c39565b610cec602083018b610c39565b610cf9604083018a610c39565b8181036060830152610d0b8189610b25565b9050610d1a6080830188610c39565b610d2760a0830187610c39565b610d3460c0830186610c39565b81810360e0830152610d468185610b25565b9050610d56610100830184610c39565b9a9950505050505050505050565b6000604051905081810181811067ffffffffffffffff82111715610d8757600080fd5b8060405250919050565b600067ffffffffffffffff821115610da857600080fd5b601f19601f8301169050602081019050919050565b6000819050602082019050919050565b600081519050919050565b600081519050919050565b6000602082019050919050565b600082825260208201905092915050565b600082825260208201905092915050565b600082825260208201905092915050565b60008115159050919050565b6000819050919050565b82818337600083830152505050565b60005b83811015610e66578082015181840152602081019050610e4b565b83811115610e75576000848401525b50505050565b6000601f19601f8301169050919050565b610e9581610e2f565b8114610ea057600080fd5b5056fea365627a7a723158205df53e711f9434513842cd9581ecdab016b04207f984888c6fcf948dd35c35406c6578706572696d656e74616cf564736f6c63430005100040",
  "source": "pragma solidity >=0.4.22 <0.9.0;\r\npragma experimental ABIEncoderV2;\r\ncontract Orders{\r\n    uint public ordersCount = 0;\r\n\r\n    struct Order{\r\n        uint id;\r\n        uint productId;\r\n        uint amount;\r\n        string date;\r\n        uint status;\r\n        uint buyerId;   //  pending, confirmed, delivered, refunded\r\n        uint sellerId;\r\n        string deliveryAddress;\r\n        uint paymentType; //    0 - placanje pouzecem //   1 - eterijum\r\n\r\n    }\r\n\r\n    mapping (uint => Order) public orders;\r\n\r\n    event OrderCreated(uint id, uint OrderNumber);\r\n\r\n    constructor() public{\r\n\r\n        orders[0] = Order(0, 0, 1, \"2021-02-01\", 0, 0, 0, \"Kralja Petra, Kragujevac, Srbija\", 0);\r\n        orders[1] = Order(1, 1, 2, \"2021-03-01\", 0, 0, 0, \"Kralja Petra, Kragujevac, Srbija\", 0);\r\n        orders[2] = Order(2, 2, 1, \"2021-03-01\", 0, 0, 0, \"Kralja Petra, Kragujevac, Srbija\", 0);\r\n        orders[3] = Order(3, 3, 3, \"2021-04-01\", 0, 0, 0, \"Kralja Petra, Kragujevac, Srbija\", 0);\r\n        orders[4] = Order(4, 4, 1, \"2021-04-01\", 0, 0, 0, \"Kralja Petra, Kragujevac, Srbija\", 0);\r\n        orders[5] = Order(5, 5, 1, \"2021-04-01\", 0, 1, 0, \"Kralja Petra, Kragujevac, Srbija\", 0);\r\n        ordersCount = 6;\r\n    }\r\n\r\n    function createOrder(uint _productId, uint _amount, string memory _date,  uint _buyerId, uint _sellerId, string memory _deliveryAddress, uint _paymentType) public{\r\n\r\n        orders[ordersCount++] = Order(ordersCount, _productId, _amount, _date, 0, _buyerId, _sellerId, _deliveryAddress, _paymentType);\r\n        emit OrderCreated(_productId, ordersCount - 1);\r\n\r\n    }\r\n    function getOrders(uint _buyerId, uint totalOrders) public returns (Order[] memory){\r\n        uint countTemp = 0;\r\n        Order[] memory y = new Order[](totalOrders);\r\n        for (uint i= 0; i < ordersCount; i++) {\r\n            if (orders[i].buyerId == _buyerId){\r\n                y[countTemp++] = Order(orders[i].id,\r\n                    orders[i].productId,\r\n                    orders[i].amount,\r\n                    orders[i].date,\r\n                    orders[i].status,\r\n                    orders[i].buyerId,\r\n                    orders[i].sellerId,\r\n                    orders[i].deliveryAddress,\r\n                    orders[i].paymentType);\r\n            }\r\n        }\r\n        return y;\r\n    }\r\n    function getOrdersCount(uint buyerId) public returns (uint count){\r\n        uint countTemp = 0;\r\n        for (uint i= 0; i < ordersCount; i++) {\r\n            if (orders[i].buyerId == buyerId){\r\n                countTemp++;\r\n            }\r\n        }\r\n        return countTemp;\r\n    }\r\n    function checkForOrder(uint buyerId, uint productId) public returns (bool b){\r\n        for (uint i=0; i< ordersCount; i++) {\r\n            if (orders[i].buyerId == buyerId && orders[i].productId ==  productId)\r\n                return true;\r\n        }\r\n        return false;\r\n    }\r\n\r\n}",
  "sourcePath": "C:/Users/97ste/Desktop/Catalyst/src/frontend_mobile/contracts/Orders.sol",
  "compiler": {
    "name": "solc",
    "version": "0.5.16+commit.9c3226ce.Emscripten.clang"
  },
  "schemaVersion": "3.3.4",
  "updatedAt": "2021-05-16T18:07:46.641Z",
  "networkType": "ethereum",
  "devdoc": {
    "methods": {}
  },
  "userdoc": {
    "methods": {}
  }
}