{
  "contractName": "Orders",
  "abi": [
    {
      "inputs": [],
      "payable": false,
      "stateMutability": "nonpayable",
      "type": "constructor"
    },
    {
      "anonymous": false,
      "inputs": [
        {
          "indexed": false,
          "internalType": "uint256",
          "name": "id",
          "type": "uint256"
        },
        {
          "indexed": false,
          "internalType": "uint256",
          "name": "OrderNumber",
          "type": "uint256"
        }
      ],
      "name": "OrderCreated",
      "type": "event"
    },
    {
      "constant": true,
      "inputs": [
        {
          "internalType": "uint256",
          "name": "",
          "type": "uint256"
        }
      ],
      "name": "orders",
      "outputs": [
        {
          "internalType": "uint256",
          "name": "id",
          "type": "uint256"
        },
        {
          "internalType": "uint256",
          "name": "productId",
          "type": "uint256"
        },
        {
          "internalType": "uint256",
          "name": "priceDenominator",
          "type": "uint256"
        },
        {
          "internalType": "uint256",
          "name": "priceNominator",
          "type": "uint256"
        },
        {
          "internalType": "string",
          "name": "date",
          "type": "string"
        },
        {
          "internalType": "uint256",
          "name": "status",
          "type": "uint256"
        },
        {
          "internalType": "uint256",
          "name": "buyerId",
          "type": "uint256"
        },
        {
          "internalType": "uint256",
          "name": "sellerId",
          "type": "uint256"
        }
      ],
      "payable": false,
      "stateMutability": "view",
      "type": "function"
    },
    {
      "constant": true,
      "inputs": [],
      "name": "ordersCount",
      "outputs": [
        {
          "internalType": "uint256",
          "name": "",
          "type": "uint256"
        }
      ],
      "payable": false,
      "stateMutability": "view",
      "type": "function"
    },
    {
      "constant": false,
      "inputs": [
        {
          "internalType": "uint256",
          "name": "_productId",
          "type": "uint256"
        },
        {
          "internalType": "uint256",
          "name": "_priceDenominator",
          "type": "uint256"
        },
        {
          "internalType": "uint256",
          "name": "_priceNominator",
          "type": "uint256"
        },
        {
          "internalType": "string",
          "name": "_date",
          "type": "string"
        },
        {
          "internalType": "uint256",
          "name": "_buyerId",
          "type": "uint256"
        },
        {
          "internalType": "uint256",
          "name": "_sellerId",
          "type": "uint256"
        }
      ],
      "name": "createOrder",
      "outputs": [],
      "payable": false,
      "stateMutability": "nonpayable",
      "type": "function"
    },
    {
      "constant": false,
      "inputs": [
        {
          "internalType": "uint256",
          "name": "_buyerId",
          "type": "uint256"
        },
        {
          "internalType": "uint256",
          "name": "totalOrders",
          "type": "uint256"
        }
      ],
      "name": "getOrders",
      "outputs": [
        {
          "components": [
            {
              "internalType": "uint256",
              "name": "id",
              "type": "uint256"
            },
            {
              "internalType": "uint256",
              "name": "productId",
              "type": "uint256"
            },
            {
              "internalType": "uint256",
              "name": "priceDenominator",
              "type": "uint256"
            },
            {
              "internalType": "uint256",
              "name": "priceNominator",
              "type": "uint256"
            },
            {
              "internalType": "string",
              "name": "date",
              "type": "string"
            },
            {
              "internalType": "uint256",
              "name": "status",
              "type": "uint256"
            },
            {
              "internalType": "uint256",
              "name": "buyerId",
              "type": "uint256"
            },
            {
              "internalType": "uint256",
              "name": "sellerId",
              "type": "uint256"
            }
          ],
          "internalType": "struct Orders.Order[]",
          "name": "",
          "type": "tuple[]"
        }
      ],
      "payable": false,
      "stateMutability": "nonpayable",
      "type": "function"
    },
    {
      "constant": false,
      "inputs": [
        {
          "internalType": "uint256",
          "name": "buyerId",
          "type": "uint256"
        }
      ],
      "name": "getOrdersCount",
      "outputs": [
        {
          "internalType": "uint256",
          "name": "count",
          "type": "uint256"
        }
      ],
      "payable": false,
      "stateMutability": "nonpayable",
      "type": "function"
    }
  ],
  "bytecode": "0x6080604052600080553480156200001557600080fd5b506040518061010001604052806000815260200160008152602001600c8152602001600381526020016040518060400160405280600a81526020017f323032312d30322d30310000000000000000000000000000000000000000000081525081526020016000815260200160008152602001600081525060016000808152602001908152602001600020600082015181600001556020820151816001015560408201518160020155606082015181600301556080820151816004019080519060200190620000e5929190620005cf565b5060a0820151816005015560c0820151816006015560e082015181600701559050506040518061010001604052806001815260200160018152602001600c8152602001600481526020016040518060400160405280600a81526020017f323032312d30332d3031000000000000000000000000000000000000000000008152508152602001600081526020016000815260200160008152506001600060018152602001908152602001600020600082015181600001556020820151816001015560408201518160020155606082015181600301556080820151816004019080519060200190620001d7929190620005cf565b5060a0820151816005015560c0820151816006015560e082015181600701559050506040518061010001604052806002815260200160028152602001600c8152602001600581526020016040518060400160405280600a81526020017f323032312d30332d3031000000000000000000000000000000000000000000008152508152602001600081526020016000815260200160008152506001600060028152602001908152602001600020600082015181600001556020820151816001015560408201518160020155606082015181600301556080820151816004019080519060200190620002c9929190620005cf565b5060a0820151816005015560c0820151816006015560e082015181600701559050506040518061010001604052806003815260200160038152602001600c8152602001600581526020016040518060400160405280600a81526020017f323032312d30342d3031000000000000000000000000000000000000000000008152508152602001600081526020016000815260200160008152506001600060038152602001908152602001600020600082015181600001556020820151816001015560408201518160020155606082015181600301556080820151816004019080519060200190620003bb929190620005cf565b5060a0820151816005015560c0820151816006015560e082015181600701559050506040518061010001604052806004815260200160048152602001600c8152602001600581526020016040518060400160405280600a81526020017f323032312d30342d3031000000000000000000000000000000000000000000008152508152602001600081526020016000815260200160008152506001600060048152602001908152602001600020600082015181600001556020820151816001015560408201518160020155606082015181600301556080820151816004019080519060200190620004ad929190620005cf565b5060a0820151816005015560c0820151816006015560e082015181600701559050506040518061010001604052806005815260200160058152602001600c8152602001600581526020016040518060400160405280600a81526020017f323032312d30342d30310000000000000000000000000000000000000000000081525081526020016000815260200160018152602001600081525060016000600581526020019081526020016000206000820151816000015560208201518160010155604082015181600201556060820151816003015560808201518160040190805190602001906200059f929190620005cf565b5060a0820151816005015560c0820151816006015560e0820151816007015590505060066000819055506200067e565b828054600181600116156101000203166002900490600052602060002090601f016020900481019282601f106200061257805160ff191683800117855562000643565b8280016001018555821562000643579182015b828111156200064257825182559160200191906001019062000625565b5b50905062000652919062000656565b5090565b6200067b91905b80821115620006775760008160009055506001016200065d565b5090565b90565b610c23806200068e6000396000f3fe608060405234801561001057600080fd5b50600436106100575760003560e01c80630b28c9b31461005c57806335daa7311461008c5780638f72fc77146100aa578063a85c38ef146100da578063ddc9f27c14610111575b600080fd5b610076600480360361007191908101906106f3565b61012d565b60405161008391906109e4565b60405180910390f35b610094610182565b6040516100a191906109e4565b60405180910390f35b6100c460048036036100bf919081019061071c565b610188565b6040516100d191906109c2565b60405180910390f35b6100f460048036036100ef91908101906106f3565b6103b5565b604051610108989796959493929190610a28565b60405180910390f35b61012b60048036036101269190810190610758565b610495565b005b6000806000905060008090505b60005481101561017857836001600083815260200190815260200160002060060154141561016b5781806001019250505b808060010191505061013a565b5080915050919050565b60005481565b606060008090506060836040519080825280602002602001820160405280156101cb57816020015b6101b86105a0565b8152602001906001900390816101b05790505b50905060008090505b6000548110156103a957856001600083815260200190815260200160002060060154141561039c5760405180610100016040528060016000848152602001908152602001600020600001548152602001600160008481526020019081526020016000206001015481526020016001600084815260200190815260200160002060020154815260200160016000848152602001908152602001600020600301548152602001600160008481526020019081526020016000206004018054600181600116156101000203166002900480601f0160208091040260200160405190810160405280929190818152602001828054600181600116156101000203166002900480156103225780601f106102f757610100808354040283529160200191610322565b820191906000526020600020905b81548152906001019060200180831161030557829003601f168201915b505050505081526020016001600084815260200190815260200160002060050154815260200160016000848152602001908152602001600020600601548152602001600160008481526020019081526020016000206007015481525082848060010195508151811061039057fe5b60200260200101819052505b80806001019150506101d4565b50809250505092915050565b6001602052806000526040600020600091509050806000015490806001015490806002015490806003015490806004018054600181600116156101000203166002900480601f0160208091040260200160405190810160405280929190818152602001828054600181600116156101000203166002900480156104795780601f1061044e57610100808354040283529160200191610479565b820191906000526020600020905b81548152906001019060200180831161045c57829003601f168201915b5050505050908060050154908060060154908060070154905088565b60405180610100016040528060005481526020018781526020018681526020018581526020018481526020016000815260200183815260200182815250600160008060008154809291906001019190505581526020019081526020016000206000820151816000015560208201518160010155604082015181600201556060820151816003015560808201518160040190805190602001906105389291906105e5565b5060a0820151816005015560c0820151816006015560e082015181600701559050507f7ab7b5bf31475b82f820e7fdfd6387632fc391f3bbd3f28afa54804f30bebd4d866001600054036040516105909291906109ff565b60405180910390a1505050505050565b60405180610100016040528060008152602001600081526020016000815260200160008152602001606081526020016000815260200160008152602001600081525090565b828054600181600116156101000203166002900490600052602060002090601f016020900481019282601f1061062657805160ff1916838001178555610654565b82800160010185558215610654579182015b82811115610653578251825591602001919060010190610638565b5b5090506106619190610665565b5090565b61068791905b8082111561068357600081600090555060010161066b565b5090565b90565b600082601f83011261069b57600080fd5b81356106ae6106a982610ada565b610aad565b915080825260208301602083018583830111156106ca57600080fd5b6106d5838284610b76565b50505092915050565b6000813590506106ed81610bc9565b92915050565b60006020828403121561070557600080fd5b6000610713848285016106de565b91505092915050565b6000806040838503121561072f57600080fd5b600061073d858286016106de565b925050602061074e858286016106de565b9150509250929050565b60008060008060008060c0878903121561077157600080fd5b600061077f89828a016106de565b965050602061079089828a016106de565b95505060406107a189828a016106de565b945050606087013567ffffffffffffffff8111156107be57600080fd5b6107ca89828a0161068a565b93505060806107db89828a016106de565b92505060a06107ec89828a016106de565b9150509295509295509295565b600061080583836108f4565b905092915050565b600061081882610b16565b6108228185610b39565b93508360208202850161083485610b06565b8060005b85811015610870578484038952815161085185826107f9565b945061085c83610b2c565b925060208a01995050600181019050610838565b50829750879550505050505092915050565b600061088d82610b21565b6108978185610b4a565b93506108a7818560208601610b85565b6108b081610bb8565b840191505092915050565b60006108c682610b21565b6108d08185610b5b565b93506108e0818560208601610b85565b6108e981610bb8565b840191505092915050565b60006101008301600083015161090d60008601826109a4565b50602083015161092060208601826109a4565b50604083015161093360408601826109a4565b50606083015161094660608601826109a4565b506080830151848203608086015261095e8282610882565b91505060a083015161097360a08601826109a4565b5060c083015161098660c08601826109a4565b5060e083015161099960e08601826109a4565b508091505092915050565b6109ad81610b6c565b82525050565b6109bc81610b6c565b82525050565b600060208201905081810360008301526109dc818461080d565b905092915050565b60006020820190506109f960008301846109b3565b92915050565b6000604082019050610a1460008301856109b3565b610a2160208301846109b3565b9392505050565b600061010082019050610a3e600083018b6109b3565b610a4b602083018a6109b3565b610a5860408301896109b3565b610a6560608301886109b3565b8181036080830152610a7781876108bb565b9050610a8660a08301866109b3565b610a9360c08301856109b3565b610aa060e08301846109b3565b9998505050505050505050565b6000604051905081810181811067ffffffffffffffff82111715610ad057600080fd5b8060405250919050565b600067ffffffffffffffff821115610af157600080fd5b601f19601f8301169050602081019050919050565b6000819050602082019050919050565b600081519050919050565b600081519050919050565b6000602082019050919050565b600082825260208201905092915050565b600082825260208201905092915050565b600082825260208201905092915050565b6000819050919050565b82818337600083830152505050565b60005b83811015610ba3578082015181840152602081019050610b88565b83811115610bb2576000848401525b50505050565b6000601f19601f8301169050919050565b610bd281610b6c565b8114610bdd57600080fd5b5056fea365627a7a7231582080a4bd1c4ed480a0c4d9770100b77cf034c7922fea1deb77e8fc3a8fde6c9fe66c6578706572696d656e74616cf564736f6c63430005100040",
  "source": "pragma solidity >=0.4.22 <0.9.0;\r\npragma experimental ABIEncoderV2;\r\ncontract Orders{\r\n    uint public ordersCount = 0;\r\n\r\n    struct Order{\r\n        uint id;\r\n        uint productId;\r\n        uint priceDenominator;\r\n        uint priceNominator;\r\n        string date;\r\n        uint status;\r\n        uint buyerId;   //  pending, confirmed, delivered, refunded\r\n        uint sellerId;\r\n\r\n    }\r\n\r\n    mapping (uint => Order) public orders;\r\n\r\n    event OrderCreated(uint id, uint OrderNumber);\r\n\r\n    constructor() public{\r\n\r\n        orders[0] = Order(0, 0, 12, 3, \"2021-02-01\", 0, 0, 0);\r\n        orders[1] = Order(1, 1, 12, 4, \"2021-03-01\", 0, 0, 0);\r\n        orders[2] = Order(2, 2, 12, 5, \"2021-03-01\", 0, 0, 0);\r\n        orders[3] = Order(3, 3, 12, 5, \"2021-04-01\", 0, 0, 0);\r\n        orders[4] = Order(4, 4, 12, 5, \"2021-04-01\", 0, 0, 0);\r\n        orders[5] = Order(5, 5, 12, 5, \"2021-04-01\", 0, 1, 0);\r\n        ordersCount = 6;\r\n    }\r\n\r\n    function createOrder(uint _productId, uint _priceDenominator, uint _priceNominator, string memory _date,  uint _buyerId, uint _sellerId) public{\r\n\r\n        orders[ordersCount++] = Order(ordersCount, _productId, _priceDenominator, _priceNominator, _date, 0, _buyerId, _sellerId);\r\n        emit OrderCreated(_productId, ordersCount - 1);\r\n\r\n    }\r\n    function getOrders(uint _buyerId, uint totalOrders) public returns (Order[] memory){\r\n        uint countTemp = 0;\r\n        Order[] memory y = new Order[](totalOrders);\r\n        for (uint i= 0; i < ordersCount; i++) {\r\n            if (orders[i].buyerId == _buyerId){\r\n                y[countTemp++] = Order(orders[i].id,\r\n                    orders[i].productId,\r\n                    orders[i].priceDenominator,\r\n                    orders[i].priceNominator,\r\n                    orders[i].date,\r\n                    orders[i].status,\r\n                    orders[i].buyerId,\r\n                    orders[i].sellerId);\r\n            }\r\n        }\r\n        return y;\r\n    }\r\n    function getOrdersCount(uint buyerId) public returns (uint count){\r\n        uint countTemp = 0;\r\n        for (uint i= 0; i < ordersCount; i++) {\r\n            if (orders[i].buyerId == buyerId){\r\n                countTemp++;\r\n            }\r\n        }\r\n        return countTemp;\r\n    }\r\n}",
  "sourcePath": "C:/Users/Korisnik/Desktop/dev/Catalyst/src/frontend_mobile/contracts/Orders.sol",
  "compiler": {
    "name": "solc",
    "version": "0.5.16+commit.9c3226ce.Emscripten.clang"
  },
  "schemaVersion": "3.3.4",
  "updatedAt": "2021-04-20T23:41:28.292Z",
  "networkType": "ethereum",
  "devdoc": {
    "methods": {}
  },
  "userdoc": {
    "methods": {}
  }
}