{
  "contractName": "Orders",
  "abi": [
    {
      "inputs": [],
      "payable": false,
      "stateMutability": "nonpayable",
      "type": "constructor"
    },
    {
      "anonymous": false,
      "inputs": [
        {
          "indexed": false,
          "internalType": "uint256",
          "name": "id",
          "type": "uint256"
        },
        {
          "indexed": false,
          "internalType": "uint256",
          "name": "OrderNumber",
          "type": "uint256"
        }
      ],
      "name": "OrderCreated",
      "type": "event"
    },
    {
      "constant": true,
      "inputs": [
        {
          "internalType": "uint256",
          "name": "",
          "type": "uint256"
        }
      ],
      "name": "orders",
      "outputs": [
        {
          "internalType": "uint256",
          "name": "id",
          "type": "uint256"
        },
        {
          "internalType": "uint256",
          "name": "productId",
          "type": "uint256"
        },
        {
          "internalType": "uint256",
          "name": "amount",
          "type": "uint256"
        },
        {
          "internalType": "string",
          "name": "date",
          "type": "string"
        },
        {
          "internalType": "uint256",
          "name": "status",
          "type": "uint256"
        },
        {
          "internalType": "uint256",
          "name": "buyerId",
          "type": "uint256"
        },
        {
          "internalType": "uint256",
          "name": "sellerId",
          "type": "uint256"
        },
        {
          "internalType": "string",
          "name": "deliveryAddress",
          "type": "string"
        },
        {
          "internalType": "uint256",
          "name": "paymentType",
          "type": "uint256"
        }
      ],
      "payable": false,
      "stateMutability": "view",
      "type": "function"
    },
    {
      "constant": true,
      "inputs": [],
      "name": "ordersCount",
      "outputs": [
        {
          "internalType": "uint256",
          "name": "",
          "type": "uint256"
        }
      ],
      "payable": false,
      "stateMutability": "view",
      "type": "function"
    },
    {
      "constant": false,
      "inputs": [
        {
          "internalType": "uint256",
          "name": "_productId",
          "type": "uint256"
        },
        {
          "internalType": "uint256",
          "name": "_amount",
          "type": "uint256"
        },
        {
          "internalType": "string",
          "name": "_date",
          "type": "string"
        },
        {
          "internalType": "uint256",
          "name": "_buyerId",
          "type": "uint256"
        },
        {
          "internalType": "uint256",
          "name": "_sellerId",
          "type": "uint256"
        },
        {
          "internalType": "string",
          "name": "_deliveryAddress",
          "type": "string"
        },
        {
          "internalType": "uint256",
          "name": "_paymentType",
          "type": "uint256"
        }
      ],
      "name": "createOrder",
      "outputs": [],
      "payable": false,
      "stateMutability": "nonpayable",
      "type": "function"
    },
    {
      "constant": false,
      "inputs": [
        {
          "internalType": "uint256",
          "name": "_buyerId",
          "type": "uint256"
        },
        {
          "internalType": "uint256",
          "name": "totalOrders",
          "type": "uint256"
        }
      ],
      "name": "getOrders",
      "outputs": [
        {
          "components": [
            {
              "internalType": "uint256",
              "name": "id",
              "type": "uint256"
            },
            {
              "internalType": "uint256",
              "name": "productId",
              "type": "uint256"
            },
            {
              "internalType": "uint256",
              "name": "amount",
              "type": "uint256"
            },
            {
              "internalType": "string",
              "name": "date",
              "type": "string"
            },
            {
              "internalType": "uint256",
              "name": "status",
              "type": "uint256"
            },
            {
              "internalType": "uint256",
              "name": "buyerId",
              "type": "uint256"
            },
            {
              "internalType": "uint256",
              "name": "sellerId",
              "type": "uint256"
            },
            {
              "internalType": "string",
              "name": "deliveryAddress",
              "type": "string"
            },
            {
              "internalType": "uint256",
              "name": "paymentType",
              "type": "uint256"
            }
          ],
          "internalType": "struct Orders.Order[]",
          "name": "",
          "type": "tuple[]"
        }
      ],
      "payable": false,
      "stateMutability": "nonpayable",
      "type": "function"
    },
    {
      "constant": false,
      "inputs": [
        {
          "internalType": "uint256",
          "name": "buyerId",
          "type": "uint256"
        }
      ],
      "name": "getOrdersCount",
      "outputs": [
        {
          "internalType": "uint256",
          "name": "count",
          "type": "uint256"
        }
      ],
      "payable": false,
      "stateMutability": "nonpayable",
      "type": "function"
    }
  ],
  "bytecode": "0x6080604052600080553480156200001557600080fd5b506040518061012001604052806000815260200160008152602001600181526020016040518060400160405280600a81526020017f323032312d30322d30310000000000000000000000000000000000000000000081525081526020016000815260200160008152602001600081526020016040518060400160405280602081526020017f4b72616c6a612050657472612c204b726167756a657661632c20537262696a618152508152602001600081525060016000808152602001908152602001600020600082015181600001556020820151816001015560408201518160020155606082015181600301908051906020019062000116929190620007f1565b506080820151816004015560a0820151816005015560c0820151816006015560e082015181600701908051906020019062000153929190620007f1565b5061010082015181600801559050506040518061012001604052806001815260200160018152602001600281526020016040518060400160405280600a81526020017f323032312d30332d30310000000000000000000000000000000000000000000081525081526020016000815260200160008152602001600081526020016040518060400160405280602081526020017f4b72616c6a612050657472612c204b726167756a657661632c20537262696a61815250815260200160008152506001600060018152602001908152602001600020600082015181600001556020820151816001015560408201518160020155606082015181600301908051906020019062000263929190620007f1565b506080820151816004015560a0820151816005015560c0820151816006015560e0820151816007019080519060200190620002a0929190620007f1565b5061010082015181600801559050506040518061012001604052806002815260200160028152602001600181526020016040518060400160405280600a81526020017f323032312d30332d30310000000000000000000000000000000000000000000081525081526020016000815260200160008152602001600081526020016040518060400160405280602081526020017f4b72616c6a612050657472612c204b726167756a657661632c20537262696a618152508152602001600081525060016000600281526020019081526020016000206000820151816000015560208201518160010155604082015181600201556060820151816003019080519060200190620003b0929190620007f1565b506080820151816004015560a0820151816005015560c0820151816006015560e0820151816007019080519060200190620003ed929190620007f1565b5061010082015181600801559050506040518061012001604052806003815260200160038152602001600381526020016040518060400160405280600a81526020017f323032312d30342d30310000000000000000000000000000000000000000000081525081526020016000815260200160008152602001600081526020016040518060400160405280602081526020017f4b72616c6a612050657472612c204b726167756a657661632c20537262696a618152508152602001600081525060016000600381526020019081526020016000206000820151816000015560208201518160010155604082015181600201556060820151816003019080519060200190620004fd929190620007f1565b506080820151816004015560a0820151816005015560c0820151816006015560e08201518160070190805190602001906200053a929190620007f1565b5061010082015181600801559050506040518061012001604052806004815260200160048152602001600181526020016040518060400160405280600a81526020017f323032312d30342d30310000000000000000000000000000000000000000000081525081526020016000815260200160008152602001600081526020016040518060400160405280602081526020017f4b72616c6a612050657472612c204b726167756a657661632c20537262696a6181525081526020016000815250600160006004815260200190815260200160002060008201518160000155602082015181600101556040820151816002015560608201518160030190805190602001906200064a929190620007f1565b506080820151816004015560a0820151816005015560c0820151816006015560e082015181600701908051906020019062000687929190620007f1565b5061010082015181600801559050506040518061012001604052806005815260200160058152602001600181526020016040518060400160405280600a81526020017f323032312d30342d30310000000000000000000000000000000000000000000081525081526020016000815260200160018152602001600081526020016040518060400160405280602081526020017f4b72616c6a612050657472612c204b726167756a657661632c20537262696a61815250815260200160008152506001600060058152602001908152602001600020600082015181600001556020820151816001015560408201518160020155606082015181600301908051906020019062000797929190620007f1565b506080820151816004015560a0820151816005015560c0820151816006015560e0820151816007019080519060200190620007d4929190620007f1565b5061010082015181600801559050506006600081905550620008a0565b828054600181600116156101000203166002900490600052602060002090601f016020900481019282601f106200083457805160ff191683800117855562000865565b8280016001018555821562000865579182015b828111156200086457825182559160200191906001019062000847565b5b50905062000874919062000878565b5090565b6200089d91905b80821115620008995760008160009055506001016200087f565b5090565b90565b610e0180620008b06000396000f3fe608060405234801561001057600080fd5b50600436106100575760003560e01c80630b28c9b31461005c57806335daa7311461008c5780638f72fc77146100aa578063a5ee226c146100da578063a85c38ef146100f6575b600080fd5b61007660048036036100719190810190610872565b61012e565b6040516100839190610bac565b60405180910390f35b610094610183565b6040516100a19190610bac565b60405180910390f35b6100c460048036036100bf919081019061089b565b610189565b6040516100d19190610b8a565b60405180910390f35b6100f460048036036100ef91908101906108d7565b61046a565b005b610110600480360361010b9190810190610872565b61059a565b60405161012599989796959493929190610bf0565b60405180910390f35b6000806000905060008090505b60005481101561017957836001600083815260200190815260200160002060050154141561016c5781806001019250505b808060010191505061013b565b5080915050919050565b60005481565b606060008090506060836040519080825280602002602001820160405280156101cc57816020015b6101b9610718565b8152602001906001900390816101b15790505b50905060008090505b60005481101561045e57856001600083815260200190815260200160002060050154141561045157604051806101200160405280600160008481526020019081526020016000206000015481526020016001600084815260200190815260200160002060010154815260200160016000848152602001908152602001600020600201548152602001600160008481526020019081526020016000206003018054600181600116156101000203166002900480601f0160208091040260200160405190810160405280929190818152602001828054600181600116156101000203166002900480156103075780601f106102dc57610100808354040283529160200191610307565b820191906000526020600020905b8154815290600101906020018083116102ea57829003601f168201915b50505050508152602001600160008481526020019081526020016000206004015481526020016001600084815260200190815260200160002060050154815260200160016000848152602001908152602001600020600601548152602001600160008481526020019081526020016000206007018054600181600116156101000203166002900480601f01602080910402602001604051908101604052809291908181526020018280546001816001161561010002031660029004801561040f5780601f106103e45761010080835404028352916020019161040f565b820191906000526020600020905b8154815290600101906020018083116103f257829003601f168201915b50505050508152602001600160008481526020019081526020016000206008015481525082848060010195508151811061044557fe5b60200260200101819052505b80806001019150506101d5565b50809250505092915050565b60405180610120016040528060005481526020018881526020018781526020018681526020016000815260200185815260200184815260200183815260200182815250600160008060008154809291906001019190505581526020019081526020016000206000820151816000015560208201518160010155604082015181600201556060820151816003019080519060200190610509929190610764565b506080820151816004015560a0820151816005015560c0820151816006015560e0820151816007019080519060200190610544929190610764565b5061010082015181600801559050507f7ab7b5bf31475b82f820e7fdfd6387632fc391f3bbd3f28afa54804f30bebd4d87600160005403604051610589929190610bc7565b60405180910390a150505050505050565b6001602052806000526040600020600091509050806000015490806001015490806002015490806003018054600181600116156101000203166002900480601f0160208091040260200160405190810160405280929190818152602001828054600181600116156101000203166002900480156106585780601f1061062d57610100808354040283529160200191610658565b820191906000526020600020905b81548152906001019060200180831161063b57829003601f168201915b505050505090806004015490806005015490806006015490806007018054600181600116156101000203166002900480601f0160208091040260200160405190810160405280929190818152602001828054600181600116156101000203166002900480156107085780601f106106dd57610100808354040283529160200191610708565b820191906000526020600020905b8154815290600101906020018083116106eb57829003601f168201915b5050505050908060080154905089565b6040518061012001604052806000815260200160008152602001600081526020016060815260200160008152602001600081526020016000815260200160608152602001600081525090565b828054600181600116156101000203166002900490600052602060002090601f016020900481019282601f106107a557805160ff19168380011785556107d3565b828001600101855582156107d3579182015b828111156107d25782518255916020019190600101906107b7565b5b5090506107e091906107e4565b5090565b61080691905b808211156108025760008160009055506001016107ea565b5090565b90565b600082601f83011261081a57600080fd5b813561082d61082882610cb8565b610c8b565b9150808252602083016020830185838301111561084957600080fd5b610854838284610d54565b50505092915050565b60008135905061086c81610da7565b92915050565b60006020828403121561088457600080fd5b60006108928482850161085d565b91505092915050565b600080604083850312156108ae57600080fd5b60006108bc8582860161085d565b92505060206108cd8582860161085d565b9150509250929050565b600080600080600080600060e0888a0312156108f257600080fd5b60006109008a828b0161085d565b97505060206109118a828b0161085d565b965050604088013567ffffffffffffffff81111561092e57600080fd5b61093a8a828b01610809565b955050606061094b8a828b0161085d565b945050608061095c8a828b0161085d565b93505060a088013567ffffffffffffffff81111561097957600080fd5b6109858a828b01610809565b92505060c06109968a828b0161085d565b91505092959891949750929550565b60006109b18383610aa0565b905092915050565b60006109c482610cf4565b6109ce8185610d17565b9350836020820285016109e085610ce4565b8060005b85811015610a1c57848403895281516109fd85826109a5565b9450610a0883610d0a565b925060208a019950506001810190506109e4565b50829750879550505050505092915050565b6000610a3982610cff565b610a438185610d28565b9350610a53818560208601610d63565b610a5c81610d96565b840191505092915050565b6000610a7282610cff565b610a7c8185610d39565b9350610a8c818560208601610d63565b610a9581610d96565b840191505092915050565b600061012083016000830151610ab96000860182610b6c565b506020830151610acc6020860182610b6c565b506040830151610adf6040860182610b6c565b5060608301518482036060860152610af78282610a2e565b9150506080830151610b0c6080860182610b6c565b5060a0830151610b1f60a0860182610b6c565b5060c0830151610b3260c0860182610b6c565b5060e083015184820360e0860152610b4a8282610a2e565b915050610100830151610b61610100860182610b6c565b508091505092915050565b610b7581610d4a565b82525050565b610b8481610d4a565b82525050565b60006020820190508181036000830152610ba481846109b9565b905092915050565b6000602082019050610bc16000830184610b7b565b92915050565b6000604082019050610bdc6000830185610b7b565b610be96020830184610b7b565b9392505050565b600061012082019050610c06600083018c610b7b565b610c13602083018b610b7b565b610c20604083018a610b7b565b8181036060830152610c328189610a67565b9050610c416080830188610b7b565b610c4e60a0830187610b7b565b610c5b60c0830186610b7b565b81810360e0830152610c6d8185610a67565b9050610c7d610100830184610b7b565b9a9950505050505050505050565b6000604051905081810181811067ffffffffffffffff82111715610cae57600080fd5b8060405250919050565b600067ffffffffffffffff821115610ccf57600080fd5b601f19601f8301169050602081019050919050565b6000819050602082019050919050565b600081519050919050565b600081519050919050565b6000602082019050919050565b600082825260208201905092915050565b600082825260208201905092915050565b600082825260208201905092915050565b6000819050919050565b82818337600083830152505050565b60005b83811015610d81578082015181840152602081019050610d66565b83811115610d90576000848401525b50505050565b6000601f19601f8301169050919050565b610db081610d4a565b8114610dbb57600080fd5b5056fea365627a7a723158205f6f699ab1b525cfd661a86ebe5d53389fbd66229c633dd7a077cbaac4219c406c6578706572696d656e74616cf564736f6c63430005100040",
  "source": "pragma solidity >=0.4.22 <0.9.0;\r\npragma experimental ABIEncoderV2;\r\ncontract Orders{\r\n    uint public ordersCount = 0;\r\n\r\n    struct Order{\r\n        uint id;\r\n        uint productId;\r\n        uint amount;\r\n        string date;\r\n        uint status;\r\n        uint buyerId;   //  pending, confirmed, delivered, refunded\r\n        uint sellerId;\r\n        string deliveryAddress;\r\n        uint paymentType; //    0 - placanje pouzecem //   1 - eterijum\r\n\r\n    }\r\n\r\n    mapping (uint => Order) public orders;\r\n\r\n    event OrderCreated(uint id, uint OrderNumber);\r\n\r\n    constructor() public{\r\n\r\n        orders[0] = Order(0, 0, 1, \"2021-02-01\", 0, 0, 0, \"Kralja Petra, Kragujevac, Srbija\", 0);\r\n        orders[1] = Order(1, 1, 2, \"2021-03-01\", 0, 0, 0, \"Kralja Petra, Kragujevac, Srbija\", 0);\r\n        orders[2] = Order(2, 2, 1, \"2021-03-01\", 0, 0, 0, \"Kralja Petra, Kragujevac, Srbija\", 0);\r\n        orders[3] = Order(3, 3, 3, \"2021-04-01\", 0, 0, 0, \"Kralja Petra, Kragujevac, Srbija\", 0);\r\n        orders[4] = Order(4, 4, 1, \"2021-04-01\", 0, 0, 0, \"Kralja Petra, Kragujevac, Srbija\", 0);\r\n        orders[5] = Order(5, 5, 1, \"2021-04-01\", 0, 1, 0, \"Kralja Petra, Kragujevac, Srbija\", 0);\r\n        ordersCount = 6;\r\n    }\r\n\r\n    function createOrder(uint _productId, uint _amount, string memory _date,  uint _buyerId, uint _sellerId, string memory _deliveryAddress, uint _paymentType) public{\r\n\r\n        orders[ordersCount++] = Order(ordersCount, _productId, _amount, _date, 0, _buyerId, _sellerId, _deliveryAddress, _paymentType);\r\n        emit OrderCreated(_productId, ordersCount - 1);\r\n\r\n    }\r\n    function getOrders(uint _buyerId, uint totalOrders) public returns (Order[] memory){\r\n        uint countTemp = 0;\r\n        Order[] memory y = new Order[](totalOrders);\r\n        for (uint i= 0; i < ordersCount; i++) {\r\n            if (orders[i].buyerId == _buyerId){\r\n                y[countTemp++] = Order(orders[i].id,\r\n                    orders[i].productId,\r\n                    orders[i].amount,\r\n                    orders[i].date,\r\n                    orders[i].status,\r\n                    orders[i].buyerId,\r\n                    orders[i].sellerId,\r\n                    orders[i].deliveryAddress,\r\n                    orders[i].paymentType);\r\n            }\r\n        }\r\n        return y;\r\n    }\r\n    function getOrdersCount(uint buyerId) public returns (uint count){\r\n        uint countTemp = 0;\r\n        for (uint i= 0; i < ordersCount; i++) {\r\n            if (orders[i].buyerId == buyerId){\r\n                countTemp++;\r\n            }\r\n        }\r\n        return countTemp;\r\n    }\r\n}",
  "sourcePath": "C:/Users/Korisnik/Desktop/dev/Catalyst/src/frontend_mobile/contracts/Orders.sol",
  "compiler": {
    "name": "solc",
    "version": "0.5.16+commit.9c3226ce.Emscripten.clang"
  },
  "schemaVersion": "3.3.4",
  "updatedAt": "2021-04-27T23:50:48.809Z",
  "networkType": "ethereum",
  "devdoc": {
    "methods": {}
  },
  "userdoc": {
    "methods": {}
  }
}