{
  "contractName": "Products",
  "abi": [
    {
      "inputs": [],
      "payable": false,
      "stateMutability": "nonpayable",
      "type": "constructor"
    },
    {
      "anonymous": false,
      "inputs": [
        {
          "indexed": false,
          "internalType": "string",
          "name": "name",
          "type": "string"
        },
        {
          "indexed": false,
          "internalType": "uint256",
          "name": "ProductNumber",
          "type": "uint256"
        }
      ],
      "name": "ProductCreated",
      "type": "event"
    },
    {
      "constant": true,
      "inputs": [
        {
          "internalType": "uint256",
          "name": "",
          "type": "uint256"
        }
      ],
      "name": "products",
      "outputs": [
        {
          "internalType": "uint256",
          "name": "id",
          "type": "uint256"
        },
        {
          "internalType": "string",
          "name": "name",
          "type": "string"
        },
        {
          "internalType": "uint256",
          "name": "price_numerator",
          "type": "uint256"
        },
        {
          "internalType": "uint256",
          "name": "price_denominator",
          "type": "uint256"
        },
        {
          "internalType": "string",
          "name": "assetUrls",
          "type": "string"
        },
        {
          "internalType": "uint256",
          "name": "classification",
          "type": "uint256"
        },
        {
          "internalType": "uint256",
          "name": "quantifier",
          "type": "uint256"
        },
        {
          "internalType": "string",
          "name": "decs",
          "type": "string"
        },
        {
          "internalType": "uint256",
          "name": "sellerId",
          "type": "uint256"
        },
        {
          "internalType": "uint256",
          "name": "categoryId",
          "type": "uint256"
        }
      ],
      "payable": false,
      "stateMutability": "view",
      "type": "function"
    },
    {
      "constant": true,
      "inputs": [],
      "name": "productsCount",
      "outputs": [
        {
          "internalType": "uint256",
          "name": "",
          "type": "uint256"
        }
      ],
      "payable": false,
      "stateMutability": "view",
      "type": "function"
    },
    {
      "constant": false,
      "inputs": [
        {
          "internalType": "string",
          "name": "_productName",
          "type": "string"
        },
        {
          "internalType": "uint256",
          "name": "_price_nominator",
          "type": "uint256"
        },
        {
          "internalType": "uint256",
          "name": "_price_denominator",
          "type": "uint256"
        },
        {
          "internalType": "string",
          "name": "_assetUrls",
          "type": "string"
        },
        {
          "internalType": "uint256",
          "name": "_classif",
          "type": "uint256"
        },
        {
          "internalType": "uint256",
          "name": "_quantifier",
          "type": "uint256"
        },
        {
          "internalType": "string",
          "name": "_desc",
          "type": "string"
        },
        {
          "internalType": "uint256",
          "name": "_sellerId",
          "type": "uint256"
        },
        {
          "internalType": "uint256",
          "name": "_categoryId",
          "type": "uint256"
        }
      ],
      "name": "createProduct",
      "outputs": [],
      "payable": false,
      "stateMutability": "nonpayable",
      "type": "function"
    },
    {
      "constant": false,
      "inputs": [
        {
          "internalType": "uint256",
          "name": "category",
          "type": "uint256"
        },
        {
          "internalType": "uint256",
          "name": "totalProducts",
          "type": "uint256"
        }
      ],
      "name": "getProductsForCategory",
      "outputs": [
        {
          "components": [
            {
              "internalType": "uint256",
              "name": "id",
              "type": "uint256"
            },
            {
              "internalType": "string",
              "name": "name",
              "type": "string"
            },
            {
              "internalType": "uint256",
              "name": "price_numerator",
              "type": "uint256"
            },
            {
              "internalType": "uint256",
              "name": "price_denominator",
              "type": "uint256"
            },
            {
              "internalType": "string",
              "name": "assetUrls",
              "type": "string"
            },
            {
              "internalType": "uint256",
              "name": "classification",
              "type": "uint256"
            },
            {
              "internalType": "uint256",
              "name": "quantifier",
              "type": "uint256"
            },
            {
              "internalType": "string",
              "name": "decs",
              "type": "string"
            },
            {
              "internalType": "uint256",
              "name": "sellerId",
              "type": "uint256"
            },
            {
              "internalType": "uint256",
              "name": "categoryId",
              "type": "uint256"
            }
          ],
          "internalType": "struct Products.Product[]",
          "name": "",
          "type": "tuple[]"
        }
      ],
      "payable": false,
      "stateMutability": "nonpayable",
      "type": "function"
    },
    {
      "constant": false,
      "inputs": [
        {
          "internalType": "uint256",
          "name": "category",
          "type": "uint256"
        }
      ],
      "name": "getProductsForCategoryCount",
      "outputs": [
        {
          "internalType": "uint256",
          "name": "count",
          "type": "uint256"
        }
      ],
      "payable": false,
      "stateMutability": "nonpayable",
      "type": "function"
    }
  ],
  "bytecode": "0x6080604052600080553480156200001557600080fd5b50604051806101400160405280600081526020016040518060400160405280600b81526020017f446f6d61c48769206d65640000000000000000000000000000000000000000008152508152602001603281526020016003815260200160405180606001604052806040815260200162001bbb604091398152602001600181526020016102ee81526020016040518060a001604052806061815260200162001c41606191398152602001600181526020016009815250600160008081526020019081526020016000206000820151816000015560208201518160010190805190602001906200010692919062000a39565b50604082015181600201556060820151816003015560808201518160040190805190602001906200013992919062000a39565b5060a0820151816005015560c0820151816006015560e08201518160070190805190602001906200016c92919062000a39565b5061010082015181600801556101208201518160090155905050604051806101400160405280600181526020016040518060400160405280601181526020017f5061736972616e69207061726164616a7a0000000000000000000000000000008152508152602001602b81526020016003815260200160405180606001604052806030815260200162001d06603091398152602001600181526020016101f481526020016040518060a001604052806061815260200162001c4160619139815260200160018152602001600381525060016000600181526020019081526020016000206000820151816000015560208201518160010190805190602001906200027792919062000a39565b5060408201518160020155606082015181600301556080820151816004019080519060200190620002aa92919062000a39565b5060a0820151816005015560c0820151816006015560e0820151816007019080519060200190620002dd92919062000a39565b5061010082015181600801556101208201518160090155905050604051806101400160405280600281526020016040518060400160405280600e81526020017f4d61736c696e6f766f20756c6a650000000000000000000000000000000000008152508152602001604d81526020016003815260200160405180608001604052806046815260200162001bfb604691398152602001600181526020016102ee81526020016040518060a001604052806061815260200162001c416061913981526020016001815260200160098152506001600060028152602001908152602001600020600082015181600001556020820151816001019080519060200190620003e892919062000a39565b50604082015181600201556060820151816003015560808201518160040190805190602001906200041b92919062000a39565b5060a0820151816005015560c0820151816006015560e08201518160070190805190602001906200044e92919062000a39565b5061010082015181600801556101208201518160090155905050604051806101400160405280600381526020016040518060400160405280600681526020017f5072c5a1757400000000000000000000000000000000000000000000000000008152508152602001609a8152602001600381526020016040518060600160405280602f815260200162001b43602f913981526020016001815260200160ea81526020016040518060a001604052806061815260200162001c4160619139815260200160018152602001600181525060016000600381526020019081526020016000206000820151816000015560208201518160010190805190602001906200055892919062000a39565b50604082015181600201556060820151816003015560808201518160040190805190602001906200058b92919062000a39565b5060a0820151816005015560c0820151816006015560e0820151816007019080519060200190620005be92919062000a39565b5061010082015181600801556101208201518160090155905050604051806101400160405280600481526020016040518060400160405280600681526020017f52616b696a6100000000000000000000000000000000000000000000000000008152508152602001606281526020016003815260200160405180606001604052806035815260200162001ca2603591398152602001600281526020016103e881526020016040518060a001604052806061815260200162001c416061913981526020016001815260200160058152506001600060048152602001908152602001600020600082015181600001556020820151816001019080519060200190620006c992919062000a39565b5060408201518160020155606082015181600301556080820151816004019080519060200190620006fc92919062000a39565b5060a0820151816005015560c0820151816006015560e08201518160070190805190602001906200072f92919062000a39565b5061010082015181600801556101208201518160090155905050604051806101400160405280600581526020016040518060400160405280600881526020017f4b6f6261736963610000000000000000000000000000000000000000000000008152508152602001604a8152602001600381526020016040518060600160405280602f815260200162001cd7602f91398152602001600181526020016103e881526020016040518060a001604052806061815260200162001c4160619139815260200160018152602001600181525060016000600581526020019081526020016000206000820151816000015560208201518160010190805190602001906200083a92919062000a39565b50604082015181600201556060820151816003015560808201518160040190805190602001906200086d92919062000a39565b5060a0820151816005015560c0820151816006015560e0820151816007019080519060200190620008a092919062000a39565b5061010082015181600801556101208201518160090155905050604051806101400160405280600681526020016040518060400160405280600881526020017f4b616d616d6265720000000000000000000000000000000000000000000000008152508152602001603681526020016003815260200160405180608001604052806049815260200162001b72604991398152602001600181526020016101f481526020016040518060a001604052806061815260200162001c416061913981526020016001815260200160028152506001600060068152602001908152602001600020600082015181600001556020820151816001019080519060200190620009ab92919062000a39565b5060408201518160020155606082015181600301556080820151816004019080519060200190620009de92919062000a39565b5060a0820151816005015560c0820151816006015560e082015181600701908051906020019062000a1192919062000a39565b5061010082015181600801556101208201518160090155905050600760008190555062000ae8565b828054600181600116156101000203166002900490600052602060002090601f016020900481019282601f1062000a7c57805160ff191683800117855562000aad565b8280016001018555821562000aad579182015b8281111562000aac57825182559160200191906001019062000a8f565b5b50905062000abc919062000ac0565b5090565b62000ae591905b8082111562000ae157600081600090555060010162000ac7565b5090565b90565b61104b8062000af86000396000f3fe608060405234801561001057600080fd5b50600436106100575760003560e01c80632dc810ab1461005c5780637acc0b201461008c578063ac8a54b1146100c5578063c1b4410f146100f5578063e0df7bb614610111575b600080fd5b61007660048036036100719190810190610b36565b61012f565b6040516100839190610dac565b60405180910390f35b6100a660048036036100a19190810190610b0d565b6104c4565b6040516100bc9a99989796959493929190610e19565b60405180910390f35b6100df60048036036100da9190810190610b0d565b6106e0565b6040516100ec9190610dfe565b60405180910390f35b61010f600480360361010a91908101906109ff565b610735565b005b610119610898565b6040516101269190610dfe565b60405180910390f35b6060600080905060608360405190808252806020026020018201604052801561017257816020015b61015f61089e565b8152602001906001900390816101575790505b50905060008090505b6000548110156104b85785600160008381526020019081526020016000206009015414156104ab5760405180610140016040528060016000848152602001908152602001600020600001548152602001600160008481526020019081526020016000206001018054600181600116156101000203166002900480601f0160208091040260200160405190810160405280929190818152602001828054600181600116156101000203166002900480156102755780601f1061024a57610100808354040283529160200191610275565b820191906000526020600020905b81548152906001019060200180831161025857829003601f168201915b505050505081526020016001600084815260200190815260200160002060020154815260200160016000848152602001908152602001600020600301548152602001600160008481526020019081526020016000206004018054600181600116156101000203166002900480601f0160208091040260200160405190810160405280929190818152602001828054600181600116156101000203166002900480156103615780601f1061033657610100808354040283529160200191610361565b820191906000526020600020905b81548152906001019060200180831161034457829003601f168201915b505050505081526020016001600084815260200190815260200160002060050154815260200160016000848152602001908152602001600020600601548152602001600160008481526020019081526020016000206007018054600181600116156101000203166002900480601f01602080910402602001604051908101604052809291908181526020018280546001816001161561010002031660029004801561044d5780601f106104225761010080835404028352916020019161044d565b820191906000526020600020905b81548152906001019060200180831161043057829003601f168201915b5050505050815260200160016000848152602001908152602001600020600801548152602001600160008481526020019081526020016000206009015481525082848060010195508151811061049f57fe5b60200260200101819052505b808060010191505061017b565b50809250505092915050565b6001602052806000526040600020600091509050806000015490806001018054600181600116156101000203166002900480601f0160208091040260200160405190810160405280929190818152602001828054600181600116156101000203166002900480156105765780601f1061054b57610100808354040283529160200191610576565b820191906000526020600020905b81548152906001019060200180831161055957829003601f168201915b505050505090806002015490806003015490806004018054600181600116156101000203166002900480601f0160208091040260200160405190810160405280929190818152602001828054600181600116156101000203166002900480156106205780601f106105f557610100808354040283529160200191610620565b820191906000526020600020905b81548152906001019060200180831161060357829003601f168201915b505050505090806005015490806006015490806007018054600181600116156101000203166002900480601f0160208091040260200160405190810160405280929190818152602001828054600181600116156101000203166002900480156106ca5780601f1061069f576101008083540402835291602001916106ca565b820191906000526020600020905b8154815290600101906020018083116106ad57829003601f168201915b505050505090806008015490806009015490508a565b6000806000905060008090505b60005481101561072b57836001600083815260200190815260200160002060090154141561071e5781806001019250505b80806001019150506106ed565b5080915050919050565b600285111561074357600094505b60405180610140016040528060005481526020018a815260200189815260200188815260200187815260200186815260200185815260200184815260200183815260200182815250600160008060008154809291906001019190505581526020019081526020016000206000820151816000015560208201518160010190805190602001906107d39291906108f1565b50604082015181600201556060820151816003015560808201518160040190805190602001906108049291906108f1565b5060a0820151816005015560c0820151816006015560e08201518160070190805190602001906108359291906108f1565b50610100820151816008015561012082015181600901559050507fb040efd5b9ac3e016c34e7ba218414cec2f62f7405435784f124cf44a21dc13789600160005403604051610885929190610dce565b60405180910390a1505050505050505050565b60005481565b604051806101400160405280600081526020016060815260200160008152602001600081526020016060815260200160008152602001600081526020016060815260200160008152602001600081525090565b828054600181600116156101000203166002900490600052602060002090601f016020900481019282601f1061093257805160ff1916838001178555610960565b82800160010185558215610960579182015b8281111561095f578251825591602001919060010190610944565b5b50905061096d9190610971565b5090565b61099391905b8082111561098f576000816000905550600101610977565b5090565b90565b600082601f8301126109a757600080fd5b81356109ba6109b582610ef7565b610eca565b915080825260208301602083018583830111156109d657600080fd5b6109e1838284610f9e565b50505092915050565b6000813590506109f981610ff1565b92915050565b60008060008060008060008060006101208a8c031215610a1e57600080fd5b60008a013567ffffffffffffffff811115610a3857600080fd5b610a448c828d01610996565b9950506020610a558c828d016109ea565b9850506040610a668c828d016109ea565b97505060608a013567ffffffffffffffff811115610a8357600080fd5b610a8f8c828d01610996565b9650506080610aa08c828d016109ea565b95505060a0610ab18c828d016109ea565b94505060c08a013567ffffffffffffffff811115610ace57600080fd5b610ada8c828d01610996565b93505060e0610aeb8c828d016109ea565b925050610100610afd8c828d016109ea565b9150509295985092959850929598565b600060208284031215610b1f57600080fd5b6000610b2d848285016109ea565b91505092915050565b60008060408385031215610b4957600080fd5b6000610b57858286016109ea565b9250506020610b68858286016109ea565b9150509250929050565b6000610b7e8383610ca6565b905092915050565b6000610b9182610f33565b610b9b8185610f61565b935083602082028501610bad85610f23565b8060005b85811015610be95784840389528151610bca8582610b72565b9450610bd583610f54565b925060208a01995050600181019050610bb1565b50829750879550505050505092915050565b6000610c0682610f49565b610c108185610f83565b9350610c20818560208601610fad565b610c2981610fe0565b840191505092915050565b6000610c3f82610f3e565b610c498185610f72565b9350610c59818560208601610fad565b610c6281610fe0565b840191505092915050565b6000610c7882610f3e565b610c828185610f83565b9350610c92818560208601610fad565b610c9b81610fe0565b840191505092915050565b600061014083016000830151610cbf6000860182610d8e565b5060208301518482036020860152610cd78282610c34565b9150506040830151610cec6040860182610d8e565b506060830151610cff6060860182610d8e565b5060808301518482036080860152610d178282610c34565b91505060a0830151610d2c60a0860182610d8e565b5060c0830151610d3f60c0860182610d8e565b5060e083015184820360e0860152610d578282610c34565b915050610100830151610d6e610100860182610d8e565b50610120830151610d83610120860182610d8e565b508091505092915050565b610d9781610f94565b82525050565b610da681610f94565b82525050565b60006020820190508181036000830152610dc68184610b86565b905092915050565b60006040820190508181036000830152610de88185610bfb565b9050610df76020830184610d9d565b9392505050565b6000602082019050610e136000830184610d9d565b92915050565b600061014082019050610e2f600083018d610d9d565b8181036020830152610e41818c610c6d565b9050610e50604083018b610d9d565b610e5d606083018a610d9d565b8181036080830152610e6f8189610c6d565b9050610e7e60a0830188610d9d565b610e8b60c0830187610d9d565b81810360e0830152610e9d8186610c6d565b9050610ead610100830185610d9d565b610ebb610120830184610d9d565b9b9a5050505050505050505050565b6000604051905081810181811067ffffffffffffffff82111715610eed57600080fd5b8060405250919050565b600067ffffffffffffffff821115610f0e57600080fd5b601f19601f8301169050602081019050919050565b6000819050602082019050919050565b600081519050919050565b600081519050919050565b600081519050919050565b6000602082019050919050565b600082825260208201905092915050565b600082825260208201905092915050565b600082825260208201905092915050565b6000819050919050565b82818337600083830152505050565b60005b83811015610fcb578082015181840152602081019050610fb0565b83811115610fda576000848401525b50505050565b6000601f19601f8301169050919050565b610ffa81610f94565b811461100557600080fd5b5056fea365627a7a72315820fba977cae30e32f3268a30e46fc6d422953166e880c4becd0fe1c313462569a66c6578706572696d656e74616cf564736f6c634300051000406173736574732f70726f647563745f6c697374696e67732f70726f7363697574746f5f34363133375f62792e6a70676173736574732f70726f647563745f6c697374696e67732f7761736865645f72696e645f6368656573655f7061756c5f61736d616e5f6a696c6c5f6c656e6f626c655f62792e6a70676173736574732f70726f647563745f6c697374696e67732f686f6e65795f736861776e5f63617a615f63635f62795f73612e6a70672c736c696b61322e706e676173736574732f70726f647563745f6c697374696e67732f6f6c6976655f6f696c5f636174616c696e615f616c656a616e6472615f6163657665646f5f62795f73612e6a70675365642075742070657273706963696174697320756e6465206f6d6e69732069737465206e61747573206572726f722073697420766f6c7570746174656d206163637573616e7469756d20646f6c6f72656d717565206c617564616e7469756d2e6173736574732f70726f647563745f6c697374696e67732f72616b696a615f73696c766572696a655f63635f62795f73612e6a70676173736574732f70726f647563745f6c697374696e67732f73616c616d695f70626b7765655f62795f73612e6a70676173736574732f70726f647563745f6c697374696e67732f6d617274696e5f636174687261655f62795f73612e6a7067",
  "source": "pragma solidity >=0.4.22 <0.9.0;\r\npragma experimental ABIEncoderV2;\r\ncontract Products{\r\n    uint public productsCount = 0;\r\n\r\n    struct Product{\r\n        uint id;\r\n        string name;\r\n        uint price_numerator;\r\n        uint price_denominator;\r\n        string assetUrls;\r\n        uint classification;\r\n        uint quantifier;\r\n        string decs;\r\n        uint sellerId;\r\n        uint categoryId;\r\n    }\r\n\r\n    mapping (uint => Product) public products;\r\n\r\n    event ProductCreated(string name, uint ProductNumber);\r\n\r\n    constructor() public{\r\n\r\n        products[0] = Product(0, \"Domaći med\", 50, 3, \"assets/product_listings/honey_shawn_caza_cc_by_sa.jpg,slika2.png\", 1, 750,\r\n            \"Sed ut perspiciatis unde omnis iste natus error sit voluptatem accusantium doloremque laudantium.\", 1,9);\r\n        products[1] = Product(1, \"Pasirani paradajz\", 43, 3, \"assets/product_listings/martin_cathrae_by_sa.jpg\", 1, 500,\r\n            \"Sed ut perspiciatis unde omnis iste natus error sit voluptatem accusantium doloremque laudantium.\", 1,3);\r\n        products[2] = Product(2, \"Maslinovo ulje\", 77, 3, \"assets/product_listings/olive_oil_catalina_alejandra_acevedo_by_sa.jpg\", 1, 750,\r\n            \"Sed ut perspiciatis unde omnis iste natus error sit voluptatem accusantium doloremque laudantium.\", 1,9);\r\n        products[3] = Product(3, \"Pršut\", 154, 3, \"assets/product_listings/prosciutto_46137_by.jpg\", 1, 234,\r\n            \"Sed ut perspiciatis unde omnis iste natus error sit voluptatem accusantium doloremque laudantium.\", 1,1);\r\n        products[4] = Product(4, \"Rakija\", 98, 3, \"assets/product_listings/rakija_silverije_cc_by_sa.jpg\", 2, 1000,\r\n            \"Sed ut perspiciatis unde omnis iste natus error sit voluptatem accusantium doloremque laudantium.\", 1,5);\r\n        products[5] = Product(5, \"Kobasica\", 74, 3, \"assets/product_listings/salami_pbkwee_by_sa.jpg\", 1, 1000,\r\n            \"Sed ut perspiciatis unde omnis iste natus error sit voluptatem accusantium doloremque laudantium.\", 1,1);\r\n        products[6] = Product(6, \"Kamamber\", 54,3, \"assets/product_listings/washed_rind_cheese_paul_asman_jill_lenoble_by.jpg\", 1, 500,\r\n            \"Sed ut perspiciatis unde omnis iste natus error sit voluptatem accusantium doloremque laudantium.\", 1,2);\r\n        productsCount = 7;\r\n    }\r\n\r\n    function createProduct(string memory _productName, uint _price_nominator, uint _price_denominator, string memory _assetUrls, uint _classif, uint _quantifier, string memory _desc, uint _sellerId, uint _categoryId) public{\r\n\r\n        if (_classif > 2)\r\n            _classif = 0;\r\n\r\n        products[productsCount++] = Product(productsCount, _productName, _price_nominator, _price_denominator, _assetUrls, _classif, _quantifier, _desc, _sellerId, _categoryId);\r\n        emit ProductCreated(_productName, productsCount - 1);\r\n\r\n    }\r\n    function getProductsForCategory(uint category, uint totalProducts) public returns (Product[] memory){\r\n        uint count = 0;\r\n        Product[] memory y = new Product[](totalProducts);\r\n        for (uint i= 0; i < productsCount; i++) {\r\n            if (products[i].categoryId == category){\r\n                y[count++] = Product(products[i].id,\r\n                products[i].name,\r\n                products[i].price_numerator,\r\n                products[i].price_denominator,\r\n                products[i].assetUrls,\r\n                products[i].classification,\r\n                products[i].quantifier,\r\n                products[i].decs,\r\n                products[i].sellerId,\r\n                    products[i].categoryId);\r\n            }\r\n        }\r\n        return y;\r\n    }\r\n    function getProductsForCategoryCount(uint category) public returns (uint count){\r\n        uint productsForCategoryCount = 0;\r\n        for (uint i= 0; i < productsCount; i++) {\r\n            if (products[i].categoryId == category){\r\n                productsForCategoryCount++;\r\n            }\r\n        }\r\n        return productsForCategoryCount;\r\n    }\r\n    //TODO get product for sellerId\r\n}",
  "sourcePath": "C:/Users/Korisnik/Desktop/dev/Catalyst/src/frontend_mobile/contracts/Products.sol",
  "compiler": {
    "name": "solc",
    "version": "0.5.16+commit.9c3226ce.Emscripten.clang"
  },
  "schemaVersion": "3.3.4",
  "updatedAt": "2021-04-12T17:49:28.350Z",
  "networkType": "ethereum",
  "devdoc": {
    "methods": {}
  },
  "userdoc": {
    "methods": {}
  }
}