{
  "contractName": "Products",
  "abi": [
    {
      "inputs": [],
      "payable": false,
      "stateMutability": "nonpayable",
      "type": "constructor"
    },
    {
      "anonymous": false,
      "inputs": [
        {
          "indexed": false,
          "internalType": "string",
          "name": "name",
          "type": "string"
        },
        {
          "indexed": false,
          "internalType": "uint256",
          "name": "ProductNumber",
          "type": "uint256"
        }
      ],
      "name": "ProductCreated",
      "type": "event"
    },
    {
      "constant": true,
      "inputs": [
        {
          "internalType": "uint256",
          "name": "",
          "type": "uint256"
        }
      ],
      "name": "products",
      "outputs": [
        {
          "internalType": "uint256",
          "name": "id",
          "type": "uint256"
        },
        {
          "internalType": "string",
          "name": "name",
          "type": "string"
        },
        {
          "internalType": "uint256",
          "name": "price_numerator",
          "type": "uint256"
        },
        {
          "internalType": "uint256",
          "name": "price_denominator",
          "type": "uint256"
        },
        {
          "internalType": "string",
          "name": "assetUrls",
          "type": "string"
        },
        {
          "internalType": "uint256",
          "name": "classification",
          "type": "uint256"
        },
        {
          "internalType": "uint256",
          "name": "quantifier",
          "type": "uint256"
        },
        {
          "internalType": "string",
          "name": "decs",
          "type": "string"
        },
        {
          "internalType": "uint256",
          "name": "sellerId",
          "type": "uint256"
        },
        {
          "internalType": "uint256",
          "name": "categoryId",
          "type": "uint256"
        }
      ],
      "payable": false,
      "stateMutability": "view",
      "type": "function"
    },
    {
      "constant": true,
      "inputs": [],
      "name": "productsCount",
      "outputs": [
        {
          "internalType": "uint256",
          "name": "",
          "type": "uint256"
        }
      ],
      "payable": false,
      "stateMutability": "view",
      "type": "function"
    },
    {
      "constant": false,
      "inputs": [
        {
          "internalType": "string",
          "name": "_productName",
          "type": "string"
        },
        {
          "internalType": "uint256",
          "name": "_price_nominator",
          "type": "uint256"
        },
        {
          "internalType": "uint256",
          "name": "_price_denominator",
          "type": "uint256"
        },
        {
          "internalType": "string",
          "name": "_assetUrls",
          "type": "string"
        },
        {
          "internalType": "uint256",
          "name": "_classif",
          "type": "uint256"
        },
        {
          "internalType": "uint256",
          "name": "_quantifier",
          "type": "uint256"
        },
        {
          "internalType": "string",
          "name": "_desc",
          "type": "string"
        },
        {
          "internalType": "uint256",
          "name": "_sellerId",
          "type": "uint256"
        },
        {
          "internalType": "uint256",
          "name": "_categoryId",
          "type": "uint256"
        }
      ],
      "name": "createProduct",
      "outputs": [],
      "payable": false,
      "stateMutability": "nonpayable",
      "type": "function"
    },
    {
      "constant": false,
      "inputs": [
        {
          "internalType": "uint256",
          "name": "category",
          "type": "uint256"
        },
        {
          "internalType": "uint256",
          "name": "totalProducts",
          "type": "uint256"
        }
      ],
      "name": "getProductsForCategory",
      "outputs": [
        {
          "components": [
            {
              "internalType": "uint256",
              "name": "id",
              "type": "uint256"
            },
            {
              "internalType": "string",
              "name": "name",
              "type": "string"
            },
            {
              "internalType": "uint256",
              "name": "price_numerator",
              "type": "uint256"
            },
            {
              "internalType": "uint256",
              "name": "price_denominator",
              "type": "uint256"
            },
            {
              "internalType": "string",
              "name": "assetUrls",
              "type": "string"
            },
            {
              "internalType": "uint256",
              "name": "classification",
              "type": "uint256"
            },
            {
              "internalType": "uint256",
              "name": "quantifier",
              "type": "uint256"
            },
            {
              "internalType": "string",
              "name": "decs",
              "type": "string"
            },
            {
              "internalType": "uint256",
              "name": "sellerId",
              "type": "uint256"
            },
            {
              "internalType": "uint256",
              "name": "categoryId",
              "type": "uint256"
            }
          ],
          "internalType": "struct Products.Product[]",
          "name": "",
          "type": "tuple[]"
        }
      ],
      "payable": false,
      "stateMutability": "nonpayable",
      "type": "function"
    },
    {
      "constant": false,
      "inputs": [
        {
          "internalType": "uint256",
          "name": "category",
          "type": "uint256"
        }
      ],
      "name": "getProductsForCategoryCount",
      "outputs": [
        {
          "internalType": "uint256",
          "name": "count",
          "type": "uint256"
        }
      ],
      "payable": false,
      "stateMutability": "nonpayable",
      "type": "function"
    },
    {
      "constant": false,
      "inputs": [
        {
          "internalType": "uint256",
          "name": "id",
          "type": "uint256"
        }
      ],
      "name": "getProductById",
      "outputs": [
        {
          "components": [
            {
              "internalType": "uint256",
              "name": "id",
              "type": "uint256"
            },
            {
              "internalType": "string",
              "name": "name",
              "type": "string"
            },
            {
              "internalType": "uint256",
              "name": "price_numerator",
              "type": "uint256"
            },
            {
              "internalType": "uint256",
              "name": "price_denominator",
              "type": "uint256"
            },
            {
              "internalType": "string",
              "name": "assetUrls",
              "type": "string"
            },
            {
              "internalType": "uint256",
              "name": "classification",
              "type": "uint256"
            },
            {
              "internalType": "uint256",
              "name": "quantifier",
              "type": "uint256"
            },
            {
              "internalType": "string",
              "name": "decs",
              "type": "string"
            },
            {
              "internalType": "uint256",
              "name": "sellerId",
              "type": "uint256"
            },
            {
              "internalType": "uint256",
              "name": "categoryId",
              "type": "uint256"
            }
          ],
          "internalType": "struct Products.Product",
          "name": "",
          "type": "tuple"
        }
      ],
      "payable": false,
      "stateMutability": "nonpayable",
      "type": "function"
    },
    {
      "constant": false,
      "inputs": [
        {
          "internalType": "uint256",
          "name": "sellerId",
          "type": "uint256"
        }
      ],
      "name": "getSellerProductsCount",
      "outputs": [
        {
          "internalType": "uint256",
          "name": "count",
          "type": "uint256"
        }
      ],
      "payable": false,
      "stateMutability": "nonpayable",
      "type": "function"
    },
    {
      "constant": false,
      "inputs": [
        {
          "internalType": "uint256",
          "name": "sellerId",
          "type": "uint256"
        },
        {
          "internalType": "uint256",
          "name": "totalProducts",
          "type": "uint256"
        }
      ],
      "name": "getSellerProducts",
      "outputs": [
        {
          "components": [
            {
              "internalType": "uint256",
              "name": "id",
              "type": "uint256"
            },
            {
              "internalType": "string",
              "name": "name",
              "type": "string"
            },
            {
              "internalType": "uint256",
              "name": "price_numerator",
              "type": "uint256"
            },
            {
              "internalType": "uint256",
              "name": "price_denominator",
              "type": "uint256"
            },
            {
              "internalType": "string",
              "name": "assetUrls",
              "type": "string"
            },
            {
              "internalType": "uint256",
              "name": "classification",
              "type": "uint256"
            },
            {
              "internalType": "uint256",
              "name": "quantifier",
              "type": "uint256"
            },
            {
              "internalType": "string",
              "name": "decs",
              "type": "string"
            },
            {
              "internalType": "uint256",
              "name": "sellerId",
              "type": "uint256"
            },
            {
              "internalType": "uint256",
              "name": "categoryId",
              "type": "uint256"
            }
          ],
          "internalType": "struct Products.Product[]",
          "name": "",
          "type": "tuple[]"
        }
      ],
      "payable": false,
      "stateMutability": "nonpayable",
      "type": "function"
    }
  ],
  "bytecode": "0x6080604052600080553480156200001557600080fd5b50604051806101400160405280600081526020016040518060400160405280600b81526020017f446f6d61c48769206d6564000000000000000000000000000000000000000000815250815260200160328152602001600381526020016040518060600160405280604081526020016200246a604091398152602001600181526020016102ee81526020016040518060a0016040528060618152602001620024f0606191398152602001600181526020016009815250600160008081526020019081526020016000206000820151816000015560208201518160010190805190602001906200010692919062000a39565b50604082015181600201556060820151816003015560808201518160040190805190602001906200013992919062000a39565b5060a0820151816005015560c0820151816006015560e08201518160070190805190602001906200016c92919062000a39565b5061010082015181600801556101208201518160090155905050604051806101400160405280600181526020016040518060400160405280601181526020017f5061736972616e69207061726164616a7a0000000000000000000000000000008152508152602001602b815260200160038152602001604051806060016040528060308152602001620025b5603091398152602001600181526020016101f481526020016040518060a0016040528060618152602001620024f060619139815260200160018152602001600381525060016000600181526020019081526020016000206000820151816000015560208201518160010190805190602001906200027792919062000a39565b5060408201518160020155606082015181600301556080820151816004019080519060200190620002aa92919062000a39565b5060a0820151816005015560c0820151816006015560e0820151816007019080519060200190620002dd92919062000a39565b5061010082015181600801556101208201518160090155905050604051806101400160405280600281526020016040518060400160405280600e81526020017f4d61736c696e6f766f20756c6a650000000000000000000000000000000000008152508152602001604d815260200160038152602001604051806080016040528060468152602001620024aa604691398152602001600181526020016102ee81526020016040518060a0016040528060618152602001620024f06061913981526020016001815260200160098152506001600060028152602001908152602001600020600082015181600001556020820151816001019080519060200190620003e892919062000a39565b50604082015181600201556060820151816003015560808201518160040190805190602001906200041b92919062000a39565b5060a0820151816005015560c0820151816006015560e08201518160070190805190602001906200044e92919062000a39565b5061010082015181600801556101208201518160090155905050604051806101400160405280600381526020016040518060400160405280600681526020017f5072c5a1757400000000000000000000000000000000000000000000000000008152508152602001609a8152602001600381526020016040518060600160405280602f8152602001620023f2602f913981526020016001815260200160ea81526020016040518060a0016040528060618152602001620024f060619139815260200160018152602001600181525060016000600381526020019081526020016000206000820151816000015560208201518160010190805190602001906200055892919062000a39565b50604082015181600201556060820151816003015560808201518160040190805190602001906200058b92919062000a39565b5060a0820151816005015560c0820151816006015560e0820151816007019080519060200190620005be92919062000a39565b5061010082015181600801556101208201518160090155905050604051806101400160405280600481526020016040518060400160405280600681526020017f52616b696a6100000000000000000000000000000000000000000000000000008152508152602001606281526020016003815260200160405180606001604052806035815260200162002551603591398152602001600281526020016103e881526020016040518060a0016040528060618152602001620024f06061913981526020016001815260200160058152506001600060048152602001908152602001600020600082015181600001556020820151816001019080519060200190620006c992919062000a39565b5060408201518160020155606082015181600301556080820151816004019080519060200190620006fc92919062000a39565b5060a0820151816005015560c0820151816006015560e08201518160070190805190602001906200072f92919062000a39565b5061010082015181600801556101208201518160090155905050604051806101400160405280600581526020016040518060400160405280600881526020017f4b6f6261736963610000000000000000000000000000000000000000000000008152508152602001604a8152602001600381526020016040518060600160405280602f815260200162002586602f91398152602001600181526020016103e881526020016040518060a0016040528060618152602001620024f060619139815260200160018152602001600181525060016000600581526020019081526020016000206000820151816000015560208201518160010190805190602001906200083a92919062000a39565b50604082015181600201556060820151816003015560808201518160040190805190602001906200086d92919062000a39565b5060a0820151816005015560c0820151816006015560e0820151816007019080519060200190620008a092919062000a39565b5061010082015181600801556101208201518160090155905050604051806101400160405280600681526020016040518060400160405280600881526020017f4b616d616d6265720000000000000000000000000000000000000000000000008152508152602001603681526020016003815260200160405180608001604052806049815260200162002421604991398152602001600181526020016101f481526020016040518060a0016040528060618152602001620024f06061913981526020016001815260200160028152506001600060068152602001908152602001600020600082015181600001556020820151816001019080519060200190620009ab92919062000a39565b5060408201518160020155606082015181600301556080820151816004019080519060200190620009de92919062000a39565b5060a0820151816005015560c0820151816006015560e082015181600701908051906020019062000a1192919062000a39565b5061010082015181600801556101208201518160090155905050600760008190555062000ae8565b828054600181600116156101000203166002900490600052602060002090601f016020900481019282601f1062000a7c57805160ff191683800117855562000aad565b8280016001018555821562000aad579182015b8281111562000aac57825182559160200191906001019062000a8f565b5b50905062000abc919062000ac0565b5090565b62000ae591905b8082111562000ae157600081600090555060010162000ac7565b5090565b90565b6118fa8062000af86000396000f3fe608060405234801561001057600080fd5b50600436106100885760003560e01c8063ac8a54b11161005b578063ac8a54b114610156578063c1b4410f14610186578063e0df7bb6146101a2578063faa5953f146101c057610088565b80632dc810ab1461008d5780633f70c2b4146100bd5780637acc0b20146100ed578063a0ea351114610126575b600080fd5b6100a760048036036100a291908101906112db565b6101f0565b6040516100b49190611639565b60405180910390f35b6100d760048036036100d291908101906112b2565b610585565b6040516100e4919061168b565b60405180910390f35b610107600480360361010291908101906112b2565b61082c565b60405161011d9a999897969594939291906116c8565b60405180910390f35b610140600480360361013b91908101906112db565b610a48565b60405161014d9190611639565b60405180910390f35b610170600480360361016b91908101906112b2565b610ddd565b60405161017d91906116ad565b60405180910390f35b6101a0600480360361019b91908101906111a4565b610e32565b005b6101aa610f95565b6040516101b791906116ad565b60405180910390f35b6101da60048036036101d591908101906112b2565b610f9b565b6040516101e791906116ad565b60405180910390f35b6060600080905060608360405190808252806020026020018201604052801561023357816020015b610220610ff0565b8152602001906001900390816102185790505b50905060008090505b60005481101561057957856001600083815260200190815260200160002060090154141561056c5760405180610140016040528060016000848152602001908152602001600020600001548152602001600160008481526020019081526020016000206001018054600181600116156101000203166002900480601f0160208091040260200160405190810160405280929190818152602001828054600181600116156101000203166002900480156103365780601f1061030b57610100808354040283529160200191610336565b820191906000526020600020905b81548152906001019060200180831161031957829003601f168201915b505050505081526020016001600084815260200190815260200160002060020154815260200160016000848152602001908152602001600020600301548152602001600160008481526020019081526020016000206004018054600181600116156101000203166002900480601f0160208091040260200160405190810160405280929190818152602001828054600181600116156101000203166002900480156104225780601f106103f757610100808354040283529160200191610422565b820191906000526020600020905b81548152906001019060200180831161040557829003601f168201915b505050505081526020016001600084815260200190815260200160002060050154815260200160016000848152602001908152602001600020600601548152602001600160008481526020019081526020016000206007018054600181600116156101000203166002900480601f01602080910402602001604051908101604052809291908181526020018280546001816001161561010002031660029004801561050e5780601f106104e35761010080835404028352916020019161050e565b820191906000526020600020905b8154815290600101906020018083116104f157829003601f168201915b5050505050815260200160016000848152602001908152602001600020600801548152602001600160008481526020019081526020016000206009015481525082848060010195508151811061056057fe5b60200260200101819052505b808060010191505061023c565b50809250505092915050565b61058d611043565b610595611043565b60008090505b60005481101561082257836001600083815260200190815260200160002060000154141561081557600160008281526020019081526020016000206040518061014001604052908160008201548152602001600182018054600181600116156101000203166002900480601f0160208091040260200160405190810160405280929190818152602001828054600181600116156101000203166002900480156106855780601f1061065a57610100808354040283529160200191610685565b820191906000526020600020905b81548152906001019060200180831161066857829003601f168201915b505050505081526020016002820154815260200160038201548152602001600482018054600181600116156101000203166002900480601f01602080910402602001604051908101604052809291908181526020018280546001816001161561010002031660029004801561073b5780601f106107105761010080835404028352916020019161073b565b820191906000526020600020905b81548152906001019060200180831161071e57829003601f168201915b505050505081526020016005820154815260200160068201548152602001600782018054600181600116156101000203166002900480601f0160208091040260200160405190810160405280929190818152602001828054600181600116156101000203166002900480156107f15780601f106107c6576101008083540402835291602001916107f1565b820191906000526020600020905b8154815290600101906020018083116107d457829003601f168201915b50505050508152602001600882015481526020016009820154815250509150610822565b808060010191505061059b565b5080915050919050565b6001602052806000526040600020600091509050806000015490806001018054600181600116156101000203166002900480601f0160208091040260200160405190810160405280929190818152602001828054600181600116156101000203166002900480156108de5780601f106108b3576101008083540402835291602001916108de565b820191906000526020600020905b8154815290600101906020018083116108c157829003601f168201915b505050505090806002015490806003015490806004018054600181600116156101000203166002900480601f0160208091040260200160405190810160405280929190818152602001828054600181600116156101000203166002900480156109885780601f1061095d57610100808354040283529160200191610988565b820191906000526020600020905b81548152906001019060200180831161096b57829003601f168201915b505050505090806005015490806006015490806007018054600181600116156101000203166002900480601f016020809104026020016040519081016040528092919081815260200182805460018160011615610100020316600290048015610a325780601f10610a0757610100808354040283529160200191610a32565b820191906000526020600020905b815481529060010190602001808311610a1557829003601f168201915b505050505090806008015490806009015490508a565b60606000809050606083604051908082528060200260200182016040528015610a8b57816020015b610a78610ff0565b815260200190600190039081610a705790505b50905060008090505b600054811015610dd1578560016000838152602001908152602001600020600801541415610dc45760405180610140016040528060016000848152602001908152602001600020600001548152602001600160008481526020019081526020016000206001018054600181600116156101000203166002900480601f016020809104026020016040519081016040528092919081815260200182805460018160011615610100020316600290048015610b8e5780601f10610b6357610100808354040283529160200191610b8e565b820191906000526020600020905b815481529060010190602001808311610b7157829003601f168201915b505050505081526020016001600084815260200190815260200160002060020154815260200160016000848152602001908152602001600020600301548152602001600160008481526020019081526020016000206004018054600181600116156101000203166002900480601f016020809104026020016040519081016040528092919081815260200182805460018160011615610100020316600290048015610c7a5780601f10610c4f57610100808354040283529160200191610c7a565b820191906000526020600020905b815481529060010190602001808311610c5d57829003601f168201915b505050505081526020016001600084815260200190815260200160002060050154815260200160016000848152602001908152602001600020600601548152602001600160008481526020019081526020016000206007018054600181600116156101000203166002900480601f016020809104026020016040519081016040528092919081815260200182805460018160011615610100020316600290048015610d665780601f10610d3b57610100808354040283529160200191610d66565b820191906000526020600020905b815481529060010190602001808311610d4957829003601f168201915b50505050508152602001600160008481526020019081526020016000206008015481526020016001600084815260200190815260200160002060090154815250828480600101955081518110610db857fe5b60200260200101819052505b8080600101915050610a94565b50809250505092915050565b6000806000905060008090505b600054811015610e28578360016000838152602001908152602001600020600901541415610e1b5781806001019250505b8080600101915050610dea565b5080915050919050565b6002851115610e4057600094505b60405180610140016040528060005481526020018a81526020018981526020018881526020018781526020018681526020018581526020018481526020018381526020018281525060016000806000815480929190600101919050558152602001908152602001600020600082015181600001556020820151816001019080519060200190610ed0929190611096565b5060408201518160020155606082015181600301556080820151816004019080519060200190610f01929190611096565b5060a0820151816005015560c0820151816006015560e0820151816007019080519060200190610f32929190611096565b50610100820151816008015561012082015181600901559050507fb040efd5b9ac3e016c34e7ba218414cec2f62f7405435784f124cf44a21dc13789600160005403604051610f8292919061165b565b60405180910390a1505050505050505050565b60005481565b6000806000905060008090505b600054811015610fe6578360016000838152602001908152602001600020600801541415610fd95781806001019250505b8080600101915050610fa8565b5080915050919050565b604051806101400160405280600081526020016060815260200160008152602001600081526020016060815260200160008152602001600081526020016060815260200160008152602001600081525090565b604051806101400160405280600081526020016060815260200160008152602001600081526020016060815260200160008152602001600081526020016060815260200160008152602001600081525090565b828054600181600116156101000203166002900490600052602060002090601f016020900481019282601f106110d757805160ff1916838001178555611105565b82800160010185558215611105579182015b828111156111045782518255916020019190600101906110e9565b5b5090506111129190611116565b5090565b61113891905b8082111561113457600081600090555060010161111c565b5090565b90565b600082601f83011261114c57600080fd5b813561115f61115a826117a6565b611779565b9150808252602083016020830185838301111561117b57600080fd5b61118683828461184d565b50505092915050565b60008135905061119e816118a0565b92915050565b60008060008060008060008060006101208a8c0312156111c357600080fd5b60008a013567ffffffffffffffff8111156111dd57600080fd5b6111e98c828d0161113b565b99505060206111fa8c828d0161118f565b985050604061120b8c828d0161118f565b97505060608a013567ffffffffffffffff81111561122857600080fd5b6112348c828d0161113b565b96505060806112458c828d0161118f565b95505060a06112568c828d0161118f565b94505060c08a013567ffffffffffffffff81111561127357600080fd5b61127f8c828d0161113b565b93505060e06112908c828d0161118f565b9250506101006112a28c828d0161118f565b9150509295985092959850929598565b6000602082840312156112c457600080fd5b60006112d28482850161118f565b91505092915050565b600080604083850312156112ee57600080fd5b60006112fc8582860161118f565b925050602061130d8582860161118f565b9150509250929050565b60006113238383611533565b905092915050565b6000611336826117e2565b6113408185611810565b935083602082028501611352856117d2565b8060005b8581101561138e578484038952815161136f8582611317565b945061137a83611803565b925060208a01995050600181019050611356565b50829750879550505050505092915050565b60006113ab826117f8565b6113b58185611832565b93506113c581856020860161185c565b6113ce8161188f565b840191505092915050565b60006113e4826117ed565b6113ee8185611821565b93506113fe81856020860161185c565b6114078161188f565b840191505092915050565b600061141d826117ed565b6114278185611832565b935061143781856020860161185c565b6114408161188f565b840191505092915050565b600061014083016000830151611464600086018261161b565b506020830151848203602086015261147c82826113d9565b9150506040830151611491604086018261161b565b5060608301516114a4606086018261161b565b50608083015184820360808601526114bc82826113d9565b91505060a08301516114d160a086018261161b565b5060c08301516114e460c086018261161b565b5060e083015184820360e08601526114fc82826113d9565b91505061010083015161151361010086018261161b565b5061012083015161152861012086018261161b565b508091505092915050565b60006101408301600083015161154c600086018261161b565b506020830151848203602086015261156482826113d9565b9150506040830151611579604086018261161b565b50606083015161158c606086018261161b565b50608083015184820360808601526115a482826113d9565b91505060a08301516115b960a086018261161b565b5060c08301516115cc60c086018261161b565b5060e083015184820360e08601526115e482826113d9565b9150506101008301516115fb61010086018261161b565b5061012083015161161061012086018261161b565b508091505092915050565b61162481611843565b82525050565b61163381611843565b82525050565b60006020820190508181036000830152611653818461132b565b905092915050565b6000604082019050818103600083015261167581856113a0565b9050611684602083018461162a565b9392505050565b600060208201905081810360008301526116a5818461144b565b905092915050565b60006020820190506116c2600083018461162a565b92915050565b6000610140820190506116de600083018d61162a565b81810360208301526116f0818c611412565b90506116ff604083018b61162a565b61170c606083018a61162a565b818103608083015261171e8189611412565b905061172d60a083018861162a565b61173a60c083018761162a565b81810360e083015261174c8186611412565b905061175c61010083018561162a565b61176a61012083018461162a565b9b9a5050505050505050505050565b6000604051905081810181811067ffffffffffffffff8211171561179c57600080fd5b8060405250919050565b600067ffffffffffffffff8211156117bd57600080fd5b601f19601f8301169050602081019050919050565b6000819050602082019050919050565b600081519050919050565b600081519050919050565b600081519050919050565b6000602082019050919050565b600082825260208201905092915050565b600082825260208201905092915050565b600082825260208201905092915050565b6000819050919050565b82818337600083830152505050565b60005b8381101561187a57808201518184015260208101905061185f565b83811115611889576000848401525b50505050565b6000601f19601f8301169050919050565b6118a981611843565b81146118b457600080fd5b5056fea365627a7a72315820ceced3000e194862fbc35eacc4e3e9937cf7c6f8afa6b5273c623c4a4e1abd616c6578706572696d656e74616cf564736f6c634300051000406173736574732f70726f647563745f6c697374696e67732f70726f7363697574746f5f34363133375f62792e6a70676173736574732f70726f647563745f6c697374696e67732f7761736865645f72696e645f6368656573655f7061756c5f61736d616e5f6a696c6c5f6c656e6f626c655f62792e6a70676173736574732f70726f647563745f6c697374696e67732f686f6e65795f736861776e5f63617a615f63635f62795f73612e6a70672c736c696b61322e706e676173736574732f70726f647563745f6c697374696e67732f6f6c6976655f6f696c5f636174616c696e615f616c656a616e6472615f6163657665646f5f62795f73612e6a70675365642075742070657273706963696174697320756e6465206f6d6e69732069737465206e61747573206572726f722073697420766f6c7570746174656d206163637573616e7469756d20646f6c6f72656d717565206c617564616e7469756d2e6173736574732f70726f647563745f6c697374696e67732f72616b696a615f73696c766572696a655f63635f62795f73612e6a70676173736574732f70726f647563745f6c697374696e67732f73616c616d695f70626b7765655f62795f73612e6a70676173736574732f70726f647563745f6c697374696e67732f6d617274696e5f636174687261655f62795f73612e6a7067",
  "source": "pragma solidity >=0.4.22 <0.9.0;\npragma experimental ABIEncoderV2;\ncontract Products{\n    uint public productsCount = 0;\n\n    struct Product{\n        uint id;\n        string name;\n        uint price_numerator;\n        uint price_denominator;\n        string assetUrls;\n        uint classification;\n        uint quantifier;\n        string decs;\n        uint sellerId;\n        uint categoryId;\n\n    }\n\n    mapping (uint => Product) public products;\n\n    event ProductCreated(string name, uint ProductNumber);\n\n    constructor() public{\n\n        products[0] = Product(0, \"Domai med\", 50, 3, \"assets/product_listings/honey_shawn_caza_cc_by_sa.jpg,slika2.png\", 1, 750,\n            \"Sed ut perspiciatis unde omnis iste natus error sit voluptatem accusantium doloremque laudantium.\", 1,9);\n        products[1] = Product(1, \"Pasirani paradajz\", 43, 3, \"assets/product_listings/martin_cathrae_by_sa.jpg\", 1, 500,\n            \"Sed ut perspiciatis unde omnis iste natus error sit voluptatem accusantium doloremque laudantium.\", 1,3);\n        products[2] = Product(2, \"Maslinovo ulje\", 77, 3, \"assets/product_listings/olive_oil_catalina_alejandra_acevedo_by_sa.jpg\", 1, 750,\n            \"Sed ut perspiciatis unde omnis iste natus error sit voluptatem accusantium doloremque laudantium.\", 1,9);\n        products[3] = Product(3, \"Prut\", 154, 3, \"assets/product_listings/prosciutto_46137_by.jpg\", 1, 234,\n            \"Sed ut perspiciatis unde omnis iste natus error sit voluptatem accusantium doloremque laudantium.\", 1,1);\n        products[4] = Product(4, \"Rakija\", 98, 3, \"assets/product_listings/rakija_silverije_cc_by_sa.jpg\", 2, 1000,\n            \"Sed ut perspiciatis unde omnis iste natus error sit voluptatem accusantium doloremque laudantium.\", 1,5);\n        products[5] = Product(5, \"Kobasica\", 74, 3, \"assets/product_listings/salami_pbkwee_by_sa.jpg\", 1, 1000,\n            \"Sed ut perspiciatis unde omnis iste natus error sit voluptatem accusantium doloremque laudantium.\", 1,1);\n        products[6] = Product(6, \"Kamamber\", 54,3, \"assets/product_listings/washed_rind_cheese_paul_asman_jill_lenoble_by.jpg\", 1, 500,\n            \"Sed ut perspiciatis unde omnis iste natus error sit voluptatem accusantium doloremque laudantium.\", 1,2);\n        productsCount = 7;\n    }\n\n    function createProduct(string memory _productName, uint _price_nominator, uint _price_denominator, string memory _assetUrls, uint _classif, uint _quantifier, string memory _desc, uint _sellerId, uint _categoryId) public{\n\n        if (_classif > 2)\n            _classif = 0;\n\n        products[productsCount++] = Product(productsCount, _productName, _price_nominator, _price_denominator, _assetUrls, _classif, _quantifier, _desc, _sellerId, _categoryId);\n        emit ProductCreated(_productName, productsCount - 1);\n\n    }\n    function getProductsForCategory(uint category, uint totalProducts) public returns (Product[] memory){\n        uint count = 0;\n        Product[] memory y = new Product[](totalProducts);\n        for (uint i= 0; i < productsCount; i++) {\n            if (products[i].categoryId == category){\n                y[count++] = Product(products[i].id,\n                products[i].name,\n                products[i].price_numerator,\n                products[i].price_denominator,\n                products[i].assetUrls,\n                products[i].classification,\n                products[i].quantifier,\n                products[i].decs,\n                products[i].sellerId,\n                    products[i].categoryId);\n            }\n        }\n        return y;\n    }\n    function getProductsForCategoryCount(uint category) public returns (uint count){\n        uint productsForCategoryCount = 0;\n        for (uint i= 0; i < productsCount; i++) {\n            if (products[i].categoryId == category){\n                productsForCategoryCount++;\n            }\n        }\n        return productsForCategoryCount;\n    }\n\n    function getProductById(uint id) public returns (Product memory){\n        Product memory product;\n        for (uint i= 0; i < productsCount; i++) {\n            if (products[i].id == id){\n                product = products[i];\n                break;\n            }\n        }\n        return product;\n    }\n\n\n    function getSellerProductsCount(uint sellerId) public returns (uint count){\n        uint sellerProductsCount = 0;\n        for (uint i= 0; i < productsCount; i++) {\n            if (products[i].sellerId == sellerId){\n                sellerProductsCount++;\n            }\n        }\n        return sellerProductsCount;\n    }\n    function getSellerProducts(uint sellerId, uint totalProducts) public returns (Product[] memory){\n        uint count = 0;\n        Product[] memory y = new Product[](totalProducts);\n        for (uint i= 0; i < productsCount; i++) {\n            if (products[i].sellerId == sellerId){\n                y[count++] = Product(products[i].id,\n                    products[i].name,\n                    products[i].price_numerator,\n                    products[i].price_denominator,\n                    products[i].assetUrls,\n                    products[i].classification,\n                    products[i].quantifier,\n                    products[i].decs,\n                    products[i].sellerId,\n                    products[i].categoryId);\n            }\n        }\n        return y;\n    }\n}",
  "sourcePath": "/home/Catalyst/frontend_mobile/contracts/Products.sol",
  "compiler": {
    "name": "solc",
    "version": "0.5.16+commit.9c3226ce.Emscripten.clang"
  },
  "schemaVersion": "3.3.4",
  "updatedAt": "2021-04-22T15:02:01.164Z",
  "networkType": "ethereum",
  "devdoc": {
    "methods": {}
  },
  "userdoc": {
    "methods": {}
  }
}