{
  "contractName": "Products",
  "abi": [
    {
      "inputs": [],
      "payable": false,
      "stateMutability": "nonpayable",
      "type": "constructor"
    },
    {
      "anonymous": false,
      "inputs": [
        {
          "indexed": false,
          "internalType": "string",
          "name": "name",
          "type": "string"
        },
        {
          "indexed": false,
          "internalType": "uint256",
          "name": "ProductNumber",
          "type": "uint256"
        }
      ],
      "name": "ProductCreated",
      "type": "event"
    },
    {
      "constant": true,
      "inputs": [
        {
          "internalType": "uint256",
          "name": "",
          "type": "uint256"
        }
      ],
      "name": "products",
      "outputs": [
        {
          "internalType": "uint256",
          "name": "id",
          "type": "uint256"
        },
        {
          "internalType": "string",
          "name": "name",
          "type": "string"
        },
        {
          "internalType": "uint256",
          "name": "price_numerator",
          "type": "uint256"
        },
        {
          "internalType": "uint256",
          "name": "price_denominator",
          "type": "uint256"
        },
        {
          "internalType": "uint256",
          "name": "discount_percentage",
          "type": "uint256"
        },
        {
          "internalType": "string",
          "name": "assetUrls",
          "type": "string"
        },
        {
          "internalType": "uint256",
          "name": "classification",
          "type": "uint256"
        },
        {
          "internalType": "uint256",
          "name": "quantifier",
          "type": "uint256"
        },
        {
          "internalType": "string",
          "name": "decs",
          "type": "string"
        },
        {
          "internalType": "uint256",
          "name": "sellerId",
          "type": "uint256"
        },
        {
          "internalType": "uint256",
          "name": "categoryId",
          "type": "uint256"
        }
      ],
      "payable": false,
      "stateMutability": "view",
      "type": "function"
    },
    {
      "constant": true,
      "inputs": [],
      "name": "productsCount",
      "outputs": [
        {
          "internalType": "uint256",
          "name": "",
          "type": "uint256"
        }
      ],
      "payable": false,
      "stateMutability": "view",
      "type": "function"
    },
    {
      "constant": false,
      "inputs": [
        {
          "internalType": "string",
          "name": "_productName",
          "type": "string"
        },
        {
          "internalType": "uint256",
          "name": "_price_nominator",
          "type": "uint256"
        },
        {
          "internalType": "uint256",
          "name": "_price_denominator",
          "type": "uint256"
        },
        {
          "internalType": "uint256",
          "name": "_discount_percentage",
          "type": "uint256"
        },
        {
          "internalType": "string",
          "name": "_assetUrls",
          "type": "string"
        },
        {
          "internalType": "uint256",
          "name": "_classif",
          "type": "uint256"
        },
        {
          "internalType": "uint256",
          "name": "_quantifier",
          "type": "uint256"
        },
        {
          "internalType": "string",
          "name": "_desc",
          "type": "string"
        },
        {
          "internalType": "uint256",
          "name": "_sellerId",
          "type": "uint256"
        },
        {
          "internalType": "uint256",
          "name": "_categoryId",
          "type": "uint256"
        }
      ],
      "name": "createProduct",
      "outputs": [],
      "payable": false,
      "stateMutability": "nonpayable",
      "type": "function"
    },
    {
      "constant": false,
      "inputs": [
        {
          "internalType": "uint256",
          "name": "category",
          "type": "uint256"
        },
        {
          "internalType": "uint256",
          "name": "totalProducts",
          "type": "uint256"
        }
      ],
      "name": "getProductsForCategory",
      "outputs": [
        {
          "components": [
            {
              "internalType": "uint256",
              "name": "id",
              "type": "uint256"
            },
            {
              "internalType": "string",
              "name": "name",
              "type": "string"
            },
            {
              "internalType": "uint256",
              "name": "price_numerator",
              "type": "uint256"
            },
            {
              "internalType": "uint256",
              "name": "price_denominator",
              "type": "uint256"
            },
            {
              "internalType": "uint256",
              "name": "discount_percentage",
              "type": "uint256"
            },
            {
              "internalType": "string",
              "name": "assetUrls",
              "type": "string"
            },
            {
              "internalType": "uint256",
              "name": "classification",
              "type": "uint256"
            },
            {
              "internalType": "uint256",
              "name": "quantifier",
              "type": "uint256"
            },
            {
              "internalType": "string",
              "name": "decs",
              "type": "string"
            },
            {
              "internalType": "uint256",
              "name": "sellerId",
              "type": "uint256"
            },
            {
              "internalType": "uint256",
              "name": "categoryId",
              "type": "uint256"
            }
          ],
          "internalType": "struct Products.Product[]",
          "name": "",
          "type": "tuple[]"
        }
      ],
      "payable": false,
      "stateMutability": "nonpayable",
      "type": "function"
    },
    {
      "constant": false,
      "inputs": [
        {
          "internalType": "uint256",
          "name": "category",
          "type": "uint256"
        }
      ],
      "name": "getProductsForCategoryCount",
      "outputs": [
        {
          "internalType": "uint256",
          "name": "count",
          "type": "uint256"
        }
      ],
      "payable": false,
      "stateMutability": "nonpayable",
      "type": "function"
    },
    {
      "constant": false,
      "inputs": [
        {
          "internalType": "uint256",
          "name": "id",
          "type": "uint256"
        }
      ],
      "name": "getProductById",
      "outputs": [
        {
          "components": [
            {
              "internalType": "uint256",
              "name": "id",
              "type": "uint256"
            },
            {
              "internalType": "string",
              "name": "name",
              "type": "string"
            },
            {
              "internalType": "uint256",
              "name": "price_numerator",
              "type": "uint256"
            },
            {
              "internalType": "uint256",
              "name": "price_denominator",
              "type": "uint256"
            },
            {
              "internalType": "uint256",
              "name": "discount_percentage",
              "type": "uint256"
            },
            {
              "internalType": "string",
              "name": "assetUrls",
              "type": "string"
            },
            {
              "internalType": "uint256",
              "name": "classification",
              "type": "uint256"
            },
            {
              "internalType": "uint256",
              "name": "quantifier",
              "type": "uint256"
            },
            {
              "internalType": "string",
              "name": "decs",
              "type": "string"
            },
            {
              "internalType": "uint256",
              "name": "sellerId",
              "type": "uint256"
            },
            {
              "internalType": "uint256",
              "name": "categoryId",
              "type": "uint256"
            }
          ],
          "internalType": "struct Products.Product",
          "name": "",
          "type": "tuple"
        }
      ],
      "payable": false,
      "stateMutability": "nonpayable",
      "type": "function"
    },
    {
      "constant": false,
      "inputs": [
        {
          "internalType": "uint256",
          "name": "sellerId",
          "type": "uint256"
        }
      ],
      "name": "getSellerProductsCount",
      "outputs": [
        {
          "internalType": "uint256",
          "name": "count",
          "type": "uint256"
        }
      ],
      "payable": false,
      "stateMutability": "nonpayable",
      "type": "function"
    },
    {
      "constant": false,
      "inputs": [
        {
          "internalType": "uint256",
          "name": "sellerId",
          "type": "uint256"
        },
        {
          "internalType": "uint256",
          "name": "totalProducts",
          "type": "uint256"
        }
      ],
      "name": "getSellerProducts",
      "outputs": [
        {
          "components": [
            {
              "internalType": "uint256",
              "name": "id",
              "type": "uint256"
            },
            {
              "internalType": "string",
              "name": "name",
              "type": "string"
            },
            {
              "internalType": "uint256",
              "name": "price_numerator",
              "type": "uint256"
            },
            {
              "internalType": "uint256",
              "name": "price_denominator",
              "type": "uint256"
            },
            {
              "internalType": "uint256",
              "name": "discount_percentage",
              "type": "uint256"
            },
            {
              "internalType": "string",
              "name": "assetUrls",
              "type": "string"
            },
            {
              "internalType": "uint256",
              "name": "classification",
              "type": "uint256"
            },
            {
              "internalType": "uint256",
              "name": "quantifier",
              "type": "uint256"
            },
            {
              "internalType": "string",
              "name": "decs",
              "type": "string"
            },
            {
              "internalType": "uint256",
              "name": "sellerId",
              "type": "uint256"
            },
            {
              "internalType": "uint256",
              "name": "categoryId",
              "type": "uint256"
            }
          ],
          "internalType": "struct Products.Product[]",
          "name": "",
          "type": "tuple[]"
        }
      ],
      "payable": false,
      "stateMutability": "nonpayable",
      "type": "function"
    },
    {
      "constant": false,
      "inputs": [
        {
          "internalType": "string",
          "name": "what",
          "type": "string"
        },
        {
          "internalType": "string",
          "name": "where",
          "type": "string"
        }
      ],
      "name": "contains",
      "outputs": [
        {
          "internalType": "bool",
          "name": "",
          "type": "bool"
        }
      ],
      "payable": false,
      "stateMutability": "nonpayable",
      "type": "function"
    },
    {
      "constant": false,
      "inputs": [
        {
          "internalType": "string",
          "name": "query",
          "type": "string"
        }
      ],
      "name": "getQueryProductsCount",
      "outputs": [
        {
          "internalType": "uint256",
          "name": "count",
          "type": "uint256"
        }
      ],
      "payable": false,
      "stateMutability": "nonpayable",
      "type": "function"
    },
    {
      "constant": false,
      "inputs": [
        {
          "internalType": "string",
          "name": "query",
          "type": "string"
        },
        {
          "internalType": "uint256",
          "name": "totalProducts",
          "type": "uint256"
        }
      ],
      "name": "getQueryProducts",
      "outputs": [
        {
          "components": [
            {
              "internalType": "uint256",
              "name": "id",
              "type": "uint256"
            },
            {
              "internalType": "string",
              "name": "name",
              "type": "string"
            },
            {
              "internalType": "uint256",
              "name": "price_numerator",
              "type": "uint256"
            },
            {
              "internalType": "uint256",
              "name": "price_denominator",
              "type": "uint256"
            },
            {
              "internalType": "uint256",
              "name": "discount_percentage",
              "type": "uint256"
            },
            {
              "internalType": "string",
              "name": "assetUrls",
              "type": "string"
            },
            {
              "internalType": "uint256",
              "name": "classification",
              "type": "uint256"
            },
            {
              "internalType": "uint256",
              "name": "quantifier",
              "type": "uint256"
            },
            {
              "internalType": "string",
              "name": "decs",
              "type": "string"
            },
            {
              "internalType": "uint256",
              "name": "sellerId",
              "type": "uint256"
            },
            {
              "internalType": "uint256",
              "name": "categoryId",
              "type": "uint256"
            }
          ],
          "internalType": "struct Products.Product[]",
          "name": "",
          "type": "tuple[]"
        }
      ],
      "payable": false,
      "stateMutability": "nonpayable",
      "type": "function"
    },
    {
      "constant": false,
      "inputs": [
        {
          "internalType": "uint256",
          "name": "_product_id",
          "type": "uint256"
        },
        {
          "internalType": "uint256",
          "name": "_discount_percentage",
          "type": "uint256"
        }
      ],
      "name": "setSale",
      "outputs": [],
      "payable": false,
      "stateMutability": "nonpayable",
      "type": "function"
    },
    {
      "constant": false,
      "inputs": [
        {
          "internalType": "uint256",
          "name": "productId",
          "type": "uint256"
        }
      ],
      "name": "removeProduct",
      "outputs": [],
      "payable": false,
      "stateMutability": "nonpayable",
      "type": "function"
    }
  ],
  "bytecode": "0x6080604052600080553480156200001557600080fd5b50604051806101600160405280600081526020016040518060400160405280600b81526020017f446f6d61c48769206d6564000000000000000000000000000000000000000000815250815260200160328152602001600381526020016000815260200160405180608001604052806043815260200162003350604391398152602001600181526020016102ee81526020016040518060a001604052806061815260200162003393606191398152602001600181526020016009815250600160008081526020019081526020016000206000820151816000015560208201518160010190805190602001906200010d92919062000ab7565b5060408201518160020155606082015181600301556080820151816004015560a08201518160050190805190602001906200014a92919062000ab7565b5060c0820151816006015560e082015181600701556101008201518160080190805190602001906200017e92919062000ab7565b50610120820151816009015561014082015181600a0155905050604051806101600160405280600181526020016040518060400160405280601181526020017f5061736972616e69207061726164616a7a0000000000000000000000000000008152508152602001602b81526020016003815260200160148152602001604051806080016040528060438152602001620033f4604391398152602001600181526020016101f481526020016040518060a00160405280606181526020016200339360619139815260200160018152602001600381525060016000600181526020019081526020016000206000820151816000015560208201518160010190805190602001906200029092919062000ab7565b5060408201518160020155606082015181600301556080820151816004015560a0820151816005019080519060200190620002cd92919062000ab7565b5060c0820151816006015560e082015181600701556101008201518160080190805190602001906200030192919062000ab7565b50610120820151816009015561014082015181600a0155905050604051806101600160405280600281526020016040518060400160405280600e81526020017f4d61736c696e6f766f20756c6a650000000000000000000000000000000000008152508152602001604d81526020016003815260200160008152602001604051806080016040528060438152602001620032ca604391398152602001600181526020016102ee81526020016040518060a00160405280606181526020016200339360619139815260200160018152602001600981525060016000600281526020019081526020016000206000820151816000015560208201518160010190805190602001906200041392919062000ab7565b5060408201518160020155606082015181600301556080820151816004015560a08201518160050190805190602001906200045092919062000ab7565b5060c0820151816006015560e082015181600701556101008201518160080190805190602001906200048492919062000ab7565b50610120820151816009015561014082015181600a0155905050604051806101600160405280600381526020016040518060400160405280600681526020017f5072c5a1757400000000000000000000000000000000000000000000000000008152508152602001609a815260200160038152602001600081526020016040518060800160405280604381526020016200347a6043913981526020016001815260200160ea81526020016040518060a00160405280606181526020016200339360619139815260200160018152602001600181525060016000600381526020019081526020016000206000820151816000015560208201518160010190805190602001906200059592919062000ab7565b5060408201518160020155606082015181600301556080820151816004015560a0820151816005019080519060200190620005d292919062000ab7565b5060c0820151816006015560e082015181600701556101008201518160080190805190602001906200060692919062000ab7565b50610120820151816009015561014082015181600a0155905050604051806101600160405280600481526020016040518060400160405280600681526020017f52616b696a610000000000000000000000000000000000000000000000000000815250815260200160628152602001600381526020016000815260200160405180608001604052806043815260200162003287604391398152602001600281526020016103e881526020016040518060a00160405280606181526020016200339360619139815260200160018152602001600581525060016000600481526020019081526020016000206000820151816000015560208201518160010190805190602001906200071892919062000ab7565b5060408201518160020155606082015181600301556080820151816004015560a08201518160050190805190602001906200075592919062000ab7565b5060c0820151816006015560e082015181600701556101008201518160080190805190602001906200078992919062000ab7565b50610120820151816009015561014082015181600a0155905050604051806101600160405280600581526020016040518060400160405280600881526020017f4b6f6261736963610000000000000000000000000000000000000000000000008152508152602001604a815260200160038152602001600081526020016040518060800160405280604381526020016200330d604391398152602001600181526020016103e881526020016040518060a00160405280606181526020016200339360619139815260200160018152602001600181525060016000600581526020019081526020016000206000820151816000015560208201518160010190805190602001906200089b92919062000ab7565b5060408201518160020155606082015181600301556080820151816004015560a0820151816005019080519060200190620008d892919062000ab7565b5060c0820151816006015560e082015181600701556101008201518160080190805190602001906200090c92919062000ab7565b50610120820151816009015561014082015181600a0155905050604051806101600160405280600681526020016040518060400160405280600881526020017f4b616d616d626572000000000000000000000000000000000000000000000000815250815260200160368152602001600381526020016000815260200160405180608001604052806043815260200162003437604391398152602001600181526020016101f481526020016040518060a001604052806061815260200162003393606191398152602001600181526020016002815250600160006006815260200190815260200160002060008201518160000155602082015181600101908051906020019062000a1e92919062000ab7565b5060408201518160020155606082015181600301556080820151816004015560a082015181600501908051906020019062000a5b92919062000ab7565b5060c0820151816006015560e0820151816007015561010082015181600801908051906020019062000a8f92919062000ab7565b50610120820151816009015561014082015181600a0155905050600760008190555062000b66565b828054600181600116156101000203166002900490600052602060002090601f016020900481019282601f1062000afa57805160ff191683800117855562000b2b565b8280016001018555821562000b2b579182015b8281111562000b2a57825182559160200191906001019062000b0d565b5b50905062000b3a919062000b3e565b5090565b62000b6391905b8082111562000b5f57600081600090555060010162000b45565b5090565b90565b6127118062000b766000396000f3fe608060405234801561001057600080fd5b50600436106100ce5760003560e01c80637acc0b201161008c578063ac8a54b111610066578063ac8a54b114610265578063e0df7bb614610295578063f901a18f146102b3578063faa5953f146102cf576100ce565b80637acc0b20146101df5780639f53b32e14610219578063a0ea351114610235576100ce565b806230d99f146100d35780632dc810ab146101035780633f70c2b4146101335780633fb18aec146101635780635ee95cae14610193578063623e610a146101af575b600080fd5b6100ed60048036036100e89190810190611ee3565b6102ff565b6040516100fa919061241a565b60405180910390f35b61011d60048036036101189190810190612083565b61075f565b60405161012a919061241a565b60405180910390f35b61014d6004803603610148919081019061205a565b610b10565b60405161015a9190612487565b60405180910390f35b61017d60048036036101789190810190611e77565b610dc1565b60405161018a919061243c565b60405180910390f35b6101ad60048036036101a8919081019061205a565b610ed6565b005b6101c960048036036101c49190810190611e36565b6110e1565b6040516101d691906124a9565b60405180910390f35b6101f960048036036101f4919081019061205a565b6111e5565b6040516102109b9a999897969594939291906124c4565b60405180910390f35b610233600480360361022e9190810190611f37565b611407565b005b61024f600480360361024a9190810190612083565b61157c565b60405161025c919061241a565b60405180910390f35b61027f600480360361027a919081019061205a565b61192d565b60405161028c91906124a9565b60405180910390f35b61029d611982565b6040516102aa91906124a9565b60405180910390f35b6102cd60048036036102c89190810190612083565b611988565b005b6102e960048036036102e4919081019061205a565b6119e8565b6040516102f691906124a9565b60405180910390f35b6060600080905060608360405190808252806020026020018201604052801561034257816020015b61032f611ba5565b8152602001906001900390816103275790505b50905060008090505b6000548110156107535761041d61036187611a3d565b610418600160008581526020019081526020016000206001018054600181600116156101000203166002900480601f01602080910402602001604051908101604052809291908181526020018280546001816001161561010002031660029004801561040e5780601f106103e35761010080835404028352916020019161040e565b820191906000526020600020905b8154815290600101906020018083116103f157829003601f168201915b5050505050611a3d565b610dc1565b156107465760405180610160016040528060016000848152602001908152602001600020600001548152602001600160008481526020019081526020016000206001018054600181600116156101000203166002900480601f0160208091040260200160405190810160405280929190818152602001828054600181600116156101000203166002900480156104f45780601f106104c9576101008083540402835291602001916104f4565b820191906000526020600020905b8154815290600101906020018083116104d757829003601f168201915b50505050508152602001600160008481526020019081526020016000206002015481526020016001600084815260200190815260200160002060030154815260200160016000848152602001908152602001600020600401548152602001600160008481526020019081526020016000206005018054600181600116156101000203166002900480601f0160208091040260200160405190810160405280929190818152602001828054600181600116156101000203166002900480156105fc5780601f106105d1576101008083540402835291602001916105fc565b820191906000526020600020905b8154815290600101906020018083116105df57829003601f168201915b505050505081526020016001600084815260200190815260200160002060060154815260200160016000848152602001908152602001600020600701548152602001600160008481526020019081526020016000206008018054600181600116156101000203166002900480601f0160208091040260200160405190810160405280929190818152602001828054600181600116156101000203166002900480156106e85780601f106106bd576101008083540402835291602001916106e8565b820191906000526020600020905b8154815290600101906020018083116106cb57829003601f168201915b505050505081526020016001600084815260200190815260200160002060090154815260200160016000848152602001908152602001600020600a015481525082848060010195508151811061073a57fe5b60200260200101819052505b808060010191505061034b565b50809250505092915050565b606060008090506060836040519080825280602002602001820160405280156107a257816020015b61078f611ba5565b8152602001906001900390816107875790505b50905060008090505b600054811015610b04578560016000838152602001908152602001600020600a01541415610af75760405180610160016040528060016000848152602001908152602001600020600001548152602001600160008481526020019081526020016000206001018054600181600116156101000203166002900480601f0160208091040260200160405190810160405280929190818152602001828054600181600116156101000203166002900480156108a55780601f1061087a576101008083540402835291602001916108a5565b820191906000526020600020905b81548152906001019060200180831161088857829003601f168201915b50505050508152602001600160008481526020019081526020016000206002015481526020016001600084815260200190815260200160002060030154815260200160016000848152602001908152602001600020600401548152602001600160008481526020019081526020016000206005018054600181600116156101000203166002900480601f0160208091040260200160405190810160405280929190818152602001828054600181600116156101000203166002900480156109ad5780601f10610982576101008083540402835291602001916109ad565b820191906000526020600020905b81548152906001019060200180831161099057829003601f168201915b505050505081526020016001600084815260200190815260200160002060060154815260200160016000848152602001908152602001600020600701548152602001600160008481526020019081526020016000206008018054600181600116156101000203166002900480601f016020809104026020016040519081016040528092919081815260200182805460018160011615610100020316600290048015610a995780601f10610a6e57610100808354040283529160200191610a99565b820191906000526020600020905b815481529060010190602001808311610a7c57829003601f168201915b505050505081526020016001600084815260200190815260200160002060090154815260200160016000848152602001908152602001600020600a0154815250828480600101955081518110610aeb57fe5b60200260200101819052505b80806001019150506107ab565b50809250505092915050565b610b18611bff565b610b20611bff565b60008090505b600054811015610db7578360016000838152602001908152602001600020600001541415610daa57600160008281526020019081526020016000206040518061016001604052908160008201548152602001600182018054600181600116156101000203166002900480601f016020809104026020016040519081016040528092919081815260200182805460018160011615610100020316600290048015610c105780601f10610be557610100808354040283529160200191610c10565b820191906000526020600020905b815481529060010190602001808311610bf357829003601f168201915b50505050508152602001600282015481526020016003820154815260200160048201548152602001600582018054600181600116156101000203166002900480601f016020809104026020016040519081016040528092919081815260200182805460018160011615610100020316600290048015610cd05780601f10610ca557610100808354040283529160200191610cd0565b820191906000526020600020905b815481529060010190602001808311610cb357829003601f168201915b505050505081526020016006820154815260200160078201548152602001600882018054600181600116156101000203166002900480601f016020809104026020016040519081016040528092919081815260200182805460018160011615610100020316600290048015610d865780601f10610d5b57610100808354040283529160200191610d86565b820191906000526020600020905b815481529060010190602001808311610d6957829003601f168201915b5050505050815260200160098201548152602001600a820154815250509150610db7565b8080600101915050610b26565b5080915050919050565b600060608390506060839050808051906020012082805190602001201415610dee57600192505050610ed0565b600080905060008090505b8351835103811015610ec85760006001905060008090505b8551811015610ea957858181518110610e2657fe5b602001015160f81c60f81b7effffffffffffffffffffffffffffffffffffffffffffffffffffffffffffff19168582850181518110610e6157fe5b602001015160f81c60f81b7effffffffffffffffffffffffffffffffffffffffffffffffffffffffffffff191614610e9c5760009150610ea9565b8080600101915050610e11565b508015610eba576001925050610ec8565b508080600101915050610df9565b508093505050505b92915050565b60008054905060008090505b600054811015610f1f578260016000838152602001908152602001600020600001541415610f1257809150610f1f565b8080600101915050610ee2565b506000548110156110dd5760008190505b60016000540381101561103e5760016000600183018152602001908152602001600020600160008381526020019081526020016000206000820154816000015560018201816001019080546001816001161561010002031660029004610f97929190611c59565b5060028201548160020155600382015481600301556004820154816004015560058201816005019080546001816001161561010002031660029004610fdd929190611c59565b50600682015481600601556007820154816007015560088201816008019080546001816001161561010002031660029004611019929190611c59565b5060098201548160090155600a82015481600a01559050508080600101915050610f30565b506001600060016000540381526020019081526020016000206000808201600090556001820160006110709190611ce0565b6002820160009055600382016000905560048201600090556005820160006110989190611ce0565b600682016000905560078201600090556008820160006110b89190611ce0565b6009820160009055600a82016000905550506000808154809291906001900391905055505b5050565b6000806000905060008090505b6000548110156111db576111c061110485611a3d565b6111bb600160008581526020019081526020016000206001018054600181600116156101000203166002900480601f0160208091040260200160405190810160405280929190818152602001828054600181600116156101000203166002900480156111b15780601f10611186576101008083540402835291602001916111b1565b820191906000526020600020905b81548152906001019060200180831161119457829003601f168201915b5050505050611a3d565b610dc1565b156111ce5781806001019250505b80806001019150506110ee565b5080915050919050565b6001602052806000526040600020600091509050806000015490806001018054600181600116156101000203166002900480601f0160208091040260200160405190810160405280929190818152602001828054600181600116156101000203166002900480156112975780601f1061126c57610100808354040283529160200191611297565b820191906000526020600020905b81548152906001019060200180831161127a57829003601f168201915b505050505090806002015490806003015490806004015490806005018054600181600116156101000203166002900480601f0160208091040260200160405190810160405280929190818152602001828054600181600116156101000203166002900480156113475780601f1061131c57610100808354040283529160200191611347565b820191906000526020600020905b81548152906001019060200180831161132a57829003601f168201915b505050505090806006015490806007015490806008018054600181600116156101000203166002900480601f0160208091040260200160405190810160405280929190818152602001828054600181600116156101000203166002900480156113f15780601f106113c6576101008083540402835291602001916113f1565b820191906000526020600020905b8154815290600101906020018083116113d457829003601f168201915b50505050509080600901549080600a015490508b565b600285111561141557600094505b60405180610160016040528060005481526020018b81526020018a815260200189815260200188815260200187815260200186815260200185815260200184815260200183815260200182815250600160008060008154809291906001019190505581526020019081526020016000206000820151816000015560208201518160010190805190602001906114ab929190611d28565b5060408201518160020155606082015181600301556080820151816004015560a08201518160050190805190602001906114e6929190611d28565b5060c0820151816006015560e08201518160070155610100820151816008019080519060200190611518929190611d28565b50610120820151816009015561014082015181600a01559050507fb040efd5b9ac3e016c34e7ba218414cec2f62f7405435784f124cf44a21dc1378a600160005403604051611568929190612457565b60405180910390a150505050505050505050565b606060008090506060836040519080825280602002602001820160405280156115bf57816020015b6115ac611ba5565b8152602001906001900390816115a45790505b50905060008090505b6000548110156119215785600160008381526020019081526020016000206009015414156119145760405180610160016040528060016000848152602001908152602001600020600001548152602001600160008481526020019081526020016000206001018054600181600116156101000203166002900480601f0160208091040260200160405190810160405280929190818152602001828054600181600116156101000203166002900480156116c25780601f10611697576101008083540402835291602001916116c2565b820191906000526020600020905b8154815290600101906020018083116116a557829003601f168201915b50505050508152602001600160008481526020019081526020016000206002015481526020016001600084815260200190815260200160002060030154815260200160016000848152602001908152602001600020600401548152602001600160008481526020019081526020016000206005018054600181600116156101000203166002900480601f0160208091040260200160405190810160405280929190818152602001828054600181600116156101000203166002900480156117ca5780601f1061179f576101008083540402835291602001916117ca565b820191906000526020600020905b8154815290600101906020018083116117ad57829003601f168201915b505050505081526020016001600084815260200190815260200160002060060154815260200160016000848152602001908152602001600020600701548152602001600160008481526020019081526020016000206008018054600181600116156101000203166002900480601f0160208091040260200160405190810160405280929190818152602001828054600181600116156101000203166002900480156118b65780601f1061188b576101008083540402835291602001916118b6565b820191906000526020600020905b81548152906001019060200180831161189957829003601f168201915b505050505081526020016001600084815260200190815260200160002060090154815260200160016000848152602001908152602001600020600a015481525082848060010195508151811061190857fe5b60200260200101819052505b80806001019150506115c8565b50809250505092915050565b6000806000905060008090505b600054811015611978578360016000838152602001908152602001600020600a0154141561196b5781806001019250505b808060010191505061193a565b5080915050919050565b60005481565b60008090505b6000548110156119e35782600160008381526020019081526020016000206000015414156119d6578160016000838152602001908152602001600020600401819055506119e3565b808060010191505061198e565b505050565b6000806000905060008090505b600054811015611a33578360016000838152602001908152602001600020600901541415611a265781806001019250505b80806001019150506119f5565b5080915050919050565b606080829050606081516040519080825280601f01601f191660200182016040528015611a795781602001600182028038833980820191505090505b50905060008090505b8251811015611b9a576041838281518110611a9957fe5b602001015160f81c60f81b60f81c60ff1610158015611ad55750605a838281518110611ac157fe5b602001015160f81c60f81b60f81c60ff1611155b15611b3a576020838281518110611ae857fe5b602001015160f81c60f81b60f81c0160f81b828281518110611b0657fe5b60200101907effffffffffffffffffffffffffffffffffffffffffffffffffffffffffffff1916908160001a905350611b8d565b828181518110611b4657fe5b602001015160f81c60f81b828281518110611b5d57fe5b60200101907effffffffffffffffffffffffffffffffffffffffffffffffffffffffffffff1916908160001a9053505b8080600101915050611a82565b508092505050919050565b60405180610160016040528060008152602001606081526020016000815260200160008152602001600081526020016060815260200160008152602001600081526020016060815260200160008152602001600081525090565b60405180610160016040528060008152602001606081526020016000815260200160008152602001600081526020016060815260200160008152602001600081526020016060815260200160008152602001600081525090565b828054600181600116156101000203166002900490600052602060002090601f016020900481019282601f10611c925780548555611ccf565b82800160010185558215611ccf57600052602060002091601f016020900482015b82811115611cce578254825591600101919060010190611cb3565b5b509050611cdc9190611da8565b5090565b50805460018160011615610100020316600290046000825580601f10611d065750611d25565b601f016020900490600052602060002090810190611d249190611da8565b5b50565b828054600181600116156101000203166002900490600052602060002090601f016020900481019282601f10611d6957805160ff1916838001178555611d97565b82800160010185558215611d97579182015b82811115611d96578251825591602001919060010190611d7b565b5b509050611da49190611da8565b5090565b611dca91905b80821115611dc6576000816000905550600101611dae565b5090565b90565b600082601f830112611dde57600080fd5b8135611df1611dec826125b1565b612584565b91508082526020830160208301858383011115611e0d57600080fd5b611e18838284612664565b50505092915050565b600081359050611e30816126b7565b92915050565b600060208284031215611e4857600080fd5b600082013567ffffffffffffffff811115611e6257600080fd5b611e6e84828501611dcd565b91505092915050565b60008060408385031215611e8a57600080fd5b600083013567ffffffffffffffff811115611ea457600080fd5b611eb085828601611dcd565b925050602083013567ffffffffffffffff811115611ecd57600080fd5b611ed985828601611dcd565b9150509250929050565b60008060408385031215611ef657600080fd5b600083013567ffffffffffffffff811115611f1057600080fd5b611f1c85828601611dcd565b9250506020611f2d85828601611e21565b9150509250929050565b6000806000806000806000806000806101408b8d031215611f5757600080fd5b60008b013567ffffffffffffffff811115611f7157600080fd5b611f7d8d828e01611dcd565b9a50506020611f8e8d828e01611e21565b9950506040611f9f8d828e01611e21565b9850506060611fb08d828e01611e21565b97505060808b013567ffffffffffffffff811115611fcd57600080fd5b611fd98d828e01611dcd565b96505060a0611fea8d828e01611e21565b95505060c0611ffb8d828e01611e21565b94505060e08b013567ffffffffffffffff81111561201857600080fd5b6120248d828e01611dcd565b9350506101006120368d828e01611e21565b9250506101206120488d828e01611e21565b9150509295989b9194979a5092959850565b60006020828403121561206c57600080fd5b600061207a84828501611e21565b91505092915050565b6000806040838503121561209657600080fd5b60006120a485828601611e21565b92505060206120b585828601611e21565b9150509250929050565b60006120cb83836122ff565b905092915050565b60006120de826125ed565b6120e8818561261b565b9350836020820285016120fa856125dd565b8060005b85811015612136578484038952815161211785826120bf565b94506121228361260e565b925060208a019950506001810190506120fe565b50829750879550505050505092915050565b6121518161264e565b82525050565b600061216282612603565b61216c818561263d565b935061217c818560208601612673565b612185816126a6565b840191505092915050565b600061219b826125f8565b6121a5818561262c565b93506121b5818560208601612673565b6121be816126a6565b840191505092915050565b60006121d4826125f8565b6121de818561263d565b93506121ee818560208601612673565b6121f7816126a6565b840191505092915050565b60006101608301600083015161221b60008601826123fc565b50602083015184820360208601526122338282612190565b915050604083015161224860408601826123fc565b50606083015161225b60608601826123fc565b50608083015161226e60808601826123fc565b5060a083015184820360a08601526122868282612190565b91505060c083015161229b60c08601826123fc565b5060e08301516122ae60e08601826123fc565b506101008301518482036101008601526122c88282612190565b9150506101208301516122df6101208601826123fc565b506101408301516122f46101408601826123fc565b508091505092915050565b60006101608301600083015161231860008601826123fc565b50602083015184820360208601526123308282612190565b915050604083015161234560408601826123fc565b50606083015161235860608601826123fc565b50608083015161236b60808601826123fc565b5060a083015184820360a08601526123838282612190565b91505060c083015161239860c08601826123fc565b5060e08301516123ab60e08601826123fc565b506101008301518482036101008601526123c58282612190565b9150506101208301516123dc6101208601826123fc565b506101408301516123f16101408601826123fc565b508091505092915050565b6124058161265a565b82525050565b6124148161265a565b82525050565b6000602082019050818103600083015261243481846120d3565b905092915050565b60006020820190506124516000830184612148565b92915050565b600060408201905081810360008301526124718185612157565b9050612480602083018461240b565b9392505050565b600060208201905081810360008301526124a18184612202565b905092915050565b60006020820190506124be600083018461240b565b92915050565b6000610160820190506124da600083018e61240b565b81810360208301526124ec818d6121c9565b90506124fb604083018c61240b565b612508606083018b61240b565b612515608083018a61240b565b81810360a083015261252781896121c9565b905061253660c083018861240b565b61254360e083018761240b565b81810361010083015261255681866121c9565b905061256661012083018561240b565b61257461014083018461240b565b9c9b505050505050505050505050565b6000604051905081810181811067ffffffffffffffff821117156125a757600080fd5b8060405250919050565b600067ffffffffffffffff8211156125c857600080fd5b601f19601f8301169050602081019050919050565b6000819050602082019050919050565b600081519050919050565b600081519050919050565b600081519050919050565b6000602082019050919050565b600082825260208201905092915050565b600082825260208201905092915050565b600082825260208201905092915050565b60008115159050919050565b6000819050919050565b82818337600083830152505050565b60005b83811015612691578082015181840152602081019050612676565b838111156126a0576000848401525b50505050565b6000601f19601f8301169050919050565b6126c08161265a565b81146126cb57600080fd5b5056fea365627a7a72315820685fa9162f3b3eb915d14d1c520183a2debed5c90f42a5dde1e0578a1ac9f48b6c6578706572696d656e74616cf564736f6c6343000510004068747470733a2f2f697066732e696f2f697066732f516d623174565142586e516565615164536f4d486a545242576e477577476e7357714a6739374c64766b6b467a5368747470733a2f2f697066732e696f2f697066732f516d52735a59626f4568535943475a4342694552764b436645454245425778596d3646554e4867326f72794b5a6b68747470733a2f2f697066732e696f2f697066732f516d527843696a74556f4d4744503776646666317237344459506868476864656d746b6874355233397047787a4368747470733a2f2f697066732e696f2f697066732f516d5642333861624454566a3546553147546257366b3251684442384648785971684248774654726978373842775365642075742070657273706963696174697320756e6465206f6d6e69732069737465206e61747573206572726f722073697420766f6c7570746174656d206163637573616e7469756d20646f6c6f72656d717565206c617564616e7469756d2e68747470733a2f2f697066732e696f2f697066732f516d534757684d64554b39595864665a425036674b516f7a5878714265346d63645375687573506256795a54437868747470733a2f2f697066732e696f2f697066732f516d575772706251675542364c6464433455645a466743364a504a63763532536f743766414a6a7673716358674568747470733a2f2f697066732e696f2f697066732f516d586431567766454a57656131544c363271396274696b4c797063774366375654423436484c59783745737551",
  "source": "pragma solidity >=0.4.22 <0.9.0;\npragma experimental ABIEncoderV2;\ncontract Products{\n    uint public productsCount = 0;\n\n    struct Product{\n        uint id;\n        string name;\n        uint price_numerator;\n        uint price_denominator;\n        uint discount_percentage;\n        string assetUrls;\n        uint classification;\n        uint quantifier;\n        string decs;\n        uint sellerId;\n        uint categoryId;\n\n    }\n\n    mapping (uint => Product) public products;\n\n    event ProductCreated(string name, uint ProductNumber);\n\n    constructor() public{\n\n        products[0] = Product(0, \"Domai med\", 50, 3, 0, \"https://ipfs.io/ipfs/QmVB38abDTVj5FU1GTbW6k2QhDB8FHxYqhBHwFTrix78Bw\", 1, 750,\n            \"Sed ut perspiciatis unde omnis iste natus error sit voluptatem accusantium doloremque laudantium.\", 1,9);\n        products[1] = Product(1, \"Pasirani paradajz\", 43, 3, 20, \"https://ipfs.io/ipfs/QmSGWhMdUK9YXdfZBP6gKQozXxqBe4mcdSuhusPbVyZTCx\", 1, 500,\n            \"Sed ut perspiciatis unde omnis iste natus error sit voluptatem accusantium doloremque laudantium.\", 1,3);\n        products[2] = Product(2, \"Maslinovo ulje\", 77, 3, 0, \"https://ipfs.io/ipfs/QmRsZYboEhSYCGZCBiERvKCfEEBEBWxYm6FUNHg2oryKZk\", 1, 750,\n            \"Sed ut perspiciatis unde omnis iste natus error sit voluptatem accusantium doloremque laudantium.\", 1,9);\n        products[3] = Product(3, \"Prut\", 154, 3, 0, \"https://ipfs.io/ipfs/QmXd1VwfEJWea1TL62q9btikLypcwCf7VTB46HLYx7EsuQ\", 1, 234,\n            \"Sed ut perspiciatis unde omnis iste natus error sit voluptatem accusantium doloremque laudantium.\", 1,1);\n        products[4] = Product(4, \"Rakija\", 98, 3, 0, \"https://ipfs.io/ipfs/Qmb1tVQBXnQeeaQdSoMHjTRBWnGuwGnsWqJg97LdvkkFzS\", 2, 1000,\n            \"Sed ut perspiciatis unde omnis iste natus error sit voluptatem accusantium doloremque laudantium.\", 1,5);\n        products[5] = Product(5, \"Kobasica\", 74, 3, 0, \"https://ipfs.io/ipfs/QmRxCijtUoMGDP7vdff1r74DYPhhGhdemtkht5R39pGxzC\", 1, 1000,\n            \"Sed ut perspiciatis unde omnis iste natus error sit voluptatem accusantium doloremque laudantium.\", 1,1);\n        products[6] = Product(6, \"Kamamber\", 54, 3, 0, \"https://ipfs.io/ipfs/QmWWrpbQgUB6LddC4UdZFgC6JPJcv52Sot7fAJjvsqcXgE\", 1, 500,\n            \"Sed ut perspiciatis unde omnis iste natus error sit voluptatem accusantium doloremque laudantium.\", 1,2);\n        productsCount = 7;\n    }\n\n    function createProduct(string memory _productName, uint _price_nominator, uint _price_denominator, uint _discount_percentage, string memory _assetUrls, uint _classif, uint _quantifier, string memory _desc, uint _sellerId, uint _categoryId) public{\n\n        if (_classif > 2)\n            _classif = 0;\n        products[productsCount++] = Product(productsCount, _productName, _price_nominator, _price_denominator, _discount_percentage, _assetUrls, _classif, _quantifier, _desc, _sellerId, _categoryId);\n        emit ProductCreated(_productName, productsCount - 1);\n\n    }\n    function getProductsForCategory(uint category, uint totalProducts) public returns (Product[] memory){\n        uint count = 0;\n        Product[] memory y = new Product[](totalProducts);\n        for (uint i= 0; i < productsCount; i++) {\n            if (products[i].categoryId == category){\n                y[count++] = Product(products[i].id,\n                    products[i].name,\n                    products[i].price_numerator,\n                    products[i].price_denominator,\n                    products[i].discount_percentage,\n                    products[i].assetUrls,\n                    products[i].classification,\n                    products[i].quantifier,\n                    products[i].decs,\n                    products[i].sellerId,\n                    products[i].categoryId);\n            }\n        }\n        return y;\n    }\n    function getProductsForCategoryCount(uint category) public returns (uint count){\n        uint productsForCategoryCount = 0;\n        for (uint i= 0; i < productsCount; i++) {\n            if (products[i].categoryId == category){\n                productsForCategoryCount++;\n            }\n        }\n        return productsForCategoryCount;\n    }\n\n    function getProductById(uint id) public returns (Product memory){\n        Product memory product;\n        for (uint i= 0; i < productsCount; i++) {\n            if (products[i].id == id){\n                product = products[i];\n                break;\n            }\n        }\n        return product;\n    }\n\n\n    function getSellerProductsCount(uint sellerId) public returns (uint count){\n        uint sellerProductsCount = 0;\n        for (uint i= 0; i < productsCount; i++) {\n            if (products[i].sellerId == sellerId){\n                sellerProductsCount++;\n            }\n        }\n        return sellerProductsCount;\n    }\n    function getSellerProducts(uint sellerId, uint totalProducts) public returns (Product[] memory){\n        uint count = 0;\n        Product[] memory y = new Product[](totalProducts);\n        for (uint i= 0; i < productsCount; i++) {\n            if (products[i].sellerId == sellerId){\n                y[count++] = Product(products[i].id,\n                    products[i].name,\n                    products[i].price_numerator,\n                    products[i].price_denominator,\n                    products[i].discount_percentage,\n                    products[i].assetUrls,\n                    products[i].classification,\n                    products[i].quantifier,\n                    products[i].decs,\n                    products[i].sellerId,\n                    products[i].categoryId);\n            }\n        }\n        return y;\n    }\n    function contains (string memory what, string memory where) public returns (bool) {\n        bytes memory whatBytes = bytes (what);\n        bytes memory whereBytes = bytes (where);\n        if (keccak256(whatBytes) == keccak256(whereBytes))\n            return true;\n        bool found = false;\n        for (uint i = 0; i < whereBytes.length - whatBytes.length; i++) {\n            bool flag = true;\n            for (uint j = 0; j < whatBytes.length; j++)\n                if (whereBytes [i + j] != whatBytes [j]) {\n                    flag = false;\n                    break;\n                }\n            if (flag) {\n                found = true;\n                break;\n            }\n        }\n        return found;\n\n    }\n    function getQueryProductsCount(string memory query) public returns (uint count){\n        uint productsQueryCount = 0;\n        for (uint i= 0; i < productsCount; i++) {\n            if (contains(_toLower(query), _toLower(products[i].name))){\n                productsQueryCount++;\n            }\n        }\n        return productsQueryCount;\n    }\n    function getQueryProducts(string memory query, uint totalProducts) public returns (Product[] memory){\n        uint count = 0;\n        Product[] memory y = new Product[](totalProducts);\n        for (uint i= 0; i < productsCount; i++) {\n            if (contains(_toLower(query), _toLower(products[i].name))){\n                y[count++] = Product(products[i].id,\n                    products[i].name,\n                    products[i].price_numerator,\n                    products[i].price_denominator,\n                    products[i].discount_percentage,\n                    products[i].assetUrls,\n                    products[i].classification,\n                    products[i].quantifier,\n                    products[i].decs,\n                    products[i].sellerId,\n                    products[i].categoryId);\n            }\n        }\n        return y;\n    }\n    function _toLower(string memory str) internal returns (string memory) {\n        bytes memory bStr = bytes(str);\n        bytes memory bLower = new bytes(bStr.length);\n        for (uint i = 0; i < bStr.length; i++) {\n            // Uppercase character...\n            if ((uint8(bStr[i]) >= 65) && (uint8(bStr[i]) <= 90)) {\n                bLower[i] = bytes1(uint8(bStr[i]) + 32);\n            } else {\n                bLower[i] = bStr[i];\n            }\n        }\n        return string(bLower);\n    }\n    function setSale(uint _product_id, uint _discount_percentage) public{\n        for (uint i= 0; i < productsCount; i++) {\n            if (products[i].id == _product_id){\n                products[i].discount_percentage = _discount_percentage;\n                break;\n            }\n        }\n    }\n    function removeProduct(uint productId) public {\n        uint index = productsCount;\n        for (uint i= 0; i < productsCount; i++) {\n            if (products[i].id == productId){\n                index = i;\n                break;\n            }\n        }\n        if (index < productsCount){\n            for (uint i = index; i<productsCount - 1; i++){\n                products[i] = products[i+1];\n            }\n            delete products[productsCount-1];\n            productsCount--;\n        }\n    }\n}",
  "sourcePath": "/home/jovan/Catalyst/src/frontend_mobile/contracts/Products.sol",
  "compiler": {
    "name": "solc",
    "version": "0.5.16+commit.9c3226ce.Emscripten.clang"
  },
  "schemaVersion": "3.3.4",
  "updatedAt": "2021-05-19T03:55:45.292Z",
  "networkType": "ethereum",
  "devdoc": {
    "methods": {}
  },
  "userdoc": {
    "methods": {}
  }
}