{
  "contractName": "Products",
  "abi": [
    {
      "inputs": [],
      "payable": false,
      "stateMutability": "nonpayable",
      "type": "constructor"
    },
    {
      "anonymous": false,
      "inputs": [
        {
          "indexed": false,
          "internalType": "string",
          "name": "name",
          "type": "string"
        },
        {
          "indexed": false,
          "internalType": "uint256",
          "name": "ProductNumber",
          "type": "uint256"
        }
      ],
      "name": "ProductCreated",
      "type": "event"
    },
    {
      "constant": true,
      "inputs": [
        {
          "internalType": "uint256",
          "name": "",
          "type": "uint256"
        }
      ],
      "name": "products",
      "outputs": [
        {
          "internalType": "uint256",
          "name": "id",
          "type": "uint256"
        },
        {
          "internalType": "string",
          "name": "name",
          "type": "string"
        },
        {
          "internalType": "uint256",
          "name": "price_numerator",
          "type": "uint256"
        },
        {
          "internalType": "uint256",
          "name": "price_denominator",
          "type": "uint256"
        },
        {
          "internalType": "string",
          "name": "assetUrls",
          "type": "string"
        },
        {
          "internalType": "uint256",
          "name": "classification",
          "type": "uint256"
        },
        {
          "internalType": "uint256",
          "name": "quantifier",
          "type": "uint256"
        },
        {
          "internalType": "string",
          "name": "decs",
          "type": "string"
        },
        {
          "internalType": "uint256",
          "name": "sellerId",
          "type": "uint256"
        },
        {
          "internalType": "uint256",
          "name": "categoryId",
          "type": "uint256"
        }
      ],
      "payable": false,
      "stateMutability": "view",
      "type": "function"
    },
    {
      "constant": true,
      "inputs": [],
      "name": "productsCount",
      "outputs": [
        {
          "internalType": "uint256",
          "name": "",
          "type": "uint256"
        }
      ],
      "payable": false,
      "stateMutability": "view",
      "type": "function"
    },
    {
      "constant": false,
      "inputs": [
        {
          "internalType": "string",
          "name": "_productName",
          "type": "string"
        },
        {
          "internalType": "uint256",
          "name": "_price_nominator",
          "type": "uint256"
        },
        {
          "internalType": "uint256",
          "name": "_price_denominator",
          "type": "uint256"
        },
        {
          "internalType": "string",
          "name": "_assetUrls",
          "type": "string"
        },
        {
          "internalType": "uint256",
          "name": "_classif",
          "type": "uint256"
        },
        {
          "internalType": "uint256",
          "name": "_quantifier",
          "type": "uint256"
        },
        {
          "internalType": "string",
          "name": "_desc",
          "type": "string"
        },
        {
          "internalType": "uint256",
          "name": "_sellerId",
          "type": "uint256"
        },
        {
          "internalType": "uint256",
          "name": "_categoryId",
          "type": "uint256"
        }
      ],
      "name": "createProduct",
      "outputs": [],
      "payable": false,
      "stateMutability": "nonpayable",
      "type": "function"
    },
    {
      "constant": false,
      "inputs": [
        {
          "internalType": "uint256",
          "name": "category",
          "type": "uint256"
        },
        {
          "internalType": "uint256",
          "name": "totalProducts",
          "type": "uint256"
        }
      ],
      "name": "getProductsForCategory",
      "outputs": [
        {
          "components": [
            {
              "internalType": "uint256",
              "name": "id",
              "type": "uint256"
            },
            {
              "internalType": "string",
              "name": "name",
              "type": "string"
            },
            {
              "internalType": "uint256",
              "name": "price_numerator",
              "type": "uint256"
            },
            {
              "internalType": "uint256",
              "name": "price_denominator",
              "type": "uint256"
            },
            {
              "internalType": "string",
              "name": "assetUrls",
              "type": "string"
            },
            {
              "internalType": "uint256",
              "name": "classification",
              "type": "uint256"
            },
            {
              "internalType": "uint256",
              "name": "quantifier",
              "type": "uint256"
            },
            {
              "internalType": "string",
              "name": "decs",
              "type": "string"
            },
            {
              "internalType": "uint256",
              "name": "sellerId",
              "type": "uint256"
            },
            {
              "internalType": "uint256",
              "name": "categoryId",
              "type": "uint256"
            }
          ],
          "internalType": "struct Products.Product[]",
          "name": "",
          "type": "tuple[]"
        }
      ],
      "payable": false,
      "stateMutability": "nonpayable",
      "type": "function"
    },
    {
      "constant": false,
      "inputs": [
        {
          "internalType": "uint256",
          "name": "category",
          "type": "uint256"
        }
      ],
      "name": "getProductsForCategoryCount",
      "outputs": [
        {
          "internalType": "uint256",
          "name": "count",
          "type": "uint256"
        }
      ],
      "payable": false,
      "stateMutability": "nonpayable",
      "type": "function"
    },
    {
      "constant": false,
      "inputs": [
        {
          "internalType": "uint256",
          "name": "id",
          "type": "uint256"
        }
      ],
      "name": "getProductById",
      "outputs": [
        {
          "components": [
            {
              "internalType": "uint256",
              "name": "id",
              "type": "uint256"
            },
            {
              "internalType": "string",
              "name": "name",
              "type": "string"
            },
            {
              "internalType": "uint256",
              "name": "price_numerator",
              "type": "uint256"
            },
            {
              "internalType": "uint256",
              "name": "price_denominator",
              "type": "uint256"
            },
            {
              "internalType": "string",
              "name": "assetUrls",
              "type": "string"
            },
            {
              "internalType": "uint256",
              "name": "classification",
              "type": "uint256"
            },
            {
              "internalType": "uint256",
              "name": "quantifier",
              "type": "uint256"
            },
            {
              "internalType": "string",
              "name": "decs",
              "type": "string"
            },
            {
              "internalType": "uint256",
              "name": "sellerId",
              "type": "uint256"
            },
            {
              "internalType": "uint256",
              "name": "categoryId",
              "type": "uint256"
            }
          ],
          "internalType": "struct Products.Product",
          "name": "",
          "type": "tuple"
        }
      ],
      "payable": false,
      "stateMutability": "nonpayable",
      "type": "function"
    },
    {
      "constant": false,
      "inputs": [
        {
          "internalType": "uint256",
          "name": "sellerId",
          "type": "uint256"
        }
      ],
      "name": "getSellerProductsCount",
      "outputs": [
        {
          "internalType": "uint256",
          "name": "count",
          "type": "uint256"
        }
      ],
      "payable": false,
      "stateMutability": "nonpayable",
      "type": "function"
    },
    {
      "constant": false,
      "inputs": [
        {
          "internalType": "uint256",
          "name": "sellerId",
          "type": "uint256"
        },
        {
          "internalType": "uint256",
          "name": "totalProducts",
          "type": "uint256"
        }
      ],
      "name": "getSellerProducts",
      "outputs": [
        {
          "components": [
            {
              "internalType": "uint256",
              "name": "id",
              "type": "uint256"
            },
            {
              "internalType": "string",
              "name": "name",
              "type": "string"
            },
            {
              "internalType": "uint256",
              "name": "price_numerator",
              "type": "uint256"
            },
            {
              "internalType": "uint256",
              "name": "price_denominator",
              "type": "uint256"
            },
            {
              "internalType": "string",
              "name": "assetUrls",
              "type": "string"
            },
            {
              "internalType": "uint256",
              "name": "classification",
              "type": "uint256"
            },
            {
              "internalType": "uint256",
              "name": "quantifier",
              "type": "uint256"
            },
            {
              "internalType": "string",
              "name": "decs",
              "type": "string"
            },
            {
              "internalType": "uint256",
              "name": "sellerId",
              "type": "uint256"
            },
            {
              "internalType": "uint256",
              "name": "categoryId",
              "type": "uint256"
            }
          ],
          "internalType": "struct Products.Product[]",
          "name": "",
          "type": "tuple[]"
        }
      ],
      "payable": false,
      "stateMutability": "nonpayable",
      "type": "function"
    },
    {
      "constant": false,
      "inputs": [
        {
          "internalType": "string",
          "name": "what",
          "type": "string"
        },
        {
          "internalType": "string",
          "name": "where",
          "type": "string"
        }
      ],
      "name": "contains",
      "outputs": [
        {
          "internalType": "bool",
          "name": "",
          "type": "bool"
        }
      ],
      "payable": false,
      "stateMutability": "nonpayable",
      "type": "function"
    },
    {
      "constant": false,
      "inputs": [
        {
          "internalType": "string",
          "name": "query",
          "type": "string"
        }
      ],
      "name": "getQueryProductsCount",
      "outputs": [
        {
          "internalType": "uint256",
          "name": "count",
          "type": "uint256"
        }
      ],
      "payable": false,
      "stateMutability": "nonpayable",
      "type": "function"
    },
    {
      "constant": false,
      "inputs": [
        {
          "internalType": "string",
          "name": "query",
          "type": "string"
        },
        {
          "internalType": "uint256",
          "name": "totalProducts",
          "type": "uint256"
        }
      ],
      "name": "getQueryProducts",
      "outputs": [
        {
          "components": [
            {
              "internalType": "uint256",
              "name": "id",
              "type": "uint256"
            },
            {
              "internalType": "string",
              "name": "name",
              "type": "string"
            },
            {
              "internalType": "uint256",
              "name": "price_numerator",
              "type": "uint256"
            },
            {
              "internalType": "uint256",
              "name": "price_denominator",
              "type": "uint256"
            },
            {
              "internalType": "string",
              "name": "assetUrls",
              "type": "string"
            },
            {
              "internalType": "uint256",
              "name": "classification",
              "type": "uint256"
            },
            {
              "internalType": "uint256",
              "name": "quantifier",
              "type": "uint256"
            },
            {
              "internalType": "string",
              "name": "decs",
              "type": "string"
            },
            {
              "internalType": "uint256",
              "name": "sellerId",
              "type": "uint256"
            },
            {
              "internalType": "uint256",
              "name": "categoryId",
              "type": "uint256"
            }
          ],
          "internalType": "struct Products.Product[]",
          "name": "",
          "type": "tuple[]"
        }
      ],
      "payable": false,
      "stateMutability": "nonpayable",
      "type": "function"
    }
  ],
  "bytecode": "0x6080604052600080553480156200001557600080fd5b50604051806101400160405280600081526020016040518060400160405280600b81526020017f446f6d61c48769206d65640000000000000000000000000000000000000000008152508152602001603281526020016003815260200160405180608001604052806043815260200162002e67604391398152602001600181526020016102ee81526020016040518060a001604052806061815260200162002eaa606191398152602001600181526020016009815250600160008081526020019081526020016000206000820151816000015560208201518160010190805190602001906200010692919062000a39565b50604082015181600201556060820151816003015560808201518160040190805190602001906200013992919062000a39565b5060a0820151816005015560c0820151816006015560e08201518160070190805190602001906200016c92919062000a39565b5061010082015181600801556101208201518160090155905050604051806101400160405280600181526020016040518060400160405280601181526020017f5061736972616e69207061726164616a7a0000000000000000000000000000008152508152602001602b81526020016003815260200160405180608001604052806043815260200162002f0b604391398152602001600181526020016101f481526020016040518060a001604052806061815260200162002eaa60619139815260200160018152602001600381525060016000600181526020019081526020016000206000820151816000015560208201518160010190805190602001906200027792919062000a39565b5060408201518160020155606082015181600301556080820151816004019080519060200190620002aa92919062000a39565b5060a0820151816005015560c0820151816006015560e0820151816007019080519060200190620002dd92919062000a39565b5061010082015181600801556101208201518160090155905050604051806101400160405280600281526020016040518060400160405280600e81526020017f4d61736c696e6f766f20756c6a650000000000000000000000000000000000008152508152602001604d81526020016003815260200160405180608001604052806043815260200162002de1604391398152602001600181526020016102ee81526020016040518060a001604052806061815260200162002eaa6061913981526020016001815260200160098152506001600060028152602001908152602001600020600082015181600001556020820151816001019080519060200190620003e892919062000a39565b50604082015181600201556060820151816003015560808201518160040190805190602001906200041b92919062000a39565b5060a0820151816005015560c0820151816006015560e08201518160070190805190602001906200044e92919062000a39565b5061010082015181600801556101208201518160090155905050604051806101400160405280600381526020016040518060400160405280600681526020017f5072c5a1757400000000000000000000000000000000000000000000000000008152508152602001609a81526020016003815260200160405180608001604052806043815260200162002f916043913981526020016001815260200160ea81526020016040518060a001604052806061815260200162002eaa60619139815260200160018152602001600181525060016000600381526020019081526020016000206000820151816000015560208201518160010190805190602001906200055892919062000a39565b50604082015181600201556060820151816003015560808201518160040190805190602001906200058b92919062000a39565b5060a0820151816005015560c0820151816006015560e0820151816007019080519060200190620005be92919062000a39565b5061010082015181600801556101208201518160090155905050604051806101400160405280600481526020016040518060400160405280600681526020017f52616b696a6100000000000000000000000000000000000000000000000000008152508152602001606281526020016003815260200160405180608001604052806043815260200162002d9e604391398152602001600281526020016103e881526020016040518060a001604052806061815260200162002eaa6061913981526020016001815260200160058152506001600060048152602001908152602001600020600082015181600001556020820151816001019080519060200190620006c992919062000a39565b5060408201518160020155606082015181600301556080820151816004019080519060200190620006fc92919062000a39565b5060a0820151816005015560c0820151816006015560e08201518160070190805190602001906200072f92919062000a39565b5061010082015181600801556101208201518160090155905050604051806101400160405280600581526020016040518060400160405280600881526020017f4b6f6261736963610000000000000000000000000000000000000000000000008152508152602001604a81526020016003815260200160405180608001604052806043815260200162002e24604391398152602001600181526020016103e881526020016040518060a001604052806061815260200162002eaa60619139815260200160018152602001600181525060016000600581526020019081526020016000206000820151816000015560208201518160010190805190602001906200083a92919062000a39565b50604082015181600201556060820151816003015560808201518160040190805190602001906200086d92919062000a39565b5060a0820151816005015560c0820151816006015560e0820151816007019080519060200190620008a092919062000a39565b5061010082015181600801556101208201518160090155905050604051806101400160405280600681526020016040518060400160405280600881526020017f4b616d616d6265720000000000000000000000000000000000000000000000008152508152602001603681526020016003815260200160405180608001604052806043815260200162002f4e604391398152602001600181526020016101f481526020016040518060a001604052806061815260200162002eaa6061913981526020016001815260200160028152506001600060068152602001908152602001600020600082015181600001556020820151816001019080519060200190620009ab92919062000a39565b5060408201518160020155606082015181600301556080820151816004019080519060200190620009de92919062000a39565b5060a0820151816005015560c0820151816006015560e082015181600701908051906020019062000a1192919062000a39565b5061010082015181600801556101208201518160090155905050600760008190555062000ae8565b828054600181600116156101000203166002900490600052602060002090601f016020900481019282601f1062000a7c57805160ff191683800117855562000aad565b8280016001018555821562000aad579182015b8281111562000aac57825182559160200191906001019062000a8f565b5b50905062000abc919062000ac0565b5090565b62000ae591905b8082111562000ae157600081600090555060010162000ac7565b5090565b90565b6122a68062000af86000396000f3fe608060405234801561001057600080fd5b50600436106100a85760003560e01c80637acc0b20116100715780637acc0b201461019d578063a0ea3511146101d6578063ac8a54b114610206578063c1b4410f14610236578063e0df7bb614610252578063faa5953f14610270576100a8565b806230d99f146100ad5780632dc810ab146100dd5780633f70c2b41461010d5780633fb18aec1461013d578063623e610a1461016d575b600080fd5b6100c760048036036100c29190810190611ac6565b6102a0565b6040516100d49190611fbe565b60405180910390f35b6100f760048036036100f29190810190611c51565b6106e4565b6040516101049190611fbe565b60405180910390f35b61012760048036036101229190810190611c28565b610a79565b604051610134919061202b565b60405180910390f35b61015760048036036101529190810190611a5a565b610d20565b6040516101649190611fe0565b60405180910390f35b61018760048036036101829190810190611a19565b610e35565b604051610194919061204d565b60405180910390f35b6101b760048036036101b29190810190611c28565b610f39565b6040516101cd9a99989796959493929190612068565b60405180910390f35b6101f060048036036101eb9190810190611c51565b611155565b6040516101fd9190611fbe565b60405180910390f35b610220600480360361021b9190810190611c28565b6114ea565b60405161022d919061204d565b60405180910390f35b610250600480360361024b9190810190611b1a565b61153f565b005b61025a6116a2565b604051610267919061204d565b60405180910390f35b61028a60048036036102859190810190611c28565b6116a8565b604051610297919061204d565b60405180910390f35b606060008090506060836040519080825280602002602001820160405280156102e357816020015b6102d0611865565b8152602001906001900390816102c85790505b50905060008090505b6000548110156106d8576103be610302876116fd565b6103b9600160008581526020019081526020016000206001018054600181600116156101000203166002900480601f0160208091040260200160405190810160405280929190818152602001828054600181600116156101000203166002900480156103af5780601f10610384576101008083540402835291602001916103af565b820191906000526020600020905b81548152906001019060200180831161039257829003601f168201915b50505050506116fd565b610d20565b156106cb5760405180610140016040528060016000848152602001908152602001600020600001548152602001600160008481526020019081526020016000206001018054600181600116156101000203166002900480601f0160208091040260200160405190810160405280929190818152602001828054600181600116156101000203166002900480156104955780601f1061046a57610100808354040283529160200191610495565b820191906000526020600020905b81548152906001019060200180831161047857829003601f168201915b505050505081526020016001600084815260200190815260200160002060020154815260200160016000848152602001908152602001600020600301548152602001600160008481526020019081526020016000206004018054600181600116156101000203166002900480601f0160208091040260200160405190810160405280929190818152602001828054600181600116156101000203166002900480156105815780601f1061055657610100808354040283529160200191610581565b820191906000526020600020905b81548152906001019060200180831161056457829003601f168201915b505050505081526020016001600084815260200190815260200160002060050154815260200160016000848152602001908152602001600020600601548152602001600160008481526020019081526020016000206007018054600181600116156101000203166002900480601f01602080910402602001604051908101604052809291908181526020018280546001816001161561010002031660029004801561066d5780601f106106425761010080835404028352916020019161066d565b820191906000526020600020905b81548152906001019060200180831161065057829003601f168201915b505050505081526020016001600084815260200190815260200160002060080154815260200160016000848152602001908152602001600020600901548152508284806001019550815181106106bf57fe5b60200260200101819052505b80806001019150506102ec565b50809250505092915050565b6060600080905060608360405190808252806020026020018201604052801561072757816020015b610714611865565b81526020019060019003908161070c5790505b50905060008090505b600054811015610a6d578560016000838152602001908152602001600020600901541415610a605760405180610140016040528060016000848152602001908152602001600020600001548152602001600160008481526020019081526020016000206001018054600181600116156101000203166002900480601f01602080910402602001604051908101604052809291908181526020018280546001816001161561010002031660029004801561082a5780601f106107ff5761010080835404028352916020019161082a565b820191906000526020600020905b81548152906001019060200180831161080d57829003601f168201915b505050505081526020016001600084815260200190815260200160002060020154815260200160016000848152602001908152602001600020600301548152602001600160008481526020019081526020016000206004018054600181600116156101000203166002900480601f0160208091040260200160405190810160405280929190818152602001828054600181600116156101000203166002900480156109165780601f106108eb57610100808354040283529160200191610916565b820191906000526020600020905b8154815290600101906020018083116108f957829003601f168201915b505050505081526020016001600084815260200190815260200160002060050154815260200160016000848152602001908152602001600020600601548152602001600160008481526020019081526020016000206007018054600181600116156101000203166002900480601f016020809104026020016040519081016040528092919081815260200182805460018160011615610100020316600290048015610a025780601f106109d757610100808354040283529160200191610a02565b820191906000526020600020905b8154815290600101906020018083116109e557829003601f168201915b50505050508152602001600160008481526020019081526020016000206008015481526020016001600084815260200190815260200160002060090154815250828480600101955081518110610a5457fe5b60200260200101819052505b8080600101915050610730565b50809250505092915050565b610a816118b8565b610a896118b8565b60008090505b600054811015610d16578360016000838152602001908152602001600020600001541415610d0957600160008281526020019081526020016000206040518061014001604052908160008201548152602001600182018054600181600116156101000203166002900480601f016020809104026020016040519081016040528092919081815260200182805460018160011615610100020316600290048015610b795780601f10610b4e57610100808354040283529160200191610b79565b820191906000526020600020905b815481529060010190602001808311610b5c57829003601f168201915b505050505081526020016002820154815260200160038201548152602001600482018054600181600116156101000203166002900480601f016020809104026020016040519081016040528092919081815260200182805460018160011615610100020316600290048015610c2f5780601f10610c0457610100808354040283529160200191610c2f565b820191906000526020600020905b815481529060010190602001808311610c1257829003601f168201915b505050505081526020016005820154815260200160068201548152602001600782018054600181600116156101000203166002900480601f016020809104026020016040519081016040528092919081815260200182805460018160011615610100020316600290048015610ce55780601f10610cba57610100808354040283529160200191610ce5565b820191906000526020600020905b815481529060010190602001808311610cc857829003601f168201915b50505050508152602001600882015481526020016009820154815250509150610d16565b8080600101915050610a8f565b5080915050919050565b600060608390506060839050808051906020012082805190602001201415610d4d57600192505050610e2f565b600080905060008090505b8351835103811015610e275760006001905060008090505b8551811015610e0857858181518110610d8557fe5b602001015160f81c60f81b7effffffffffffffffffffffffffffffffffffffffffffffffffffffffffffff19168582850181518110610dc057fe5b602001015160f81c60f81b7effffffffffffffffffffffffffffffffffffffffffffffffffffffffffffff191614610dfb5760009150610e08565b8080600101915050610d70565b508015610e19576001925050610e27565b508080600101915050610d58565b508093505050505b92915050565b6000806000905060008090505b600054811015610f2f57610f14610e58856116fd565b610f0f600160008581526020019081526020016000206001018054600181600116156101000203166002900480601f016020809104026020016040519081016040528092919081815260200182805460018160011615610100020316600290048015610f055780601f10610eda57610100808354040283529160200191610f05565b820191906000526020600020905b815481529060010190602001808311610ee857829003601f168201915b50505050506116fd565b610d20565b15610f225781806001019250505b8080600101915050610e42565b5080915050919050565b6001602052806000526040600020600091509050806000015490806001018054600181600116156101000203166002900480601f016020809104026020016040519081016040528092919081815260200182805460018160011615610100020316600290048015610feb5780601f10610fc057610100808354040283529160200191610feb565b820191906000526020600020905b815481529060010190602001808311610fce57829003601f168201915b505050505090806002015490806003015490806004018054600181600116156101000203166002900480601f0160208091040260200160405190810160405280929190818152602001828054600181600116156101000203166002900480156110955780601f1061106a57610100808354040283529160200191611095565b820191906000526020600020905b81548152906001019060200180831161107857829003601f168201915b505050505090806005015490806006015490806007018054600181600116156101000203166002900480601f01602080910402602001604051908101604052809291908181526020018280546001816001161561010002031660029004801561113f5780601f106111145761010080835404028352916020019161113f565b820191906000526020600020905b81548152906001019060200180831161112257829003601f168201915b505050505090806008015490806009015490508a565b6060600080905060608360405190808252806020026020018201604052801561119857816020015b611185611865565b81526020019060019003908161117d5790505b50905060008090505b6000548110156114de5785600160008381526020019081526020016000206008015414156114d15760405180610140016040528060016000848152602001908152602001600020600001548152602001600160008481526020019081526020016000206001018054600181600116156101000203166002900480601f01602080910402602001604051908101604052809291908181526020018280546001816001161561010002031660029004801561129b5780601f106112705761010080835404028352916020019161129b565b820191906000526020600020905b81548152906001019060200180831161127e57829003601f168201915b505050505081526020016001600084815260200190815260200160002060020154815260200160016000848152602001908152602001600020600301548152602001600160008481526020019081526020016000206004018054600181600116156101000203166002900480601f0160208091040260200160405190810160405280929190818152602001828054600181600116156101000203166002900480156113875780601f1061135c57610100808354040283529160200191611387565b820191906000526020600020905b81548152906001019060200180831161136a57829003601f168201915b505050505081526020016001600084815260200190815260200160002060050154815260200160016000848152602001908152602001600020600601548152602001600160008481526020019081526020016000206007018054600181600116156101000203166002900480601f0160208091040260200160405190810160405280929190818152602001828054600181600116156101000203166002900480156114735780601f1061144857610100808354040283529160200191611473565b820191906000526020600020905b81548152906001019060200180831161145657829003601f168201915b505050505081526020016001600084815260200190815260200160002060080154815260200160016000848152602001908152602001600020600901548152508284806001019550815181106114c557fe5b60200260200101819052505b80806001019150506111a1565b50809250505092915050565b6000806000905060008090505b6000548110156115355783600160008381526020019081526020016000206009015414156115285781806001019250505b80806001019150506114f7565b5080915050919050565b600285111561154d57600094505b60405180610140016040528060005481526020018a815260200189815260200188815260200187815260200186815260200185815260200184815260200183815260200182815250600160008060008154809291906001019190505581526020019081526020016000206000820151816000015560208201518160010190805190602001906115dd92919061190b565b506040820151816002015560608201518160030155608082015181600401908051906020019061160e92919061190b565b5060a0820151816005015560c0820151816006015560e082015181600701908051906020019061163f92919061190b565b50610100820151816008015561012082015181600901559050507fb040efd5b9ac3e016c34e7ba218414cec2f62f7405435784f124cf44a21dc1378960016000540360405161168f929190611ffb565b60405180910390a1505050505050505050565b60005481565b6000806000905060008090505b6000548110156116f35783600160008381526020019081526020016000206008015414156116e65781806001019250505b80806001019150506116b5565b5080915050919050565b606080829050606081516040519080825280601f01601f1916602001820160405280156117395781602001600182028038833980820191505090505b50905060008090505b825181101561185a57604183828151811061175957fe5b602001015160f81c60f81b60f81c60ff16101580156117955750605a83828151811061178157fe5b602001015160f81c60f81b60f81c60ff1611155b156117fa5760208382815181106117a857fe5b602001015160f81c60f81b60f81c0160f81b8282815181106117c657fe5b60200101907effffffffffffffffffffffffffffffffffffffffffffffffffffffffffffff1916908160001a90535061184d565b82818151811061180657fe5b602001015160f81c60f81b82828151811061181d57fe5b60200101907effffffffffffffffffffffffffffffffffffffffffffffffffffffffffffff1916908160001a9053505b8080600101915050611742565b508092505050919050565b604051806101400160405280600081526020016060815260200160008152602001600081526020016060815260200160008152602001600081526020016060815260200160008152602001600081525090565b604051806101400160405280600081526020016060815260200160008152602001600081526020016060815260200160008152602001600081526020016060815260200160008152602001600081525090565b828054600181600116156101000203166002900490600052602060002090601f016020900481019282601f1061194c57805160ff191683800117855561197a565b8280016001018555821561197a579182015b8281111561197957825182559160200191906001019061195e565b5b509050611987919061198b565b5090565b6119ad91905b808211156119a9576000816000905550600101611991565b5090565b90565b600082601f8301126119c157600080fd5b81356119d46119cf82612146565b612119565b915080825260208301602083018583830111156119f057600080fd5b6119fb8382846121f9565b50505092915050565b600081359050611a138161224c565b92915050565b600060208284031215611a2b57600080fd5b600082013567ffffffffffffffff811115611a4557600080fd5b611a51848285016119b0565b91505092915050565b60008060408385031215611a6d57600080fd5b600083013567ffffffffffffffff811115611a8757600080fd5b611a93858286016119b0565b925050602083013567ffffffffffffffff811115611ab057600080fd5b611abc858286016119b0565b9150509250929050565b60008060408385031215611ad957600080fd5b600083013567ffffffffffffffff811115611af357600080fd5b611aff858286016119b0565b9250506020611b1085828601611a04565b9150509250929050565b60008060008060008060008060006101208a8c031215611b3957600080fd5b60008a013567ffffffffffffffff811115611b5357600080fd5b611b5f8c828d016119b0565b9950506020611b708c828d01611a04565b9850506040611b818c828d01611a04565b97505060608a013567ffffffffffffffff811115611b9e57600080fd5b611baa8c828d016119b0565b9650506080611bbb8c828d01611a04565b95505060a0611bcc8c828d01611a04565b94505060c08a013567ffffffffffffffff811115611be957600080fd5b611bf58c828d016119b0565b93505060e0611c068c828d01611a04565b925050610100611c188c828d01611a04565b9150509295985092959850929598565b600060208284031215611c3a57600080fd5b6000611c4884828501611a04565b91505092915050565b60008060408385031215611c6457600080fd5b6000611c7285828601611a04565b9250506020611c8385828601611a04565b9150509250929050565b6000611c998383611eb8565b905092915050565b6000611cac82612182565b611cb681856121b0565b935083602082028501611cc885612172565b8060005b85811015611d045784840389528151611ce58582611c8d565b9450611cf0836121a3565b925060208a01995050600181019050611ccc565b50829750879550505050505092915050565b611d1f816121e3565b82525050565b6000611d3082612198565b611d3a81856121d2565b9350611d4a818560208601612208565b611d538161223b565b840191505092915050565b6000611d698261218d565b611d7381856121c1565b9350611d83818560208601612208565b611d8c8161223b565b840191505092915050565b6000611da28261218d565b611dac81856121d2565b9350611dbc818560208601612208565b611dc58161223b565b840191505092915050565b600061014083016000830151611de96000860182611fa0565b5060208301518482036020860152611e018282611d5e565b9150506040830151611e166040860182611fa0565b506060830151611e296060860182611fa0565b5060808301518482036080860152611e418282611d5e565b91505060a0830151611e5660a0860182611fa0565b5060c0830151611e6960c0860182611fa0565b5060e083015184820360e0860152611e818282611d5e565b915050610100830151611e98610100860182611fa0565b50610120830151611ead610120860182611fa0565b508091505092915050565b600061014083016000830151611ed16000860182611fa0565b5060208301518482036020860152611ee98282611d5e565b9150506040830151611efe6040860182611fa0565b506060830151611f116060860182611fa0565b5060808301518482036080860152611f298282611d5e565b91505060a0830151611f3e60a0860182611fa0565b5060c0830151611f5160c0860182611fa0565b5060e083015184820360e0860152611f698282611d5e565b915050610100830151611f80610100860182611fa0565b50610120830151611f95610120860182611fa0565b508091505092915050565b611fa9816121ef565b82525050565b611fb8816121ef565b82525050565b60006020820190508181036000830152611fd88184611ca1565b905092915050565b6000602082019050611ff56000830184611d16565b92915050565b600060408201905081810360008301526120158185611d25565b90506120246020830184611faf565b9392505050565b600060208201905081810360008301526120458184611dd0565b905092915050565b60006020820190506120626000830184611faf565b92915050565b60006101408201905061207e600083018d611faf565b8181036020830152612090818c611d97565b905061209f604083018b611faf565b6120ac606083018a611faf565b81810360808301526120be8189611d97565b90506120cd60a0830188611faf565b6120da60c0830187611faf565b81810360e08301526120ec8186611d97565b90506120fc610100830185611faf565b61210a610120830184611faf565b9b9a5050505050505050505050565b6000604051905081810181811067ffffffffffffffff8211171561213c57600080fd5b8060405250919050565b600067ffffffffffffffff82111561215d57600080fd5b601f19601f8301169050602081019050919050565b6000819050602082019050919050565b600081519050919050565b600081519050919050565b600081519050919050565b6000602082019050919050565b600082825260208201905092915050565b600082825260208201905092915050565b600082825260208201905092915050565b60008115159050919050565b6000819050919050565b82818337600083830152505050565b60005b8381101561222657808201518184015260208101905061220b565b83811115612235576000848401525b50505050565b6000601f19601f8301169050919050565b612255816121ef565b811461226057600080fd5b5056fea365627a7a72315820997c374f90678714d538f13d3be2338c6b4632102d70e1a205fd6f5614d0ccc06c6578706572696d656e74616cf564736f6c6343000510004068747470733a2f2f697066732e696f2f697066732f516d623174565142586e516565615164536f4d486a545242576e477577476e7357714a6739374c64766b6b467a5368747470733a2f2f697066732e696f2f697066732f516d52735a59626f4568535943475a4342694552764b436645454245425778596d3646554e4867326f72794b5a6b68747470733a2f2f697066732e696f2f697066732f516d527843696a74556f4d4744503776646666317237344459506868476864656d746b6874355233397047787a4368747470733a2f2f697066732e696f2f697066732f516d5642333861624454566a3546553147546257366b3251684442384648785971684248774654726978373842775365642075742070657273706963696174697320756e6465206f6d6e69732069737465206e61747573206572726f722073697420766f6c7570746174656d206163637573616e7469756d20646f6c6f72656d717565206c617564616e7469756d2e68747470733a2f2f697066732e696f2f697066732f516d534757684d64554b39595864665a425036674b516f7a5878714265346d63645375687573506256795a54437868747470733a2f2f697066732e696f2f697066732f516d575772706251675542364c6464433455645a466743364a504a63763532536f743766414a6a7673716358674568747470733a2f2f697066732e696f2f697066732f516d586431567766454a57656131544c363271396274696b4c797063774366375654423436484c59783745737551",
  "source": "pragma solidity >=0.4.22 <0.9.0;\r\npragma experimental ABIEncoderV2;\r\ncontract Products{\r\n    uint public productsCount = 0;\r\n\r\n    struct Product{\r\n        uint id;\r\n        string name;\r\n        uint price_numerator;\r\n        uint price_denominator;\r\n        string assetUrls;\r\n        uint classification;\r\n        uint quantifier;\r\n        string decs;\r\n        uint sellerId;\r\n        uint categoryId;\r\n\r\n    }\r\n\r\n    mapping (uint => Product) public products;\r\n\r\n    event ProductCreated(string name, uint ProductNumber);\r\n\r\n    constructor() public{\r\n\r\n        products[0] = Product(0, \"Domai med\", 50, 3, \"https://ipfs.io/ipfs/QmVB38abDTVj5FU1GTbW6k2QhDB8FHxYqhBHwFTrix78Bw\", 1, 750,\r\n            \"Sed ut perspiciatis unde omnis iste natus error sit voluptatem accusantium doloremque laudantium.\", 1,9);\r\n        products[1] = Product(1, \"Pasirani paradajz\", 43, 3, \"https://ipfs.io/ipfs/QmSGWhMdUK9YXdfZBP6gKQozXxqBe4mcdSuhusPbVyZTCx\", 1, 500,\r\n            \"Sed ut perspiciatis unde omnis iste natus error sit voluptatem accusantium doloremque laudantium.\", 1,3);\r\n        products[2] = Product(2, \"Maslinovo ulje\", 77, 3, \"https://ipfs.io/ipfs/QmRsZYboEhSYCGZCBiERvKCfEEBEBWxYm6FUNHg2oryKZk\", 1, 750,\r\n            \"Sed ut perspiciatis unde omnis iste natus error sit voluptatem accusantium doloremque laudantium.\", 1,9);\r\n        products[3] = Product(3, \"Prut\", 154, 3, \"https://ipfs.io/ipfs/QmXd1VwfEJWea1TL62q9btikLypcwCf7VTB46HLYx7EsuQ\", 1, 234,\r\n            \"Sed ut perspiciatis unde omnis iste natus error sit voluptatem accusantium doloremque laudantium.\", 1,1);\r\n        products[4] = Product(4, \"Rakija\", 98, 3, \"https://ipfs.io/ipfs/Qmb1tVQBXnQeeaQdSoMHjTRBWnGuwGnsWqJg97LdvkkFzS\", 2, 1000,\r\n            \"Sed ut perspiciatis unde omnis iste natus error sit voluptatem accusantium doloremque laudantium.\", 1,5);\r\n        products[5] = Product(5, \"Kobasica\", 74, 3, \"https://ipfs.io/ipfs/QmRxCijtUoMGDP7vdff1r74DYPhhGhdemtkht5R39pGxzC\", 1, 1000,\r\n            \"Sed ut perspiciatis unde omnis iste natus error sit voluptatem accusantium doloremque laudantium.\", 1,1);\r\n        products[6] = Product(6, \"Kamamber\", 54,3, \"https://ipfs.io/ipfs/QmWWrpbQgUB6LddC4UdZFgC6JPJcv52Sot7fAJjvsqcXgE\", 1, 500,\r\n            \"Sed ut perspiciatis unde omnis iste natus error sit voluptatem accusantium doloremque laudantium.\", 1,2);\r\n        productsCount = 7;\r\n    }\r\n\r\n    function createProduct(string memory _productName, uint _price_nominator, uint _price_denominator, string memory _assetUrls, uint _classif, uint _quantifier, string memory _desc, uint _sellerId, uint _categoryId) public{\r\n\r\n        if (_classif > 2)\r\n            _classif = 0;\r\n\r\n        products[productsCount++] = Product(productsCount, _productName, _price_nominator, _price_denominator, _assetUrls, _classif, _quantifier, _desc, _sellerId, _categoryId);\r\n        emit ProductCreated(_productName, productsCount - 1);\r\n\r\n    }\r\n    function getProductsForCategory(uint category, uint totalProducts) public returns (Product[] memory){\r\n        uint count = 0;\r\n        Product[] memory y = new Product[](totalProducts);\r\n        for (uint i= 0; i < productsCount; i++) {\r\n            if (products[i].categoryId == category){\r\n                y[count++] = Product(products[i].id,\r\n                products[i].name,\r\n                products[i].price_numerator,\r\n                products[i].price_denominator,\r\n                products[i].assetUrls,\r\n                products[i].classification,\r\n                products[i].quantifier,\r\n                products[i].decs,\r\n                products[i].sellerId,\r\n                    products[i].categoryId);\r\n            }\r\n        }\r\n        return y;\r\n    }\r\n    function getProductsForCategoryCount(uint category) public returns (uint count){\r\n        uint productsForCategoryCount = 0;\r\n        for (uint i= 0; i < productsCount; i++) {\r\n            if (products[i].categoryId == category){\r\n                productsForCategoryCount++;\r\n            }\r\n        }\r\n        return productsForCategoryCount;\r\n    }\r\n\r\n    function getProductById(uint id) public returns (Product memory){\r\n        Product memory product;\r\n        for (uint i= 0; i < productsCount; i++) {\r\n            if (products[i].id == id){\r\n                product = products[i];\r\n                break;\r\n            }\r\n        }\r\n        return product;\r\n    }\r\n\r\n\r\n    function getSellerProductsCount(uint sellerId) public returns (uint count){\r\n        uint sellerProductsCount = 0;\r\n        for (uint i= 0; i < productsCount; i++) {\r\n            if (products[i].sellerId == sellerId){\r\n                sellerProductsCount++;\r\n            }\r\n        }\r\n        return sellerProductsCount;\r\n    }\r\n    function getSellerProducts(uint sellerId, uint totalProducts) public returns (Product[] memory){\r\n        uint count = 0;\r\n        Product[] memory y = new Product[](totalProducts);\r\n        for (uint i= 0; i < productsCount; i++) {\r\n            if (products[i].sellerId == sellerId){\r\n                y[count++] = Product(products[i].id,\r\n                    products[i].name,\r\n                    products[i].price_numerator,\r\n                    products[i].price_denominator,\r\n                    products[i].assetUrls,\r\n                    products[i].classification,\r\n                    products[i].quantifier,\r\n                    products[i].decs,\r\n                    products[i].sellerId,\r\n                    products[i].categoryId);\r\n            }\r\n        }\r\n        return y;\r\n    }\r\n    function contains (string memory what, string memory where) public returns (bool) {\r\n        bytes memory whatBytes = bytes (what);\r\n        bytes memory whereBytes = bytes (where);\r\n        if (keccak256(whatBytes) == keccak256(whereBytes))\r\n            return true;\r\n        bool found = false;\r\n        for (uint i = 0; i < whereBytes.length - whatBytes.length; i++) {\r\n            bool flag = true;\r\n            for (uint j = 0; j < whatBytes.length; j++)\r\n                if (whereBytes [i + j] != whatBytes [j]) {\r\n                    flag = false;\r\n                    break;\r\n                }\r\n            if (flag) {\r\n                found = true;\r\n                break;\r\n            }\r\n        }\r\n        return found;\r\n\r\n    }\r\n    function getQueryProductsCount(string memory query) public returns (uint count){\r\n        uint productsQueryCount = 0;\r\n        for (uint i= 0; i < productsCount; i++) {\r\n            if (contains(_toLower(query), _toLower(products[i].name))){\r\n                productsQueryCount++;\r\n            }\r\n        }\r\n        return productsQueryCount;\r\n    }\r\n    function getQueryProducts(string memory query, uint totalProducts) public returns (Product[] memory){\r\n        uint count = 0;\r\n        Product[] memory y = new Product[](totalProducts);\r\n        for (uint i= 0; i < productsCount; i++) {\r\n            if (contains(_toLower(query), _toLower(products[i].name))){\r\n                y[count++] = Product(products[i].id,\r\n                    products[i].name,\r\n                    products[i].price_numerator,\r\n                    products[i].price_denominator,\r\n                    products[i].assetUrls,\r\n                    products[i].classification,\r\n                    products[i].quantifier,\r\n                    products[i].decs,\r\n                    products[i].sellerId,\r\n                    products[i].categoryId);\r\n            }\r\n        }\r\n        return y;\r\n    }\r\n    function _toLower(string memory str) internal returns (string memory) {\r\n        bytes memory bStr = bytes(str);\r\n        bytes memory bLower = new bytes(bStr.length);\r\n        for (uint i = 0; i < bStr.length; i++) {\r\n            // Uppercase character...\r\n            if ((uint8(bStr[i]) >= 65) && (uint8(bStr[i]) <= 90)) {\r\n                // So we add 32 to make it lowercase\r\n                bLower[i] = bytes1(uint8(bStr[i]) + 32);\r\n            } else {\r\n                bLower[i] = bStr[i];\r\n            }\r\n        }\r\n        return string(bLower);\r\n    }\r\n}",
  "sourcePath": "C:/Users/Korisnik/Desktop/dev/Catalyst/src/frontend_mobile/contracts/Products.sol",
  "compiler": {
    "name": "solc",
    "version": "0.5.16+commit.9c3226ce.Emscripten.clang"
  },
  "schemaVersion": "3.3.4",
  "updatedAt": "2021-05-11T23:27:39.462Z",
  "networkType": "ethereum",
  "devdoc": {
    "methods": {}
  },
  "userdoc": {
    "methods": {}
  }
}