{
  "contractName": "Products",
  "abi": [
    {
      "inputs": [],
      "payable": false,
      "stateMutability": "nonpayable",
      "type": "constructor"
    },
    {
      "anonymous": false,
      "inputs": [
        {
          "indexed": false,
          "internalType": "string",
          "name": "name",
          "type": "string"
        },
        {
          "indexed": false,
          "internalType": "uint256",
          "name": "ProductNumber",
          "type": "uint256"
        }
      ],
      "name": "ProductCreated",
      "type": "event"
    },
    {
      "constant": true,
      "inputs": [
        {
          "internalType": "uint256",
          "name": "",
          "type": "uint256"
        }
      ],
      "name": "products",
      "outputs": [
        {
          "internalType": "uint256",
          "name": "id",
          "type": "uint256"
        },
        {
          "internalType": "string",
          "name": "name",
          "type": "string"
        },
        {
          "internalType": "uint256",
          "name": "price",
          "type": "uint256"
        },
        {
          "internalType": "string",
          "name": "assetUrls",
          "type": "string"
        },
        {
          "internalType": "uint256",
          "name": "classification",
          "type": "uint256"
        },
        {
          "internalType": "uint256",
          "name": "quantifier",
          "type": "uint256"
        },
        {
          "internalType": "string",
          "name": "decs",
          "type": "string"
        },
        {
          "internalType": "uint256",
          "name": "sellerId",
          "type": "uint256"
        }
      ],
      "payable": false,
      "stateMutability": "view",
      "type": "function"
    },
    {
      "constant": true,
      "inputs": [],
      "name": "productsCount",
      "outputs": [
        {
          "internalType": "uint256",
          "name": "",
          "type": "uint256"
        }
      ],
      "payable": false,
      "stateMutability": "view",
      "type": "function"
    },
    {
      "constant": false,
      "inputs": [
        {
          "internalType": "string",
          "name": "_productName",
          "type": "string"
        },
        {
          "internalType": "uint256",
          "name": "_price",
          "type": "uint256"
        },
        {
          "internalType": "string",
          "name": "_assetUrls",
          "type": "string"
        },
        {
          "internalType": "uint256",
          "name": "_classif",
          "type": "uint256"
        },
        {
          "internalType": "uint256",
          "name": "_quantifier",
          "type": "uint256"
        },
        {
          "internalType": "string",
          "name": "_desc",
          "type": "string"
        },
        {
          "internalType": "uint256",
          "name": "_sellerId",
          "type": "uint256"
        }
      ],
      "name": "createProduct",
      "outputs": [],
      "payable": false,
      "stateMutability": "nonpayable",
      "type": "function"
    }
  ],
  "bytecode": "0x60806040523480156200001157600080fd5b50604051806101000160405280600081526020016040518060400160405280600b81526020017f446f6d61c48769206d65640000000000000000000000000000000000000000008152508152602001600d81526020016040518060600160405280604081526020016200132f604091398152602001600181526020016102ee81526020016040518060a0016040528060618152602001620013b5606191398152602001600181525060016000808152602001908152602001600020600082015181600001556020820151816001019080519060200190620000f492919062000939565b506040820151816002015560608201518160030190805190602001906200011d92919062000939565b506080820151816004015560a0820151816005015560c08201518160060190805190602001906200015092919062000939565b5060e08201518160070155905050604051806101000160405280600181526020016040518060400160405280601181526020017f5061736972616e69207061726164616a7a0000000000000000000000000000008152508152602001600281526020016040518060600160405280603081526020016200147a603091398152602001600181526020016101f481526020016040518060a0016040528060618152602001620013b5606191398152602001600181525060016000600181526020019081526020016000206000820151816000015560208201518160010190805190602001906200024192919062000939565b506040820151816002015560608201518160030190805190602001906200026a92919062000939565b506080820151816004015560a0820151816005015560c08201518160060190805190602001906200029d92919062000939565b5060e08201518160070155905050604051806101000160405280600281526020016040518060400160405280600e81526020017f4d61736c696e6f766f20756c6a650000000000000000000000000000000000008152508152602001600f81526020016040518060800160405280604681526020016200136f604691398152602001600181526020016102ee81526020016040518060a0016040528060618152602001620013b5606191398152602001600181525060016000600281526020019081526020016000206000820151816000015560208201518160010190805190602001906200038e92919062000939565b50604082015181600201556060820151816003019080519060200190620003b792919062000939565b506080820151816004015560a0820151816005015560c0820151816006019080519060200190620003ea92919062000939565b5060e08201518160070155905050604051806101000160405280600381526020016040518060400160405280600681526020017f5072c5a1757400000000000000000000000000000000000000000000000000008152508152602001600f81526020016040518060600160405280602f8152602001620012b7602f913981526020016001815260200160ea81526020016040518060a0016040528060618152602001620013b560619139815260200160018152506001600060038152602001908152602001600020600082015181600001556020820151816001019080519060200190620004da92919062000939565b506040820151816002015560608201518160030190805190602001906200050392919062000939565b506080820151816004015560a0820151816005015560c08201518160060190805190602001906200053692919062000939565b5060e08201518160070155905050604051806101000160405280600481526020016040518060400160405280600681526020017f52616b696a6100000000000000000000000000000000000000000000000000008152508152602001600c815260200160405180606001604052806035815260200162001416603591398152602001600281526020016103e881526020016040518060a0016040528060618152602001620013b5606191398152602001600181525060016000600481526020019081526020016000206000820151816000015560208201518160010190805190602001906200062792919062000939565b506040820151816002015560608201518160030190805190602001906200065092919062000939565b506080820151816004015560a0820151816005015560c08201518160060190805190602001906200068392919062000939565b5060e08201518160070155905050604051806101000160405280600581526020016040518060400160405280600881526020017f4b6f6261736963610000000000000000000000000000000000000000000000008152508152602001601081526020016040518060600160405280602f81526020016200144b602f91398152602001600181526020016103e881526020016040518060a0016040528060618152602001620013b5606191398152602001600181525060016000600581526020019081526020016000206000820151816000015560208201518160010190805190602001906200077492919062000939565b506040820151816002015560608201518160030190805190602001906200079d92919062000939565b506080820151816004015560a0820151816005015560c0820151816006019080519060200190620007d092919062000939565b5060e08201518160070155905050604051806101000160405280600681526020016040518060400160405280600881526020017f4b616d616d6265720000000000000000000000000000000000000000000000008152508152602001601d8152602001604051806080016040528060498152602001620012e6604991398152602001600181526020016101f481526020016040518060a0016040528060618152602001620013b560619139815260200160018152506001600060068152602001908152602001600020600082015181600001556020820151816001019080519060200190620008c192919062000939565b50604082015181600201556060820151816003019080519060200190620008ea92919062000939565b506080820151816004015560a0820151816005015560c08201518160060190805190602001906200091d92919062000939565b5060e082015181600701559050506007600081905550620009e8565b828054600181600116156101000203166002900490600052602060002090601f016020900481019282601f106200097c57805160ff1916838001178555620009ad565b82800160010185558215620009ad579182015b82811115620009ac5782518255916020019190600101906200098f565b5b509050620009bc9190620009c0565b5090565b620009e591905b80821115620009e1576000816000905550600101620009c7565b5090565b90565b6108bf80620009f86000396000f3fe608060405234801561001057600080fd5b50600436106100415760003560e01c80637701ce3f146100465780637acc0b2014610062578063e0df7bb614610099575b600080fd5b610060600480360361005b919081019061051a565b6100b7565b005b61007c60048036036100779190810190610600565b6101f6565b6040516100909897969594939291906106f5565b60405180910390f35b6100a1610406565b6040516100ae91906106da565b60405180910390f35b60028411156100c557600093505b6040518061010001604052806000548152602001888152602001878152602001868152602001858152602001848152602001838152602001828152506001600080600081548092919060010191905055815260200190815260200160002060008201518160000155602082015181600101908051906020019061014992919061040c565b5060408201518160020155606082015181600301908051906020019061017092919061040c565b506080820151816004015560a0820151816005015560c08201518160060190805190602001906101a192919061040c565b5060e082015181600701559050507fb040efd5b9ac3e016c34e7ba218414cec2f62f7405435784f124cf44a21dc137876001600054036040516101e59291906106aa565b60405180910390a150505050505050565b6001602052806000526040600020600091509050806000015490806001018054600181600116156101000203166002900480601f0160208091040260200160405190810160405280929190818152602001828054600181600116156101000203166002900480156102a85780601f1061027d576101008083540402835291602001916102a8565b820191906000526020600020905b81548152906001019060200180831161028b57829003601f168201915b505050505090806002015490806003018054600181600116156101000203166002900480601f01602080910402602001604051908101604052809291908181526020018280546001816001161561010002031660029004801561034c5780601f106103215761010080835404028352916020019161034c565b820191906000526020600020905b81548152906001019060200180831161032f57829003601f168201915b505050505090806004015490806005015490806006018054600181600116156101000203166002900480601f0160208091040260200160405190810160405280929190818152602001828054600181600116156101000203166002900480156103f65780601f106103cb576101008083540402835291602001916103f6565b820191906000526020600020905b8154815290600101906020018083116103d957829003601f168201915b5050505050908060070154905088565b60005481565b828054600181600116156101000203166002900490600052602060002090601f016020900481019282601f1061044d57805160ff191683800117855561047b565b8280016001018555821561047b579182015b8281111561047a57825182559160200191906001019061045f565b5b509050610488919061048c565b5090565b6104ae91905b808211156104aa576000816000905550600101610492565b5090565b90565b600082601f8301126104c257600080fd5b81356104d56104d0826107b5565b610788565b915080825260208301602083018583830111156104f157600080fd5b6104fc838284610812565b50505092915050565b60008135905061051481610865565b92915050565b600080600080600080600060e0888a03121561053557600080fd5b600088013567ffffffffffffffff81111561054f57600080fd5b61055b8a828b016104b1565b975050602061056c8a828b01610505565b965050604088013567ffffffffffffffff81111561058957600080fd5b6105958a828b016104b1565b95505060606105a68a828b01610505565b94505060806105b78a828b01610505565b93505060a088013567ffffffffffffffff8111156105d457600080fd5b6105e08a828b016104b1565b92505060c06105f18a828b01610505565b91505092959891949750929550565b60006020828403121561061257600080fd5b600061062084828501610505565b91505092915050565b6000610634826107ec565b61063e81856107f7565b935061064e818560208601610821565b61065781610854565b840191505092915050565b600061066d826107e1565b61067781856107f7565b9350610687818560208601610821565b61069081610854565b840191505092915050565b6106a481610808565b82525050565b600060408201905081810360008301526106c48185610629565b90506106d3602083018461069b565b9392505050565b60006020820190506106ef600083018461069b565b92915050565b60006101008201905061070b600083018b61069b565b818103602083015261071d818a610662565b905061072c604083018961069b565b818103606083015261073e8188610662565b905061074d608083018761069b565b61075a60a083018661069b565b81810360c083015261076c8185610662565b905061077b60e083018461069b565b9998505050505050505050565b6000604051905081810181811067ffffffffffffffff821117156107ab57600080fd5b8060405250919050565b600067ffffffffffffffff8211156107cc57600080fd5b601f19601f8301169050602081019050919050565b600081519050919050565b600081519050919050565b600082825260208201905092915050565b6000819050919050565b82818337600083830152505050565b60005b8381101561083f578082015181840152602081019050610824565b8381111561084e576000848401525b50505050565b6000601f19601f8301169050919050565b61086e81610808565b811461087957600080fd5b5056fea365627a7a72315820f600c6e037df278ce1fa435aabaa89334772ca2f56527f077573aa2ef192759e6c6578706572696d656e74616cf564736f6c634300051000406173736574732f70726f647563745f6c697374696e67732f70726f7363697574746f5f34363133375f62792e6a70676173736574732f70726f647563745f6c697374696e67732f7761736865645f72696e645f6368656573655f7061756c5f61736d616e5f6a696c6c5f6c656e6f626c655f62792e6a70676173736574732f70726f647563745f6c697374696e67732f686f6e65795f736861776e5f63617a615f63635f62795f73612e6a70672c736c696b61322e706e676173736574732f70726f647563745f6c697374696e67732f6f6c6976655f6f696c5f636174616c696e615f616c656a616e6472615f6163657665646f5f62795f73612e6a70675365642075742070657273706963696174697320756e6465206f6d6e69732069737465206e61747573206572726f722073697420766f6c7570746174656d206163637573616e7469756d20646f6c6f72656d717565206c617564616e7469756d2e6173736574732f70726f647563745f6c697374696e67732f72616b696a615f73696c766572696a655f63635f62795f73612e6a70676173736574732f70726f647563745f6c697374696e67732f73616c616d695f70626b7765655f62795f73612e6a70676173736574732f70726f647563745f6c697374696e67732f6d617274696e5f636174687261655f62795f73612e6a7067",
  "source": "pragma solidity >=0.4.22 <0.9.0;\r\npragma experimental ABIEncoderV2;\r\ncontract Products{\r\n    uint public productsCount;\r\n\r\n    struct Product{\r\n        uint id;\r\n        string name;\r\n        uint price;\r\n        string assetUrls;\r\n        uint classification;\r\n        uint quantifier;\r\n        string decs;\r\n        uint sellerId;\r\n    }\r\n\r\n    mapping (uint => Product) public products;\r\n\r\n    event ProductCreated(string name, uint ProductNumber);\r\n\r\n    constructor() public{\r\n\r\n        products[0] = Product(0, \"Domaći med\", 13, \"assets/product_listings/honey_shawn_caza_cc_by_sa.jpg,slika2.png\", 1, 750,\r\n            \"Sed ut perspiciatis unde omnis iste natus error sit voluptatem accusantium doloremque laudantium.\", 1);\r\n        products[1] = Product(1, \"Pasirani paradajz\", 2, \"assets/product_listings/martin_cathrae_by_sa.jpg\", 1, 500,\r\n            \"Sed ut perspiciatis unde omnis iste natus error sit voluptatem accusantium doloremque laudantium.\", 1);\r\n        products[2] = Product(2, \"Maslinovo ulje\", 15, \"assets/product_listings/olive_oil_catalina_alejandra_acevedo_by_sa.jpg\", 1, 750,\r\n            \"Sed ut perspiciatis unde omnis iste natus error sit voluptatem accusantium doloremque laudantium.\", 1);\r\n        products[3] = Product(3, \"Pršut\", 15, \"assets/product_listings/prosciutto_46137_by.jpg\", 1, 234,\r\n            \"Sed ut perspiciatis unde omnis iste natus error sit voluptatem accusantium doloremque laudantium.\", 1);\r\n        products[4] = Product(4, \"Rakija\", 12, \"assets/product_listings/rakija_silverije_cc_by_sa.jpg\", 2, 1000,\r\n            \"Sed ut perspiciatis unde omnis iste natus error sit voluptatem accusantium doloremque laudantium.\", 1);\r\n        products[5] = Product(5, \"Kobasica\", 16, \"assets/product_listings/salami_pbkwee_by_sa.jpg\", 1, 1000,\r\n            \"Sed ut perspiciatis unde omnis iste natus error sit voluptatem accusantium doloremque laudantium.\", 1);\r\n        products[6] = Product(6, \"Kamamber\", 29, \"assets/product_listings/washed_rind_cheese_paul_asman_jill_lenoble_by.jpg\", 1, 500,\r\n            \"Sed ut perspiciatis unde omnis iste natus error sit voluptatem accusantium doloremque laudantium.\", 1);\r\n        productsCount = 7;\r\n    }\r\n\r\n    function createProduct(string memory _productName, uint _price, string memory _assetUrls, uint _classif, uint _quantifier, string memory _desc, uint _sellerId) public{\r\n\r\n        if (_classif > 2)\r\n            _classif = 0;\r\n\r\n        products[productsCount++] = Product(productsCount, _productName, _price, _assetUrls, _classif, _quantifier, _desc, _sellerId);\r\n        emit ProductCreated(_productName, productsCount - 1);\r\n\r\n    }\r\n\r\n\r\n}",
  "sourcePath": "C:/Users/Korisnik/Desktop/frontend_mobile/contracts/Products.sol",
  "compiler": {
    "name": "solc",
    "version": "0.5.16+commit.9c3226ce.Emscripten.clang"
  },
  "schemaVersion": "3.3.4",
  "updatedAt": "2021-04-03T19:16:53.512Z",
  "networkType": "ethereum",
  "devdoc": {
    "methods": {}
  },
  "userdoc": {
    "methods": {}
  }
}