{
  "contractName": "Products",
  "abi": [
    {
      "inputs": [],
      "payable": false,
      "stateMutability": "nonpayable",
      "type": "constructor"
    },
    {
      "anonymous": false,
      "inputs": [
        {
          "indexed": false,
          "internalType": "string",
          "name": "name",
          "type": "string"
        },
        {
          "indexed": false,
          "internalType": "uint256",
          "name": "ProductNumber",
          "type": "uint256"
        }
      ],
      "name": "ProductCreated",
      "type": "event"
    },
    {
      "constant": true,
      "inputs": [
        {
          "internalType": "uint256",
          "name": "",
          "type": "uint256"
        }
      ],
      "name": "products",
      "outputs": [
        {
          "internalType": "uint256",
          "name": "id",
          "type": "uint256"
        },
        {
          "internalType": "string",
          "name": "name",
          "type": "string"
        },
        {
          "internalType": "uint256",
          "name": "price_numerator",
          "type": "uint256"
        },
        {
          "internalType": "uint256",
          "name": "price_denominator",
          "type": "uint256"
        },
        {
          "internalType": "string",
          "name": "assetUrls",
          "type": "string"
        },
        {
          "internalType": "uint256",
          "name": "classification",
          "type": "uint256"
        },
        {
          "internalType": "uint256",
          "name": "quantifier",
          "type": "uint256"
        },
        {
          "internalType": "string",
          "name": "decs",
          "type": "string"
        },
        {
          "internalType": "uint256",
          "name": "sellerId",
          "type": "uint256"
        },
        {
          "internalType": "uint256",
          "name": "categoryId",
          "type": "uint256"
        }
      ],
      "payable": false,
      "stateMutability": "view",
      "type": "function"
    },
    {
      "constant": true,
      "inputs": [],
      "name": "productsCount",
      "outputs": [
        {
          "internalType": "uint256",
          "name": "",
          "type": "uint256"
        }
      ],
      "payable": false,
      "stateMutability": "view",
      "type": "function"
    },
    {
      "constant": false,
      "inputs": [
        {
          "internalType": "string",
          "name": "_productName",
          "type": "string"
        },
        {
          "internalType": "uint256",
          "name": "_price_nominator",
          "type": "uint256"
        },
        {
          "internalType": "uint256",
          "name": "_price_denominator",
          "type": "uint256"
        },
        {
          "internalType": "string",
          "name": "_assetUrls",
          "type": "string"
        },
        {
          "internalType": "uint256",
          "name": "_classif",
          "type": "uint256"
        },
        {
          "internalType": "uint256",
          "name": "_quantifier",
          "type": "uint256"
        },
        {
          "internalType": "string",
          "name": "_desc",
          "type": "string"
        },
        {
          "internalType": "uint256",
          "name": "_sellerId",
          "type": "uint256"
        },
        {
          "internalType": "uint256",
          "name": "_categoryId",
          "type": "uint256"
        }
      ],
      "name": "createProduct",
      "outputs": [],
      "payable": false,
      "stateMutability": "nonpayable",
      "type": "function"
    },
    {
      "constant": false,
      "inputs": [
        {
          "internalType": "uint256",
          "name": "category",
          "type": "uint256"
        },
        {
          "internalType": "uint256",
          "name": "totalProducts",
          "type": "uint256"
        }
      ],
      "name": "getProductsForCategory",
      "outputs": [
        {
          "components": [
            {
              "internalType": "uint256",
              "name": "id",
              "type": "uint256"
            },
            {
              "internalType": "string",
              "name": "name",
              "type": "string"
            },
            {
              "internalType": "uint256",
              "name": "price_numerator",
              "type": "uint256"
            },
            {
              "internalType": "uint256",
              "name": "price_denominator",
              "type": "uint256"
            },
            {
              "internalType": "string",
              "name": "assetUrls",
              "type": "string"
            },
            {
              "internalType": "uint256",
              "name": "classification",
              "type": "uint256"
            },
            {
              "internalType": "uint256",
              "name": "quantifier",
              "type": "uint256"
            },
            {
              "internalType": "string",
              "name": "decs",
              "type": "string"
            },
            {
              "internalType": "uint256",
              "name": "sellerId",
              "type": "uint256"
            },
            {
              "internalType": "uint256",
              "name": "categoryId",
              "type": "uint256"
            }
          ],
          "internalType": "struct Products.Product[]",
          "name": "",
          "type": "tuple[]"
        }
      ],
      "payable": false,
      "stateMutability": "nonpayable",
      "type": "function"
    },
    {
      "constant": false,
      "inputs": [
        {
          "internalType": "uint256",
          "name": "category",
          "type": "uint256"
        }
      ],
      "name": "getProductsForCategoryCount",
      "outputs": [
        {
          "internalType": "uint256",
          "name": "count",
          "type": "uint256"
        }
      ],
      "payable": false,
      "stateMutability": "nonpayable",
      "type": "function"
    },
    {
      "constant": false,
      "inputs": [
        {
          "internalType": "uint256",
          "name": "id",
          "type": "uint256"
        }
      ],
      "name": "getProductById",
      "outputs": [
        {
          "components": [
            {
              "internalType": "uint256",
              "name": "id",
              "type": "uint256"
            },
            {
              "internalType": "string",
              "name": "name",
              "type": "string"
            },
            {
              "internalType": "uint256",
              "name": "price_numerator",
              "type": "uint256"
            },
            {
              "internalType": "uint256",
              "name": "price_denominator",
              "type": "uint256"
            },
            {
              "internalType": "string",
              "name": "assetUrls",
              "type": "string"
            },
            {
              "internalType": "uint256",
              "name": "classification",
              "type": "uint256"
            },
            {
              "internalType": "uint256",
              "name": "quantifier",
              "type": "uint256"
            },
            {
              "internalType": "string",
              "name": "decs",
              "type": "string"
            },
            {
              "internalType": "uint256",
              "name": "sellerId",
              "type": "uint256"
            },
            {
              "internalType": "uint256",
              "name": "categoryId",
              "type": "uint256"
            }
          ],
          "internalType": "struct Products.Product",
          "name": "",
          "type": "tuple"
        }
      ],
      "payable": false,
      "stateMutability": "nonpayable",
      "type": "function"
    }
  ],
  "bytecode": "0x6080604052600080553480156200001557600080fd5b50604051806101400160405280600081526020016040518060400160405280600b81526020017f446f6d61c48769206d65640000000000000000000000000000000000000000008152508152602001603281526020016003815260200160405180606001604052806040815260200162001ffa604091398152602001600181526020016102ee81526020016040518060a001604052806061815260200162002080606191398152602001600181526020016009815250600160008081526020019081526020016000206000820151816000015560208201518160010190805190602001906200010692919062000a39565b50604082015181600201556060820151816003015560808201518160040190805190602001906200013992919062000a39565b5060a0820151816005015560c0820151816006015560e08201518160070190805190602001906200016c92919062000a39565b5061010082015181600801556101208201518160090155905050604051806101400160405280600181526020016040518060400160405280601181526020017f5061736972616e69207061726164616a7a0000000000000000000000000000008152508152602001602b81526020016003815260200160405180606001604052806030815260200162002145603091398152602001600181526020016101f481526020016040518060a00160405280606181526020016200208060619139815260200160018152602001600381525060016000600181526020019081526020016000206000820151816000015560208201518160010190805190602001906200027792919062000a39565b5060408201518160020155606082015181600301556080820151816004019080519060200190620002aa92919062000a39565b5060a0820151816005015560c0820151816006015560e0820151816007019080519060200190620002dd92919062000a39565b5061010082015181600801556101208201518160090155905050604051806101400160405280600281526020016040518060400160405280600e81526020017f4d61736c696e6f766f20756c6a650000000000000000000000000000000000008152508152602001604d8152602001600381526020016040518060800160405280604681526020016200203a604691398152602001600181526020016102ee81526020016040518060a0016040528060618152602001620020806061913981526020016001815260200160098152506001600060028152602001908152602001600020600082015181600001556020820151816001019080519060200190620003e892919062000a39565b50604082015181600201556060820151816003015560808201518160040190805190602001906200041b92919062000a39565b5060a0820151816005015560c0820151816006015560e08201518160070190805190602001906200044e92919062000a39565b5061010082015181600801556101208201518160090155905050604051806101400160405280600381526020016040518060400160405280600681526020017f5072c5a1757400000000000000000000000000000000000000000000000000008152508152602001609a8152602001600381526020016040518060600160405280602f815260200162001f82602f913981526020016001815260200160ea81526020016040518060a00160405280606181526020016200208060619139815260200160018152602001600181525060016000600381526020019081526020016000206000820151816000015560208201518160010190805190602001906200055892919062000a39565b50604082015181600201556060820151816003015560808201518160040190805190602001906200058b92919062000a39565b5060a0820151816005015560c0820151816006015560e0820151816007019080519060200190620005be92919062000a39565b5061010082015181600801556101208201518160090155905050604051806101400160405280600481526020016040518060400160405280600681526020017f52616b696a61000000000000000000000000000000000000000000000000000081525081526020016062815260200160038152602001604051806060016040528060358152602001620020e1603591398152602001600281526020016103e881526020016040518060a0016040528060618152602001620020806061913981526020016001815260200160058152506001600060048152602001908152602001600020600082015181600001556020820151816001019080519060200190620006c992919062000a39565b5060408201518160020155606082015181600301556080820151816004019080519060200190620006fc92919062000a39565b5060a0820151816005015560c0820151816006015560e08201518160070190805190602001906200072f92919062000a39565b5061010082015181600801556101208201518160090155905050604051806101400160405280600581526020016040518060400160405280600881526020017f4b6f6261736963610000000000000000000000000000000000000000000000008152508152602001604a8152602001600381526020016040518060600160405280602f815260200162002116602f91398152602001600181526020016103e881526020016040518060a00160405280606181526020016200208060619139815260200160018152602001600181525060016000600581526020019081526020016000206000820151816000015560208201518160010190805190602001906200083a92919062000a39565b50604082015181600201556060820151816003015560808201518160040190805190602001906200086d92919062000a39565b5060a0820151816005015560c0820151816006015560e0820151816007019080519060200190620008a092919062000a39565b5061010082015181600801556101208201518160090155905050604051806101400160405280600681526020016040518060400160405280600881526020017f4b616d616d6265720000000000000000000000000000000000000000000000008152508152602001603681526020016003815260200160405180608001604052806049815260200162001fb1604991398152602001600181526020016101f481526020016040518060a0016040528060618152602001620020806061913981526020016001815260200160028152506001600060068152602001908152602001600020600082015181600001556020820151816001019080519060200190620009ab92919062000a39565b5060408201518160020155606082015181600301556080820151816004019080519060200190620009de92919062000a39565b5060a0820151816005015560c0820151816006015560e082015181600701908051906020019062000a1192919062000a39565b5061010082015181600801556101208201518160090155905050600760008190555062000ae8565b828054600181600116156101000203166002900490600052602060002090601f016020900481019282601f1062000a7c57805160ff191683800117855562000aad565b8280016001018555821562000aad579182015b8281111562000aac57825182559160200191906001019062000a8f565b5b50905062000abc919062000ac0565b5090565b62000ae591905b8082111562000ae157600081600090555060010162000ac7565b5090565b90565b61148a8062000af86000396000f3fe608060405234801561001057600080fd5b50600436106100625760003560e01c80632dc810ab146100675780633f70c2b4146100975780637acc0b20146100c7578063ac8a54b114610100578063c1b4410f14610130578063e0df7bb61461014c575b600080fd5b610081600480360361007c9190810190610e6b565b61016a565b60405161008e91906111c9565b60405180910390f35b6100b160048036036100ac9190810190610e42565b6104ff565b6040516100be919061121b565b60405180910390f35b6100e160048036036100dc9190810190610e42565b6107a6565b6040516100f79a99989796959493929190611258565b60405180910390f35b61011a60048036036101159190810190610e42565b6109c2565b604051610127919061123d565b60405180910390f35b61014a60048036036101459190810190610d34565b610a17565b005b610154610b7a565b604051610161919061123d565b60405180910390f35b606060008090506060836040519080825280602002602001820160405280156101ad57816020015b61019a610b80565b8152602001906001900390816101925790505b50905060008090505b6000548110156104f35785600160008381526020019081526020016000206009015414156104e65760405180610140016040528060016000848152602001908152602001600020600001548152602001600160008481526020019081526020016000206001018054600181600116156101000203166002900480601f0160208091040260200160405190810160405280929190818152602001828054600181600116156101000203166002900480156102b05780601f10610285576101008083540402835291602001916102b0565b820191906000526020600020905b81548152906001019060200180831161029357829003601f168201915b505050505081526020016001600084815260200190815260200160002060020154815260200160016000848152602001908152602001600020600301548152602001600160008481526020019081526020016000206004018054600181600116156101000203166002900480601f01602080910402602001604051908101604052809291908181526020018280546001816001161561010002031660029004801561039c5780601f106103715761010080835404028352916020019161039c565b820191906000526020600020905b81548152906001019060200180831161037f57829003601f168201915b505050505081526020016001600084815260200190815260200160002060050154815260200160016000848152602001908152602001600020600601548152602001600160008481526020019081526020016000206007018054600181600116156101000203166002900480601f0160208091040260200160405190810160405280929190818152602001828054600181600116156101000203166002900480156104885780601f1061045d57610100808354040283529160200191610488565b820191906000526020600020905b81548152906001019060200180831161046b57829003601f168201915b505050505081526020016001600084815260200190815260200160002060080154815260200160016000848152602001908152602001600020600901548152508284806001019550815181106104da57fe5b60200260200101819052505b80806001019150506101b6565b50809250505092915050565b610507610bd3565b61050f610bd3565b60008090505b60005481101561079c57836001600083815260200190815260200160002060000154141561078f57600160008281526020019081526020016000206040518061014001604052908160008201548152602001600182018054600181600116156101000203166002900480601f0160208091040260200160405190810160405280929190818152602001828054600181600116156101000203166002900480156105ff5780601f106105d4576101008083540402835291602001916105ff565b820191906000526020600020905b8154815290600101906020018083116105e257829003601f168201915b505050505081526020016002820154815260200160038201548152602001600482018054600181600116156101000203166002900480601f0160208091040260200160405190810160405280929190818152602001828054600181600116156101000203166002900480156106b55780601f1061068a576101008083540402835291602001916106b5565b820191906000526020600020905b81548152906001019060200180831161069857829003601f168201915b505050505081526020016005820154815260200160068201548152602001600782018054600181600116156101000203166002900480601f01602080910402602001604051908101604052809291908181526020018280546001816001161561010002031660029004801561076b5780601f106107405761010080835404028352916020019161076b565b820191906000526020600020905b81548152906001019060200180831161074e57829003601f168201915b5050505050815260200160088201548152602001600982015481525050915061079c565b8080600101915050610515565b5080915050919050565b6001602052806000526040600020600091509050806000015490806001018054600181600116156101000203166002900480601f0160208091040260200160405190810160405280929190818152602001828054600181600116156101000203166002900480156108585780601f1061082d57610100808354040283529160200191610858565b820191906000526020600020905b81548152906001019060200180831161083b57829003601f168201915b505050505090806002015490806003015490806004018054600181600116156101000203166002900480601f0160208091040260200160405190810160405280929190818152602001828054600181600116156101000203166002900480156109025780601f106108d757610100808354040283529160200191610902565b820191906000526020600020905b8154815290600101906020018083116108e557829003601f168201915b505050505090806005015490806006015490806007018054600181600116156101000203166002900480601f0160208091040260200160405190810160405280929190818152602001828054600181600116156101000203166002900480156109ac5780601f10610981576101008083540402835291602001916109ac565b820191906000526020600020905b81548152906001019060200180831161098f57829003601f168201915b505050505090806008015490806009015490508a565b6000806000905060008090505b600054811015610a0d578360016000838152602001908152602001600020600901541415610a005781806001019250505b80806001019150506109cf565b5080915050919050565b6002851115610a2557600094505b60405180610140016040528060005481526020018a81526020018981526020018881526020018781526020018681526020018581526020018481526020018381526020018281525060016000806000815480929190600101919050558152602001908152602001600020600082015181600001556020820151816001019080519060200190610ab5929190610c26565b5060408201518160020155606082015181600301556080820151816004019080519060200190610ae6929190610c26565b5060a0820151816005015560c0820151816006015560e0820151816007019080519060200190610b17929190610c26565b50610100820151816008015561012082015181600901559050507fb040efd5b9ac3e016c34e7ba218414cec2f62f7405435784f124cf44a21dc13789600160005403604051610b679291906111eb565b60405180910390a1505050505050505050565b60005481565b604051806101400160405280600081526020016060815260200160008152602001600081526020016060815260200160008152602001600081526020016060815260200160008152602001600081525090565b604051806101400160405280600081526020016060815260200160008152602001600081526020016060815260200160008152602001600081526020016060815260200160008152602001600081525090565b828054600181600116156101000203166002900490600052602060002090601f016020900481019282601f10610c6757805160ff1916838001178555610c95565b82800160010185558215610c95579182015b82811115610c94578251825591602001919060010190610c79565b5b509050610ca29190610ca6565b5090565b610cc891905b80821115610cc4576000816000905550600101610cac565b5090565b90565b600082601f830112610cdc57600080fd5b8135610cef610cea82611336565b611309565b91508082526020830160208301858383011115610d0b57600080fd5b610d168382846113dd565b50505092915050565b600081359050610d2e81611430565b92915050565b60008060008060008060008060006101208a8c031215610d5357600080fd5b60008a013567ffffffffffffffff811115610d6d57600080fd5b610d798c828d01610ccb565b9950506020610d8a8c828d01610d1f565b9850506040610d9b8c828d01610d1f565b97505060608a013567ffffffffffffffff811115610db857600080fd5b610dc48c828d01610ccb565b9650506080610dd58c828d01610d1f565b95505060a0610de68c828d01610d1f565b94505060c08a013567ffffffffffffffff811115610e0357600080fd5b610e0f8c828d01610ccb565b93505060e0610e208c828d01610d1f565b925050610100610e328c828d01610d1f565b9150509295985092959850929598565b600060208284031215610e5457600080fd5b6000610e6284828501610d1f565b91505092915050565b60008060408385031215610e7e57600080fd5b6000610e8c85828601610d1f565b9250506020610e9d85828601610d1f565b9150509250929050565b6000610eb383836110c3565b905092915050565b6000610ec682611372565b610ed081856113a0565b935083602082028501610ee285611362565b8060005b85811015610f1e5784840389528151610eff8582610ea7565b9450610f0a83611393565b925060208a01995050600181019050610ee6565b50829750879550505050505092915050565b6000610f3b82611388565b610f4581856113c2565b9350610f558185602086016113ec565b610f5e8161141f565b840191505092915050565b6000610f748261137d565b610f7e81856113b1565b9350610f8e8185602086016113ec565b610f978161141f565b840191505092915050565b6000610fad8261137d565b610fb781856113c2565b9350610fc78185602086016113ec565b610fd08161141f565b840191505092915050565b600061014083016000830151610ff460008601826111ab565b506020830151848203602086015261100c8282610f69565b915050604083015161102160408601826111ab565b50606083015161103460608601826111ab565b506080830151848203608086015261104c8282610f69565b91505060a083015161106160a08601826111ab565b5060c083015161107460c08601826111ab565b5060e083015184820360e086015261108c8282610f69565b9150506101008301516110a36101008601826111ab565b506101208301516110b86101208601826111ab565b508091505092915050565b6000610140830160008301516110dc60008601826111ab565b50602083015184820360208601526110f48282610f69565b915050604083015161110960408601826111ab565b50606083015161111c60608601826111ab565b50608083015184820360808601526111348282610f69565b91505060a083015161114960a08601826111ab565b5060c083015161115c60c08601826111ab565b5060e083015184820360e08601526111748282610f69565b91505061010083015161118b6101008601826111ab565b506101208301516111a06101208601826111ab565b508091505092915050565b6111b4816113d3565b82525050565b6111c3816113d3565b82525050565b600060208201905081810360008301526111e38184610ebb565b905092915050565b600060408201905081810360008301526112058185610f30565b905061121460208301846111ba565b9392505050565b600060208201905081810360008301526112358184610fdb565b905092915050565b600060208201905061125260008301846111ba565b92915050565b60006101408201905061126e600083018d6111ba565b8181036020830152611280818c610fa2565b905061128f604083018b6111ba565b61129c606083018a6111ba565b81810360808301526112ae8189610fa2565b90506112bd60a08301886111ba565b6112ca60c08301876111ba565b81810360e08301526112dc8186610fa2565b90506112ec6101008301856111ba565b6112fa6101208301846111ba565b9b9a5050505050505050505050565b6000604051905081810181811067ffffffffffffffff8211171561132c57600080fd5b8060405250919050565b600067ffffffffffffffff82111561134d57600080fd5b601f19601f8301169050602081019050919050565b6000819050602082019050919050565b600081519050919050565b600081519050919050565b600081519050919050565b6000602082019050919050565b600082825260208201905092915050565b600082825260208201905092915050565b600082825260208201905092915050565b6000819050919050565b82818337600083830152505050565b60005b8381101561140a5780820151818401526020810190506113ef565b83811115611419576000848401525b50505050565b6000601f19601f8301169050919050565b611439816113d3565b811461144457600080fd5b5056fea365627a7a72315820fae99fff4c886fb604ca0f0ef0c80241a2a941f6258004ecb1f736d601f7f7926c6578706572696d656e74616cf564736f6c634300051000406173736574732f70726f647563745f6c697374696e67732f70726f7363697574746f5f34363133375f62792e6a70676173736574732f70726f647563745f6c697374696e67732f7761736865645f72696e645f6368656573655f7061756c5f61736d616e5f6a696c6c5f6c656e6f626c655f62792e6a70676173736574732f70726f647563745f6c697374696e67732f686f6e65795f736861776e5f63617a615f63635f62795f73612e6a70672c736c696b61322e706e676173736574732f70726f647563745f6c697374696e67732f6f6c6976655f6f696c5f636174616c696e615f616c656a616e6472615f6163657665646f5f62795f73612e6a70675365642075742070657273706963696174697320756e6465206f6d6e69732069737465206e61747573206572726f722073697420766f6c7570746174656d206163637573616e7469756d20646f6c6f72656d717565206c617564616e7469756d2e6173736574732f70726f647563745f6c697374696e67732f72616b696a615f73696c766572696a655f63635f62795f73612e6a70676173736574732f70726f647563745f6c697374696e67732f73616c616d695f70626b7765655f62795f73612e6a70676173736574732f70726f647563745f6c697374696e67732f6d617274696e5f636174687261655f62795f73612e6a7067",
  "source": "pragma solidity >=0.4.22 <0.9.0;\npragma experimental ABIEncoderV2;\ncontract Products{\n    uint public productsCount = 0;\n\n    struct Product{\n        uint id;\n        string name;\n        uint price_numerator;\n        uint price_denominator;\n        string assetUrls;\n        uint classification;\n        uint quantifier;\n        string decs;\n        uint sellerId;\n        uint categoryId;\n    }\n\n    mapping (uint => Product) public products;\n\n    event ProductCreated(string name, uint ProductNumber);\n\n    constructor() public{\n\n        products[0] = Product(0, \"Domai med\", 50, 3, \"assets/product_listings/honey_shawn_caza_cc_by_sa.jpg,slika2.png\", 1, 750,\n            \"Sed ut perspiciatis unde omnis iste natus error sit voluptatem accusantium doloremque laudantium.\", 1,9);\n        products[1] = Product(1, \"Pasirani paradajz\", 43, 3, \"assets/product_listings/martin_cathrae_by_sa.jpg\", 1, 500,\n            \"Sed ut perspiciatis unde omnis iste natus error sit voluptatem accusantium doloremque laudantium.\", 1,3);\n        products[2] = Product(2, \"Maslinovo ulje\", 77, 3, \"assets/product_listings/olive_oil_catalina_alejandra_acevedo_by_sa.jpg\", 1, 750,\n            \"Sed ut perspiciatis unde omnis iste natus error sit voluptatem accusantium doloremque laudantium.\", 1,9);\n        products[3] = Product(3, \"Prut\", 154, 3, \"assets/product_listings/prosciutto_46137_by.jpg\", 1, 234,\n            \"Sed ut perspiciatis unde omnis iste natus error sit voluptatem accusantium doloremque laudantium.\", 1,1);\n        products[4] = Product(4, \"Rakija\", 98, 3, \"assets/product_listings/rakija_silverije_cc_by_sa.jpg\", 2, 1000,\n            \"Sed ut perspiciatis unde omnis iste natus error sit voluptatem accusantium doloremque laudantium.\", 1,5);\n        products[5] = Product(5, \"Kobasica\", 74, 3, \"assets/product_listings/salami_pbkwee_by_sa.jpg\", 1, 1000,\n            \"Sed ut perspiciatis unde omnis iste natus error sit voluptatem accusantium doloremque laudantium.\", 1,1);\n        products[6] = Product(6, \"Kamamber\", 54,3, \"assets/product_listings/washed_rind_cheese_paul_asman_jill_lenoble_by.jpg\", 1, 500,\n            \"Sed ut perspiciatis unde omnis iste natus error sit voluptatem accusantium doloremque laudantium.\", 1,2);\n        productsCount = 7;\n    }\n\n    function createProduct(string memory _productName, uint _price_nominator, uint _price_denominator, string memory _assetUrls, uint _classif, uint _quantifier, string memory _desc, uint _sellerId, uint _categoryId) public{\n\n        if (_classif > 2)\n            _classif = 0;\n\n        products[productsCount++] = Product(productsCount, _productName, _price_nominator, _price_denominator, _assetUrls, _classif, _quantifier, _desc, _sellerId, _categoryId);\n        emit ProductCreated(_productName, productsCount - 1);\n\n    }\n    function getProductsForCategory(uint category, uint totalProducts) public returns (Product[] memory){\n        uint count = 0;\n        Product[] memory y = new Product[](totalProducts);\n        for (uint i= 0; i < productsCount; i++) {\n            if (products[i].categoryId == category){\n                y[count++] = Product(products[i].id,\n                products[i].name,\n                products[i].price_numerator,\n                products[i].price_denominator,\n                products[i].assetUrls,\n                products[i].classification,\n                products[i].quantifier,\n                products[i].decs,\n                products[i].sellerId,\n                    products[i].categoryId);\n            }\n        }\n        return y;\n    }\n    function getProductsForCategoryCount(uint category) public returns (uint count){\n        uint productsForCategoryCount = 0;\n        for (uint i= 0; i < productsCount; i++) {\n            if (products[i].categoryId == category){\n                productsForCategoryCount++;\n            }\n        }\n        return productsForCategoryCount;\n    }\n    //TODO get products for sellerId\n    function getProductById(uint id) public returns (Product memory){\n        Product memory product;\n        for (uint i= 0; i < productsCount; i++) {\n            if (products[i].id == id){\n                product = products[i];\n                break;\n            }\n        }\n        return product;\n    }\n}",
  "sourcePath": "/home/jovan/Catalyst/src/frontend_mobile/contracts/Products.sol",
  "compiler": {
    "name": "solc",
    "version": "0.5.16+commit.9c3226ce.Emscripten.clang"
  },
  "schemaVersion": "3.3.4",
  "updatedAt": "2021-04-13T23:45:22.138Z",
  "networkType": "ethereum",
  "devdoc": {
    "methods": {}
  },
  "userdoc": {
    "methods": {}
  }
}