{
  "contractName": "Products",
  "abi": [
    {
      "inputs": [],
      "payable": false,
      "stateMutability": "nonpayable",
      "type": "constructor"
    },
    {
      "anonymous": false,
      "inputs": [
        {
          "indexed": false,
          "internalType": "string",
          "name": "name",
          "type": "string"
        },
        {
          "indexed": false,
          "internalType": "uint256",
          "name": "ProductNumber",
          "type": "uint256"
        }
      ],
      "name": "ProductCreated",
      "type": "event"
    },
    {
      "constant": true,
      "inputs": [
        {
          "internalType": "uint256",
          "name": "",
          "type": "uint256"
        }
      ],
      "name": "products",
      "outputs": [
        {
          "internalType": "string",
          "name": "name",
          "type": "string"
        },
        {
          "internalType": "uint256",
          "name": "price",
          "type": "uint256"
        },
        {
          "internalType": "string",
          "name": "assetUrls",
          "type": "string"
        },
        {
          "internalType": "uint256",
          "name": "classification",
          "type": "uint256"
        },
        {
          "internalType": "uint256",
          "name": "quantifier",
          "type": "uint256"
        }
      ],
      "payable": false,
      "stateMutability": "view",
      "type": "function"
    },
    {
      "constant": true,
      "inputs": [],
      "name": "productsCount",
      "outputs": [
        {
          "internalType": "uint256",
          "name": "",
          "type": "uint256"
        }
      ],
      "payable": false,
      "stateMutability": "view",
      "type": "function"
    },
    {
      "constant": false,
      "inputs": [
        {
          "internalType": "string",
          "name": "_productName",
          "type": "string"
        },
        {
          "internalType": "uint256",
          "name": "_price",
          "type": "uint256"
        },
        {
          "internalType": "string",
          "name": "_assetUrls",
          "type": "string"
        },
        {
          "internalType": "uint256",
          "name": "_classif",
          "type": "uint256"
        },
        {
          "internalType": "uint256",
          "name": "_quantifier",
          "type": "uint256"
        }
      ],
      "name": "createProduct",
      "outputs": [],
      "payable": false,
      "stateMutability": "nonpayable",
      "type": "function"
    }
  ],
  "bytecode": "0x60806040523480156200001157600080fd5b506040518060a001604052806040518060400160405280600b81526020017f446f6d61c48769206d65640000000000000000000000000000000000000000008152508152602001600d815260200160405180606001604052806040815260200162000f22604091398152602001600181526020016102ee815250600160008081526020019081526020016000206000820151816000019080519060200190620000bc92919062000692565b50602082015181600101556040820151816002019080519060200190620000e592919062000692565b5060608201518160030155608082015181600401559050506040518060a001604052806040518060400160405280601181526020017f5061736972616e69207061726164616a7a0000000000000000000000000000008152508152602001600281526020016040518060600160405280603081526020016200100c603091398152602001600181526020016101f481525060016000600181526020019081526020016000206000820151816000019080519060200190620001a892919062000692565b50602082015181600101556040820151816002019080519060200190620001d192919062000692565b5060608201518160030155608082015181600401559050506040518060a001604052806040518060400160405280600e81526020017f4d61736c696e6f766f20756c6a650000000000000000000000000000000000008152508152602001600f815260200160405180608001604052806046815260200162000f62604691398152602001600181526020016102ee815250600160006002815260200190815260200160002060008201518160000190805190602001906200029492919062000692565b50602082015181600101556040820151816002019080519060200190620002bd92919062000692565b5060608201518160030155608082015181600401559050506040518060a001604052806040518060400160405280600681526020017f5072c5a1757400000000000000000000000000000000000000000000000000008152508152602001600f81526020016040518060600160405280602f815260200162000eaa602f913981526020016001815260200160ea815250600160006003815260200190815260200160002060008201518160000190805190602001906200037f92919062000692565b50602082015181600101556040820151816002019080519060200190620003a892919062000692565b5060608201518160030155608082015181600401559050506040518060a001604052806040518060400160405280600681526020017f52616b696a6100000000000000000000000000000000000000000000000000008152508152602001600c815260200160405180606001604052806035815260200162000fa8603591398152602001600281526020016103e8815250600160006004815260200190815260200160002060008201518160000190805190602001906200046b92919062000692565b506020820151816001015560408201518160020190805190602001906200049492919062000692565b5060608201518160030155608082015181600401559050506040518060a001604052806040518060400160405280600881526020017f4b6f6261736963610000000000000000000000000000000000000000000000008152508152602001601081526020016040518060600160405280602f815260200162000fdd602f91398152602001600181526020016103e8815250600160006005815260200190815260200160002060008201518160000190805190602001906200055792919062000692565b506020820151816001015560408201518160020190805190602001906200058092919062000692565b5060608201518160030155608082015181600401559050506040518060a001604052806040518060400160405280600881526020017f4b616d616d6265720000000000000000000000000000000000000000000000008152508152602001601d815260200160405180608001604052806049815260200162000ed9604991398152602001600181526020016101f4815250600160006006815260200190815260200160002060008201518160000190805190602001906200064392919062000692565b506020820151816001015560408201518160020190805190602001906200066c92919062000692565b506060820151816003015560808201518160040155905050600760008190555062000741565b828054600181600116156101000203166002900490600052602060002090601f016020900481019282601f10620006d557805160ff191683800117855562000706565b8280016001018555821562000706579182015b8281111562000705578251825591602001919060010190620006e8565b5b50905062000715919062000719565b5090565b6200073e91905b808211156200073a57600081600090555060010162000720565b5090565b90565b61075980620007516000396000f3fe608060405234801561001057600080fd5b50600436106100415760003560e01c80637acc0b2014610046578063dd003ace1461007a578063e0df7bb614610096575b600080fd5b610060600480360361005b91908101906104cc565b6100b4565b6040516100719594939291906105a6565b60405180910390f35b610094600480360361008f9190810190610425565b61021a565b005b61009e610311565b6040516100ab9190610607565b60405180910390f35b6001602052806000526040600020600091509050806000018054600181600116156101000203166002900480601f0160208091040260200160405190810160405280929190818152602001828054600181600116156101000203166002900480156101605780601f1061013557610100808354040283529160200191610160565b820191906000526020600020905b81548152906001019060200180831161014357829003601f168201915b505050505090806001015490806002018054600181600116156101000203166002900480601f0160208091040260200160405190810160405280929190818152602001828054600181600116156101000203166002900480156102045780601f106101d957610100808354040283529160200191610204565b820191906000526020600020905b8154815290600101906020018083116101e757829003601f168201915b5050505050908060030154908060040154905085565b600282111561022857600091505b6040518060a001604052808681526020018581526020018481526020018381526020018281525060016000806000815480929190600101919050558152602001908152602001600020600082015181600001908051906020019061028d929190610317565b506020820151816001015560408201518160020190805190602001906102b4929190610317565b5060608201518160030155608082015181600401559050507fb040efd5b9ac3e016c34e7ba218414cec2f62f7405435784f124cf44a21dc13785600160005403604051610302929190610576565b60405180910390a15050505050565b60005481565b828054600181600116156101000203166002900490600052602060002090601f016020900481019282601f1061035857805160ff1916838001178555610386565b82800160010185558215610386579182015b8281111561038557825182559160200191906001019061036a565b5b5090506103939190610397565b5090565b6103b991905b808211156103b557600081600090555060010161039d565b5090565b90565b600082601f8301126103cd57600080fd5b81356103e06103db8261064f565b610622565b915080825260208301602083018583830111156103fc57600080fd5b6104078382846106ac565b50505092915050565b60008135905061041f816106ff565b92915050565b600080600080600060a0868803121561043d57600080fd5b600086013567ffffffffffffffff81111561045757600080fd5b610463888289016103bc565b955050602061047488828901610410565b945050604086013567ffffffffffffffff81111561049157600080fd5b61049d888289016103bc565b93505060606104ae88828901610410565b92505060806104bf88828901610410565b9150509295509295909350565b6000602082840312156104de57600080fd5b60006104ec84828501610410565b91505092915050565b600061050082610686565b61050a8185610691565b935061051a8185602086016106bb565b610523816106ee565b840191505092915050565b60006105398261067b565b6105438185610691565b93506105538185602086016106bb565b61055c816106ee565b840191505092915050565b610570816106a2565b82525050565b6000604082019050818103600083015261059081856104f5565b905061059f6020830184610567565b9392505050565b600060a08201905081810360008301526105c0818861052e565b90506105cf6020830187610567565b81810360408301526105e1818661052e565b90506105f06060830185610567565b6105fd6080830184610567565b9695505050505050565b600060208201905061061c6000830184610567565b92915050565b6000604051905081810181811067ffffffffffffffff8211171561064557600080fd5b8060405250919050565b600067ffffffffffffffff82111561066657600080fd5b601f19601f8301169050602081019050919050565b600081519050919050565b600081519050919050565b600082825260208201905092915050565b6000819050919050565b82818337600083830152505050565b60005b838110156106d95780820151818401526020810190506106be565b838111156106e8576000848401525b50505050565b6000601f19601f8301169050919050565b610708816106a2565b811461071357600080fd5b5056fea365627a7a72315820b8525e6d7656ccbfc63e96e9d510c43a5e7de2f02470e75ab208a318af0b48ab6c6578706572696d656e74616cf564736f6c634300051000406173736574732f70726f647563745f6c697374696e67732f70726f7363697574746f5f34363133375f62792e6a70676173736574732f70726f647563745f6c697374696e67732f7761736865645f72696e645f6368656573655f7061756c5f61736d616e5f6a696c6c5f6c656e6f626c655f62792e6a70676173736574732f70726f647563745f6c697374696e67732f686f6e65795f736861776e5f63617a615f63635f62795f73612e6a70672c736c696b61322e706e676173736574732f70726f647563745f6c697374696e67732f6f6c6976655f6f696c5f636174616c696e615f616c656a616e6472615f6163657665646f5f62795f73612e6a70676173736574732f70726f647563745f6c697374696e67732f72616b696a615f73696c766572696a655f63635f62795f73612e6a70676173736574732f70726f647563745f6c697374696e67732f73616c616d695f70626b7765655f62795f73612e6a70676173736574732f70726f647563745f6c697374696e67732f6d617274696e5f636174687261655f62795f73612e6a7067",
  "source": "pragma solidity >=0.4.22 <0.9.0;\r\npragma experimental ABIEncoderV2;\r\ncontract Products{\r\n    //enum Classification { Single, Weight, Volume }\r\n    uint public productsCount;\r\n\r\n    struct Product{\r\n\r\n        string name;\r\n        uint price;\r\n        string assetUrls;\r\n        uint classification;\r\n        uint quantifier;\r\n\r\n    }\r\n\r\n    mapping (uint => Product) public products;\r\n\r\n    event ProductCreated(string name, uint ProductNumber);\r\n\r\n    constructor() public{\r\n\r\n        products[0] = Product(\"Domaći med\", 13, \"assets/product_listings/honey_shawn_caza_cc_by_sa.jpg,slika2.png\", 1, 750);\r\n        products[1] = Product(\"Pasirani paradajz\", 2, \"assets/product_listings/martin_cathrae_by_sa.jpg\", 1, 500);\r\n        products[2] = Product(\"Maslinovo ulje\", 15, \"assets/product_listings/olive_oil_catalina_alejandra_acevedo_by_sa.jpg\", 1, 750);\r\n        products[3] = Product(\"Pršut\", 15, \"assets/product_listings/prosciutto_46137_by.jpg\", 1, 234);\r\n        products[4] = Product(\"Rakija\", 12, \"assets/product_listings/rakija_silverije_cc_by_sa.jpg\", 2, 1000);\r\n        products[5] = Product(\"Kobasica\", 16, \"assets/product_listings/salami_pbkwee_by_sa.jpg\", 1, 1000);\r\n        products[6] = Product(\"Kamamber\", 29, \"assets/product_listings/washed_rind_cheese_paul_asman_jill_lenoble_by.jpg\", 1, 500);\r\n        productsCount = 7;\r\n    }\r\n\r\n    function createProduct(string memory _productName, uint _price, string memory _assetUrls, uint _classif, uint _quantifier) public{\r\n\r\n        if (_classif > 2)\r\n            _classif = 0;\r\n\r\n        products[productsCount++] = Product(_productName, _price, _assetUrls, _classif, _quantifier);\r\n        emit ProductCreated(_productName, productsCount - 1);\r\n\r\n    }\r\n\r\n\r\n}",
  "sourcePath": "C:/Users/Korisnik/Desktop/frontend_mobile/contracts/Products.sol",
  "compiler": {
    "name": "solc",
    "version": "0.5.16+commit.9c3226ce.Emscripten.clang"
  },
  "schemaVersion": "3.3.4",
  "updatedAt": "2021-04-02T19:19:54.601Z",
  "networkType": "ethereum",
  "devdoc": {
    "methods": {}
  },
  "userdoc": {
    "methods": {}
  }
}