{
  "contractName": "Products",
  "abi": [
    {
      "inputs": [],
      "payable": false,
      "stateMutability": "nonpayable",
      "type": "constructor"
    },
    {
      "anonymous": false,
      "inputs": [
        {
          "indexed": false,
          "internalType": "string",
          "name": "name",
          "type": "string"
        },
        {
          "indexed": false,
          "internalType": "uint256",
          "name": "ProductNumber",
          "type": "uint256"
        }
      ],
      "name": "ProductCreated",
      "type": "event"
    },
    {
      "constant": true,
      "inputs": [],
      "name": "idCount",
      "outputs": [
        {
          "internalType": "uint256",
          "name": "",
          "type": "uint256"
        }
      ],
      "payable": false,
      "stateMutability": "view",
      "type": "function"
    },
    {
      "constant": true,
      "inputs": [
        {
          "internalType": "uint256",
          "name": "",
          "type": "uint256"
        }
      ],
      "name": "products",
      "outputs": [
        {
          "internalType": "uint256",
          "name": "id",
          "type": "uint256"
        },
        {
          "internalType": "string",
          "name": "name",
          "type": "string"
        },
        {
          "internalType": "uint256",
          "name": "price_numerator",
          "type": "uint256"
        },
        {
          "internalType": "uint256",
          "name": "price_denominator",
          "type": "uint256"
        },
        {
          "internalType": "uint256",
          "name": "discount_percentage",
          "type": "uint256"
        },
        {
          "internalType": "string",
          "name": "assetUrls",
          "type": "string"
        },
        {
          "internalType": "uint256",
          "name": "classification",
          "type": "uint256"
        },
        {
          "internalType": "uint256",
          "name": "quantifier",
          "type": "uint256"
        },
        {
          "internalType": "string",
          "name": "decs",
          "type": "string"
        },
        {
          "internalType": "uint256",
          "name": "sellerId",
          "type": "uint256"
        },
        {
          "internalType": "uint256",
          "name": "categoryId",
          "type": "uint256"
        }
      ],
      "payable": false,
      "stateMutability": "view",
      "type": "function"
    },
    {
      "constant": true,
      "inputs": [],
      "name": "productsCount",
      "outputs": [
        {
          "internalType": "uint256",
          "name": "",
          "type": "uint256"
        }
      ],
      "payable": false,
      "stateMutability": "view",
      "type": "function"
    },
    {
      "constant": false,
      "inputs": [
        {
          "internalType": "string",
          "name": "_productName",
          "type": "string"
        },
        {
          "internalType": "uint256",
          "name": "_price_nominator",
          "type": "uint256"
        },
        {
          "internalType": "uint256",
          "name": "_price_denominator",
          "type": "uint256"
        },
        {
          "internalType": "uint256",
          "name": "_discount_percentage",
          "type": "uint256"
        },
        {
          "internalType": "string",
          "name": "_assetUrls",
          "type": "string"
        },
        {
          "internalType": "uint256",
          "name": "_classif",
          "type": "uint256"
        },
        {
          "internalType": "uint256",
          "name": "_quantifier",
          "type": "uint256"
        },
        {
          "internalType": "string",
          "name": "_desc",
          "type": "string"
        },
        {
          "internalType": "uint256",
          "name": "_sellerId",
          "type": "uint256"
        },
        {
          "internalType": "uint256",
          "name": "_categoryId",
          "type": "uint256"
        }
      ],
      "name": "createProduct",
      "outputs": [],
      "payable": false,
      "stateMutability": "nonpayable",
      "type": "function"
    },
    {
      "constant": false,
      "inputs": [
        {
          "internalType": "uint256",
          "name": "category",
          "type": "uint256"
        },
        {
          "internalType": "uint256",
          "name": "totalProducts",
          "type": "uint256"
        }
      ],
      "name": "getProductsForCategory",
      "outputs": [
        {
          "components": [
            {
              "internalType": "uint256",
              "name": "id",
              "type": "uint256"
            },
            {
              "internalType": "string",
              "name": "name",
              "type": "string"
            },
            {
              "internalType": "uint256",
              "name": "price_numerator",
              "type": "uint256"
            },
            {
              "internalType": "uint256",
              "name": "price_denominator",
              "type": "uint256"
            },
            {
              "internalType": "uint256",
              "name": "discount_percentage",
              "type": "uint256"
            },
            {
              "internalType": "string",
              "name": "assetUrls",
              "type": "string"
            },
            {
              "internalType": "uint256",
              "name": "classification",
              "type": "uint256"
            },
            {
              "internalType": "uint256",
              "name": "quantifier",
              "type": "uint256"
            },
            {
              "internalType": "string",
              "name": "decs",
              "type": "string"
            },
            {
              "internalType": "uint256",
              "name": "sellerId",
              "type": "uint256"
            },
            {
              "internalType": "uint256",
              "name": "categoryId",
              "type": "uint256"
            }
          ],
          "internalType": "struct Products.Product[]",
          "name": "",
          "type": "tuple[]"
        }
      ],
      "payable": false,
      "stateMutability": "nonpayable",
      "type": "function"
    },
    {
      "constant": false,
      "inputs": [
        {
          "internalType": "uint256",
          "name": "category",
          "type": "uint256"
        }
      ],
      "name": "getProductsForCategoryCount",
      "outputs": [
        {
          "internalType": "uint256",
          "name": "count",
          "type": "uint256"
        }
      ],
      "payable": false,
      "stateMutability": "nonpayable",
      "type": "function"
    },
    {
      "constant": false,
      "inputs": [
        {
          "internalType": "uint256",
          "name": "id",
          "type": "uint256"
        }
      ],
      "name": "getProductById",
      "outputs": [
        {
          "components": [
            {
              "internalType": "uint256",
              "name": "id",
              "type": "uint256"
            },
            {
              "internalType": "string",
              "name": "name",
              "type": "string"
            },
            {
              "internalType": "uint256",
              "name": "price_numerator",
              "type": "uint256"
            },
            {
              "internalType": "uint256",
              "name": "price_denominator",
              "type": "uint256"
            },
            {
              "internalType": "uint256",
              "name": "discount_percentage",
              "type": "uint256"
            },
            {
              "internalType": "string",
              "name": "assetUrls",
              "type": "string"
            },
            {
              "internalType": "uint256",
              "name": "classification",
              "type": "uint256"
            },
            {
              "internalType": "uint256",
              "name": "quantifier",
              "type": "uint256"
            },
            {
              "internalType": "string",
              "name": "decs",
              "type": "string"
            },
            {
              "internalType": "uint256",
              "name": "sellerId",
              "type": "uint256"
            },
            {
              "internalType": "uint256",
              "name": "categoryId",
              "type": "uint256"
            }
          ],
          "internalType": "struct Products.Product",
          "name": "",
          "type": "tuple"
        }
      ],
      "payable": false,
      "stateMutability": "nonpayable",
      "type": "function"
    },
    {
      "constant": false,
      "inputs": [
        {
          "internalType": "uint256",
          "name": "sellerId",
          "type": "uint256"
        }
      ],
      "name": "getSellerProductsCount",
      "outputs": [
        {
          "internalType": "uint256",
          "name": "count",
          "type": "uint256"
        }
      ],
      "payable": false,
      "stateMutability": "nonpayable",
      "type": "function"
    },
    {
      "constant": false,
      "inputs": [
        {
          "internalType": "uint256",
          "name": "sellerId",
          "type": "uint256"
        },
        {
          "internalType": "uint256",
          "name": "totalProducts",
          "type": "uint256"
        }
      ],
      "name": "getSellerProducts",
      "outputs": [
        {
          "components": [
            {
              "internalType": "uint256",
              "name": "id",
              "type": "uint256"
            },
            {
              "internalType": "string",
              "name": "name",
              "type": "string"
            },
            {
              "internalType": "uint256",
              "name": "price_numerator",
              "type": "uint256"
            },
            {
              "internalType": "uint256",
              "name": "price_denominator",
              "type": "uint256"
            },
            {
              "internalType": "uint256",
              "name": "discount_percentage",
              "type": "uint256"
            },
            {
              "internalType": "string",
              "name": "assetUrls",
              "type": "string"
            },
            {
              "internalType": "uint256",
              "name": "classification",
              "type": "uint256"
            },
            {
              "internalType": "uint256",
              "name": "quantifier",
              "type": "uint256"
            },
            {
              "internalType": "string",
              "name": "decs",
              "type": "string"
            },
            {
              "internalType": "uint256",
              "name": "sellerId",
              "type": "uint256"
            },
            {
              "internalType": "uint256",
              "name": "categoryId",
              "type": "uint256"
            }
          ],
          "internalType": "struct Products.Product[]",
          "name": "",
          "type": "tuple[]"
        }
      ],
      "payable": false,
      "stateMutability": "nonpayable",
      "type": "function"
    },
    {
      "constant": false,
      "inputs": [
        {
          "internalType": "string",
          "name": "what",
          "type": "string"
        },
        {
          "internalType": "string",
          "name": "where",
          "type": "string"
        }
      ],
      "name": "contains",
      "outputs": [
        {
          "internalType": "bool",
          "name": "",
          "type": "bool"
        }
      ],
      "payable": false,
      "stateMutability": "nonpayable",
      "type": "function"
    },
    {
      "constant": false,
      "inputs": [
        {
          "internalType": "string",
          "name": "query",
          "type": "string"
        }
      ],
      "name": "getQueryProductsCount",
      "outputs": [
        {
          "internalType": "uint256",
          "name": "count",
          "type": "uint256"
        }
      ],
      "payable": false,
      "stateMutability": "nonpayable",
      "type": "function"
    },
    {
      "constant": false,
      "inputs": [
        {
          "internalType": "string",
          "name": "query",
          "type": "string"
        },
        {
          "internalType": "uint256",
          "name": "totalProducts",
          "type": "uint256"
        }
      ],
      "name": "getQueryProducts",
      "outputs": [
        {
          "components": [
            {
              "internalType": "uint256",
              "name": "id",
              "type": "uint256"
            },
            {
              "internalType": "string",
              "name": "name",
              "type": "string"
            },
            {
              "internalType": "uint256",
              "name": "price_numerator",
              "type": "uint256"
            },
            {
              "internalType": "uint256",
              "name": "price_denominator",
              "type": "uint256"
            },
            {
              "internalType": "uint256",
              "name": "discount_percentage",
              "type": "uint256"
            },
            {
              "internalType": "string",
              "name": "assetUrls",
              "type": "string"
            },
            {
              "internalType": "uint256",
              "name": "classification",
              "type": "uint256"
            },
            {
              "internalType": "uint256",
              "name": "quantifier",
              "type": "uint256"
            },
            {
              "internalType": "string",
              "name": "decs",
              "type": "string"
            },
            {
              "internalType": "uint256",
              "name": "sellerId",
              "type": "uint256"
            },
            {
              "internalType": "uint256",
              "name": "categoryId",
              "type": "uint256"
            }
          ],
          "internalType": "struct Products.Product[]",
          "name": "",
          "type": "tuple[]"
        }
      ],
      "payable": false,
      "stateMutability": "nonpayable",
      "type": "function"
    },
    {
      "constant": false,
      "inputs": [
        {
          "internalType": "uint256",
          "name": "_product_id",
          "type": "uint256"
        },
        {
          "internalType": "uint256",
          "name": "_discount_percentage",
          "type": "uint256"
        }
      ],
      "name": "setSale",
      "outputs": [],
      "payable": false,
      "stateMutability": "nonpayable",
      "type": "function"
    },
    {
      "constant": false,
      "inputs": [
        {
          "internalType": "uint256",
          "name": "productId",
          "type": "uint256"
        }
      ],
      "name": "removeProduct",
      "outputs": [],
      "payable": false,
      "stateMutability": "nonpayable",
      "type": "function"
    }
  ],
  "bytecode": "0x60806040526000805560006001553480156200001a57600080fd5b50604051806101600160405280600081526020016040518060400160405280600b81526020017f446f6d61c48769206d65640000000000000000000000000000000000000000008152508152602001603281526020016003815260200160008152602001604051806080016040528060438152602001620033aa604391398152602001600181526020016102ee81526020016040518060a0016040528060618152602001620033ed606191398152602001603581526020016009815250600260008081526020019081526020016000206000820151816000015560208201518160010190805190602001906200011292919062000ac4565b5060408201518160020155606082015181600301556080820151816004015560a08201518160050190805190602001906200014f92919062000ac4565b5060c0820151816006015560e082015181600701556101008201518160080190805190602001906200018392919062000ac4565b50610120820151816009015561014082015181600a0155905050604051806101600160405280600181526020016040518060400160405280601181526020017f5061736972616e69207061726164616a7a0000000000000000000000000000008152508152602001602b815260200160038152602001601481526020016040518060800160405280604381526020016200344e604391398152602001600181526020016101f481526020016040518060a0016040528060618152602001620033ed60619139815260200160358152602001600381525060026000600181526020019081526020016000206000820151816000015560208201518160010190805190602001906200029592919062000ac4565b5060408201518160020155606082015181600301556080820151816004015560a0820151816005019080519060200190620002d292919062000ac4565b5060c0820151816006015560e082015181600701556101008201518160080190805190602001906200030692919062000ac4565b50610120820151816009015561014082015181600a0155905050604051806101600160405280600281526020016040518060400160405280600e81526020017f4d61736c696e6f766f20756c6a650000000000000000000000000000000000008152508152602001604d8152602001600381526020016000815260200160405180608001604052806043815260200162003324604391398152602001600181526020016102ee81526020016040518060a0016040528060618152602001620033ed60619139815260200160358152602001600981525060026000600281526020019081526020016000206000820151816000015560208201518160010190805190602001906200041892919062000ac4565b5060408201518160020155606082015181600301556080820151816004015560a08201518160050190805190602001906200045592919062000ac4565b5060c0820151816006015560e082015181600701556101008201518160080190805190602001906200048992919062000ac4565b50610120820151816009015561014082015181600a0155905050604051806101600160405280600381526020016040518060400160405280600681526020017f5072c5a1757400000000000000000000000000000000000000000000000000008152508152602001609a81526020016003815260200160008152602001604051806080016040528060438152602001620034d46043913981526020016001815260200160ea81526020016040518060a0016040528060618152602001620033ed60619139815260200160358152602001600181525060026000600381526020019081526020016000206000820151816000015560208201518160010190805190602001906200059a92919062000ac4565b5060408201518160020155606082015181600301556080820151816004015560a0820151816005019080519060200190620005d792919062000ac4565b5060c0820151816006015560e082015181600701556101008201518160080190805190602001906200060b92919062000ac4565b50610120820151816009015561014082015181600a0155905050604051806101600160405280600481526020016040518060400160405280600681526020017f52616b696a6100000000000000000000000000000000000000000000000000008152508152602001606281526020016003815260200160008152602001604051806080016040528060438152602001620032e1604391398152602001600281526020016103e881526020016040518060a0016040528060618152602001620033ed60619139815260200160358152602001600581525060026000600481526020019081526020016000206000820151816000015560208201518160010190805190602001906200071d92919062000ac4565b5060408201518160020155606082015181600301556080820151816004015560a08201518160050190805190602001906200075a92919062000ac4565b5060c0820151816006015560e082015181600701556101008201518160080190805190602001906200078e92919062000ac4565b50610120820151816009015561014082015181600a0155905050604051806101600160405280600581526020016040518060400160405280600881526020017f4b6f6261736963610000000000000000000000000000000000000000000000008152508152602001604a8152602001600381526020016000815260200160405180608001604052806043815260200162003367604391398152602001600181526020016103e881526020016040518060a0016040528060618152602001620033ed6061913981526020016035815260200160018152506002600060058152602001908152602001600020600082015181600001556020820151816001019080519060200190620008a092919062000ac4565b5060408201518160020155606082015181600301556080820151816004015560a0820151816005019080519060200190620008dd92919062000ac4565b5060c0820151816006015560e082015181600701556101008201518160080190805190602001906200091192919062000ac4565b50610120820151816009015561014082015181600a0155905050604051806101600160405280600681526020016040518060400160405280600881526020017f4b616d616d626572000000000000000000000000000000000000000000000000815250815260200160368152602001600381526020016000815260200160405180608001604052806043815260200162003491604391398152602001600181526020016101f481526020016040518060a0016040528060618152602001620033ed606191398152602001603581526020016002815250600260006006815260200190815260200160002060008201518160000155602082015181600101908051906020019062000a2392919062000ac4565b5060408201518160020155606082015181600301556080820151816004015560a082015181600501908051906020019062000a6092919062000ac4565b5060c0820151816006015560e0820151816007015561010082015181600801908051906020019062000a9492919062000ac4565b50610120820151816009015561014082015181600a01559050506007600081905550600760018190555062000b73565b828054600181600116156101000203166002900490600052602060002090601f016020900481019282601f1062000b0757805160ff191683800117855562000b38565b8280016001018555821562000b38579182015b8281111562000b3757825182559160200191906001019062000b1a565b5b50905062000b47919062000b4b565b5090565b62000b7091905b8082111562000b6c57600081600090555060010162000b52565b5090565b90565b61275e8062000b836000396000f3fe608060405234801561001057600080fd5b50600436106100e95760003560e01c80639f53b32e1161008c578063e0df7bb611610066578063e0df7bb6146102b0578063e6e46238146102ce578063f901a18f146102ec578063faa5953f14610308576100e9565b80639f53b32e14610234578063a0ea351114610250578063ac8a54b114610280576100e9565b80633fb18aec116100c85780633fb18aec1461017e5780635ee95cae146101ae578063623e610a146101ca5780637acc0b20146101fa576100e9565b806230d99f146100ee5780632dc810ab1461011e5780633f70c2b41461014e575b600080fd5b61010860048036036101039190810190611f30565b610338565b6040516101159190612467565b60405180910390f35b610138600480360361013391908101906120d0565b610798565b6040516101459190612467565b60405180910390f35b610168600480360361016391908101906120a7565b610b49565b60405161017591906124d4565b60405180910390f35b61019860048036036101939190810190611ec4565b610dfa565b6040516101a59190612489565b60405180910390f35b6101c860048036036101c391908101906120a7565b610f0f565b005b6101e460048036036101df9190810190611e83565b61111a565b6040516101f191906124f6565b60405180910390f35b610214600480360361020f91908101906120a7565b61121e565b60405161022b9b9a99989796959493929190612511565b60405180910390f35b61024e60048036036102499190810190611f84565b611440565b005b61026a600480360361026591908101906120d0565b6115c3565b6040516102779190612467565b60405180910390f35b61029a600480360361029591908101906120a7565b611974565b6040516102a791906124f6565b60405180910390f35b6102b86119c9565b6040516102c591906124f6565b60405180910390f35b6102d66119cf565b6040516102e391906124f6565b60405180910390f35b610306600480360361030191908101906120d0565b6119d5565b005b610322600480360361031d91908101906120a7565b611a35565b60405161032f91906124f6565b60405180910390f35b6060600080905060608360405190808252806020026020018201604052801561037b57816020015b610368611bf2565b8152602001906001900390816103605790505b50905060008090505b60005481101561078c5761045661039a87611a8a565b610451600260008581526020019081526020016000206001018054600181600116156101000203166002900480601f0160208091040260200160405190810160405280929190818152602001828054600181600116156101000203166002900480156104475780601f1061041c57610100808354040283529160200191610447565b820191906000526020600020905b81548152906001019060200180831161042a57829003601f168201915b5050505050611a8a565b610dfa565b1561077f5760405180610160016040528060026000848152602001908152602001600020600001548152602001600260008481526020019081526020016000206001018054600181600116156101000203166002900480601f01602080910402602001604051908101604052809291908181526020018280546001816001161561010002031660029004801561052d5780601f106105025761010080835404028352916020019161052d565b820191906000526020600020905b81548152906001019060200180831161051057829003601f168201915b50505050508152602001600260008481526020019081526020016000206002015481526020016002600084815260200190815260200160002060030154815260200160026000848152602001908152602001600020600401548152602001600260008481526020019081526020016000206005018054600181600116156101000203166002900480601f0160208091040260200160405190810160405280929190818152602001828054600181600116156101000203166002900480156106355780601f1061060a57610100808354040283529160200191610635565b820191906000526020600020905b81548152906001019060200180831161061857829003601f168201915b505050505081526020016002600084815260200190815260200160002060060154815260200160026000848152602001908152602001600020600701548152602001600260008481526020019081526020016000206008018054600181600116156101000203166002900480601f0160208091040260200160405190810160405280929190818152602001828054600181600116156101000203166002900480156107215780601f106106f657610100808354040283529160200191610721565b820191906000526020600020905b81548152906001019060200180831161070457829003601f168201915b505050505081526020016002600084815260200190815260200160002060090154815260200160026000848152602001908152602001600020600a015481525082848060010195508151811061077357fe5b60200260200101819052505b8080600101915050610384565b50809250505092915050565b606060008090506060836040519080825280602002602001820160405280156107db57816020015b6107c8611bf2565b8152602001906001900390816107c05790505b50905060008090505b600054811015610b3d578560026000838152602001908152602001600020600a01541415610b305760405180610160016040528060026000848152602001908152602001600020600001548152602001600260008481526020019081526020016000206001018054600181600116156101000203166002900480601f0160208091040260200160405190810160405280929190818152602001828054600181600116156101000203166002900480156108de5780601f106108b3576101008083540402835291602001916108de565b820191906000526020600020905b8154815290600101906020018083116108c157829003601f168201915b50505050508152602001600260008481526020019081526020016000206002015481526020016002600084815260200190815260200160002060030154815260200160026000848152602001908152602001600020600401548152602001600260008481526020019081526020016000206005018054600181600116156101000203166002900480601f0160208091040260200160405190810160405280929190818152602001828054600181600116156101000203166002900480156109e65780601f106109bb576101008083540402835291602001916109e6565b820191906000526020600020905b8154815290600101906020018083116109c957829003601f168201915b505050505081526020016002600084815260200190815260200160002060060154815260200160026000848152602001908152602001600020600701548152602001600260008481526020019081526020016000206008018054600181600116156101000203166002900480601f016020809104026020016040519081016040528092919081815260200182805460018160011615610100020316600290048015610ad25780601f10610aa757610100808354040283529160200191610ad2565b820191906000526020600020905b815481529060010190602001808311610ab557829003601f168201915b505050505081526020016002600084815260200190815260200160002060090154815260200160026000848152602001908152602001600020600a0154815250828480600101955081518110610b2457fe5b60200260200101819052505b80806001019150506107e4565b50809250505092915050565b610b51611c4c565b610b59611c4c565b60008090505b600054811015610df0578360026000838152602001908152602001600020600001541415610de357600260008281526020019081526020016000206040518061016001604052908160008201548152602001600182018054600181600116156101000203166002900480601f016020809104026020016040519081016040528092919081815260200182805460018160011615610100020316600290048015610c495780601f10610c1e57610100808354040283529160200191610c49565b820191906000526020600020905b815481529060010190602001808311610c2c57829003601f168201915b50505050508152602001600282015481526020016003820154815260200160048201548152602001600582018054600181600116156101000203166002900480601f016020809104026020016040519081016040528092919081815260200182805460018160011615610100020316600290048015610d095780601f10610cde57610100808354040283529160200191610d09565b820191906000526020600020905b815481529060010190602001808311610cec57829003601f168201915b505050505081526020016006820154815260200160078201548152602001600882018054600181600116156101000203166002900480601f016020809104026020016040519081016040528092919081815260200182805460018160011615610100020316600290048015610dbf5780601f10610d9457610100808354040283529160200191610dbf565b820191906000526020600020905b815481529060010190602001808311610da257829003601f168201915b5050505050815260200160098201548152602001600a820154815250509150610df0565b8080600101915050610b5f565b5080915050919050565b600060608390506060839050808051906020012082805190602001201415610e2757600192505050610f09565b600080905060008090505b8351835103811015610f015760006001905060008090505b8551811015610ee257858181518110610e5f57fe5b602001015160f81c60f81b7effffffffffffffffffffffffffffffffffffffffffffffffffffffffffffff19168582850181518110610e9a57fe5b602001015160f81c60f81b7effffffffffffffffffffffffffffffffffffffffffffffffffffffffffffff191614610ed55760009150610ee2565b8080600101915050610e4a565b508015610ef3576001925050610f01565b508080600101915050610e32565b508093505050505b92915050565b60008054905060008090505b600054811015610f58578260026000838152602001908152602001600020600001541415610f4b57809150610f58565b8080600101915050610f1b565b506000548110156111165760008190505b6001600054038110156110775760026000600183018152602001908152602001600020600260008381526020019081526020016000206000820154816000015560018201816001019080546001816001161561010002031660029004610fd0929190611ca6565b5060028201548160020155600382015481600301556004820154816004015560058201816005019080546001816001161561010002031660029004611016929190611ca6565b50600682015481600601556007820154816007015560088201816008019080546001816001161561010002031660029004611052929190611ca6565b5060098201548160090155600a82015481600a01559050508080600101915050610f69565b506002600060016000540381526020019081526020016000206000808201600090556001820160006110a99190611d2d565b6002820160009055600382016000905560048201600090556005820160006110d19190611d2d565b600682016000905560078201600090556008820160006110f19190611d2d565b6009820160009055600a82016000905550506000808154809291906001900391905055505b5050565b6000806000905060008090505b600054811015611214576111f961113d85611a8a565b6111f4600260008581526020019081526020016000206001018054600181600116156101000203166002900480601f0160208091040260200160405190810160405280929190818152602001828054600181600116156101000203166002900480156111ea5780601f106111bf576101008083540402835291602001916111ea565b820191906000526020600020905b8154815290600101906020018083116111cd57829003601f168201915b5050505050611a8a565b610dfa565b156112075781806001019250505b8080600101915050611127565b5080915050919050565b6002602052806000526040600020600091509050806000015490806001018054600181600116156101000203166002900480601f0160208091040260200160405190810160405280929190818152602001828054600181600116156101000203166002900480156112d05780601f106112a5576101008083540402835291602001916112d0565b820191906000526020600020905b8154815290600101906020018083116112b357829003601f168201915b505050505090806002015490806003015490806004015490806005018054600181600116156101000203166002900480601f0160208091040260200160405190810160405280929190818152602001828054600181600116156101000203166002900480156113805780601f1061135557610100808354040283529160200191611380565b820191906000526020600020905b81548152906001019060200180831161136357829003601f168201915b505050505090806006015490806007015490806008018054600181600116156101000203166002900480601f01602080910402602001604051908101604052809291908181526020018280546001816001161561010002031660029004801561142a5780601f106113ff5761010080835404028352916020019161142a565b820191906000526020600020905b81548152906001019060200180831161140d57829003601f168201915b50505050509080600901549080600a015490508b565b600285111561144e57600094505b604051806101600160405280600160008154809291906001019190505581526020018b81526020018a815260200189815260200188815260200187815260200186815260200185815260200184815260200183815260200182815250600260008060008154809291906001019190505581526020019081526020016000206000820151816000015560208201518160010190805190602001906114f2929190611d75565b5060408201518160020155606082015181600301556080820151816004015560a082015181600501908051906020019061152d929190611d75565b5060c0820151816006015560e0820151816007015561010082015181600801908051906020019061155f929190611d75565b50610120820151816009015561014082015181600a01559050507fb040efd5b9ac3e016c34e7ba218414cec2f62f7405435784f124cf44a21dc1378a6001600054036040516115af9291906124a4565b60405180910390a150505050505050505050565b6060600080905060608360405190808252806020026020018201604052801561160657816020015b6115f3611bf2565b8152602001906001900390816115eb5790505b50905060008090505b60005481101561196857856002600083815260200190815260200160002060090154141561195b5760405180610160016040528060026000848152602001908152602001600020600001548152602001600260008481526020019081526020016000206001018054600181600116156101000203166002900480601f0160208091040260200160405190810160405280929190818152602001828054600181600116156101000203166002900480156117095780601f106116de57610100808354040283529160200191611709565b820191906000526020600020905b8154815290600101906020018083116116ec57829003601f168201915b50505050508152602001600260008481526020019081526020016000206002015481526020016002600084815260200190815260200160002060030154815260200160026000848152602001908152602001600020600401548152602001600260008481526020019081526020016000206005018054600181600116156101000203166002900480601f0160208091040260200160405190810160405280929190818152602001828054600181600116156101000203166002900480156118115780601f106117e657610100808354040283529160200191611811565b820191906000526020600020905b8154815290600101906020018083116117f457829003601f168201915b505050505081526020016002600084815260200190815260200160002060060154815260200160026000848152602001908152602001600020600701548152602001600260008481526020019081526020016000206008018054600181600116156101000203166002900480601f0160208091040260200160405190810160405280929190818152602001828054600181600116156101000203166002900480156118fd5780601f106118d2576101008083540402835291602001916118fd565b820191906000526020600020905b8154815290600101906020018083116118e057829003601f168201915b505050505081526020016002600084815260200190815260200160002060090154815260200160026000848152602001908152602001600020600a015481525082848060010195508151811061194f57fe5b60200260200101819052505b808060010191505061160f565b50809250505092915050565b6000806000905060008090505b6000548110156119bf578360026000838152602001908152602001600020600a015414156119b25781806001019250505b8080600101915050611981565b5080915050919050565b60005481565b60015481565b60008090505b600054811015611a30578260026000838152602001908152602001600020600001541415611a2357816002600083815260200190815260200160002060040181905550611a30565b80806001019150506119db565b505050565b6000806000905060008090505b600054811015611a80578360026000838152602001908152602001600020600901541415611a735781806001019250505b8080600101915050611a42565b5080915050919050565b606080829050606081516040519080825280601f01601f191660200182016040528015611ac65781602001600182028038833980820191505090505b50905060008090505b8251811015611be7576041838281518110611ae657fe5b602001015160f81c60f81b60f81c60ff1610158015611b225750605a838281518110611b0e57fe5b602001015160f81c60f81b60f81c60ff1611155b15611b87576020838281518110611b3557fe5b602001015160f81c60f81b60f81c0160f81b828281518110611b5357fe5b60200101907effffffffffffffffffffffffffffffffffffffffffffffffffffffffffffff1916908160001a905350611bda565b828181518110611b9357fe5b602001015160f81c60f81b828281518110611baa57fe5b60200101907effffffffffffffffffffffffffffffffffffffffffffffffffffffffffffff1916908160001a9053505b8080600101915050611acf565b508092505050919050565b60405180610160016040528060008152602001606081526020016000815260200160008152602001600081526020016060815260200160008152602001600081526020016060815260200160008152602001600081525090565b60405180610160016040528060008152602001606081526020016000815260200160008152602001600081526020016060815260200160008152602001600081526020016060815260200160008152602001600081525090565b828054600181600116156101000203166002900490600052602060002090601f016020900481019282601f10611cdf5780548555611d1c565b82800160010185558215611d1c57600052602060002091601f016020900482015b82811115611d1b578254825591600101919060010190611d00565b5b509050611d299190611df5565b5090565b50805460018160011615610100020316600290046000825580601f10611d535750611d72565b601f016020900490600052602060002090810190611d719190611df5565b5b50565b828054600181600116156101000203166002900490600052602060002090601f016020900481019282601f10611db657805160ff1916838001178555611de4565b82800160010185558215611de4579182015b82811115611de3578251825591602001919060010190611dc8565b5b509050611df19190611df5565b5090565b611e1791905b80821115611e13576000816000905550600101611dfb565b5090565b90565b600082601f830112611e2b57600080fd5b8135611e3e611e39826125fe565b6125d1565b91508082526020830160208301858383011115611e5a57600080fd5b611e658382846126b1565b50505092915050565b600081359050611e7d81612704565b92915050565b600060208284031215611e9557600080fd5b600082013567ffffffffffffffff811115611eaf57600080fd5b611ebb84828501611e1a565b91505092915050565b60008060408385031215611ed757600080fd5b600083013567ffffffffffffffff811115611ef157600080fd5b611efd85828601611e1a565b925050602083013567ffffffffffffffff811115611f1a57600080fd5b611f2685828601611e1a565b9150509250929050565b60008060408385031215611f4357600080fd5b600083013567ffffffffffffffff811115611f5d57600080fd5b611f6985828601611e1a565b9250506020611f7a85828601611e6e565b9150509250929050565b6000806000806000806000806000806101408b8d031215611fa457600080fd5b60008b013567ffffffffffffffff811115611fbe57600080fd5b611fca8d828e01611e1a565b9a50506020611fdb8d828e01611e6e565b9950506040611fec8d828e01611e6e565b9850506060611ffd8d828e01611e6e565b97505060808b013567ffffffffffffffff81111561201a57600080fd5b6120268d828e01611e1a565b96505060a06120378d828e01611e6e565b95505060c06120488d828e01611e6e565b94505060e08b013567ffffffffffffffff81111561206557600080fd5b6120718d828e01611e1a565b9350506101006120838d828e01611e6e565b9250506101206120958d828e01611e6e565b9150509295989b9194979a5092959850565b6000602082840312156120b957600080fd5b60006120c784828501611e6e565b91505092915050565b600080604083850312156120e357600080fd5b60006120f185828601611e6e565b925050602061210285828601611e6e565b9150509250929050565b6000612118838361234c565b905092915050565b600061212b8261263a565b6121358185612668565b9350836020820285016121478561262a565b8060005b858110156121835784840389528151612164858261210c565b945061216f8361265b565b925060208a0199505060018101905061214b565b50829750879550505050505092915050565b61219e8161269b565b82525050565b60006121af82612650565b6121b9818561268a565b93506121c98185602086016126c0565b6121d2816126f3565b840191505092915050565b60006121e882612645565b6121f28185612679565b93506122028185602086016126c0565b61220b816126f3565b840191505092915050565b600061222182612645565b61222b818561268a565b935061223b8185602086016126c0565b612244816126f3565b840191505092915050565b6000610160830160008301516122686000860182612449565b506020830151848203602086015261228082826121dd565b91505060408301516122956040860182612449565b5060608301516122a86060860182612449565b5060808301516122bb6080860182612449565b5060a083015184820360a08601526122d382826121dd565b91505060c08301516122e860c0860182612449565b5060e08301516122fb60e0860182612449565b5061010083015184820361010086015261231582826121dd565b91505061012083015161232c610120860182612449565b50610140830151612341610140860182612449565b508091505092915050565b6000610160830160008301516123656000860182612449565b506020830151848203602086015261237d82826121dd565b91505060408301516123926040860182612449565b5060608301516123a56060860182612449565b5060808301516123b86080860182612449565b5060a083015184820360a08601526123d082826121dd565b91505060c08301516123e560c0860182612449565b5060e08301516123f860e0860182612449565b5061010083015184820361010086015261241282826121dd565b915050610120830151612429610120860182612449565b5061014083015161243e610140860182612449565b508091505092915050565b612452816126a7565b82525050565b612461816126a7565b82525050565b600060208201905081810360008301526124818184612120565b905092915050565b600060208201905061249e6000830184612195565b92915050565b600060408201905081810360008301526124be81856121a4565b90506124cd6020830184612458565b9392505050565b600060208201905081810360008301526124ee818461224f565b905092915050565b600060208201905061250b6000830184612458565b92915050565b600061016082019050612527600083018e612458565b8181036020830152612539818d612216565b9050612548604083018c612458565b612555606083018b612458565b612562608083018a612458565b81810360a08301526125748189612216565b905061258360c0830188612458565b61259060e0830187612458565b8181036101008301526125a38186612216565b90506125b3610120830185612458565b6125c1610140830184612458565b9c9b505050505050505050505050565b6000604051905081810181811067ffffffffffffffff821117156125f457600080fd5b8060405250919050565b600067ffffffffffffffff82111561261557600080fd5b601f19601f8301169050602081019050919050565b6000819050602082019050919050565b600081519050919050565b600081519050919050565b600081519050919050565b6000602082019050919050565b600082825260208201905092915050565b600082825260208201905092915050565b600082825260208201905092915050565b60008115159050919050565b6000819050919050565b82818337600083830152505050565b60005b838110156126de5780820151818401526020810190506126c3565b838111156126ed576000848401525b50505050565b6000601f19601f8301169050919050565b61270d816126a7565b811461271857600080fd5b5056fea365627a7a72315820493d3d47e26d867a2da27544edf1a4424dc34de9108a3ff16763291be12e08bb6c6578706572696d656e74616cf564736f6c6343000510004068747470733a2f2f697066732e696f2f697066732f516d623174565142586e516565615164536f4d486a545242576e477577476e7357714a6739374c64766b6b467a5368747470733a2f2f697066732e696f2f697066732f516d52735a59626f4568535943475a4342694552764b436645454245425778596d3646554e4867326f72794b5a6b68747470733a2f2f697066732e696f2f697066732f516d527843696a74556f4d4744503776646666317237344459506868476864656d746b6874355233397047787a4368747470733a2f2f697066732e696f2f697066732f516d5642333861624454566a3546553147546257366b3251684442384648785971684248774654726978373842775365642075742070657273706963696174697320756e6465206f6d6e69732069737465206e61747573206572726f722073697420766f6c7570746174656d206163637573616e7469756d20646f6c6f72656d717565206c617564616e7469756d2e68747470733a2f2f697066732e696f2f697066732f516d534757684d64554b39595864665a425036674b516f7a5878714265346d63645375687573506256795a54437868747470733a2f2f697066732e696f2f697066732f516d575772706251675542364c6464433455645a466743364a504a63763532536f743766414a6a7673716358674568747470733a2f2f697066732e696f2f697066732f516d586431567766454a57656131544c363271396274696b4c797063774366375654423436484c59783745737551",
  "source": "pragma solidity >=0.4.22 <0.9.0;\npragma experimental ABIEncoderV2;\ncontract Products{\n    uint public productsCount = 0;\n    uint public idCount = 0;\n\n    struct Product{\n        uint id;\n        string name;\n        uint price_numerator;\n        uint price_denominator;\n        uint discount_percentage;\n        string assetUrls;\n        uint classification;\n        uint quantifier;\n        string decs;\n        uint sellerId;\n        uint categoryId;\n\n    }\n\n    mapping (uint => Product) public products;\n\n    event ProductCreated(string name, uint ProductNumber);\n\n    constructor() public{\n\n        products[0] = Product(0, \"Domai med\", 50, 3, 0, \"https://ipfs.io/ipfs/QmVB38abDTVj5FU1GTbW6k2QhDB8FHxYqhBHwFTrix78Bw\", 1, 750,\n            \"Sed ut perspiciatis unde omnis iste natus error sit voluptatem accusantium doloremque laudantium.\", 53,9);\n        products[1] = Product(1, \"Pasirani paradajz\", 43, 3, 20, \"https://ipfs.io/ipfs/QmSGWhMdUK9YXdfZBP6gKQozXxqBe4mcdSuhusPbVyZTCx\", 1, 500,\n            \"Sed ut perspiciatis unde omnis iste natus error sit voluptatem accusantium doloremque laudantium.\", 53,3);\n        products[2] = Product(2, \"Maslinovo ulje\", 77, 3, 0, \"https://ipfs.io/ipfs/QmRsZYboEhSYCGZCBiERvKCfEEBEBWxYm6FUNHg2oryKZk\", 1, 750,\n            \"Sed ut perspiciatis unde omnis iste natus error sit voluptatem accusantium doloremque laudantium.\", 53,9);\n        products[3] = Product(3, \"Prut\", 154, 3, 0, \"https://ipfs.io/ipfs/QmXd1VwfEJWea1TL62q9btikLypcwCf7VTB46HLYx7EsuQ\", 1, 234,\n            \"Sed ut perspiciatis unde omnis iste natus error sit voluptatem accusantium doloremque laudantium.\", 53,1);\n        products[4] = Product(4, \"Rakija\", 98, 3, 0, \"https://ipfs.io/ipfs/Qmb1tVQBXnQeeaQdSoMHjTRBWnGuwGnsWqJg97LdvkkFzS\", 2, 1000,\n            \"Sed ut perspiciatis unde omnis iste natus error sit voluptatem accusantium doloremque laudantium.\", 53,5);\n        products[5] = Product(5, \"Kobasica\", 74, 3, 0, \"https://ipfs.io/ipfs/QmRxCijtUoMGDP7vdff1r74DYPhhGhdemtkht5R39pGxzC\", 1, 1000,\n            \"Sed ut perspiciatis unde omnis iste natus error sit voluptatem accusantium doloremque laudantium.\", 53,1);\n        products[6] = Product(6, \"Kamamber\", 54, 3, 0, \"https://ipfs.io/ipfs/QmWWrpbQgUB6LddC4UdZFgC6JPJcv52Sot7fAJjvsqcXgE\", 1, 500,\n            \"Sed ut perspiciatis unde omnis iste natus error sit voluptatem accusantium doloremque laudantium.\", 53,2);\n        productsCount = 7;\n        idCount = 7;\n    }\n\n    function createProduct(string memory _productName, uint _price_nominator, uint _price_denominator, uint _discount_percentage, string memory _assetUrls, uint _classif, uint _quantifier, string memory _desc, uint _sellerId, uint _categoryId) public{\n\n        if (_classif > 2)\n            _classif = 0;\n        products[productsCount++] = Product(idCount++, _productName, _price_nominator, _price_denominator, _discount_percentage, _assetUrls, _classif, _quantifier, _desc, _sellerId, _categoryId);\n        emit ProductCreated(_productName, productsCount - 1);\n\n    }\n    function getProductsForCategory(uint category, uint totalProducts) public returns (Product[] memory){\n        uint count = 0;\n        Product[] memory y = new Product[](totalProducts);\n        for (uint i= 0; i < productsCount; i++) {\n            if (products[i].categoryId == category){\n                y[count++] = Product(products[i].id,\n                    products[i].name,\n                    products[i].price_numerator,\n                    products[i].price_denominator,\n                    products[i].discount_percentage,\n                    products[i].assetUrls,\n                    products[i].classification,\n                    products[i].quantifier,\n                    products[i].decs,\n                    products[i].sellerId,\n                    products[i].categoryId);\n            }\n        }\n        return y;\n    }\n    function getProductsForCategoryCount(uint category) public returns (uint count){\n        uint productsForCategoryCount = 0;\n        for (uint i= 0; i < productsCount; i++) {\n            if (products[i].categoryId == category){\n                productsForCategoryCount++;\n            }\n        }\n        return productsForCategoryCount;\n    }\n\n    function getProductById(uint id) public returns (Product memory){\n        Product memory product;\n        for (uint i= 0; i < productsCount; i++) {\n            if (products[i].id == id){\n                product = products[i];\n                break;\n            }\n        }\n        return product;\n    }\n\n\n    function getSellerProductsCount(uint sellerId) public returns (uint count){\n        uint sellerProductsCount = 0;\n        for (uint i= 0; i < productsCount; i++) {\n            if (products[i].sellerId == sellerId){\n                sellerProductsCount++;\n            }\n        }\n        return sellerProductsCount;\n    }\n    function getSellerProducts(uint sellerId, uint totalProducts) public returns (Product[] memory){\n        uint count = 0;\n        Product[] memory y = new Product[](totalProducts);\n        for (uint i= 0; i < productsCount; i++) {\n            if (products[i].sellerId == sellerId){\n                y[count++] = Product(products[i].id,\n                    products[i].name,\n                    products[i].price_numerator,\n                    products[i].price_denominator,\n                    products[i].discount_percentage,\n                    products[i].assetUrls,\n                    products[i].classification,\n                    products[i].quantifier,\n                    products[i].decs,\n                    products[i].sellerId,\n                    products[i].categoryId);\n            }\n        }\n        return y;\n    }\n    function contains (string memory what, string memory where) public returns (bool) {\n        bytes memory whatBytes = bytes (what);\n        bytes memory whereBytes = bytes (where);\n        if (keccak256(whatBytes) == keccak256(whereBytes))\n            return true;\n        bool found = false;\n        for (uint i = 0; i < whereBytes.length - whatBytes.length; i++) {\n            bool flag = true;\n            for (uint j = 0; j < whatBytes.length; j++)\n                if (whereBytes [i + j] != whatBytes [j]) {\n                    flag = false;\n                    break;\n                }\n            if (flag) {\n                found = true;\n                break;\n            }\n        }\n        return found;\n\n    }\n    function getQueryProductsCount(string memory query) public returns (uint count){\n        uint productsQueryCount = 0;\n        for (uint i= 0; i < productsCount; i++) {\n            if (contains(_toLower(query), _toLower(products[i].name))){\n                productsQueryCount++;\n            }\n        }\n        return productsQueryCount;\n    }\n    function getQueryProducts(string memory query, uint totalProducts) public returns (Product[] memory){\n        uint count = 0;\n        Product[] memory y = new Product[](totalProducts);\n        for (uint i= 0; i < productsCount; i++) {\n            if (contains(_toLower(query), _toLower(products[i].name))){\n                y[count++] = Product(products[i].id,\n                    products[i].name,\n                    products[i].price_numerator,\n                    products[i].price_denominator,\n                    products[i].discount_percentage,\n                    products[i].assetUrls,\n                    products[i].classification,\n                    products[i].quantifier,\n                    products[i].decs,\n                    products[i].sellerId,\n                    products[i].categoryId);\n            }\n        }\n        return y;\n    }\n    function _toLower(string memory str) internal returns (string memory) {\n        bytes memory bStr = bytes(str);\n        bytes memory bLower = new bytes(bStr.length);\n        for (uint i = 0; i < bStr.length; i++) {\n            // Uppercase character...\n            if ((uint8(bStr[i]) >= 65) && (uint8(bStr[i]) <= 90)) {\n                bLower[i] = bytes1(uint8(bStr[i]) + 32);\n            } else {\n                bLower[i] = bStr[i];\n            }\n        }\n        return string(bLower);\n    }\n    function setSale(uint _product_id, uint _discount_percentage) public{\n        for (uint i= 0; i < productsCount; i++) {\n            if (products[i].id == _product_id){\n                products[i].discount_percentage = _discount_percentage;\n                break;\n            }\n        }\n    }\n    function removeProduct(uint productId) public {\n        uint index = productsCount;\n        for (uint i= 0; i < productsCount; i++) {\n            if (products[i].id == productId){\n                index = i;\n                break;\n            }\n        }\n        if (index < productsCount){\n            for (uint i = index; i<productsCount - 1; i++){\n                products[i] = products[i+1];\n            }\n            delete products[productsCount-1];\n            productsCount--;\n        }\n    }\n}",
  "sourcePath": "/home/jovan/Catalyst/src/frontend_mobile/contracts/Products.sol",
  "compiler": {
    "name": "solc",
    "version": "0.5.16+commit.9c3226ce.Emscripten.clang"
  },
  "schemaVersion": "3.3.4",
  "updatedAt": "2021-05-26T08:48:22.457Z",
  "networkType": "ethereum",
  "devdoc": {
    "methods": {}
  },
  "userdoc": {
    "methods": {}
  }
}