{
  "contractName": "Products",
  "abi": [
    {
      "inputs": [],
      "payable": false,
      "stateMutability": "nonpayable",
      "type": "constructor"
    },
    {
      "anonymous": false,
      "inputs": [
        {
          "indexed": false,
          "internalType": "string",
          "name": "name",
          "type": "string"
        },
        {
          "indexed": false,
          "internalType": "uint256",
          "name": "ProductNumber",
          "type": "uint256"
        }
      ],
      "name": "ProductCreated",
      "type": "event"
    },
    {
      "constant": true,
      "inputs": [],
      "name": "idCount",
      "outputs": [
        {
          "internalType": "uint256",
          "name": "",
          "type": "uint256"
        }
      ],
      "payable": false,
      "stateMutability": "view",
      "type": "function"
    },
    {
      "constant": true,
      "inputs": [
        {
          "internalType": "uint256",
          "name": "",
          "type": "uint256"
        }
      ],
      "name": "products",
      "outputs": [
        {
          "internalType": "uint256",
          "name": "id",
          "type": "uint256"
        },
        {
          "internalType": "string",
          "name": "name",
          "type": "string"
        },
        {
          "internalType": "uint256",
          "name": "price_numerator",
          "type": "uint256"
        },
        {
          "internalType": "uint256",
          "name": "price_denominator",
          "type": "uint256"
        },
        {
          "internalType": "uint256",
          "name": "discount_percentage",
          "type": "uint256"
        },
        {
          "internalType": "string",
          "name": "assetUrls",
          "type": "string"
        },
        {
          "internalType": "uint256",
          "name": "classification",
          "type": "uint256"
        },
        {
          "internalType": "uint256",
          "name": "quantifier",
          "type": "uint256"
        },
        {
          "internalType": "string",
          "name": "decs",
          "type": "string"
        },
        {
          "internalType": "uint256",
          "name": "sellerId",
          "type": "uint256"
        },
        {
          "internalType": "uint256",
          "name": "categoryId",
          "type": "uint256"
        },
        {
          "internalType": "uint256",
          "name": "inStock",
          "type": "uint256"
        }
      ],
      "payable": false,
      "stateMutability": "view",
      "type": "function"
    },
    {
      "constant": true,
      "inputs": [],
      "name": "productsCount",
      "outputs": [
        {
          "internalType": "uint256",
          "name": "",
          "type": "uint256"
        }
      ],
      "payable": false,
      "stateMutability": "view",
      "type": "function"
    },
    {
      "constant": false,
      "inputs": [
        {
          "internalType": "string",
          "name": "_productName",
          "type": "string"
        },
        {
          "internalType": "uint256",
          "name": "_price_nominator",
          "type": "uint256"
        },
        {
          "internalType": "uint256",
          "name": "_price_denominator",
          "type": "uint256"
        },
        {
          "internalType": "uint256",
          "name": "_discount_percentage",
          "type": "uint256"
        },
        {
          "internalType": "string",
          "name": "_assetUrls",
          "type": "string"
        },
        {
          "internalType": "uint256",
          "name": "_classif",
          "type": "uint256"
        },
        {
          "internalType": "uint256",
          "name": "_quantifier",
          "type": "uint256"
        },
        {
          "internalType": "string",
          "name": "_desc",
          "type": "string"
        },
        {
          "internalType": "uint256",
          "name": "_sellerId",
          "type": "uint256"
        },
        {
          "internalType": "uint256",
          "name": "_categoryId",
          "type": "uint256"
        },
        {
          "internalType": "uint256",
          "name": "_inStock",
          "type": "uint256"
        }
      ],
      "name": "createProduct",
      "outputs": [],
      "payable": false,
      "stateMutability": "nonpayable",
      "type": "function"
    },
    {
      "constant": false,
      "inputs": [
        {
          "internalType": "uint256",
          "name": "category",
          "type": "uint256"
        },
        {
          "internalType": "uint256",
          "name": "totalProducts",
          "type": "uint256"
        }
      ],
      "name": "getProductsForCategory",
      "outputs": [
        {
          "components": [
            {
              "internalType": "uint256",
              "name": "id",
              "type": "uint256"
            },
            {
              "internalType": "string",
              "name": "name",
              "type": "string"
            },
            {
              "internalType": "uint256",
              "name": "price_numerator",
              "type": "uint256"
            },
            {
              "internalType": "uint256",
              "name": "price_denominator",
              "type": "uint256"
            },
            {
              "internalType": "uint256",
              "name": "discount_percentage",
              "type": "uint256"
            },
            {
              "internalType": "string",
              "name": "assetUrls",
              "type": "string"
            },
            {
              "internalType": "uint256",
              "name": "classification",
              "type": "uint256"
            },
            {
              "internalType": "uint256",
              "name": "quantifier",
              "type": "uint256"
            },
            {
              "internalType": "string",
              "name": "decs",
              "type": "string"
            },
            {
              "internalType": "uint256",
              "name": "sellerId",
              "type": "uint256"
            },
            {
              "internalType": "uint256",
              "name": "categoryId",
              "type": "uint256"
            },
            {
              "internalType": "uint256",
              "name": "inStock",
              "type": "uint256"
            }
          ],
          "internalType": "struct Products.Product[]",
          "name": "",
          "type": "tuple[]"
        }
      ],
      "payable": false,
      "stateMutability": "nonpayable",
      "type": "function"
    },
    {
      "constant": false,
      "inputs": [
        {
          "internalType": "uint256",
          "name": "category",
          "type": "uint256"
        }
      ],
      "name": "getProductsForCategoryCount",
      "outputs": [
        {
          "internalType": "uint256",
          "name": "count",
          "type": "uint256"
        }
      ],
      "payable": false,
      "stateMutability": "nonpayable",
      "type": "function"
    },
    {
      "constant": false,
      "inputs": [
        {
          "internalType": "uint256",
          "name": "id",
          "type": "uint256"
        }
      ],
      "name": "getProductById",
      "outputs": [
        {
          "components": [
            {
              "internalType": "uint256",
              "name": "id",
              "type": "uint256"
            },
            {
              "internalType": "string",
              "name": "name",
              "type": "string"
            },
            {
              "internalType": "uint256",
              "name": "price_numerator",
              "type": "uint256"
            },
            {
              "internalType": "uint256",
              "name": "price_denominator",
              "type": "uint256"
            },
            {
              "internalType": "uint256",
              "name": "discount_percentage",
              "type": "uint256"
            },
            {
              "internalType": "string",
              "name": "assetUrls",
              "type": "string"
            },
            {
              "internalType": "uint256",
              "name": "classification",
              "type": "uint256"
            },
            {
              "internalType": "uint256",
              "name": "quantifier",
              "type": "uint256"
            },
            {
              "internalType": "string",
              "name": "decs",
              "type": "string"
            },
            {
              "internalType": "uint256",
              "name": "sellerId",
              "type": "uint256"
            },
            {
              "internalType": "uint256",
              "name": "categoryId",
              "type": "uint256"
            },
            {
              "internalType": "uint256",
              "name": "inStock",
              "type": "uint256"
            }
          ],
          "internalType": "struct Products.Product",
          "name": "",
          "type": "tuple"
        }
      ],
      "payable": false,
      "stateMutability": "nonpayable",
      "type": "function"
    },
    {
      "constant": false,
      "inputs": [
        {
          "internalType": "uint256",
          "name": "sellerId",
          "type": "uint256"
        }
      ],
      "name": "getSellerProductsCount",
      "outputs": [
        {
          "internalType": "uint256",
          "name": "count",
          "type": "uint256"
        }
      ],
      "payable": false,
      "stateMutability": "nonpayable",
      "type": "function"
    },
    {
      "constant": false,
      "inputs": [
        {
          "internalType": "uint256",
          "name": "sellerId",
          "type": "uint256"
        },
        {
          "internalType": "uint256",
          "name": "totalProducts",
          "type": "uint256"
        }
      ],
      "name": "getSellerProducts",
      "outputs": [
        {
          "components": [
            {
              "internalType": "uint256",
              "name": "id",
              "type": "uint256"
            },
            {
              "internalType": "string",
              "name": "name",
              "type": "string"
            },
            {
              "internalType": "uint256",
              "name": "price_numerator",
              "type": "uint256"
            },
            {
              "internalType": "uint256",
              "name": "price_denominator",
              "type": "uint256"
            },
            {
              "internalType": "uint256",
              "name": "discount_percentage",
              "type": "uint256"
            },
            {
              "internalType": "string",
              "name": "assetUrls",
              "type": "string"
            },
            {
              "internalType": "uint256",
              "name": "classification",
              "type": "uint256"
            },
            {
              "internalType": "uint256",
              "name": "quantifier",
              "type": "uint256"
            },
            {
              "internalType": "string",
              "name": "decs",
              "type": "string"
            },
            {
              "internalType": "uint256",
              "name": "sellerId",
              "type": "uint256"
            },
            {
              "internalType": "uint256",
              "name": "categoryId",
              "type": "uint256"
            },
            {
              "internalType": "uint256",
              "name": "inStock",
              "type": "uint256"
            }
          ],
          "internalType": "struct Products.Product[]",
          "name": "",
          "type": "tuple[]"
        }
      ],
      "payable": false,
      "stateMutability": "nonpayable",
      "type": "function"
    },
    {
      "constant": false,
      "inputs": [
        {
          "internalType": "string",
          "name": "what",
          "type": "string"
        },
        {
          "internalType": "string",
          "name": "where",
          "type": "string"
        }
      ],
      "name": "contains",
      "outputs": [
        {
          "internalType": "bool",
          "name": "",
          "type": "bool"
        }
      ],
      "payable": false,
      "stateMutability": "nonpayable",
      "type": "function"
    },
    {
      "constant": false,
      "inputs": [
        {
          "internalType": "string",
          "name": "query",
          "type": "string"
        }
      ],
      "name": "getQueryProductsCount",
      "outputs": [
        {
          "internalType": "uint256",
          "name": "count",
          "type": "uint256"
        }
      ],
      "payable": false,
      "stateMutability": "nonpayable",
      "type": "function"
    },
    {
      "constant": false,
      "inputs": [
        {
          "internalType": "string",
          "name": "query",
          "type": "string"
        },
        {
          "internalType": "uint256",
          "name": "totalProducts",
          "type": "uint256"
        }
      ],
      "name": "getQueryProducts",
      "outputs": [
        {
          "components": [
            {
              "internalType": "uint256",
              "name": "id",
              "type": "uint256"
            },
            {
              "internalType": "string",
              "name": "name",
              "type": "string"
            },
            {
              "internalType": "uint256",
              "name": "price_numerator",
              "type": "uint256"
            },
            {
              "internalType": "uint256",
              "name": "price_denominator",
              "type": "uint256"
            },
            {
              "internalType": "uint256",
              "name": "discount_percentage",
              "type": "uint256"
            },
            {
              "internalType": "string",
              "name": "assetUrls",
              "type": "string"
            },
            {
              "internalType": "uint256",
              "name": "classification",
              "type": "uint256"
            },
            {
              "internalType": "uint256",
              "name": "quantifier",
              "type": "uint256"
            },
            {
              "internalType": "string",
              "name": "decs",
              "type": "string"
            },
            {
              "internalType": "uint256",
              "name": "sellerId",
              "type": "uint256"
            },
            {
              "internalType": "uint256",
              "name": "categoryId",
              "type": "uint256"
            },
            {
              "internalType": "uint256",
              "name": "inStock",
              "type": "uint256"
            }
          ],
          "internalType": "struct Products.Product[]",
          "name": "",
          "type": "tuple[]"
        }
      ],
      "payable": false,
      "stateMutability": "nonpayable",
      "type": "function"
    },
    {
      "constant": false,
      "inputs": [
        {
          "internalType": "uint256",
          "name": "_product_id",
          "type": "uint256"
        },
        {
          "internalType": "uint256",
          "name": "_discount_percentage",
          "type": "uint256"
        }
      ],
      "name": "setSale",
      "outputs": [],
      "payable": false,
      "stateMutability": "nonpayable",
      "type": "function"
    },
    {
      "constant": false,
      "inputs": [
        {
          "internalType": "uint256",
          "name": "productId",
          "type": "uint256"
        }
      ],
      "name": "removeProduct",
      "outputs": [],
      "payable": false,
      "stateMutability": "nonpayable",
      "type": "function"
    },
    {
      "constant": false,
      "inputs": [
        {
          "internalType": "uint256",
          "name": "_id",
          "type": "uint256"
        },
        {
          "internalType": "string",
          "name": "_productName",
          "type": "string"
        },
        {
          "internalType": "uint256",
          "name": "_price_nominator",
          "type": "uint256"
        },
        {
          "internalType": "uint256",
          "name": "_price_denominator",
          "type": "uint256"
        },
        {
          "internalType": "string",
          "name": "_assetUrls",
          "type": "string"
        },
        {
          "internalType": "uint256",
          "name": "_classif",
          "type": "uint256"
        },
        {
          "internalType": "uint256",
          "name": "_quantifier",
          "type": "uint256"
        },
        {
          "internalType": "string",
          "name": "_desc",
          "type": "string"
        },
        {
          "internalType": "uint256",
          "name": "_categoryId",
          "type": "uint256"
        },
        {
          "internalType": "uint256",
          "name": "_inStock",
          "type": "uint256"
        }
      ],
      "name": "editProduct",
      "outputs": [],
      "payable": false,
      "stateMutability": "nonpayable",
      "type": "function"
    }
  ],
  "bytecode": "0x60806040526000805560006001553480156200001a57600080fd5b50604051806101800160405280600081526020016040518060400160405280600b81526020017f446f6d61c48769206d6564000000000000000000000000000000000000000000815250815260200160328152602001600381526020016000815260200160405180608001604052806043815260200162003847604391398152602001600181526020016102ee81526020016040518060a00160405280606181526020016200388a60619139815260200160358152602001600981526020016001815250600260008081526020019081526020016000206000820151816000015560208201518160010190805190602001906200011992919062000b42565b5060408201518160020155606082015181600301556080820151816004015560a08201518160050190805190602001906200015692919062000b42565b5060c0820151816006015560e082015181600701556101008201518160080190805190602001906200018a92919062000b42565b50610120820151816009015561014082015181600a015561016082015181600b0155905050604051806101800160405280600181526020016040518060400160405280601181526020017f5061736972616e69207061726164616a7a0000000000000000000000000000008152508152602001602b81526020016003815260200160148152602001604051806080016040528060438152602001620038eb604391398152602001600181526020016101f481526020016040518060a00160405280606181526020016200388a606191398152602001603581526020016003815260200160018152506002600060018152602001908152602001600020600082015181600001556020820151816001019080519060200190620002ae92919062000b42565b5060408201518160020155606082015181600301556080820151816004015560a0820151816005019080519060200190620002eb92919062000b42565b5060c0820151816006015560e082015181600701556101008201518160080190805190602001906200031f92919062000b42565b50610120820151816009015561014082015181600a015561016082015181600b0155905050604051806101800160405280600281526020016040518060400160405280600e81526020017f4d61736c696e6f766f20756c6a650000000000000000000000000000000000008152508152602001604d81526020016003815260200160008152602001604051806080016040528060438152602001620037c1604391398152602001600181526020016102ee81526020016040518060a00160405280606181526020016200388a6061913981526020016035815260200160098152602001600181525060026000600281526020019081526020016000206000820151816000015560208201518160010190805190602001906200044392919062000b42565b5060408201518160020155606082015181600301556080820151816004015560a08201518160050190805190602001906200048092919062000b42565b5060c0820151816006015560e08201518160070155610100820151816008019080519060200190620004b492919062000b42565b50610120820151816009015561014082015181600a015561016082015181600b0155905050604051806101800160405280600381526020016040518060400160405280600681526020017f5072c5a1757400000000000000000000000000000000000000000000000000008152508152602001609a81526020016003815260200160008152602001604051806080016040528060438152602001620039716043913981526020016001815260200160ea81526020016040518060a00160405280606181526020016200388a606191398152602001603581526020016001815260200160018152506002600060038152602001908152602001600020600082015181600001556020820151816001019080519060200190620005d792919062000b42565b5060408201518160020155606082015181600301556080820151816004015560a08201518160050190805190602001906200061492919062000b42565b5060c0820151816006015560e082015181600701556101008201518160080190805190602001906200064892919062000b42565b50610120820151816009015561014082015181600a015561016082015181600b0155905050604051806101800160405280600481526020016040518060400160405280600681526020017f52616b696a61000000000000000000000000000000000000000000000000000081525081526020016062815260200160038152602001600081526020016040518060800160405280604381526020016200377e604391398152602001600281526020016103e881526020016040518060a00160405280606181526020016200388a6061913981526020016035815260200160058152602001600181525060026000600481526020019081526020016000206000820151816000015560208201518160010190805190602001906200076c92919062000b42565b5060408201518160020155606082015181600301556080820151816004015560a0820151816005019080519060200190620007a992919062000b42565b5060c0820151816006015560e08201518160070155610100820151816008019080519060200190620007dd92919062000b42565b50610120820151816009015561014082015181600a015561016082015181600b0155905050604051806101800160405280600581526020016040518060400160405280600881526020017f4b6f6261736963610000000000000000000000000000000000000000000000008152508152602001604a8152602001600381526020016000815260200160405180608001604052806043815260200162003804604391398152602001600181526020016103e881526020016040518060a00160405280606181526020016200388a6061913981526020016035815260200160018152602001600181525060026000600581526020019081526020016000206000820151816000015560208201518160010190805190602001906200090192919062000b42565b5060408201518160020155606082015181600301556080820151816004015560a08201518160050190805190602001906200093e92919062000b42565b5060c0820151816006015560e082015181600701556101008201518160080190805190602001906200097292919062000b42565b50610120820151816009015561014082015181600a015561016082015181600b0155905050604051806101800160405280600681526020016040518060400160405280600881526020017f4b616d616d62657200000000000000000000000000000000000000000000000081525081526020016036815260200160038152602001600081526020016040518060800160405280604381526020016200392e604391398152602001600181526020016101f481526020016040518060a00160405280606181526020016200388a60619139815260200160358152602001600281526020016001815250600260006006815260200190815260200160002060008201518160000155602082015181600101908051906020019062000a9692919062000b42565b5060408201518160020155606082015181600301556080820151816004015560a082015181600501908051906020019062000ad392919062000b42565b5060c0820151816006015560e0820151816007015561010082015181600801908051906020019062000b0792919062000b42565b50610120820151816009015561014082015181600a015561016082015181600b01559050506007600081905550600760018190555062000bf1565b828054600181600116156101000203166002900490600052602060002090601f016020900481019282601f1062000b8557805160ff191683800117855562000bb6565b8280016001018555821562000bb6579182015b8281111562000bb557825182559160200191906001019062000b98565b5b50905062000bc5919062000bc9565b5090565b62000bee91905b8082111562000bea57600081600090555060010162000bd0565b5090565b90565b612b7d8062000c016000396000f3fe608060405234801561001057600080fd5b50600436106100f45760003560e01c8063a0ea351111610097578063e6b5530b11610066578063e6b5530b146102da578063e6e46238146102f6578063f901a18f14610314578063faa5953f14610330576100f4565b8063a0ea351114610240578063ac8a54b114610270578063c91ef46b146102a0578063e0df7bb6146102bc576100f4565b80633fb18aec116100d35780633fb18aec146101895780635ee95cae146101b9578063623e610a146101d55780637acc0b2014610205576100f4565b806230d99f146100f95780632dc810ab146101295780633f70c2b414610159575b600080fd5b610113600480360361010e91908101906121de565b610360565b6040516101209190612877565b60405180910390f35b610143600480360361013e91908101906124b6565b6107dc565b6040516101509190612877565b60405180910390f35b610173600480360361016e919081019061236a565b610ba9565b60405161018091906128e4565b60405180910390f35b6101a3600480360361019e9190810190612172565b610e64565b6040516101b09190612899565b60405180910390f35b6101d360048036036101ce919081019061236a565b610f79565b005b6101ef60048036036101ea9190810190612131565b611196565b6040516101fc9190612906565b60405180910390f35b61021f600480360361021a919081019061236a565b61129a565b6040516102379c9b9a99989796959493929190612921565b60405180910390f35b61025a600480360361025591908101906124b6565b6114c2565b6040516102679190612877565b60405180910390f35b61028a6004803603610285919081019061236a565b61188f565b6040516102979190612906565b60405180910390f35b6102ba60048036036102b59190810190612393565b6118e4565b005b6102c4611a54565b6040516102d19190612906565b60405180910390f35b6102f460048036036102ef9190810190612232565b611a5a565b005b6102fe611bef565b60405161030b9190612906565b60405180910390f35b61032e600480360361032991908101906124b6565b611bf5565b005b61034a6004803603610345919081019061236a565b611c55565b6040516103579190612906565b60405180910390f35b606060008090506060836040519080825280602002602001820160405280156103a357816020015b610390611e12565b8152602001906001900390816103885790505b50905060008090505b6000548110156107d05761047e6103c287611caa565b610479600260008581526020019081526020016000206001018054600181600116156101000203166002900480601f01602080910402602001604051908101604052809291908181526020018280546001816001161561010002031660029004801561046f5780601f106104445761010080835404028352916020019161046f565b820191906000526020600020905b81548152906001019060200180831161045257829003601f168201915b5050505050611caa565b610e64565b156107c35760405180610180016040528060026000848152602001908152602001600020600001548152602001600260008481526020019081526020016000206001018054600181600116156101000203166002900480601f0160208091040260200160405190810160405280929190818152602001828054600181600116156101000203166002900480156105555780601f1061052a57610100808354040283529160200191610555565b820191906000526020600020905b81548152906001019060200180831161053857829003601f168201915b50505050508152602001600260008481526020019081526020016000206002015481526020016002600084815260200190815260200160002060030154815260200160026000848152602001908152602001600020600401548152602001600260008481526020019081526020016000206005018054600181600116156101000203166002900480601f01602080910402602001604051908101604052809291908181526020018280546001816001161561010002031660029004801561065d5780601f106106325761010080835404028352916020019161065d565b820191906000526020600020905b81548152906001019060200180831161064057829003601f168201915b505050505081526020016002600084815260200190815260200160002060060154815260200160026000848152602001908152602001600020600701548152602001600260008481526020019081526020016000206008018054600181600116156101000203166002900480601f0160208091040260200160405190810160405280929190818152602001828054600181600116156101000203166002900480156107495780601f1061071e57610100808354040283529160200191610749565b820191906000526020600020905b81548152906001019060200180831161072c57829003601f168201915b505050505081526020016002600084815260200190815260200160002060090154815260200160026000848152602001908152602001600020600a0154815260200160026000848152602001908152602001600020600b01548152508284806001019550815181106107b757fe5b60200260200101819052505b80806001019150506103ac565b50809250505092915050565b6060600080905060608360405190808252806020026020018201604052801561081f57816020015b61080c611e12565b8152602001906001900390816108045790505b50905060008090505b600054811015610b9d578560026000838152602001908152602001600020600a01541415610b905760405180610180016040528060026000848152602001908152602001600020600001548152602001600260008481526020019081526020016000206001018054600181600116156101000203166002900480601f0160208091040260200160405190810160405280929190818152602001828054600181600116156101000203166002900480156109225780601f106108f757610100808354040283529160200191610922565b820191906000526020600020905b81548152906001019060200180831161090557829003601f168201915b50505050508152602001600260008481526020019081526020016000206002015481526020016002600084815260200190815260200160002060030154815260200160026000848152602001908152602001600020600401548152602001600260008481526020019081526020016000206005018054600181600116156101000203166002900480601f016020809104026020016040519081016040528092919081815260200182805460018160011615610100020316600290048015610a2a5780601f106109ff57610100808354040283529160200191610a2a565b820191906000526020600020905b815481529060010190602001808311610a0d57829003601f168201915b505050505081526020016002600084815260200190815260200160002060060154815260200160026000848152602001908152602001600020600701548152602001600260008481526020019081526020016000206008018054600181600116156101000203166002900480601f016020809104026020016040519081016040528092919081815260200182805460018160011615610100020316600290048015610b165780601f10610aeb57610100808354040283529160200191610b16565b820191906000526020600020905b815481529060010190602001808311610af957829003601f168201915b505050505081526020016002600084815260200190815260200160002060090154815260200160026000848152602001908152602001600020600a0154815260200160026000848152602001908152602001600020600b0154815250828480600101955081518110610b8457fe5b60200260200101819052505b8080600101915050610828565b50809250505092915050565b610bb1611e73565b610bb9611e73565b60008090505b600054811015610e5a578360026000838152602001908152602001600020600001541415610e4d57600260008281526020019081526020016000206040518061018001604052908160008201548152602001600182018054600181600116156101000203166002900480601f016020809104026020016040519081016040528092919081815260200182805460018160011615610100020316600290048015610ca95780601f10610c7e57610100808354040283529160200191610ca9565b820191906000526020600020905b815481529060010190602001808311610c8c57829003601f168201915b50505050508152602001600282015481526020016003820154815260200160048201548152602001600582018054600181600116156101000203166002900480601f016020809104026020016040519081016040528092919081815260200182805460018160011615610100020316600290048015610d695780601f10610d3e57610100808354040283529160200191610d69565b820191906000526020600020905b815481529060010190602001808311610d4c57829003601f168201915b505050505081526020016006820154815260200160078201548152602001600882018054600181600116156101000203166002900480601f016020809104026020016040519081016040528092919081815260200182805460018160011615610100020316600290048015610e1f5780601f10610df457610100808354040283529160200191610e1f565b820191906000526020600020905b815481529060010190602001808311610e0257829003601f168201915b5050505050815260200160098201548152602001600a8201548152602001600b820154815250509150610e5a565b8080600101915050610bbf565b5080915050919050565b600060608390506060839050808051906020012082805190602001201415610e9157600192505050610f73565b600080905060008090505b8351835103811015610f6b5760006001905060008090505b8551811015610f4c57858181518110610ec957fe5b602001015160f81c60f81b7effffffffffffffffffffffffffffffffffffffffffffffffffffffffffffff19168582850181518110610f0457fe5b602001015160f81c60f81b7effffffffffffffffffffffffffffffffffffffffffffffffffffffffffffff191614610f3f5760009150610f4c565b8080600101915050610eb4565b508015610f5d576001925050610f6b565b508080600101915050610e9c565b508093505050505b92915050565b60008054905060008090505b600054811015610fc2578260026000838152602001908152602001600020600001541415610fb557809150610fc2565b8080600101915050610f85565b506000548110156111925760008190505b6001600054038110156110eb576002600060018301815260200190815260200160002060026000838152602001908152602001600020600082015481600001556001820181600101908054600181600116156101000203166002900461103a929190611ed4565b5060028201548160020155600382015481600301556004820154816004015560058201816005019080546001816001161561010002031660029004611080929190611ed4565b506006820154816006015560078201548160070155600882018160080190805460018160011615610100020316600290046110bc929190611ed4565b5060098201548160090155600a82015481600a0155600b82015481600b01559050508080600101915050610fd3565b5060026000600160005403815260200190815260200160002060008082016000905560018201600061111d9190611f5b565b6002820160009055600382016000905560048201600090556005820160006111459190611f5b565b600682016000905560078201600090556008820160006111659190611f5b565b6009820160009055600a820160009055600b82016000905550506000808154809291906001900391905055505b5050565b6000806000905060008090505b600054811015611290576112756111b985611caa565b611270600260008581526020019081526020016000206001018054600181600116156101000203166002900480601f0160208091040260200160405190810160405280929190818152602001828054600181600116156101000203166002900480156112665780601f1061123b57610100808354040283529160200191611266565b820191906000526020600020905b81548152906001019060200180831161124957829003601f168201915b5050505050611caa565b610e64565b156112835781806001019250505b80806001019150506111a3565b5080915050919050565b6002602052806000526040600020600091509050806000015490806001018054600181600116156101000203166002900480601f01602080910402602001604051908101604052809291908181526020018280546001816001161561010002031660029004801561134c5780601f106113215761010080835404028352916020019161134c565b820191906000526020600020905b81548152906001019060200180831161132f57829003601f168201915b505050505090806002015490806003015490806004015490806005018054600181600116156101000203166002900480601f0160208091040260200160405190810160405280929190818152602001828054600181600116156101000203166002900480156113fc5780601f106113d1576101008083540402835291602001916113fc565b820191906000526020600020905b8154815290600101906020018083116113df57829003601f168201915b505050505090806006015490806007015490806008018054600181600116156101000203166002900480601f0160208091040260200160405190810160405280929190818152602001828054600181600116156101000203166002900480156114a65780601f1061147b576101008083540402835291602001916114a6565b820191906000526020600020905b81548152906001019060200180831161148957829003601f168201915b50505050509080600901549080600a01549080600b015490508c565b6060600080905060608360405190808252806020026020018201604052801561150557816020015b6114f2611e12565b8152602001906001900390816114ea5790505b50905060008090505b6000548110156118835785600260008381526020019081526020016000206009015414156118765760405180610180016040528060026000848152602001908152602001600020600001548152602001600260008481526020019081526020016000206001018054600181600116156101000203166002900480601f0160208091040260200160405190810160405280929190818152602001828054600181600116156101000203166002900480156116085780601f106115dd57610100808354040283529160200191611608565b820191906000526020600020905b8154815290600101906020018083116115eb57829003601f168201915b50505050508152602001600260008481526020019081526020016000206002015481526020016002600084815260200190815260200160002060030154815260200160026000848152602001908152602001600020600401548152602001600260008481526020019081526020016000206005018054600181600116156101000203166002900480601f0160208091040260200160405190810160405280929190818152602001828054600181600116156101000203166002900480156117105780601f106116e557610100808354040283529160200191611710565b820191906000526020600020905b8154815290600101906020018083116116f357829003601f168201915b505050505081526020016002600084815260200190815260200160002060060154815260200160026000848152602001908152602001600020600701548152602001600260008481526020019081526020016000206008018054600181600116156101000203166002900480601f0160208091040260200160405190810160405280929190818152602001828054600181600116156101000203166002900480156117fc5780601f106117d1576101008083540402835291602001916117fc565b820191906000526020600020905b8154815290600101906020018083116117df57829003601f168201915b505050505081526020016002600084815260200190815260200160002060090154815260200160026000848152602001908152602001600020600a0154815260200160026000848152602001908152602001600020600b015481525082848060010195508151811061186a57fe5b60200260200101819052505b808060010191505061150e565b50809250505092915050565b6000806000905060008090505b6000548110156118da578360026000838152602001908152602001600020600a015414156118cd5781806001019250505b808060010191505061189c565b5080915050919050565b60008090505b600054811015611a47578a60026000838152602001908152602001600020600001541415611a3a578960026000838152602001908152602001600020600101908051906020019061193c929190611fa3565b508860026000838152602001908152602001600020600201819055508760026000838152602001908152602001600020600301819055508660026000838152602001908152602001600020600501908051906020019061199d929190611fa3565b50856002600083815260200190815260200160002060060181905550846002600083815260200190815260200160002060070181905550836002600083815260200190815260200160002060080190805190602001906119fe929190611fa3565b508260026000838152602001908152602001600020600a01819055508160026000838152602001908152602001600020600b0181905550611a47565b80806001019150506118ea565b5050505050505050505050565b60005481565b6002861115611a6857600095505b604051806101800160405280600160008154809291906001019190505581526020018c81526020018b81526020018a81526020018981526020018881526020018781526020018681526020018581526020018481526020018381526020018281525060026000806000815480929190600101919050558152602001908152602001600020600082015181600001556020820151816001019080519060200190611b12929190612023565b5060408201518160020155606082015181600301556080820151816004015560a0820151816005019080519060200190611b4d929190612023565b5060c0820151816006015560e08201518160070155610100820151816008019080519060200190611b7f929190612023565b50610120820151816009015561014082015181600a015561016082015181600b01559050507fb040efd5b9ac3e016c34e7ba218414cec2f62f7405435784f124cf44a21dc1378b600160005403604051611bda9291906128b4565b60405180910390a15050505050505050505050565b60015481565b60008090505b600054811015611c50578260026000838152602001908152602001600020600001541415611c4357816002600083815260200190815260200160002060040181905550611c50565b8080600101915050611bfb565b505050565b6000806000905060008090505b600054811015611ca0578360026000838152602001908152602001600020600901541415611c935781806001019250505b8080600101915050611c62565b5080915050919050565b606080829050606081516040519080825280601f01601f191660200182016040528015611ce65781602001600182028038833980820191505090505b50905060008090505b8251811015611e07576041838281518110611d0657fe5b602001015160f81c60f81b60f81c60ff1610158015611d425750605a838281518110611d2e57fe5b602001015160f81c60f81b60f81c60ff1611155b15611da7576020838281518110611d5557fe5b602001015160f81c60f81b60f81c0160f81b828281518110611d7357fe5b60200101907effffffffffffffffffffffffffffffffffffffffffffffffffffffffffffff1916908160001a905350611dfa565b828181518110611db357fe5b602001015160f81c60f81b828281518110611dca57fe5b60200101907effffffffffffffffffffffffffffffffffffffffffffffffffffffffffffff1916908160001a9053505b8080600101915050611cef565b508092505050919050565b6040518061018001604052806000815260200160608152602001600081526020016000815260200160008152602001606081526020016000815260200160008152602001606081526020016000815260200160008152602001600081525090565b6040518061018001604052806000815260200160608152602001600081526020016000815260200160008152602001606081526020016000815260200160008152602001606081526020016000815260200160008152602001600081525090565b828054600181600116156101000203166002900490600052602060002090601f016020900481019282601f10611f0d5780548555611f4a565b82800160010185558215611f4a57600052602060002091601f016020900482015b82811115611f49578254825591600101919060010190611f2e565b5b509050611f5791906120a3565b5090565b50805460018160011615610100020316600290046000825580601f10611f815750611fa0565b601f016020900490600052602060002090810190611f9f91906120a3565b5b50565b828054600181600116156101000203166002900490600052602060002090601f016020900481019282601f10611fe457805160ff1916838001178555612012565b82800160010185558215612012579182015b82811115612011578251825591602001919060010190611ff6565b5b50905061201f91906120a3565b5090565b828054600181600116156101000203166002900490600052602060002090601f016020900481019282601f1061206457805160ff1916838001178555612092565b82800160010185558215612092579182015b82811115612091578251825591602001919060010190612076565b5b50905061209f91906120a3565b5090565b6120c591905b808211156120c15760008160009055506001016120a9565b5090565b90565b600082601f8301126120d957600080fd5b81356120ec6120e782612a1d565b6129f0565b9150808252602083016020830185838301111561210857600080fd5b612113838284612ad0565b50505092915050565b60008135905061212b81612b23565b92915050565b60006020828403121561214357600080fd5b600082013567ffffffffffffffff81111561215d57600080fd5b612169848285016120c8565b91505092915050565b6000806040838503121561218557600080fd5b600083013567ffffffffffffffff81111561219f57600080fd5b6121ab858286016120c8565b925050602083013567ffffffffffffffff8111156121c857600080fd5b6121d4858286016120c8565b9150509250929050565b600080604083850312156121f157600080fd5b600083013567ffffffffffffffff81111561220b57600080fd5b612217858286016120c8565b92505060206122288582860161211c565b9150509250929050565b60008060008060008060008060008060006101608c8e03121561225457600080fd5b60008c013567ffffffffffffffff81111561226e57600080fd5b61227a8e828f016120c8565b9b5050602061228b8e828f0161211c565b9a5050604061229c8e828f0161211c565b99505060606122ad8e828f0161211c565b98505060808c013567ffffffffffffffff8111156122ca57600080fd5b6122d68e828f016120c8565b97505060a06122e78e828f0161211c565b96505060c06122f88e828f0161211c565b95505060e08c013567ffffffffffffffff81111561231557600080fd5b6123218e828f016120c8565b9450506101006123338e828f0161211c565b9350506101206123458e828f0161211c565b9250506101406123578e828f0161211c565b9150509295989b509295989b9093969950565b60006020828403121561237c57600080fd5b600061238a8482850161211c565b91505092915050565b6000806000806000806000806000806101408b8d0312156123b357600080fd5b60006123c18d828e0161211c565b9a505060208b013567ffffffffffffffff8111156123de57600080fd5b6123ea8d828e016120c8565b99505060406123fb8d828e0161211c565b985050606061240c8d828e0161211c565b97505060808b013567ffffffffffffffff81111561242957600080fd5b6124358d828e016120c8565b96505060a06124468d828e0161211c565b95505060c06124578d828e0161211c565b94505060e08b013567ffffffffffffffff81111561247457600080fd5b6124808d828e016120c8565b9350506101006124928d828e0161211c565b9250506101206124a48d828e0161211c565b9150509295989b9194979a5092959850565b600080604083850312156124c957600080fd5b60006124d78582860161211c565b92505060206124e88582860161211c565b9150509250929050565b60006124fe8383612747565b905092915050565b600061251182612a59565b61251b8185612a87565b93508360208202850161252d85612a49565b8060005b85811015612569578484038952815161254a85826124f2565b945061255583612a7a565b925060208a01995050600181019050612531565b50829750879550505050505092915050565b61258481612aba565b82525050565b600061259582612a6f565b61259f8185612aa9565b93506125af818560208601612adf565b6125b881612b12565b840191505092915050565b60006125ce82612a64565b6125d88185612a98565b93506125e8818560208601612adf565b6125f181612b12565b840191505092915050565b600061260782612a64565b6126118185612aa9565b9350612621818560208601612adf565b61262a81612b12565b840191505092915050565b60006101808301600083015161264e6000860182612859565b506020830151848203602086015261266682826125c3565b915050604083015161267b6040860182612859565b50606083015161268e6060860182612859565b5060808301516126a16080860182612859565b5060a083015184820360a08601526126b982826125c3565b91505060c08301516126ce60c0860182612859565b5060e08301516126e160e0860182612859565b506101008301518482036101008601526126fb82826125c3565b915050610120830151612712610120860182612859565b50610140830151612727610140860182612859565b5061016083015161273c610160860182612859565b508091505092915050565b6000610180830160008301516127606000860182612859565b506020830151848203602086015261277882826125c3565b915050604083015161278d6040860182612859565b5060608301516127a06060860182612859565b5060808301516127b36080860182612859565b5060a083015184820360a08601526127cb82826125c3565b91505060c08301516127e060c0860182612859565b5060e08301516127f360e0860182612859565b5061010083015184820361010086015261280d82826125c3565b915050610120830151612824610120860182612859565b50610140830151612839610140860182612859565b5061016083015161284e610160860182612859565b508091505092915050565b61286281612ac6565b82525050565b61287181612ac6565b82525050565b600060208201905081810360008301526128918184612506565b905092915050565b60006020820190506128ae600083018461257b565b92915050565b600060408201905081810360008301526128ce818561258a565b90506128dd6020830184612868565b9392505050565b600060208201905081810360008301526128fe8184612635565b905092915050565b600060208201905061291b6000830184612868565b92915050565b600061018082019050612937600083018f612868565b8181036020830152612949818e6125fc565b9050612958604083018d612868565b612965606083018c612868565b612972608083018b612868565b81810360a0830152612984818a6125fc565b905061299360c0830189612868565b6129a060e0830188612868565b8181036101008301526129b381876125fc565b90506129c3610120830186612868565b6129d1610140830185612868565b6129df610160830184612868565b9d9c50505050505050505050505050565b6000604051905081810181811067ffffffffffffffff82111715612a1357600080fd5b8060405250919050565b600067ffffffffffffffff821115612a3457600080fd5b601f19601f8301169050602081019050919050565b6000819050602082019050919050565b600081519050919050565b600081519050919050565b600081519050919050565b6000602082019050919050565b600082825260208201905092915050565b600082825260208201905092915050565b600082825260208201905092915050565b60008115159050919050565b6000819050919050565b82818337600083830152505050565b60005b83811015612afd578082015181840152602081019050612ae2565b83811115612b0c576000848401525b50505050565b6000601f19601f8301169050919050565b612b2c81612ac6565b8114612b3757600080fd5b5056fea365627a7a7231582043e0412b3ab438e4289fe4844527e7ae41735f89005a947f5549b16414b763a76c6578706572696d656e74616cf564736f6c6343000510004068747470733a2f2f697066732e696f2f697066732f516d623174565142586e516565615164536f4d486a545242576e477577476e7357714a6739374c64766b6b467a5368747470733a2f2f697066732e696f2f697066732f516d52735a59626f4568535943475a4342694552764b436645454245425778596d3646554e4867326f72794b5a6b68747470733a2f2f697066732e696f2f697066732f516d527843696a74556f4d4744503776646666317237344459506868476864656d746b6874355233397047787a4368747470733a2f2f697066732e696f2f697066732f516d5642333861624454566a3546553147546257366b3251684442384648785971684248774654726978373842775365642075742070657273706963696174697320756e6465206f6d6e69732069737465206e61747573206572726f722073697420766f6c7570746174656d206163637573616e7469756d20646f6c6f72656d717565206c617564616e7469756d2e68747470733a2f2f697066732e696f2f697066732f516d534757684d64554b39595864665a425036674b516f7a5878714265346d63645375687573506256795a54437868747470733a2f2f697066732e696f2f697066732f516d575772706251675542364c6464433455645a466743364a504a63763532536f743766414a6a7673716358674568747470733a2f2f697066732e696f2f697066732f516d586431567766454a57656131544c363271396274696b4c797063774366375654423436484c59783745737551",
  "source": "pragma solidity >=0.4.22 <0.9.0;\r\npragma experimental ABIEncoderV2;\r\ncontract Products{\r\n    uint public productsCount = 0;\r\n    uint public idCount = 0;\r\n\r\n    struct Product{\r\n        uint id;\r\n        string name;\r\n        uint price_numerator;\r\n        uint price_denominator;\r\n        uint discount_percentage;\r\n        string assetUrls;\r\n        uint classification;\r\n        uint quantifier;\r\n        string decs;\r\n        uint sellerId;\r\n        uint categoryId;\r\n        uint inStock;\r\n\r\n    }\r\n\r\n    mapping (uint => Product) public products;\r\n\r\n    event ProductCreated(string name, uint ProductNumber);\r\n\r\n    constructor() public{\r\n\r\n        products[0] = Product(0, \"Domai med\", 50, 3, 0, \"https://ipfs.io/ipfs/QmVB38abDTVj5FU1GTbW6k2QhDB8FHxYqhBHwFTrix78Bw\", 1, 750,\r\n            \"Sed ut perspiciatis unde omnis iste natus error sit voluptatem accusantium doloremque laudantium.\", 53,9,1);\r\n        products[1] = Product(1, \"Pasirani paradajz\", 43, 3, 20, \"https://ipfs.io/ipfs/QmSGWhMdUK9YXdfZBP6gKQozXxqBe4mcdSuhusPbVyZTCx\", 1, 500,\r\n            \"Sed ut perspiciatis unde omnis iste natus error sit voluptatem accusantium doloremque laudantium.\", 53,3,1);\r\n        products[2] = Product(2, \"Maslinovo ulje\", 77, 3, 0, \"https://ipfs.io/ipfs/QmRsZYboEhSYCGZCBiERvKCfEEBEBWxYm6FUNHg2oryKZk\", 1, 750,\r\n            \"Sed ut perspiciatis unde omnis iste natus error sit voluptatem accusantium doloremque laudantium.\", 53,9,1);\r\n        products[3] = Product(3, \"Prut\", 154, 3, 0, \"https://ipfs.io/ipfs/QmXd1VwfEJWea1TL62q9btikLypcwCf7VTB46HLYx7EsuQ\", 1, 234,\r\n            \"Sed ut perspiciatis unde omnis iste natus error sit voluptatem accusantium doloremque laudantium.\", 53,1,1);\r\n        products[4] = Product(4, \"Rakija\", 98, 3, 0, \"https://ipfs.io/ipfs/Qmb1tVQBXnQeeaQdSoMHjTRBWnGuwGnsWqJg97LdvkkFzS\", 2, 1000,\r\n            \"Sed ut perspiciatis unde omnis iste natus error sit voluptatem accusantium doloremque laudantium.\", 53,5,1);\r\n        products[5] = Product(5, \"Kobasica\", 74, 3, 0, \"https://ipfs.io/ipfs/QmRxCijtUoMGDP7vdff1r74DYPhhGhdemtkht5R39pGxzC\", 1, 1000,\r\n            \"Sed ut perspiciatis unde omnis iste natus error sit voluptatem accusantium doloremque laudantium.\", 53,1,1);\r\n        products[6] = Product(6, \"Kamamber\", 54, 3, 0, \"https://ipfs.io/ipfs/QmWWrpbQgUB6LddC4UdZFgC6JPJcv52Sot7fAJjvsqcXgE\", 1, 500,\r\n            \"Sed ut perspiciatis unde omnis iste natus error sit voluptatem accusantium doloremque laudantium.\", 53,2,1);\r\n        productsCount = 7;\r\n        idCount = 7;\r\n    }\r\n\r\n    function createProduct(string memory _productName, uint _price_nominator, uint _price_denominator, uint _discount_percentage, string memory _assetUrls, uint _classif, uint _quantifier, string memory _desc, uint _sellerId, uint _categoryId, uint _inStock) public{\r\n\r\n        if (_classif > 2)\r\n            _classif = 0;\r\n        products[productsCount++] = Product(idCount++, _productName, _price_nominator, _price_denominator, _discount_percentage, _assetUrls, _classif, _quantifier, _desc, _sellerId, _categoryId, _inStock);\r\n        emit ProductCreated(_productName, productsCount - 1);\r\n\r\n    }\r\n    function getProductsForCategory(uint category, uint totalProducts) public returns (Product[] memory){\r\n        uint count = 0;\r\n        Product[] memory y = new Product[](totalProducts);\r\n        for (uint i= 0; i < productsCount; i++) {\r\n            if (products[i].categoryId == category){\r\n                y[count++] = Product(products[i].id,\r\n                    products[i].name,\r\n                    products[i].price_numerator,\r\n                    products[i].price_denominator,\r\n                    products[i].discount_percentage,\r\n                    products[i].assetUrls,\r\n                    products[i].classification,\r\n                    products[i].quantifier,\r\n                    products[i].decs,\r\n                    products[i].sellerId,\r\n                    products[i].categoryId,\r\n                products[i].inStock);\r\n            }\r\n        }\r\n        return y;\r\n    }\r\n    function getProductsForCategoryCount(uint category) public returns (uint count){\r\n        uint productsForCategoryCount = 0;\r\n        for (uint i= 0; i < productsCount; i++) {\r\n            if (products[i].categoryId == category){\r\n                productsForCategoryCount++;\r\n            }\r\n        }\r\n        return productsForCategoryCount;\r\n    }\r\n\r\n    function getProductById(uint id) public returns (Product memory){\r\n        Product memory product;\r\n        for (uint i= 0; i < productsCount; i++) {\r\n            if (products[i].id == id){\r\n                product = products[i];\r\n                break;\r\n            }\r\n        }\r\n        return product;\r\n    }\r\n\r\n\r\n    function getSellerProductsCount(uint sellerId) public returns (uint count){\r\n        uint sellerProductsCount = 0;\r\n        for (uint i= 0; i < productsCount; i++) {\r\n            if (products[i].sellerId == sellerId){\r\n                sellerProductsCount++;\r\n            }\r\n        }\r\n        return sellerProductsCount;\r\n    }\r\n    function getSellerProducts(uint sellerId, uint totalProducts) public returns (Product[] memory){\r\n        uint count = 0;\r\n        Product[] memory y = new Product[](totalProducts);\r\n        for (uint i= 0; i < productsCount; i++) {\r\n            if (products[i].sellerId == sellerId){\r\n                y[count++] = Product(products[i].id,\r\n                    products[i].name,\r\n                    products[i].price_numerator,\r\n                    products[i].price_denominator,\r\n                    products[i].discount_percentage,\r\n                    products[i].assetUrls,\r\n                    products[i].classification,\r\n                    products[i].quantifier,\r\n                    products[i].decs,\r\n                    products[i].sellerId,\r\n                    products[i].categoryId,\r\n                products[i].inStock);\r\n            }\r\n        }\r\n        return y;\r\n    }\r\n    function contains (string memory what, string memory where) public returns (bool) {\r\n        bytes memory whatBytes = bytes (what);\r\n        bytes memory whereBytes = bytes (where);\r\n        if (keccak256(whatBytes) == keccak256(whereBytes))\r\n            return true;\r\n        bool found = false;\r\n        for (uint i = 0; i < whereBytes.length - whatBytes.length; i++) {\r\n            bool flag = true;\r\n            for (uint j = 0; j < whatBytes.length; j++)\r\n                if (whereBytes [i + j] != whatBytes [j]) {\r\n                    flag = false;\r\n                    break;\r\n                }\r\n            if (flag) {\r\n                found = true;\r\n                break;\r\n            }\r\n        }\r\n        return found;\r\n\r\n    }\r\n    function getQueryProductsCount(string memory query) public returns (uint count){\r\n        uint productsQueryCount = 0;\r\n        for (uint i= 0; i < productsCount; i++) {\r\n            if (contains(_toLower(query), _toLower(products[i].name))){\r\n                productsQueryCount++;\r\n            }\r\n        }\r\n        return productsQueryCount;\r\n    }\r\n    function getQueryProducts(string memory query, uint totalProducts) public returns (Product[] memory){\r\n        uint count = 0;\r\n        Product[] memory y = new Product[](totalProducts);\r\n        for (uint i= 0; i < productsCount; i++) {\r\n            if (contains(_toLower(query), _toLower(products[i].name))){\r\n                y[count++] = Product(products[i].id,\r\n                    products[i].name,\r\n                    products[i].price_numerator,\r\n                    products[i].price_denominator,\r\n                    products[i].discount_percentage,\r\n                    products[i].assetUrls,\r\n                    products[i].classification,\r\n                    products[i].quantifier,\r\n                    products[i].decs,\r\n                    products[i].sellerId,\r\n                    products[i].categoryId,\r\n                products[i].inStock);\r\n            }\r\n        }\r\n        return y;\r\n    }\r\n    function _toLower(string memory str) internal returns (string memory) {\r\n        bytes memory bStr = bytes(str);\r\n        bytes memory bLower = new bytes(bStr.length);\r\n        for (uint i = 0; i < bStr.length; i++) {\r\n            // Uppercase character...\r\n            if ((uint8(bStr[i]) >= 65) && (uint8(bStr[i]) <= 90)) {\r\n                bLower[i] = bytes1(uint8(bStr[i]) + 32);\r\n            } else {\r\n                bLower[i] = bStr[i];\r\n            }\r\n        }\r\n        return string(bLower);\r\n    }\r\n    function setSale(uint _product_id, uint _discount_percentage) public{\r\n        for (uint i= 0; i < productsCount; i++) {\r\n            if (products[i].id == _product_id){\r\n                products[i].discount_percentage = _discount_percentage;\r\n                break;\r\n            }\r\n        }\r\n    }\r\n    function removeProduct(uint productId) public {\r\n        uint index = productsCount;\r\n        for (uint i= 0; i < productsCount; i++) {\r\n            if (products[i].id == productId){\r\n                index = i;\r\n                break;\r\n            }\r\n        }\r\n        if (index < productsCount){\r\n            for (uint i = index; i<productsCount - 1; i++){\r\n                products[i] = products[i+1];\r\n            }\r\n            delete products[productsCount-1];\r\n            productsCount--;\r\n        }\r\n    }\r\n    \r\n    function editProduct(uint _id, string memory _productName, uint _price_nominator, uint _price_denominator, string memory _assetUrls, uint _classif, uint _quantifier, string memory _desc, uint _categoryId, uint _inStock) public {\r\n        for (uint i= 0; i < productsCount; i++) {\r\n            if (products[i].id == _id){\r\n                products[i].name = _productName;\r\n                products[i].price_numerator = _price_nominator;\r\n                products[i].price_denominator = _price_denominator;\r\n                products[i].assetUrls = _assetUrls;\r\n                products[i].classification = _classif;\r\n                products[i].quantifier = _quantifier;\r\n                products[i].decs = _desc;\r\n                products[i].categoryId = _categoryId;\r\n                products[i].inStock = _inStock;\r\n                break;\r\n            }\r\n        }\r\n    }\r\n}",
  "sourcePath": "E:/Catalyst/src/frontend_mobile/contracts/Products.sol",
  "compiler": {
    "name": "solc",
    "version": "0.5.16+commit.9c3226ce.Emscripten.clang"
  },
  "schemaVersion": "3.3.4",
  "updatedAt": "2021-06-04T21:05:22.364Z",
  "networkType": "ethereum",
  "devdoc": {
    "methods": {}
  },
  "userdoc": {
    "methods": {}
  }
}