{
  "contractName": "Products",
  "abi": [
    {
      "inputs": [],
      "payable": false,
      "stateMutability": "nonpayable",
      "type": "constructor"
    },
    {
      "anonymous": false,
      "inputs": [
        {
          "indexed": false,
          "internalType": "string",
          "name": "name",
          "type": "string"
        },
        {
          "indexed": false,
          "internalType": "uint256",
          "name": "ProductNumber",
          "type": "uint256"
        }
      ],
      "name": "ProductCreated",
      "type": "event"
    },
    {
      "constant": true,
      "inputs": [
        {
          "internalType": "uint256",
          "name": "",
          "type": "uint256"
        }
      ],
      "name": "products",
      "outputs": [
        {
          "internalType": "uint256",
          "name": "id",
          "type": "uint256"
        },
        {
          "internalType": "string",
          "name": "name",
          "type": "string"
        },
        {
          "internalType": "uint256",
          "name": "price_numerator",
          "type": "uint256"
        },
        {
          "internalType": "uint256",
          "name": "price_denominator",
          "type": "uint256"
        },
        {
          "internalType": "string",
          "name": "assetUrls",
          "type": "string"
        },
        {
          "internalType": "uint256",
          "name": "classification",
          "type": "uint256"
        },
        {
          "internalType": "uint256",
          "name": "quantifier",
          "type": "uint256"
        },
        {
          "internalType": "string",
          "name": "decs",
          "type": "string"
        },
        {
          "internalType": "uint256",
          "name": "sellerId",
          "type": "uint256"
        },
        {
          "internalType": "uint256",
          "name": "categoryId",
          "type": "uint256"
        }
      ],
      "payable": false,
      "stateMutability": "view",
      "type": "function"
    },
    {
      "constant": true,
      "inputs": [],
      "name": "productsCount",
      "outputs": [
        {
          "internalType": "uint256",
          "name": "",
          "type": "uint256"
        }
      ],
      "payable": false,
      "stateMutability": "view",
      "type": "function"
    },
    {
      "constant": false,
      "inputs": [
        {
          "internalType": "string",
          "name": "_productName",
          "type": "string"
        },
        {
          "internalType": "uint256",
          "name": "_price_nominator",
          "type": "uint256"
        },
        {
          "internalType": "uint256",
          "name": "_price_denominator",
          "type": "uint256"
        },
        {
          "internalType": "string",
          "name": "_assetUrls",
          "type": "string"
        },
        {
          "internalType": "uint256",
          "name": "_classif",
          "type": "uint256"
        },
        {
          "internalType": "uint256",
          "name": "_quantifier",
          "type": "uint256"
        },
        {
          "internalType": "string",
          "name": "_desc",
          "type": "string"
        },
        {
          "internalType": "uint256",
          "name": "_sellerId",
          "type": "uint256"
        },
        {
          "internalType": "uint256",
          "name": "_categoryId",
          "type": "uint256"
        }
      ],
      "name": "createProduct",
      "outputs": [],
      "payable": false,
      "stateMutability": "nonpayable",
      "type": "function"
    }
  ],
  "bytecode": "0x6080604052600080553480156200001557600080fd5b50604051806101400160405280600081526020016040518060400160405280600b81526020017f446f6d61c48769206d656400000000000000000000000000000000000000000081525081526020016032815260200160038152602001604051806060016040528060408152602001620014a7604091398152602001600181526020016102ee81526020016040518060a00160405280606181526020016200152d606191398152602001600181526020016001815250600160008081526020019081526020016000206000820151816000015560208201518160010190805190602001906200010692919062000a39565b50604082015181600201556060820151816003015560808201518160040190805190602001906200013992919062000a39565b5060a0820151816005015560c0820151816006015560e08201518160070190805190602001906200016c92919062000a39565b5061010082015181600801556101208201518160090155905050604051806101400160405280600181526020016040518060400160405280601181526020017f5061736972616e69207061726164616a7a0000000000000000000000000000008152508152602001602b815260200160038152602001604051806060016040528060308152602001620015f2603091398152602001600181526020016101f481526020016040518060a00160405280606181526020016200152d60619139815260200160018152602001600281525060016000600181526020019081526020016000206000820151816000015560208201518160010190805190602001906200027792919062000a39565b5060408201518160020155606082015181600301556080820151816004019080519060200190620002aa92919062000a39565b5060a0820151816005015560c0820151816006015560e0820151816007019080519060200190620002dd92919062000a39565b5061010082015181600801556101208201518160090155905050604051806101400160405280600281526020016040518060400160405280600e81526020017f4d61736c696e6f766f20756c6a650000000000000000000000000000000000008152508152602001604d815260200160038152602001604051806080016040528060468152602001620014e7604691398152602001600181526020016102ee81526020016040518060a00160405280606181526020016200152d6061913981526020016001815260200160038152506001600060028152602001908152602001600020600082015181600001556020820151816001019080519060200190620003e892919062000a39565b50604082015181600201556060820151816003015560808201518160040190805190602001906200041b92919062000a39565b5060a0820151816005015560c0820151816006015560e08201518160070190805190602001906200044e92919062000a39565b5061010082015181600801556101208201518160090155905050604051806101400160405280600381526020016040518060400160405280600681526020017f5072c5a1757400000000000000000000000000000000000000000000000000008152508152602001609a8152602001600381526020016040518060600160405280602f81526020016200142f602f913981526020016001815260200160ea81526020016040518060a00160405280606181526020016200152d60619139815260200160018152602001600481525060016000600381526020019081526020016000206000820151816000015560208201518160010190805190602001906200055892919062000a39565b50604082015181600201556060820151816003015560808201518160040190805190602001906200058b92919062000a39565b5060a0820151816005015560c0820151816006015560e0820151816007019080519060200190620005be92919062000a39565b5061010082015181600801556101208201518160090155905050604051806101400160405280600481526020016040518060400160405280600681526020017f52616b696a610000000000000000000000000000000000000000000000000000815250815260200160628152602001600381526020016040518060600160405280603581526020016200158e603591398152602001600281526020016103e881526020016040518060a00160405280606181526020016200152d6061913981526020016001815260200160058152506001600060048152602001908152602001600020600082015181600001556020820151816001019080519060200190620006c992919062000a39565b5060408201518160020155606082015181600301556080820151816004019080519060200190620006fc92919062000a39565b5060a0820151816005015560c0820151816006015560e08201518160070190805190602001906200072f92919062000a39565b5061010082015181600801556101208201518160090155905050604051806101400160405280600581526020016040518060400160405280600881526020017f4b6f6261736963610000000000000000000000000000000000000000000000008152508152602001604a8152602001600381526020016040518060600160405280602f8152602001620015c3602f91398152602001600181526020016103e881526020016040518060a00160405280606181526020016200152d60619139815260200160018152602001600681525060016000600581526020019081526020016000206000820151816000015560208201518160010190805190602001906200083a92919062000a39565b50604082015181600201556060820151816003015560808201518160040190805190602001906200086d92919062000a39565b5060a0820151816005015560c0820151816006015560e0820151816007019080519060200190620008a092919062000a39565b5061010082015181600801556101208201518160090155905050604051806101400160405280600681526020016040518060400160405280600881526020017f4b616d616d626572000000000000000000000000000000000000000000000000815250815260200160368152602001600381526020016040518060800160405280604981526020016200145e604991398152602001600181526020016101f481526020016040518060a00160405280606181526020016200152d6061913981526020016001815260200160078152506001600060068152602001908152602001600020600082015181600001556020820151816001019080519060200190620009ab92919062000a39565b5060408201518160020155606082015181600301556080820151816004019080519060200190620009de92919062000a39565b5060a0820151816005015560c0820151816006015560e082015181600701908051906020019062000a1192919062000a39565b5061010082015181600801556101208201518160090155905050600760008190555062000ae8565b828054600181600116156101000203166002900490600052602060002090601f016020900481019282601f1062000a7c57805160ff191683800117855562000aad565b8280016001018555821562000aad579182015b8281111562000aac57825182559160200191906001019062000a8f565b5b50905062000abc919062000ac0565b5090565b62000ae591905b8082111562000ae157600081600090555060010162000ac7565b5090565b90565b6109378062000af86000396000f3fe608060405234801561001057600080fd5b50600436106100415760003560e01c80637acc0b2014610046578063c1b4410f1461007f578063e0df7bb61461009b575b600080fd5b610060600480360361005b919081019061065a565b6100b9565b6040516100769a9998979695949392919061074f565b60405180910390f35b6100996004803603610094919081019061054c565b6102d5565b005b6100a3610438565b6040516100b09190610734565b60405180910390f35b6001602052806000526040600020600091509050806000015490806001018054600181600116156101000203166002900480601f01602080910402602001604051908101604052809291908181526020018280546001816001161561010002031660029004801561016b5780601f106101405761010080835404028352916020019161016b565b820191906000526020600020905b81548152906001019060200180831161014e57829003601f168201915b505050505090806002015490806003015490806004018054600181600116156101000203166002900480601f0160208091040260200160405190810160405280929190818152602001828054600181600116156101000203166002900480156102155780601f106101ea57610100808354040283529160200191610215565b820191906000526020600020905b8154815290600101906020018083116101f857829003601f168201915b505050505090806005015490806006015490806007018054600181600116156101000203166002900480601f0160208091040260200160405190810160405280929190818152602001828054600181600116156101000203166002900480156102bf5780601f10610294576101008083540402835291602001916102bf565b820191906000526020600020905b8154815290600101906020018083116102a257829003601f168201915b505050505090806008015490806009015490508a565b60028511156102e357600094505b60405180610140016040528060005481526020018a8152602001898152602001888152602001878152602001868152602001858152602001848152602001838152602001828152506001600080600081548092919060010191905055815260200190815260200160002060008201518160000155602082015181600101908051906020019061037392919061043e565b50604082015181600201556060820151816003015560808201518160040190805190602001906103a492919061043e565b5060a0820151816005015560c0820151816006015560e08201518160070190805190602001906103d592919061043e565b50610100820151816008015561012082015181600901559050507fb040efd5b9ac3e016c34e7ba218414cec2f62f7405435784f124cf44a21dc13789600160005403604051610425929190610704565b60405180910390a1505050505050505050565b60005481565b828054600181600116156101000203166002900490600052602060002090601f016020900481019282601f1061047f57805160ff19168380011785556104ad565b828001600101855582156104ad579182015b828111156104ac578251825591602001919060010190610491565b5b5090506104ba91906104be565b5090565b6104e091905b808211156104dc5760008160009055506001016104c4565b5090565b90565b600082601f8301126104f457600080fd5b81356105076105028261082d565b610800565b9150808252602083016020830185838301111561052357600080fd5b61052e83828461088a565b50505092915050565b600081359050610546816108dd565b92915050565b60008060008060008060008060006101208a8c03121561056b57600080fd5b60008a013567ffffffffffffffff81111561058557600080fd5b6105918c828d016104e3565b99505060206105a28c828d01610537565b98505060406105b38c828d01610537565b97505060608a013567ffffffffffffffff8111156105d057600080fd5b6105dc8c828d016104e3565b96505060806105ed8c828d01610537565b95505060a06105fe8c828d01610537565b94505060c08a013567ffffffffffffffff81111561061b57600080fd5b6106278c828d016104e3565b93505060e06106388c828d01610537565b92505061010061064a8c828d01610537565b9150509295985092959850929598565b60006020828403121561066c57600080fd5b600061067a84828501610537565b91505092915050565b600061068e82610864565b610698818561086f565b93506106a8818560208601610899565b6106b1816108cc565b840191505092915050565b60006106c782610859565b6106d1818561086f565b93506106e1818560208601610899565b6106ea816108cc565b840191505092915050565b6106fe81610880565b82525050565b6000604082019050818103600083015261071e8185610683565b905061072d60208301846106f5565b9392505050565b600060208201905061074960008301846106f5565b92915050565b600061014082019050610765600083018d6106f5565b8181036020830152610777818c6106bc565b9050610786604083018b6106f5565b610793606083018a6106f5565b81810360808301526107a581896106bc565b90506107b460a08301886106f5565b6107c160c08301876106f5565b81810360e08301526107d381866106bc565b90506107e36101008301856106f5565b6107f16101208301846106f5565b9b9a5050505050505050505050565b6000604051905081810181811067ffffffffffffffff8211171561082357600080fd5b8060405250919050565b600067ffffffffffffffff82111561084457600080fd5b601f19601f8301169050602081019050919050565b600081519050919050565b600081519050919050565b600082825260208201905092915050565b6000819050919050565b82818337600083830152505050565b60005b838110156108b757808201518184015260208101905061089c565b838111156108c6576000848401525b50505050565b6000601f19601f8301169050919050565b6108e681610880565b81146108f157600080fd5b5056fea365627a7a72315820b4992eba5c870bb61560d2d7acd128594d6036f2d1c58c25e9d504bcce87e6fe6c6578706572696d656e74616cf564736f6c634300051000406173736574732f70726f647563745f6c697374696e67732f70726f7363697574746f5f34363133375f62792e6a70676173736574732f70726f647563745f6c697374696e67732f7761736865645f72696e645f6368656573655f7061756c5f61736d616e5f6a696c6c5f6c656e6f626c655f62792e6a70676173736574732f70726f647563745f6c697374696e67732f686f6e65795f736861776e5f63617a615f63635f62795f73612e6a70672c736c696b61322e706e676173736574732f70726f647563745f6c697374696e67732f6f6c6976655f6f696c5f636174616c696e615f616c656a616e6472615f6163657665646f5f62795f73612e6a70675365642075742070657273706963696174697320756e6465206f6d6e69732069737465206e61747573206572726f722073697420766f6c7570746174656d206163637573616e7469756d20646f6c6f72656d717565206c617564616e7469756d2e6173736574732f70726f647563745f6c697374696e67732f72616b696a615f73696c766572696a655f63635f62795f73612e6a70676173736574732f70726f647563745f6c697374696e67732f73616c616d695f70626b7765655f62795f73612e6a70676173736574732f70726f647563745f6c697374696e67732f6d617274696e5f636174687261655f62795f73612e6a7067",
  "source": "pragma solidity >=0.4.22 <0.9.0;\r\npragma experimental ABIEncoderV2;\r\ncontract Products{\r\n    uint public productsCount = 0;\r\n\r\n    struct Product{\r\n        uint id;\r\n        string name;\r\n        uint price_numerator;\r\n        uint price_denominator;\r\n        string assetUrls;\r\n        uint classification;\r\n        uint quantifier;\r\n        string decs;\r\n        uint sellerId;\r\n        uint categoryId;\r\n    }\r\n\r\n    mapping (uint => Product) public products;\r\n\r\n    event ProductCreated(string name, uint ProductNumber);\r\n\r\n    constructor() public{\r\n\r\n        products[0] = Product(0, \"Domaći med\", 50, 3, \"assets/product_listings/honey_shawn_caza_cc_by_sa.jpg,slika2.png\", 1, 750,\r\n            \"Sed ut perspiciatis unde omnis iste natus error sit voluptatem accusantium doloremque laudantium.\", 1,1);\r\n        products[1] = Product(1, \"Pasirani paradajz\", 43, 3, \"assets/product_listings/martin_cathrae_by_sa.jpg\", 1, 500,\r\n            \"Sed ut perspiciatis unde omnis iste natus error sit voluptatem accusantium doloremque laudantium.\", 1,2);\r\n        products[2] = Product(2, \"Maslinovo ulje\", 77, 3, \"assets/product_listings/olive_oil_catalina_alejandra_acevedo_by_sa.jpg\", 1, 750,\r\n            \"Sed ut perspiciatis unde omnis iste natus error sit voluptatem accusantium doloremque laudantium.\", 1,3);\r\n        products[3] = Product(3, \"Pršut\", 154, 3, \"assets/product_listings/prosciutto_46137_by.jpg\", 1, 234,\r\n            \"Sed ut perspiciatis unde omnis iste natus error sit voluptatem accusantium doloremque laudantium.\", 1,4);\r\n        products[4] = Product(4, \"Rakija\", 98, 3, \"assets/product_listings/rakija_silverije_cc_by_sa.jpg\", 2, 1000,\r\n            \"Sed ut perspiciatis unde omnis iste natus error sit voluptatem accusantium doloremque laudantium.\", 1,5);\r\n        products[5] = Product(5, \"Kobasica\", 74, 3, \"assets/product_listings/salami_pbkwee_by_sa.jpg\", 1, 1000,\r\n            \"Sed ut perspiciatis unde omnis iste natus error sit voluptatem accusantium doloremque laudantium.\", 1,6);\r\n        products[6] = Product(6, \"Kamamber\", 54,3, \"assets/product_listings/washed_rind_cheese_paul_asman_jill_lenoble_by.jpg\", 1, 500,\r\n            \"Sed ut perspiciatis unde omnis iste natus error sit voluptatem accusantium doloremque laudantium.\", 1,7);\r\n        productsCount = 7;\r\n    }\r\n\r\n    function createProduct(string memory _productName, uint _price_nominator, uint _price_denominator, string memory _assetUrls, uint _classif, uint _quantifier, string memory _desc, uint _sellerId, uint _categoryId) public{\r\n\r\n        if (_classif > 2)\r\n            _classif = 0;\r\n\r\n        products[productsCount++] = Product(productsCount, _productName, _price_nominator, _price_denominator, _assetUrls, _classif, _quantifier, _desc, _sellerId, _categoryId);\r\n        emit ProductCreated(_productName, productsCount - 1);\r\n\r\n    }\r\n\r\n\r\n}",
  "sourcePath": "C:/Users/Korisnik/Desktop/dev/Catalyst/src/frontend_mobile/contracts/Products.sol",
  "compiler": {
    "name": "solc",
    "version": "0.5.16+commit.9c3226ce.Emscripten.clang"
  },
  "schemaVersion": "3.3.4",
  "updatedAt": "2021-04-10T20:43:24.885Z",
  "networkType": "ethereum",
  "devdoc": {
    "methods": {}
  },
  "userdoc": {
    "methods": {}
  }
}