{
  "contractName": "Products",
  "abi": [
    {
      "inputs": [],
      "payable": false,
      "stateMutability": "nonpayable",
      "type": "constructor"
    },
    {
      "anonymous": false,
      "inputs": [
        {
          "indexed": false,
          "internalType": "string",
          "name": "name",
          "type": "string"
        },
        {
          "indexed": false,
          "internalType": "uint256",
          "name": "ProductNumber",
          "type": "uint256"
        }
      ],
      "name": "ProductCreated",
      "type": "event"
    },
    {
      "constant": true,
      "inputs": [
        {
          "internalType": "uint256",
          "name": "",
          "type": "uint256"
        }
      ],
      "name": "products",
      "outputs": [
        {
          "internalType": "uint256",
          "name": "id",
          "type": "uint256"
        },
        {
          "internalType": "string",
          "name": "name",
          "type": "string"
        },
        {
          "internalType": "uint256",
          "name": "price_numerator",
          "type": "uint256"
        },
        {
          "internalType": "uint256",
          "name": "price_denominator",
          "type": "uint256"
        },
        {
          "internalType": "string",
          "name": "assetUrls",
          "type": "string"
        },
        {
          "internalType": "uint256",
          "name": "classification",
          "type": "uint256"
        },
        {
          "internalType": "uint256",
          "name": "quantifier",
          "type": "uint256"
        },
        {
          "internalType": "string",
          "name": "decs",
          "type": "string"
        },
        {
          "internalType": "uint256",
          "name": "sellerId",
          "type": "uint256"
        },
        {
          "internalType": "uint256",
          "name": "categoryId",
          "type": "uint256"
        }
      ],
      "payable": false,
      "stateMutability": "view",
      "type": "function"
    },
    {
      "constant": true,
      "inputs": [],
      "name": "productsCount",
      "outputs": [
        {
          "internalType": "uint256",
          "name": "",
          "type": "uint256"
        }
      ],
      "payable": false,
      "stateMutability": "view",
      "type": "function"
    },
    {
      "constant": false,
      "inputs": [
        {
          "internalType": "string",
          "name": "_productName",
          "type": "string"
        },
        {
          "internalType": "uint256",
          "name": "_price_nominator",
          "type": "uint256"
        },
        {
          "internalType": "uint256",
          "name": "_price_denominator",
          "type": "uint256"
        },
        {
          "internalType": "string",
          "name": "_assetUrls",
          "type": "string"
        },
        {
          "internalType": "uint256",
          "name": "_classif",
          "type": "uint256"
        },
        {
          "internalType": "uint256",
          "name": "_quantifier",
          "type": "uint256"
        },
        {
          "internalType": "string",
          "name": "_desc",
          "type": "string"
        },
        {
          "internalType": "uint256",
          "name": "_sellerId",
          "type": "uint256"
        },
        {
          "internalType": "uint256",
          "name": "_categoryId",
          "type": "uint256"
        }
      ],
      "name": "createProduct",
      "outputs": [],
      "payable": false,
      "stateMutability": "nonpayable",
      "type": "function"
    },
    {
      "constant": false,
      "inputs": [
        {
          "internalType": "uint256",
          "name": "category",
          "type": "uint256"
        },
        {
          "internalType": "uint256",
          "name": "totalProducts",
          "type": "uint256"
        }
      ],
      "name": "getProductsForCategory",
      "outputs": [
        {
          "components": [
            {
              "internalType": "uint256",
              "name": "id",
              "type": "uint256"
            },
            {
              "internalType": "string",
              "name": "name",
              "type": "string"
            },
            {
              "internalType": "uint256",
              "name": "price_numerator",
              "type": "uint256"
            },
            {
              "internalType": "uint256",
              "name": "price_denominator",
              "type": "uint256"
            },
            {
              "internalType": "string",
              "name": "assetUrls",
              "type": "string"
            },
            {
              "internalType": "uint256",
              "name": "classification",
              "type": "uint256"
            },
            {
              "internalType": "uint256",
              "name": "quantifier",
              "type": "uint256"
            },
            {
              "internalType": "string",
              "name": "decs",
              "type": "string"
            },
            {
              "internalType": "uint256",
              "name": "sellerId",
              "type": "uint256"
            },
            {
              "internalType": "uint256",
              "name": "categoryId",
              "type": "uint256"
            }
          ],
          "internalType": "struct Products.Product[]",
          "name": "",
          "type": "tuple[]"
        }
      ],
      "payable": false,
      "stateMutability": "nonpayable",
      "type": "function"
    },
    {
      "constant": false,
      "inputs": [
        {
          "internalType": "uint256",
          "name": "category",
          "type": "uint256"
        }
      ],
      "name": "getProductsForCategoryCount",
      "outputs": [
        {
          "internalType": "uint256",
          "name": "count",
          "type": "uint256"
        }
      ],
      "payable": false,
      "stateMutability": "nonpayable",
      "type": "function"
    },
    {
      "constant": false,
      "inputs": [
        {
          "internalType": "uint256",
          "name": "id",
          "type": "uint256"
        }
      ],
      "name": "getProductById",
      "outputs": [
        {
          "components": [
            {
              "internalType": "uint256",
              "name": "id",
              "type": "uint256"
            },
            {
              "internalType": "string",
              "name": "name",
              "type": "string"
            },
            {
              "internalType": "uint256",
              "name": "price_numerator",
              "type": "uint256"
            },
            {
              "internalType": "uint256",
              "name": "price_denominator",
              "type": "uint256"
            },
            {
              "internalType": "string",
              "name": "assetUrls",
              "type": "string"
            },
            {
              "internalType": "uint256",
              "name": "classification",
              "type": "uint256"
            },
            {
              "internalType": "uint256",
              "name": "quantifier",
              "type": "uint256"
            },
            {
              "internalType": "string",
              "name": "decs",
              "type": "string"
            },
            {
              "internalType": "uint256",
              "name": "sellerId",
              "type": "uint256"
            },
            {
              "internalType": "uint256",
              "name": "categoryId",
              "type": "uint256"
            }
          ],
          "internalType": "struct Products.Product",
          "name": "",
          "type": "tuple"
        }
      ],
      "payable": false,
      "stateMutability": "nonpayable",
      "type": "function"
    },
    {
      "constant": false,
      "inputs": [
        {
          "internalType": "uint256",
          "name": "sellerId",
          "type": "uint256"
        }
      ],
      "name": "getSellerProductsCount",
      "outputs": [
        {
          "internalType": "uint256",
          "name": "count",
          "type": "uint256"
        }
      ],
      "payable": false,
      "stateMutability": "nonpayable",
      "type": "function"
    },
    {
      "constant": false,
      "inputs": [
        {
          "internalType": "uint256",
          "name": "sellerId",
          "type": "uint256"
        },
        {
          "internalType": "uint256",
          "name": "totalProducts",
          "type": "uint256"
        }
      ],
      "name": "getSellerProducts",
      "outputs": [
        {
          "components": [
            {
              "internalType": "uint256",
              "name": "id",
              "type": "uint256"
            },
            {
              "internalType": "string",
              "name": "name",
              "type": "string"
            },
            {
              "internalType": "uint256",
              "name": "price_numerator",
              "type": "uint256"
            },
            {
              "internalType": "uint256",
              "name": "price_denominator",
              "type": "uint256"
            },
            {
              "internalType": "string",
              "name": "assetUrls",
              "type": "string"
            },
            {
              "internalType": "uint256",
              "name": "classification",
              "type": "uint256"
            },
            {
              "internalType": "uint256",
              "name": "quantifier",
              "type": "uint256"
            },
            {
              "internalType": "string",
              "name": "decs",
              "type": "string"
            },
            {
              "internalType": "uint256",
              "name": "sellerId",
              "type": "uint256"
            },
            {
              "internalType": "uint256",
              "name": "categoryId",
              "type": "uint256"
            }
          ],
          "internalType": "struct Products.Product[]",
          "name": "",
          "type": "tuple[]"
        }
      ],
      "payable": false,
      "stateMutability": "nonpayable",
      "type": "function"
    },
    {
      "constant": false,
      "inputs": [
        {
          "internalType": "string",
          "name": "what",
          "type": "string"
        },
        {
          "internalType": "string",
          "name": "where",
          "type": "string"
        }
      ],
      "name": "contains",
      "outputs": [
        {
          "internalType": "bool",
          "name": "",
          "type": "bool"
        }
      ],
      "payable": false,
      "stateMutability": "nonpayable",
      "type": "function"
    },
    {
      "constant": false,
      "inputs": [
        {
          "internalType": "string",
          "name": "query",
          "type": "string"
        }
      ],
      "name": "getQueryProductsCount",
      "outputs": [
        {
          "internalType": "uint256",
          "name": "count",
          "type": "uint256"
        }
      ],
      "payable": false,
      "stateMutability": "nonpayable",
      "type": "function"
    },
    {
      "constant": false,
      "inputs": [
        {
          "internalType": "string",
          "name": "query",
          "type": "string"
        },
        {
          "internalType": "uint256",
          "name": "totalProducts",
          "type": "uint256"
        }
      ],
      "name": "getQueryProducts",
      "outputs": [
        {
          "components": [
            {
              "internalType": "uint256",
              "name": "id",
              "type": "uint256"
            },
            {
              "internalType": "string",
              "name": "name",
              "type": "string"
            },
            {
              "internalType": "uint256",
              "name": "price_numerator",
              "type": "uint256"
            },
            {
              "internalType": "uint256",
              "name": "price_denominator",
              "type": "uint256"
            },
            {
              "internalType": "string",
              "name": "assetUrls",
              "type": "string"
            },
            {
              "internalType": "uint256",
              "name": "classification",
              "type": "uint256"
            },
            {
              "internalType": "uint256",
              "name": "quantifier",
              "type": "uint256"
            },
            {
              "internalType": "string",
              "name": "decs",
              "type": "string"
            },
            {
              "internalType": "uint256",
              "name": "sellerId",
              "type": "uint256"
            },
            {
              "internalType": "uint256",
              "name": "categoryId",
              "type": "uint256"
            }
          ],
          "internalType": "struct Products.Product[]",
          "name": "",
          "type": "tuple[]"
        }
      ],
      "payable": false,
      "stateMutability": "nonpayable",
      "type": "function"
    }
  ],
  "bytecode": "0x6080604052600080553480156200001557600080fd5b50604051806101400160405280600081526020016040518060400160405280600b81526020017f446f6d61c48769206d65640000000000000000000000000000000000000000008152508152602001603281526020016003815260200160405180608001604052806043815260200162002e45604391398152602001600181526020016102ee81526020016040518060a001604052806061815260200162002e88606191398152602001600181526020016009815250600160008081526020019081526020016000206000820151816000015560208201518160010190805190602001906200010692919062000a39565b50604082015181600201556060820151816003015560808201518160040190805190602001906200013992919062000a39565b5060a0820151816005015560c0820151816006015560e08201518160070190805190602001906200016c92919062000a39565b5061010082015181600801556101208201518160090155905050604051806101400160405280600181526020016040518060400160405280601181526020017f5061736972616e69207061726164616a7a0000000000000000000000000000008152508152602001602b81526020016003815260200160405180608001604052806043815260200162002ee9604391398152602001600181526020016101f481526020016040518060a001604052806061815260200162002e8860619139815260200160018152602001600381525060016000600181526020019081526020016000206000820151816000015560208201518160010190805190602001906200027792919062000a39565b5060408201518160020155606082015181600301556080820151816004019080519060200190620002aa92919062000a39565b5060a0820151816005015560c0820151816006015560e0820151816007019080519060200190620002dd92919062000a39565b5061010082015181600801556101208201518160090155905050604051806101400160405280600281526020016040518060400160405280600e81526020017f4d61736c696e6f766f20756c6a650000000000000000000000000000000000008152508152602001604d81526020016003815260200160405180608001604052806043815260200162002dbf604391398152602001600181526020016102ee81526020016040518060a001604052806061815260200162002e886061913981526020016001815260200160098152506001600060028152602001908152602001600020600082015181600001556020820151816001019080519060200190620003e892919062000a39565b50604082015181600201556060820151816003015560808201518160040190805190602001906200041b92919062000a39565b5060a0820151816005015560c0820151816006015560e08201518160070190805190602001906200044e92919062000a39565b5061010082015181600801556101208201518160090155905050604051806101400160405280600381526020016040518060400160405280600681526020017f5072c5a1757400000000000000000000000000000000000000000000000000008152508152602001609a81526020016003815260200160405180608001604052806043815260200162002f6f6043913981526020016001815260200160ea81526020016040518060a001604052806061815260200162002e8860619139815260200160018152602001600181525060016000600381526020019081526020016000206000820151816000015560208201518160010190805190602001906200055892919062000a39565b50604082015181600201556060820151816003015560808201518160040190805190602001906200058b92919062000a39565b5060a0820151816005015560c0820151816006015560e0820151816007019080519060200190620005be92919062000a39565b5061010082015181600801556101208201518160090155905050604051806101400160405280600481526020016040518060400160405280600681526020017f52616b696a6100000000000000000000000000000000000000000000000000008152508152602001606281526020016003815260200160405180608001604052806043815260200162002d7c604391398152602001600281526020016103e881526020016040518060a001604052806061815260200162002e886061913981526020016001815260200160058152506001600060048152602001908152602001600020600082015181600001556020820151816001019080519060200190620006c992919062000a39565b5060408201518160020155606082015181600301556080820151816004019080519060200190620006fc92919062000a39565b5060a0820151816005015560c0820151816006015560e08201518160070190805190602001906200072f92919062000a39565b5061010082015181600801556101208201518160090155905050604051806101400160405280600581526020016040518060400160405280600881526020017f4b6f6261736963610000000000000000000000000000000000000000000000008152508152602001604a81526020016003815260200160405180608001604052806043815260200162002e02604391398152602001600181526020016103e881526020016040518060a001604052806061815260200162002e8860619139815260200160018152602001600181525060016000600581526020019081526020016000206000820151816000015560208201518160010190805190602001906200083a92919062000a39565b50604082015181600201556060820151816003015560808201518160040190805190602001906200086d92919062000a39565b5060a0820151816005015560c0820151816006015560e0820151816007019080519060200190620008a092919062000a39565b5061010082015181600801556101208201518160090155905050604051806101400160405280600681526020016040518060400160405280600881526020017f4b616d616d6265720000000000000000000000000000000000000000000000008152508152602001603681526020016003815260200160405180608001604052806043815260200162002f2c604391398152602001600181526020016101f481526020016040518060a001604052806061815260200162002e886061913981526020016001815260200160028152506001600060068152602001908152602001600020600082015181600001556020820151816001019080519060200190620009ab92919062000a39565b5060408201518160020155606082015181600301556080820151816004019080519060200190620009de92919062000a39565b5060a0820151816005015560c0820151816006015560e082015181600701908051906020019062000a1192919062000a39565b5061010082015181600801556101208201518160090155905050600760008190555062000ae8565b828054600181600116156101000203166002900490600052602060002090601f016020900481019282601f1062000a7c57805160ff191683800117855562000aad565b8280016001018555821562000aad579182015b8281111562000aac57825182559160200191906001019062000a8f565b5b50905062000abc919062000ac0565b5090565b62000ae591905b8082111562000ae157600081600090555060010162000ac7565b5090565b90565b6122848062000af86000396000f3fe608060405234801561001057600080fd5b50600436106100a85760003560e01c80637acc0b20116100715780637acc0b201461019d578063a0ea3511146101d6578063ac8a54b114610206578063c1b4410f14610236578063e0df7bb614610252578063faa5953f14610270576100a8565b806230d99f146100ad5780632dc810ab146100dd5780633f70c2b41461010d5780633fb18aec1461013d578063623e610a1461016d575b600080fd5b6100c760048036036100c29190810190611aa4565b6102a0565b6040516100d49190611f9c565b60405180910390f35b6100f760048036036100f29190810190611c2f565b6106e4565b6040516101049190611f9c565b60405180910390f35b61012760048036036101229190810190611c06565b610a79565b6040516101349190612009565b60405180910390f35b61015760048036036101529190810190611a38565b610d20565b6040516101649190611fbe565b60405180910390f35b610187600480360361018291908101906119f7565b610e13565b604051610194919061202b565b60405180910390f35b6101b760048036036101b29190810190611c06565b610f17565b6040516101cd9a99989796959493929190612046565b60405180910390f35b6101f060048036036101eb9190810190611c2f565b611133565b6040516101fd9190611f9c565b60405180910390f35b610220600480360361021b9190810190611c06565b6114c8565b60405161022d919061202b565b60405180910390f35b610250600480360361024b9190810190611af8565b61151d565b005b61025a611680565b604051610267919061202b565b60405180910390f35b61028a60048036036102859190810190611c06565b611686565b604051610297919061202b565b60405180910390f35b606060008090506060836040519080825280602002602001820160405280156102e357816020015b6102d0611843565b8152602001906001900390816102c85790505b50905060008090505b6000548110156106d8576103be610302876116db565b6103b9600160008581526020019081526020016000206001018054600181600116156101000203166002900480601f0160208091040260200160405190810160405280929190818152602001828054600181600116156101000203166002900480156103af5780601f10610384576101008083540402835291602001916103af565b820191906000526020600020905b81548152906001019060200180831161039257829003601f168201915b50505050506116db565b610d20565b156106cb5760405180610140016040528060016000848152602001908152602001600020600001548152602001600160008481526020019081526020016000206001018054600181600116156101000203166002900480601f0160208091040260200160405190810160405280929190818152602001828054600181600116156101000203166002900480156104955780601f1061046a57610100808354040283529160200191610495565b820191906000526020600020905b81548152906001019060200180831161047857829003601f168201915b505050505081526020016001600084815260200190815260200160002060020154815260200160016000848152602001908152602001600020600301548152602001600160008481526020019081526020016000206004018054600181600116156101000203166002900480601f0160208091040260200160405190810160405280929190818152602001828054600181600116156101000203166002900480156105815780601f1061055657610100808354040283529160200191610581565b820191906000526020600020905b81548152906001019060200180831161056457829003601f168201915b505050505081526020016001600084815260200190815260200160002060050154815260200160016000848152602001908152602001600020600601548152602001600160008481526020019081526020016000206007018054600181600116156101000203166002900480601f01602080910402602001604051908101604052809291908181526020018280546001816001161561010002031660029004801561066d5780601f106106425761010080835404028352916020019161066d565b820191906000526020600020905b81548152906001019060200180831161065057829003601f168201915b505050505081526020016001600084815260200190815260200160002060080154815260200160016000848152602001908152602001600020600901548152508284806001019550815181106106bf57fe5b60200260200101819052505b80806001019150506102ec565b50809250505092915050565b6060600080905060608360405190808252806020026020018201604052801561072757816020015b610714611843565b81526020019060019003908161070c5790505b50905060008090505b600054811015610a6d578560016000838152602001908152602001600020600901541415610a605760405180610140016040528060016000848152602001908152602001600020600001548152602001600160008481526020019081526020016000206001018054600181600116156101000203166002900480601f01602080910402602001604051908101604052809291908181526020018280546001816001161561010002031660029004801561082a5780601f106107ff5761010080835404028352916020019161082a565b820191906000526020600020905b81548152906001019060200180831161080d57829003601f168201915b505050505081526020016001600084815260200190815260200160002060020154815260200160016000848152602001908152602001600020600301548152602001600160008481526020019081526020016000206004018054600181600116156101000203166002900480601f0160208091040260200160405190810160405280929190818152602001828054600181600116156101000203166002900480156109165780601f106108eb57610100808354040283529160200191610916565b820191906000526020600020905b8154815290600101906020018083116108f957829003601f168201915b505050505081526020016001600084815260200190815260200160002060050154815260200160016000848152602001908152602001600020600601548152602001600160008481526020019081526020016000206007018054600181600116156101000203166002900480601f016020809104026020016040519081016040528092919081815260200182805460018160011615610100020316600290048015610a025780601f106109d757610100808354040283529160200191610a02565b820191906000526020600020905b8154815290600101906020018083116109e557829003601f168201915b50505050508152602001600160008481526020019081526020016000206008015481526020016001600084815260200190815260200160002060090154815250828480600101955081518110610a5457fe5b60200260200101819052505b8080600101915050610730565b50809250505092915050565b610a81611896565b610a89611896565b60008090505b600054811015610d16578360016000838152602001908152602001600020600001541415610d0957600160008281526020019081526020016000206040518061014001604052908160008201548152602001600182018054600181600116156101000203166002900480601f016020809104026020016040519081016040528092919081815260200182805460018160011615610100020316600290048015610b795780601f10610b4e57610100808354040283529160200191610b79565b820191906000526020600020905b815481529060010190602001808311610b5c57829003601f168201915b505050505081526020016002820154815260200160038201548152602001600482018054600181600116156101000203166002900480601f016020809104026020016040519081016040528092919081815260200182805460018160011615610100020316600290048015610c2f5780601f10610c0457610100808354040283529160200191610c2f565b820191906000526020600020905b815481529060010190602001808311610c1257829003601f168201915b505050505081526020016005820154815260200160068201548152602001600782018054600181600116156101000203166002900480601f016020809104026020016040519081016040528092919081815260200182805460018160011615610100020316600290048015610ce55780601f10610cba57610100808354040283529160200191610ce5565b820191906000526020600020905b815481529060010190602001808311610cc857829003601f168201915b50505050508152602001600882015481526020016009820154815250509150610d16565b8080600101915050610a8f565b5080915050919050565b600060608390506060839050600080905060008090505b8351835103811015610e065760006001905060008090505b8551811015610de757858181518110610d6457fe5b602001015160f81c60f81b7effffffffffffffffffffffffffffffffffffffffffffffffffffffffffffff19168582850181518110610d9f57fe5b602001015160f81c60f81b7effffffffffffffffffffffffffffffffffffffffffffffffffffffffffffff191614610dda5760009150610de7565b8080600101915050610d4f565b508015610df8576001925050610e06565b508080600101915050610d37565b5080935050505092915050565b6000806000905060008090505b600054811015610f0d57610ef2610e36856116db565b610eed600160008581526020019081526020016000206001018054600181600116156101000203166002900480601f016020809104026020016040519081016040528092919081815260200182805460018160011615610100020316600290048015610ee35780601f10610eb857610100808354040283529160200191610ee3565b820191906000526020600020905b815481529060010190602001808311610ec657829003601f168201915b50505050506116db565b610d20565b15610f005781806001019250505b8080600101915050610e20565b5080915050919050565b6001602052806000526040600020600091509050806000015490806001018054600181600116156101000203166002900480601f016020809104026020016040519081016040528092919081815260200182805460018160011615610100020316600290048015610fc95780601f10610f9e57610100808354040283529160200191610fc9565b820191906000526020600020905b815481529060010190602001808311610fac57829003601f168201915b505050505090806002015490806003015490806004018054600181600116156101000203166002900480601f0160208091040260200160405190810160405280929190818152602001828054600181600116156101000203166002900480156110735780601f1061104857610100808354040283529160200191611073565b820191906000526020600020905b81548152906001019060200180831161105657829003601f168201915b505050505090806005015490806006015490806007018054600181600116156101000203166002900480601f01602080910402602001604051908101604052809291908181526020018280546001816001161561010002031660029004801561111d5780601f106110f25761010080835404028352916020019161111d565b820191906000526020600020905b81548152906001019060200180831161110057829003601f168201915b505050505090806008015490806009015490508a565b6060600080905060608360405190808252806020026020018201604052801561117657816020015b611163611843565b81526020019060019003908161115b5790505b50905060008090505b6000548110156114bc5785600160008381526020019081526020016000206008015414156114af5760405180610140016040528060016000848152602001908152602001600020600001548152602001600160008481526020019081526020016000206001018054600181600116156101000203166002900480601f0160208091040260200160405190810160405280929190818152602001828054600181600116156101000203166002900480156112795780601f1061124e57610100808354040283529160200191611279565b820191906000526020600020905b81548152906001019060200180831161125c57829003601f168201915b505050505081526020016001600084815260200190815260200160002060020154815260200160016000848152602001908152602001600020600301548152602001600160008481526020019081526020016000206004018054600181600116156101000203166002900480601f0160208091040260200160405190810160405280929190818152602001828054600181600116156101000203166002900480156113655780601f1061133a57610100808354040283529160200191611365565b820191906000526020600020905b81548152906001019060200180831161134857829003601f168201915b505050505081526020016001600084815260200190815260200160002060050154815260200160016000848152602001908152602001600020600601548152602001600160008481526020019081526020016000206007018054600181600116156101000203166002900480601f0160208091040260200160405190810160405280929190818152602001828054600181600116156101000203166002900480156114515780601f1061142657610100808354040283529160200191611451565b820191906000526020600020905b81548152906001019060200180831161143457829003601f168201915b505050505081526020016001600084815260200190815260200160002060080154815260200160016000848152602001908152602001600020600901548152508284806001019550815181106114a357fe5b60200260200101819052505b808060010191505061117f565b50809250505092915050565b6000806000905060008090505b6000548110156115135783600160008381526020019081526020016000206009015414156115065781806001019250505b80806001019150506114d5565b5080915050919050565b600285111561152b57600094505b60405180610140016040528060005481526020018a815260200189815260200188815260200187815260200186815260200185815260200184815260200183815260200182815250600160008060008154809291906001019190505581526020019081526020016000206000820151816000015560208201518160010190805190602001906115bb9291906118e9565b50604082015181600201556060820151816003015560808201518160040190805190602001906115ec9291906118e9565b5060a0820151816005015560c0820151816006015560e082015181600701908051906020019061161d9291906118e9565b50610100820151816008015561012082015181600901559050507fb040efd5b9ac3e016c34e7ba218414cec2f62f7405435784f124cf44a21dc1378960016000540360405161166d929190611fd9565b60405180910390a1505050505050505050565b60005481565b6000806000905060008090505b6000548110156116d15783600160008381526020019081526020016000206008015414156116c45781806001019250505b8080600101915050611693565b5080915050919050565b606080829050606081516040519080825280601f01601f1916602001820160405280156117175781602001600182028038833980820191505090505b50905060008090505b825181101561183857604183828151811061173757fe5b602001015160f81c60f81b60f81c60ff16101580156117735750605a83828151811061175f57fe5b602001015160f81c60f81b60f81c60ff1611155b156117d857602083828151811061178657fe5b602001015160f81c60f81b60f81c0160f81b8282815181106117a457fe5b60200101907effffffffffffffffffffffffffffffffffffffffffffffffffffffffffffff1916908160001a90535061182b565b8281815181106117e457fe5b602001015160f81c60f81b8282815181106117fb57fe5b60200101907effffffffffffffffffffffffffffffffffffffffffffffffffffffffffffff1916908160001a9053505b8080600101915050611720565b508092505050919050565b604051806101400160405280600081526020016060815260200160008152602001600081526020016060815260200160008152602001600081526020016060815260200160008152602001600081525090565b604051806101400160405280600081526020016060815260200160008152602001600081526020016060815260200160008152602001600081526020016060815260200160008152602001600081525090565b828054600181600116156101000203166002900490600052602060002090601f016020900481019282601f1061192a57805160ff1916838001178555611958565b82800160010185558215611958579182015b8281111561195757825182559160200191906001019061193c565b5b5090506119659190611969565b5090565b61198b91905b8082111561198757600081600090555060010161196f565b5090565b90565b600082601f83011261199f57600080fd5b81356119b26119ad82612124565b6120f7565b915080825260208301602083018583830111156119ce57600080fd5b6119d98382846121d7565b50505092915050565b6000813590506119f18161222a565b92915050565b600060208284031215611a0957600080fd5b600082013567ffffffffffffffff811115611a2357600080fd5b611a2f8482850161198e565b91505092915050565b60008060408385031215611a4b57600080fd5b600083013567ffffffffffffffff811115611a6557600080fd5b611a718582860161198e565b925050602083013567ffffffffffffffff811115611a8e57600080fd5b611a9a8582860161198e565b9150509250929050565b60008060408385031215611ab757600080fd5b600083013567ffffffffffffffff811115611ad157600080fd5b611add8582860161198e565b9250506020611aee858286016119e2565b9150509250929050565b60008060008060008060008060006101208a8c031215611b1757600080fd5b60008a013567ffffffffffffffff811115611b3157600080fd5b611b3d8c828d0161198e565b9950506020611b4e8c828d016119e2565b9850506040611b5f8c828d016119e2565b97505060608a013567ffffffffffffffff811115611b7c57600080fd5b611b888c828d0161198e565b9650506080611b998c828d016119e2565b95505060a0611baa8c828d016119e2565b94505060c08a013567ffffffffffffffff811115611bc757600080fd5b611bd38c828d0161198e565b93505060e0611be48c828d016119e2565b925050610100611bf68c828d016119e2565b9150509295985092959850929598565b600060208284031215611c1857600080fd5b6000611c26848285016119e2565b91505092915050565b60008060408385031215611c4257600080fd5b6000611c50858286016119e2565b9250506020611c61858286016119e2565b9150509250929050565b6000611c778383611e96565b905092915050565b6000611c8a82612160565b611c94818561218e565b935083602082028501611ca685612150565b8060005b85811015611ce25784840389528151611cc38582611c6b565b9450611cce83612181565b925060208a01995050600181019050611caa565b50829750879550505050505092915050565b611cfd816121c1565b82525050565b6000611d0e82612176565b611d1881856121b0565b9350611d288185602086016121e6565b611d3181612219565b840191505092915050565b6000611d478261216b565b611d51818561219f565b9350611d618185602086016121e6565b611d6a81612219565b840191505092915050565b6000611d808261216b565b611d8a81856121b0565b9350611d9a8185602086016121e6565b611da381612219565b840191505092915050565b600061014083016000830151611dc76000860182611f7e565b5060208301518482036020860152611ddf8282611d3c565b9150506040830151611df46040860182611f7e565b506060830151611e076060860182611f7e565b5060808301518482036080860152611e1f8282611d3c565b91505060a0830151611e3460a0860182611f7e565b5060c0830151611e4760c0860182611f7e565b5060e083015184820360e0860152611e5f8282611d3c565b915050610100830151611e76610100860182611f7e565b50610120830151611e8b610120860182611f7e565b508091505092915050565b600061014083016000830151611eaf6000860182611f7e565b5060208301518482036020860152611ec78282611d3c565b9150506040830151611edc6040860182611f7e565b506060830151611eef6060860182611f7e565b5060808301518482036080860152611f078282611d3c565b91505060a0830151611f1c60a0860182611f7e565b5060c0830151611f2f60c0860182611f7e565b5060e083015184820360e0860152611f478282611d3c565b915050610100830151611f5e610100860182611f7e565b50610120830151611f73610120860182611f7e565b508091505092915050565b611f87816121cd565b82525050565b611f96816121cd565b82525050565b60006020820190508181036000830152611fb68184611c7f565b905092915050565b6000602082019050611fd36000830184611cf4565b92915050565b60006040820190508181036000830152611ff38185611d03565b90506120026020830184611f8d565b9392505050565b600060208201905081810360008301526120238184611dae565b905092915050565b60006020820190506120406000830184611f8d565b92915050565b60006101408201905061205c600083018d611f8d565b818103602083015261206e818c611d75565b905061207d604083018b611f8d565b61208a606083018a611f8d565b818103608083015261209c8189611d75565b90506120ab60a0830188611f8d565b6120b860c0830187611f8d565b81810360e08301526120ca8186611d75565b90506120da610100830185611f8d565b6120e8610120830184611f8d565b9b9a5050505050505050505050565b6000604051905081810181811067ffffffffffffffff8211171561211a57600080fd5b8060405250919050565b600067ffffffffffffffff82111561213b57600080fd5b601f19601f8301169050602081019050919050565b6000819050602082019050919050565b600081519050919050565b600081519050919050565b600081519050919050565b6000602082019050919050565b600082825260208201905092915050565b600082825260208201905092915050565b600082825260208201905092915050565b60008115159050919050565b6000819050919050565b82818337600083830152505050565b60005b838110156122045780820151818401526020810190506121e9565b83811115612213576000848401525b50505050565b6000601f19601f8301169050919050565b612233816121cd565b811461223e57600080fd5b5056fea365627a7a72315820f7cbcd1ad005c7860422ed0d3b501b3fa42cdaa34ee7fc07d78abc95336baf8e6c6578706572696d656e74616cf564736f6c6343000510004068747470733a2f2f697066732e696f2f697066732f516d623174565142586e516565615164536f4d486a545242576e477577476e7357714a6739374c64766b6b467a5368747470733a2f2f697066732e696f2f697066732f516d52735a59626f4568535943475a4342694552764b436645454245425778596d3646554e4867326f72794b5a6b68747470733a2f2f697066732e696f2f697066732f516d527843696a74556f4d4744503776646666317237344459506868476864656d746b6874355233397047787a4368747470733a2f2f697066732e696f2f697066732f516d5642333861624454566a3546553147546257366b3251684442384648785971684248774654726978373842775365642075742070657273706963696174697320756e6465206f6d6e69732069737465206e61747573206572726f722073697420766f6c7570746174656d206163637573616e7469756d20646f6c6f72656d717565206c617564616e7469756d2e68747470733a2f2f697066732e696f2f697066732f516d534757684d64554b39595864665a425036674b516f7a5878714265346d63645375687573506256795a54437868747470733a2f2f697066732e696f2f697066732f516d575772706251675542364c6464433455645a466743364a504a63763532536f743766414a6a7673716358674568747470733a2f2f697066732e696f2f697066732f516d586431567766454a57656131544c363271396274696b4c797063774366375654423436484c59783745737551",
  "source": "pragma solidity >=0.4.22 <0.9.0;\r\npragma experimental ABIEncoderV2;\r\ncontract Products{\r\n    uint public productsCount = 0;\r\n\r\n    struct Product{\r\n        uint id;\r\n        string name;\r\n        uint price_numerator;\r\n        uint price_denominator;\r\n        string assetUrls;\r\n        uint classification;\r\n        uint quantifier;\r\n        string decs;\r\n        uint sellerId;\r\n        uint categoryId;\r\n\r\n    }\r\n\r\n    mapping (uint => Product) public products;\r\n\r\n    event ProductCreated(string name, uint ProductNumber);\r\n\r\n    constructor() public{\r\n\r\n        products[0] = Product(0, \"Domai med\", 50, 3, \"https://ipfs.io/ipfs/QmVB38abDTVj5FU1GTbW6k2QhDB8FHxYqhBHwFTrix78Bw\", 1, 750,\r\n            \"Sed ut perspiciatis unde omnis iste natus error sit voluptatem accusantium doloremque laudantium.\", 1,9);\r\n        products[1] = Product(1, \"Pasirani paradajz\", 43, 3, \"https://ipfs.io/ipfs/QmSGWhMdUK9YXdfZBP6gKQozXxqBe4mcdSuhusPbVyZTCx\", 1, 500,\r\n            \"Sed ut perspiciatis unde omnis iste natus error sit voluptatem accusantium doloremque laudantium.\", 1,3);\r\n        products[2] = Product(2, \"Maslinovo ulje\", 77, 3, \"https://ipfs.io/ipfs/QmRsZYboEhSYCGZCBiERvKCfEEBEBWxYm6FUNHg2oryKZk\", 1, 750,\r\n            \"Sed ut perspiciatis unde omnis iste natus error sit voluptatem accusantium doloremque laudantium.\", 1,9);\r\n        products[3] = Product(3, \"Prut\", 154, 3, \"https://ipfs.io/ipfs/QmXd1VwfEJWea1TL62q9btikLypcwCf7VTB46HLYx7EsuQ\", 1, 234,\r\n            \"Sed ut perspiciatis unde omnis iste natus error sit voluptatem accusantium doloremque laudantium.\", 1,1);\r\n        products[4] = Product(4, \"Rakija\", 98, 3, \"https://ipfs.io/ipfs/Qmb1tVQBXnQeeaQdSoMHjTRBWnGuwGnsWqJg97LdvkkFzS\", 2, 1000,\r\n            \"Sed ut perspiciatis unde omnis iste natus error sit voluptatem accusantium doloremque laudantium.\", 1,5);\r\n        products[5] = Product(5, \"Kobasica\", 74, 3, \"https://ipfs.io/ipfs/QmRxCijtUoMGDP7vdff1r74DYPhhGhdemtkht5R39pGxzC\", 1, 1000,\r\n            \"Sed ut perspiciatis unde omnis iste natus error sit voluptatem accusantium doloremque laudantium.\", 1,1);\r\n        products[6] = Product(6, \"Kamamber\", 54,3, \"https://ipfs.io/ipfs/QmWWrpbQgUB6LddC4UdZFgC6JPJcv52Sot7fAJjvsqcXgE\", 1, 500,\r\n            \"Sed ut perspiciatis unde omnis iste natus error sit voluptatem accusantium doloremque laudantium.\", 1,2);\r\n        productsCount = 7;\r\n    }\r\n\r\n    function createProduct(string memory _productName, uint _price_nominator, uint _price_denominator, string memory _assetUrls, uint _classif, uint _quantifier, string memory _desc, uint _sellerId, uint _categoryId) public{\r\n\r\n        if (_classif > 2)\r\n            _classif = 0;\r\n\r\n        products[productsCount++] = Product(productsCount, _productName, _price_nominator, _price_denominator, _assetUrls, _classif, _quantifier, _desc, _sellerId, _categoryId);\r\n        emit ProductCreated(_productName, productsCount - 1);\r\n\r\n    }\r\n    function getProductsForCategory(uint category, uint totalProducts) public returns (Product[] memory){\r\n        uint count = 0;\r\n        Product[] memory y = new Product[](totalProducts);\r\n        for (uint i= 0; i < productsCount; i++) {\r\n            if (products[i].categoryId == category){\r\n                y[count++] = Product(products[i].id,\r\n                products[i].name,\r\n                products[i].price_numerator,\r\n                products[i].price_denominator,\r\n                products[i].assetUrls,\r\n                products[i].classification,\r\n                products[i].quantifier,\r\n                products[i].decs,\r\n                products[i].sellerId,\r\n                    products[i].categoryId);\r\n            }\r\n        }\r\n        return y;\r\n    }\r\n    function getProductsForCategoryCount(uint category) public returns (uint count){\r\n        uint productsForCategoryCount = 0;\r\n        for (uint i= 0; i < productsCount; i++) {\r\n            if (products[i].categoryId == category){\r\n                productsForCategoryCount++;\r\n            }\r\n        }\r\n        return productsForCategoryCount;\r\n    }\r\n\r\n    function getProductById(uint id) public returns (Product memory){\r\n        Product memory product;\r\n        for (uint i= 0; i < productsCount; i++) {\r\n            if (products[i].id == id){\r\n                product = products[i];\r\n                break;\r\n            }\r\n        }\r\n        return product;\r\n    }\r\n\r\n\r\n    function getSellerProductsCount(uint sellerId) public returns (uint count){\r\n        uint sellerProductsCount = 0;\r\n        for (uint i= 0; i < productsCount; i++) {\r\n            if (products[i].sellerId == sellerId){\r\n                sellerProductsCount++;\r\n            }\r\n        }\r\n        return sellerProductsCount;\r\n    }\r\n    function getSellerProducts(uint sellerId, uint totalProducts) public returns (Product[] memory){\r\n        uint count = 0;\r\n        Product[] memory y = new Product[](totalProducts);\r\n        for (uint i= 0; i < productsCount; i++) {\r\n            if (products[i].sellerId == sellerId){\r\n                y[count++] = Product(products[i].id,\r\n                    products[i].name,\r\n                    products[i].price_numerator,\r\n                    products[i].price_denominator,\r\n                    products[i].assetUrls,\r\n                    products[i].classification,\r\n                    products[i].quantifier,\r\n                    products[i].decs,\r\n                    products[i].sellerId,\r\n                    products[i].categoryId);\r\n            }\r\n        }\r\n        return y;\r\n    }\r\n    function contains (string memory what, string memory where) public returns (bool) {\r\n        bytes memory whatBytes = bytes (what);\r\n        bytes memory whereBytes = bytes (where);\r\n\r\n        bool found = false;\r\n        for (uint i = 0; i < whereBytes.length - whatBytes.length; i++) {\r\n            bool flag = true;\r\n            for (uint j = 0; j < whatBytes.length; j++)\r\n                if (whereBytes [i + j] != whatBytes [j]) {\r\n                    flag = false;\r\n                    break;\r\n                }\r\n            if (flag) {\r\n                found = true;\r\n                break;\r\n            }\r\n        }\r\n        return found;\r\n\r\n    }\r\n    function getQueryProductsCount(string memory query) public returns (uint count){\r\n        uint productsQueryCount = 0;\r\n        for (uint i= 0; i < productsCount; i++) {\r\n            if (contains(_toLower(query), _toLower(products[i].name))){\r\n                productsQueryCount++;\r\n            }\r\n        }\r\n        return productsQueryCount;\r\n    }\r\n    function getQueryProducts(string memory query, uint totalProducts) public returns (Product[] memory){\r\n        uint count = 0;\r\n        Product[] memory y = new Product[](totalProducts);\r\n        for (uint i= 0; i < productsCount; i++) {\r\n            if (contains(_toLower(query), _toLower(products[i].name))){\r\n                y[count++] = Product(products[i].id,\r\n                    products[i].name,\r\n                    products[i].price_numerator,\r\n                    products[i].price_denominator,\r\n                    products[i].assetUrls,\r\n                    products[i].classification,\r\n                    products[i].quantifier,\r\n                    products[i].decs,\r\n                    products[i].sellerId,\r\n                    products[i].categoryId);\r\n            }\r\n        }\r\n        return y;\r\n    }\r\n    function _toLower(string memory str) internal returns (string memory) {\r\n        bytes memory bStr = bytes(str);\r\n        bytes memory bLower = new bytes(bStr.length);\r\n        for (uint i = 0; i < bStr.length; i++) {\r\n            // Uppercase character...\r\n            if ((uint8(bStr[i]) >= 65) && (uint8(bStr[i]) <= 90)) {\r\n                // So we add 32 to make it lowercase\r\n                bLower[i] = bytes1(uint8(bStr[i]) + 32);\r\n            } else {\r\n                bLower[i] = bStr[i];\r\n            }\r\n        }\r\n        return string(bLower);\r\n    }\r\n}",
  "sourcePath": "C:/Users/Korisnik/Desktop/dev/Catalyst/src/frontend_mobile/contracts/Products.sol",
  "compiler": {
    "name": "solc",
    "version": "0.5.16+commit.9c3226ce.Emscripten.clang"
  },
  "schemaVersion": "3.3.4",
  "updatedAt": "2021-05-08T21:01:44.509Z",
  "networkType": "ethereum",
  "devdoc": {
    "methods": {}
  },
  "userdoc": {
    "methods": {}
  }
}