{
  "contractName": "Products",
  "abi": [
    {
      "inputs": [],
      "payable": false,
      "stateMutability": "nonpayable",
      "type": "constructor"
    },
    {
      "anonymous": false,
      "inputs": [
        {
          "indexed": false,
          "internalType": "string",
          "name": "name",
          "type": "string"
        },
        {
          "indexed": false,
          "internalType": "uint256",
          "name": "ProductNumber",
          "type": "uint256"
        }
      ],
      "name": "ProductCreated",
      "type": "event"
    },
    {
      "constant": true,
      "inputs": [
        {
          "internalType": "uint256",
          "name": "",
          "type": "uint256"
        }
      ],
      "name": "products",
      "outputs": [
        {
          "internalType": "uint256",
          "name": "id",
          "type": "uint256"
        },
        {
          "internalType": "string",
          "name": "name",
          "type": "string"
        },
        {
          "internalType": "uint256",
          "name": "price_numerator",
          "type": "uint256"
        },
        {
          "internalType": "uint256",
          "name": "price_denominator",
          "type": "uint256"
        },
        {
          "internalType": "uint256",
          "name": "discount_percentage",
          "type": "uint256"
        },
        {
          "internalType": "string",
          "name": "assetUrls",
          "type": "string"
        },
        {
          "internalType": "uint256",
          "name": "classification",
          "type": "uint256"
        },
        {
          "internalType": "uint256",
          "name": "quantifier",
          "type": "uint256"
        },
        {
          "internalType": "string",
          "name": "decs",
          "type": "string"
        },
        {
          "internalType": "uint256",
          "name": "sellerId",
          "type": "uint256"
        },
        {
          "internalType": "uint256",
          "name": "categoryId",
          "type": "uint256"
        }
      ],
      "payable": false,
      "stateMutability": "view",
      "type": "function"
    },
    {
      "constant": true,
      "inputs": [],
      "name": "productsCount",
      "outputs": [
        {
          "internalType": "uint256",
          "name": "",
          "type": "uint256"
        }
      ],
      "payable": false,
      "stateMutability": "view",
      "type": "function"
    },
    {
      "constant": false,
      "inputs": [
        {
          "internalType": "string",
          "name": "_productName",
          "type": "string"
        },
        {
          "internalType": "uint256",
          "name": "_price_nominator",
          "type": "uint256"
        },
        {
          "internalType": "uint256",
          "name": "_price_denominator",
          "type": "uint256"
        },
        {
          "internalType": "uint256",
          "name": "_discount_percentage",
          "type": "uint256"
        },
        {
          "internalType": "string",
          "name": "_assetUrls",
          "type": "string"
        },
        {
          "internalType": "uint256",
          "name": "_classif",
          "type": "uint256"
        },
        {
          "internalType": "uint256",
          "name": "_quantifier",
          "type": "uint256"
        },
        {
          "internalType": "string",
          "name": "_desc",
          "type": "string"
        },
        {
          "internalType": "uint256",
          "name": "_sellerId",
          "type": "uint256"
        },
        {
          "internalType": "uint256",
          "name": "_categoryId",
          "type": "uint256"
        }
      ],
      "name": "createProduct",
      "outputs": [],
      "payable": false,
      "stateMutability": "nonpayable",
      "type": "function"
    },
    {
      "constant": false,
      "inputs": [
        {
          "internalType": "uint256",
          "name": "category",
          "type": "uint256"
        },
        {
          "internalType": "uint256",
          "name": "totalProducts",
          "type": "uint256"
        }
      ],
      "name": "getProductsForCategory",
      "outputs": [
        {
          "components": [
            {
              "internalType": "uint256",
              "name": "id",
              "type": "uint256"
            },
            {
              "internalType": "string",
              "name": "name",
              "type": "string"
            },
            {
              "internalType": "uint256",
              "name": "price_numerator",
              "type": "uint256"
            },
            {
              "internalType": "uint256",
              "name": "price_denominator",
              "type": "uint256"
            },
            {
              "internalType": "uint256",
              "name": "discount_percentage",
              "type": "uint256"
            },
            {
              "internalType": "string",
              "name": "assetUrls",
              "type": "string"
            },
            {
              "internalType": "uint256",
              "name": "classification",
              "type": "uint256"
            },
            {
              "internalType": "uint256",
              "name": "quantifier",
              "type": "uint256"
            },
            {
              "internalType": "string",
              "name": "decs",
              "type": "string"
            },
            {
              "internalType": "uint256",
              "name": "sellerId",
              "type": "uint256"
            },
            {
              "internalType": "uint256",
              "name": "categoryId",
              "type": "uint256"
            }
          ],
          "internalType": "struct Products.Product[]",
          "name": "",
          "type": "tuple[]"
        }
      ],
      "payable": false,
      "stateMutability": "nonpayable",
      "type": "function"
    },
    {
      "constant": false,
      "inputs": [
        {
          "internalType": "uint256",
          "name": "category",
          "type": "uint256"
        }
      ],
      "name": "getProductsForCategoryCount",
      "outputs": [
        {
          "internalType": "uint256",
          "name": "count",
          "type": "uint256"
        }
      ],
      "payable": false,
      "stateMutability": "nonpayable",
      "type": "function"
    },
    {
      "constant": false,
      "inputs": [
        {
          "internalType": "uint256",
          "name": "id",
          "type": "uint256"
        }
      ],
      "name": "getProductById",
      "outputs": [
        {
          "components": [
            {
              "internalType": "uint256",
              "name": "id",
              "type": "uint256"
            },
            {
              "internalType": "string",
              "name": "name",
              "type": "string"
            },
            {
              "internalType": "uint256",
              "name": "price_numerator",
              "type": "uint256"
            },
            {
              "internalType": "uint256",
              "name": "price_denominator",
              "type": "uint256"
            },
            {
              "internalType": "uint256",
              "name": "discount_percentage",
              "type": "uint256"
            },
            {
              "internalType": "string",
              "name": "assetUrls",
              "type": "string"
            },
            {
              "internalType": "uint256",
              "name": "classification",
              "type": "uint256"
            },
            {
              "internalType": "uint256",
              "name": "quantifier",
              "type": "uint256"
            },
            {
              "internalType": "string",
              "name": "decs",
              "type": "string"
            },
            {
              "internalType": "uint256",
              "name": "sellerId",
              "type": "uint256"
            },
            {
              "internalType": "uint256",
              "name": "categoryId",
              "type": "uint256"
            }
          ],
          "internalType": "struct Products.Product",
          "name": "",
          "type": "tuple"
        }
      ],
      "payable": false,
      "stateMutability": "nonpayable",
      "type": "function"
    },
    {
      "constant": false,
      "inputs": [
        {
          "internalType": "uint256",
          "name": "sellerId",
          "type": "uint256"
        }
      ],
      "name": "getSellerProductsCount",
      "outputs": [
        {
          "internalType": "uint256",
          "name": "count",
          "type": "uint256"
        }
      ],
      "payable": false,
      "stateMutability": "nonpayable",
      "type": "function"
    },
    {
      "constant": false,
      "inputs": [
        {
          "internalType": "uint256",
          "name": "sellerId",
          "type": "uint256"
        },
        {
          "internalType": "uint256",
          "name": "totalProducts",
          "type": "uint256"
        }
      ],
      "name": "getSellerProducts",
      "outputs": [
        {
          "components": [
            {
              "internalType": "uint256",
              "name": "id",
              "type": "uint256"
            },
            {
              "internalType": "string",
              "name": "name",
              "type": "string"
            },
            {
              "internalType": "uint256",
              "name": "price_numerator",
              "type": "uint256"
            },
            {
              "internalType": "uint256",
              "name": "price_denominator",
              "type": "uint256"
            },
            {
              "internalType": "uint256",
              "name": "discount_percentage",
              "type": "uint256"
            },
            {
              "internalType": "string",
              "name": "assetUrls",
              "type": "string"
            },
            {
              "internalType": "uint256",
              "name": "classification",
              "type": "uint256"
            },
            {
              "internalType": "uint256",
              "name": "quantifier",
              "type": "uint256"
            },
            {
              "internalType": "string",
              "name": "decs",
              "type": "string"
            },
            {
              "internalType": "uint256",
              "name": "sellerId",
              "type": "uint256"
            },
            {
              "internalType": "uint256",
              "name": "categoryId",
              "type": "uint256"
            }
          ],
          "internalType": "struct Products.Product[]",
          "name": "",
          "type": "tuple[]"
        }
      ],
      "payable": false,
      "stateMutability": "nonpayable",
      "type": "function"
    },
    {
      "constant": false,
      "inputs": [
        {
          "internalType": "string",
          "name": "what",
          "type": "string"
        },
        {
          "internalType": "string",
          "name": "where",
          "type": "string"
        }
      ],
      "name": "contains",
      "outputs": [
        {
          "internalType": "bool",
          "name": "",
          "type": "bool"
        }
      ],
      "payable": false,
      "stateMutability": "nonpayable",
      "type": "function"
    },
    {
      "constant": false,
      "inputs": [
        {
          "internalType": "string",
          "name": "query",
          "type": "string"
        }
      ],
      "name": "getQueryProductsCount",
      "outputs": [
        {
          "internalType": "uint256",
          "name": "count",
          "type": "uint256"
        }
      ],
      "payable": false,
      "stateMutability": "nonpayable",
      "type": "function"
    },
    {
      "constant": false,
      "inputs": [
        {
          "internalType": "string",
          "name": "query",
          "type": "string"
        },
        {
          "internalType": "uint256",
          "name": "totalProducts",
          "type": "uint256"
        }
      ],
      "name": "getQueryProducts",
      "outputs": [
        {
          "components": [
            {
              "internalType": "uint256",
              "name": "id",
              "type": "uint256"
            },
            {
              "internalType": "string",
              "name": "name",
              "type": "string"
            },
            {
              "internalType": "uint256",
              "name": "price_numerator",
              "type": "uint256"
            },
            {
              "internalType": "uint256",
              "name": "price_denominator",
              "type": "uint256"
            },
            {
              "internalType": "uint256",
              "name": "discount_percentage",
              "type": "uint256"
            },
            {
              "internalType": "string",
              "name": "assetUrls",
              "type": "string"
            },
            {
              "internalType": "uint256",
              "name": "classification",
              "type": "uint256"
            },
            {
              "internalType": "uint256",
              "name": "quantifier",
              "type": "uint256"
            },
            {
              "internalType": "string",
              "name": "decs",
              "type": "string"
            },
            {
              "internalType": "uint256",
              "name": "sellerId",
              "type": "uint256"
            },
            {
              "internalType": "uint256",
              "name": "categoryId",
              "type": "uint256"
            }
          ],
          "internalType": "struct Products.Product[]",
          "name": "",
          "type": "tuple[]"
        }
      ],
      "payable": false,
      "stateMutability": "nonpayable",
      "type": "function"
    },
    {
      "constant": false,
      "inputs": [
        {
          "internalType": "uint256",
          "name": "_product_id",
          "type": "uint256"
        },
        {
          "internalType": "uint256",
          "name": "_discount_percentage",
          "type": "uint256"
        }
      ],
      "name": "setSale",
      "outputs": [],
      "payable": false,
      "stateMutability": "nonpayable",
      "type": "function"
    }
  ],
  "bytecode": "0x6080604052600080553480156200001557600080fd5b50604051806101600160405280600081526020016040518060400160405280600b81526020017f446f6d61c48769206d656400000000000000000000000000000000000000000081525081526020016032815260200160038152602001600081526020016040518060800160405280604381526020016200303f604391398152602001600181526020016102ee81526020016040518060a001604052806061815260200162003082606191398152602001600181526020016009815250600160008081526020019081526020016000206000820151816000015560208201518160010190805190602001906200010d92919062000ab7565b5060408201518160020155606082015181600301556080820151816004015560a08201518160050190805190602001906200014a92919062000ab7565b5060c0820151816006015560e082015181600701556101008201518160080190805190602001906200017e92919062000ab7565b50610120820151816009015561014082015181600a0155905050604051806101600160405280600181526020016040518060400160405280601181526020017f5061736972616e69207061726164616a7a0000000000000000000000000000008152508152602001602b81526020016003815260200160148152602001604051806080016040528060438152602001620030e3604391398152602001600181526020016101f481526020016040518060a00160405280606181526020016200308260619139815260200160018152602001600381525060016000600181526020019081526020016000206000820151816000015560208201518160010190805190602001906200029092919062000ab7565b5060408201518160020155606082015181600301556080820151816004015560a0820151816005019080519060200190620002cd92919062000ab7565b5060c0820151816006015560e082015181600701556101008201518160080190805190602001906200030192919062000ab7565b50610120820151816009015561014082015181600a0155905050604051806101600160405280600281526020016040518060400160405280600e81526020017f4d61736c696e6f766f20756c6a650000000000000000000000000000000000008152508152602001604d8152602001600381526020016000815260200160405180608001604052806043815260200162002fb9604391398152602001600181526020016102ee81526020016040518060a00160405280606181526020016200308260619139815260200160018152602001600981525060016000600281526020019081526020016000206000820151816000015560208201518160010190805190602001906200041392919062000ab7565b5060408201518160020155606082015181600301556080820151816004015560a08201518160050190805190602001906200045092919062000ab7565b5060c0820151816006015560e082015181600701556101008201518160080190805190602001906200048492919062000ab7565b50610120820151816009015561014082015181600a0155905050604051806101600160405280600381526020016040518060400160405280600681526020017f5072c5a1757400000000000000000000000000000000000000000000000000008152508152602001609a81526020016003815260200160008152602001604051806080016040528060438152602001620031696043913981526020016001815260200160ea81526020016040518060a00160405280606181526020016200308260619139815260200160018152602001600181525060016000600381526020019081526020016000206000820151816000015560208201518160010190805190602001906200059592919062000ab7565b5060408201518160020155606082015181600301556080820151816004015560a0820151816005019080519060200190620005d292919062000ab7565b5060c0820151816006015560e082015181600701556101008201518160080190805190602001906200060692919062000ab7565b50610120820151816009015561014082015181600a0155905050604051806101600160405280600481526020016040518060400160405280600681526020017f52616b696a610000000000000000000000000000000000000000000000000000815250815260200160628152602001600381526020016000815260200160405180608001604052806043815260200162002f76604391398152602001600281526020016103e881526020016040518060a00160405280606181526020016200308260619139815260200160018152602001600581525060016000600481526020019081526020016000206000820151816000015560208201518160010190805190602001906200071892919062000ab7565b5060408201518160020155606082015181600301556080820151816004015560a08201518160050190805190602001906200075592919062000ab7565b5060c0820151816006015560e082015181600701556101008201518160080190805190602001906200078992919062000ab7565b50610120820151816009015561014082015181600a0155905050604051806101600160405280600581526020016040518060400160405280600881526020017f4b6f6261736963610000000000000000000000000000000000000000000000008152508152602001604a8152602001600381526020016000815260200160405180608001604052806043815260200162002ffc604391398152602001600181526020016103e881526020016040518060a00160405280606181526020016200308260619139815260200160018152602001600181525060016000600581526020019081526020016000206000820151816000015560208201518160010190805190602001906200089b92919062000ab7565b5060408201518160020155606082015181600301556080820151816004015560a0820151816005019080519060200190620008d892919062000ab7565b5060c0820151816006015560e082015181600701556101008201518160080190805190602001906200090c92919062000ab7565b50610120820151816009015561014082015181600a0155905050604051806101600160405280600681526020016040518060400160405280600881526020017f4b616d616d626572000000000000000000000000000000000000000000000000815250815260200160368152602001600381526020016000815260200160405180608001604052806043815260200162003126604391398152602001600181526020016101f481526020016040518060a001604052806061815260200162003082606191398152602001600181526020016002815250600160006006815260200190815260200160002060008201518160000155602082015181600101908051906020019062000a1e92919062000ab7565b5060408201518160020155606082015181600301556080820151816004015560a082015181600501908051906020019062000a5b92919062000ab7565b5060c0820151816006015560e0820151816007015561010082015181600801908051906020019062000a8f92919062000ab7565b50610120820151816009015561014082015181600a0155905050600760008190555062000b66565b828054600181600116156101000203166002900490600052602060002090601f016020900481019282601f1062000afa57805160ff191683800117855562000b2b565b8280016001018555821562000b2b579182015b8281111562000b2a57825182559160200191906001019062000b0d565b5b50905062000b3a919062000b3e565b5090565b62000b6391905b8082111562000b5f57600081600090555060010162000b45565b5090565b90565b6124008062000b766000396000f3fe608060405234801561001057600080fd5b50600436106100b35760003560e01c80639f53b32e116100715780639f53b32e146101e2578063a0ea3511146101fe578063ac8a54b11461022e578063e0df7bb61461025e578063f901a18f1461027c578063faa5953f14610298576100b3565b806230d99f146100b85780632dc810ab146100e85780633f70c2b4146101185780633fb18aec14610148578063623e610a146101785780637acc0b20146101a8575b600080fd5b6100d260048036036100cd9190810190611bd2565b6102c8565b6040516100df9190612109565b60405180910390f35b61010260048036036100fd9190810190611d72565b610728565b60405161010f9190612109565b60405180910390f35b610132600480360361012d9190810190611d49565b610ad9565b60405161013f9190612176565b60405180910390f35b610162600480360361015d9190810190611b66565b610d8a565b60405161016f919061212b565b60405180910390f35b610192600480360361018d9190810190611b25565b610e9f565b60405161019f9190612198565b60405180910390f35b6101c260048036036101bd9190810190611d49565b610fa3565b6040516101d99b9a999897969594939291906121b3565b60405180910390f35b6101fc60048036036101f79190810190611c26565b6111c5565b005b61021860048036036102139190810190611d72565b61133a565b6040516102259190612109565b60405180910390f35b61024860048036036102439190810190611d49565b6116eb565b6040516102559190612198565b60405180910390f35b610266611740565b6040516102739190612198565b60405180910390f35b61029660048036036102919190810190611d72565b611746565b005b6102b260048036036102ad9190810190611d49565b6117a6565b6040516102bf9190612198565b60405180910390f35b6060600080905060608360405190808252806020026020018201604052801561030b57816020015b6102f8611963565b8152602001906001900390816102f05790505b50905060008090505b60005481101561071c576103e661032a876117fb565b6103e1600160008581526020019081526020016000206001018054600181600116156101000203166002900480601f0160208091040260200160405190810160405280929190818152602001828054600181600116156101000203166002900480156103d75780601f106103ac576101008083540402835291602001916103d7565b820191906000526020600020905b8154815290600101906020018083116103ba57829003601f168201915b50505050506117fb565b610d8a565b1561070f5760405180610160016040528060016000848152602001908152602001600020600001548152602001600160008481526020019081526020016000206001018054600181600116156101000203166002900480601f0160208091040260200160405190810160405280929190818152602001828054600181600116156101000203166002900480156104bd5780601f10610492576101008083540402835291602001916104bd565b820191906000526020600020905b8154815290600101906020018083116104a057829003601f168201915b50505050508152602001600160008481526020019081526020016000206002015481526020016001600084815260200190815260200160002060030154815260200160016000848152602001908152602001600020600401548152602001600160008481526020019081526020016000206005018054600181600116156101000203166002900480601f0160208091040260200160405190810160405280929190818152602001828054600181600116156101000203166002900480156105c55780601f1061059a576101008083540402835291602001916105c5565b820191906000526020600020905b8154815290600101906020018083116105a857829003601f168201915b505050505081526020016001600084815260200190815260200160002060060154815260200160016000848152602001908152602001600020600701548152602001600160008481526020019081526020016000206008018054600181600116156101000203166002900480601f0160208091040260200160405190810160405280929190818152602001828054600181600116156101000203166002900480156106b15780601f10610686576101008083540402835291602001916106b1565b820191906000526020600020905b81548152906001019060200180831161069457829003601f168201915b505050505081526020016001600084815260200190815260200160002060090154815260200160016000848152602001908152602001600020600a015481525082848060010195508151811061070357fe5b60200260200101819052505b8080600101915050610314565b50809250505092915050565b6060600080905060608360405190808252806020026020018201604052801561076b57816020015b610758611963565b8152602001906001900390816107505790505b50905060008090505b600054811015610acd578560016000838152602001908152602001600020600a01541415610ac05760405180610160016040528060016000848152602001908152602001600020600001548152602001600160008481526020019081526020016000206001018054600181600116156101000203166002900480601f01602080910402602001604051908101604052809291908181526020018280546001816001161561010002031660029004801561086e5780601f106108435761010080835404028352916020019161086e565b820191906000526020600020905b81548152906001019060200180831161085157829003601f168201915b50505050508152602001600160008481526020019081526020016000206002015481526020016001600084815260200190815260200160002060030154815260200160016000848152602001908152602001600020600401548152602001600160008481526020019081526020016000206005018054600181600116156101000203166002900480601f0160208091040260200160405190810160405280929190818152602001828054600181600116156101000203166002900480156109765780601f1061094b57610100808354040283529160200191610976565b820191906000526020600020905b81548152906001019060200180831161095957829003601f168201915b505050505081526020016001600084815260200190815260200160002060060154815260200160016000848152602001908152602001600020600701548152602001600160008481526020019081526020016000206008018054600181600116156101000203166002900480601f016020809104026020016040519081016040528092919081815260200182805460018160011615610100020316600290048015610a625780601f10610a3757610100808354040283529160200191610a62565b820191906000526020600020905b815481529060010190602001808311610a4557829003601f168201915b505050505081526020016001600084815260200190815260200160002060090154815260200160016000848152602001908152602001600020600a0154815250828480600101955081518110610ab457fe5b60200260200101819052505b8080600101915050610774565b50809250505092915050565b610ae16119bd565b610ae96119bd565b60008090505b600054811015610d80578360016000838152602001908152602001600020600001541415610d7357600160008281526020019081526020016000206040518061016001604052908160008201548152602001600182018054600181600116156101000203166002900480601f016020809104026020016040519081016040528092919081815260200182805460018160011615610100020316600290048015610bd95780601f10610bae57610100808354040283529160200191610bd9565b820191906000526020600020905b815481529060010190602001808311610bbc57829003601f168201915b50505050508152602001600282015481526020016003820154815260200160048201548152602001600582018054600181600116156101000203166002900480601f016020809104026020016040519081016040528092919081815260200182805460018160011615610100020316600290048015610c995780601f10610c6e57610100808354040283529160200191610c99565b820191906000526020600020905b815481529060010190602001808311610c7c57829003601f168201915b505050505081526020016006820154815260200160078201548152602001600882018054600181600116156101000203166002900480601f016020809104026020016040519081016040528092919081815260200182805460018160011615610100020316600290048015610d4f5780601f10610d2457610100808354040283529160200191610d4f565b820191906000526020600020905b815481529060010190602001808311610d3257829003601f168201915b5050505050815260200160098201548152602001600a820154815250509150610d80565b8080600101915050610aef565b5080915050919050565b600060608390506060839050808051906020012082805190602001201415610db757600192505050610e99565b600080905060008090505b8351835103811015610e915760006001905060008090505b8551811015610e7257858181518110610def57fe5b602001015160f81c60f81b7effffffffffffffffffffffffffffffffffffffffffffffffffffffffffffff19168582850181518110610e2a57fe5b602001015160f81c60f81b7effffffffffffffffffffffffffffffffffffffffffffffffffffffffffffff191614610e655760009150610e72565b8080600101915050610dda565b508015610e83576001925050610e91565b508080600101915050610dc2565b508093505050505b92915050565b6000806000905060008090505b600054811015610f9957610f7e610ec2856117fb565b610f79600160008581526020019081526020016000206001018054600181600116156101000203166002900480601f016020809104026020016040519081016040528092919081815260200182805460018160011615610100020316600290048015610f6f5780601f10610f4457610100808354040283529160200191610f6f565b820191906000526020600020905b815481529060010190602001808311610f5257829003601f168201915b50505050506117fb565b610d8a565b15610f8c5781806001019250505b8080600101915050610eac565b5080915050919050565b6001602052806000526040600020600091509050806000015490806001018054600181600116156101000203166002900480601f0160208091040260200160405190810160405280929190818152602001828054600181600116156101000203166002900480156110555780601f1061102a57610100808354040283529160200191611055565b820191906000526020600020905b81548152906001019060200180831161103857829003601f168201915b505050505090806002015490806003015490806004015490806005018054600181600116156101000203166002900480601f0160208091040260200160405190810160405280929190818152602001828054600181600116156101000203166002900480156111055780601f106110da57610100808354040283529160200191611105565b820191906000526020600020905b8154815290600101906020018083116110e857829003601f168201915b505050505090806006015490806007015490806008018054600181600116156101000203166002900480601f0160208091040260200160405190810160405280929190818152602001828054600181600116156101000203166002900480156111af5780601f10611184576101008083540402835291602001916111af565b820191906000526020600020905b81548152906001019060200180831161119257829003601f168201915b50505050509080600901549080600a015490508b565b60028511156111d357600094505b60405180610160016040528060005481526020018b81526020018a81526020018981526020018881526020018781526020018681526020018581526020018481526020018381526020018281525060016000806000815480929190600101919050558152602001908152602001600020600082015181600001556020820151816001019080519060200190611269929190611a17565b5060408201518160020155606082015181600301556080820151816004015560a08201518160050190805190602001906112a4929190611a17565b5060c0820151816006015560e082015181600701556101008201518160080190805190602001906112d6929190611a17565b50610120820151816009015561014082015181600a01559050507fb040efd5b9ac3e016c34e7ba218414cec2f62f7405435784f124cf44a21dc1378a600160005403604051611326929190612146565b60405180910390a150505050505050505050565b6060600080905060608360405190808252806020026020018201604052801561137d57816020015b61136a611963565b8152602001906001900390816113625790505b50905060008090505b6000548110156116df5785600160008381526020019081526020016000206009015414156116d25760405180610160016040528060016000848152602001908152602001600020600001548152602001600160008481526020019081526020016000206001018054600181600116156101000203166002900480601f0160208091040260200160405190810160405280929190818152602001828054600181600116156101000203166002900480156114805780601f1061145557610100808354040283529160200191611480565b820191906000526020600020905b81548152906001019060200180831161146357829003601f168201915b50505050508152602001600160008481526020019081526020016000206002015481526020016001600084815260200190815260200160002060030154815260200160016000848152602001908152602001600020600401548152602001600160008481526020019081526020016000206005018054600181600116156101000203166002900480601f0160208091040260200160405190810160405280929190818152602001828054600181600116156101000203166002900480156115885780601f1061155d57610100808354040283529160200191611588565b820191906000526020600020905b81548152906001019060200180831161156b57829003601f168201915b505050505081526020016001600084815260200190815260200160002060060154815260200160016000848152602001908152602001600020600701548152602001600160008481526020019081526020016000206008018054600181600116156101000203166002900480601f0160208091040260200160405190810160405280929190818152602001828054600181600116156101000203166002900480156116745780601f1061164957610100808354040283529160200191611674565b820191906000526020600020905b81548152906001019060200180831161165757829003601f168201915b505050505081526020016001600084815260200190815260200160002060090154815260200160016000848152602001908152602001600020600a01548152508284806001019550815181106116c657fe5b60200260200101819052505b8080600101915050611386565b50809250505092915050565b6000806000905060008090505b600054811015611736578360016000838152602001908152602001600020600a015414156117295781806001019250505b80806001019150506116f8565b5080915050919050565b60005481565b60008090505b6000548110156117a1578260016000838152602001908152602001600020600001541415611794578160016000838152602001908152602001600020600401819055506117a1565b808060010191505061174c565b505050565b6000806000905060008090505b6000548110156117f15783600160008381526020019081526020016000206009015414156117e45781806001019250505b80806001019150506117b3565b5080915050919050565b606080829050606081516040519080825280601f01601f1916602001820160405280156118375781602001600182028038833980820191505090505b50905060008090505b825181101561195857604183828151811061185757fe5b602001015160f81c60f81b60f81c60ff16101580156118935750605a83828151811061187f57fe5b602001015160f81c60f81b60f81c60ff1611155b156118f85760208382815181106118a657fe5b602001015160f81c60f81b60f81c0160f81b8282815181106118c457fe5b60200101907effffffffffffffffffffffffffffffffffffffffffffffffffffffffffffff1916908160001a90535061194b565b82818151811061190457fe5b602001015160f81c60f81b82828151811061191b57fe5b60200101907effffffffffffffffffffffffffffffffffffffffffffffffffffffffffffff1916908160001a9053505b8080600101915050611840565b508092505050919050565b60405180610160016040528060008152602001606081526020016000815260200160008152602001600081526020016060815260200160008152602001600081526020016060815260200160008152602001600081525090565b60405180610160016040528060008152602001606081526020016000815260200160008152602001600081526020016060815260200160008152602001600081526020016060815260200160008152602001600081525090565b828054600181600116156101000203166002900490600052602060002090601f016020900481019282601f10611a5857805160ff1916838001178555611a86565b82800160010185558215611a86579182015b82811115611a85578251825591602001919060010190611a6a565b5b509050611a939190611a97565b5090565b611ab991905b80821115611ab5576000816000905550600101611a9d565b5090565b90565b600082601f830112611acd57600080fd5b8135611ae0611adb826122a0565b612273565b91508082526020830160208301858383011115611afc57600080fd5b611b07838284612353565b50505092915050565b600081359050611b1f816123a6565b92915050565b600060208284031215611b3757600080fd5b600082013567ffffffffffffffff811115611b5157600080fd5b611b5d84828501611abc565b91505092915050565b60008060408385031215611b7957600080fd5b600083013567ffffffffffffffff811115611b9357600080fd5b611b9f85828601611abc565b925050602083013567ffffffffffffffff811115611bbc57600080fd5b611bc885828601611abc565b9150509250929050565b60008060408385031215611be557600080fd5b600083013567ffffffffffffffff811115611bff57600080fd5b611c0b85828601611abc565b9250506020611c1c85828601611b10565b9150509250929050565b6000806000806000806000806000806101408b8d031215611c4657600080fd5b60008b013567ffffffffffffffff811115611c6057600080fd5b611c6c8d828e01611abc565b9a50506020611c7d8d828e01611b10565b9950506040611c8e8d828e01611b10565b9850506060611c9f8d828e01611b10565b97505060808b013567ffffffffffffffff811115611cbc57600080fd5b611cc88d828e01611abc565b96505060a0611cd98d828e01611b10565b95505060c0611cea8d828e01611b10565b94505060e08b013567ffffffffffffffff811115611d0757600080fd5b611d138d828e01611abc565b935050610100611d258d828e01611b10565b925050610120611d378d828e01611b10565b9150509295989b9194979a5092959850565b600060208284031215611d5b57600080fd5b6000611d6984828501611b10565b91505092915050565b60008060408385031215611d8557600080fd5b6000611d9385828601611b10565b9250506020611da485828601611b10565b9150509250929050565b6000611dba8383611fee565b905092915050565b6000611dcd826122dc565b611dd7818561230a565b935083602082028501611de9856122cc565b8060005b85811015611e255784840389528151611e068582611dae565b9450611e11836122fd565b925060208a01995050600181019050611ded565b50829750879550505050505092915050565b611e408161233d565b82525050565b6000611e51826122f2565b611e5b818561232c565b9350611e6b818560208601612362565b611e7481612395565b840191505092915050565b6000611e8a826122e7565b611e94818561231b565b9350611ea4818560208601612362565b611ead81612395565b840191505092915050565b6000611ec3826122e7565b611ecd818561232c565b9350611edd818560208601612362565b611ee681612395565b840191505092915050565b600061016083016000830151611f0a60008601826120eb565b5060208301518482036020860152611f228282611e7f565b9150506040830151611f3760408601826120eb565b506060830151611f4a60608601826120eb565b506080830151611f5d60808601826120eb565b5060a083015184820360a0860152611f758282611e7f565b91505060c0830151611f8a60c08601826120eb565b5060e0830151611f9d60e08601826120eb565b50610100830151848203610100860152611fb78282611e7f565b915050610120830151611fce6101208601826120eb565b50610140830151611fe36101408601826120eb565b508091505092915050565b60006101608301600083015161200760008601826120eb565b506020830151848203602086015261201f8282611e7f565b915050604083015161203460408601826120eb565b50606083015161204760608601826120eb565b50608083015161205a60808601826120eb565b5060a083015184820360a08601526120728282611e7f565b91505060c083015161208760c08601826120eb565b5060e083015161209a60e08601826120eb565b506101008301518482036101008601526120b48282611e7f565b9150506101208301516120cb6101208601826120eb565b506101408301516120e06101408601826120eb565b508091505092915050565b6120f481612349565b82525050565b61210381612349565b82525050565b600060208201905081810360008301526121238184611dc2565b905092915050565b60006020820190506121406000830184611e37565b92915050565b600060408201905081810360008301526121608185611e46565b905061216f60208301846120fa565b9392505050565b600060208201905081810360008301526121908184611ef1565b905092915050565b60006020820190506121ad60008301846120fa565b92915050565b6000610160820190506121c9600083018e6120fa565b81810360208301526121db818d611eb8565b90506121ea604083018c6120fa565b6121f7606083018b6120fa565b612204608083018a6120fa565b81810360a08301526122168189611eb8565b905061222560c08301886120fa565b61223260e08301876120fa565b8181036101008301526122458186611eb8565b90506122556101208301856120fa565b6122636101408301846120fa565b9c9b505050505050505050505050565b6000604051905081810181811067ffffffffffffffff8211171561229657600080fd5b8060405250919050565b600067ffffffffffffffff8211156122b757600080fd5b601f19601f8301169050602081019050919050565b6000819050602082019050919050565b600081519050919050565b600081519050919050565b600081519050919050565b6000602082019050919050565b600082825260208201905092915050565b600082825260208201905092915050565b600082825260208201905092915050565b60008115159050919050565b6000819050919050565b82818337600083830152505050565b60005b83811015612380578082015181840152602081019050612365565b8381111561238f576000848401525b50505050565b6000601f19601f8301169050919050565b6123af81612349565b81146123ba57600080fd5b5056fea365627a7a72315820483d6ffc2a0f656faa48372cd74849a47c8ff382045f13cab32843323a179d536c6578706572696d656e74616cf564736f6c6343000510004068747470733a2f2f697066732e696f2f697066732f516d623174565142586e516565615164536f4d486a545242576e477577476e7357714a6739374c64766b6b467a5368747470733a2f2f697066732e696f2f697066732f516d52735a59626f4568535943475a4342694552764b436645454245425778596d3646554e4867326f72794b5a6b68747470733a2f2f697066732e696f2f697066732f516d527843696a74556f4d4744503776646666317237344459506868476864656d746b6874355233397047787a4368747470733a2f2f697066732e696f2f697066732f516d5642333861624454566a3546553147546257366b3251684442384648785971684248774654726978373842775365642075742070657273706963696174697320756e6465206f6d6e69732069737465206e61747573206572726f722073697420766f6c7570746174656d206163637573616e7469756d20646f6c6f72656d717565206c617564616e7469756d2e68747470733a2f2f697066732e696f2f697066732f516d534757684d64554b39595864665a425036674b516f7a5878714265346d63645375687573506256795a54437868747470733a2f2f697066732e696f2f697066732f516d575772706251675542364c6464433455645a466743364a504a63763532536f743766414a6a7673716358674568747470733a2f2f697066732e696f2f697066732f516d586431567766454a57656131544c363271396274696b4c797063774366375654423436484c59783745737551",
  "source": "pragma solidity >=0.4.22 <0.9.0;\r\npragma experimental ABIEncoderV2;\r\ncontract Products{\r\n    uint public productsCount = 0;\r\n\r\n    struct Product{\r\n        uint id;\r\n        string name;\r\n        uint price_numerator;\r\n        uint price_denominator;\r\n        uint discount_percentage;\r\n        string assetUrls;\r\n        uint classification;\r\n        uint quantifier;\r\n        string decs;\r\n        uint sellerId;\r\n        uint categoryId;\r\n\r\n    }\r\n\r\n    mapping (uint => Product) public products;\r\n\r\n    event ProductCreated(string name, uint ProductNumber);\r\n\r\n    constructor() public{\r\n\r\n        products[0] = Product(0, \"Domai med\", 50, 3, 0, \"https://ipfs.io/ipfs/QmVB38abDTVj5FU1GTbW6k2QhDB8FHxYqhBHwFTrix78Bw\", 1, 750,\r\n            \"Sed ut perspiciatis unde omnis iste natus error sit voluptatem accusantium doloremque laudantium.\", 1,9);\r\n        products[1] = Product(1, \"Pasirani paradajz\", 43, 3, 20, \"https://ipfs.io/ipfs/QmSGWhMdUK9YXdfZBP6gKQozXxqBe4mcdSuhusPbVyZTCx\", 1, 500,\r\n            \"Sed ut perspiciatis unde omnis iste natus error sit voluptatem accusantium doloremque laudantium.\", 1,3);\r\n        products[2] = Product(2, \"Maslinovo ulje\", 77, 3, 0, \"https://ipfs.io/ipfs/QmRsZYboEhSYCGZCBiERvKCfEEBEBWxYm6FUNHg2oryKZk\", 1, 750,\r\n            \"Sed ut perspiciatis unde omnis iste natus error sit voluptatem accusantium doloremque laudantium.\", 1,9);\r\n        products[3] = Product(3, \"Prut\", 154, 3, 0, \"https://ipfs.io/ipfs/QmXd1VwfEJWea1TL62q9btikLypcwCf7VTB46HLYx7EsuQ\", 1, 234,\r\n            \"Sed ut perspiciatis unde omnis iste natus error sit voluptatem accusantium doloremque laudantium.\", 1,1);\r\n        products[4] = Product(4, \"Rakija\", 98, 3, 0, \"https://ipfs.io/ipfs/Qmb1tVQBXnQeeaQdSoMHjTRBWnGuwGnsWqJg97LdvkkFzS\", 2, 1000,\r\n            \"Sed ut perspiciatis unde omnis iste natus error sit voluptatem accusantium doloremque laudantium.\", 1,5);\r\n        products[5] = Product(5, \"Kobasica\", 74, 3, 0, \"https://ipfs.io/ipfs/QmRxCijtUoMGDP7vdff1r74DYPhhGhdemtkht5R39pGxzC\", 1, 1000,\r\n            \"Sed ut perspiciatis unde omnis iste natus error sit voluptatem accusantium doloremque laudantium.\", 1,1);\r\n        products[6] = Product(6, \"Kamamber\", 54, 3, 0, \"https://ipfs.io/ipfs/QmWWrpbQgUB6LddC4UdZFgC6JPJcv52Sot7fAJjvsqcXgE\", 1, 500,\r\n            \"Sed ut perspiciatis unde omnis iste natus error sit voluptatem accusantium doloremque laudantium.\", 1,2);\r\n        productsCount = 7;\r\n    }\r\n\r\n    function createProduct(string memory _productName, uint _price_nominator, uint _price_denominator, uint _discount_percentage, string memory _assetUrls, uint _classif, uint _quantifier, string memory _desc, uint _sellerId, uint _categoryId) public{\r\n\r\n        if (_classif > 2)\r\n            _classif = 0;\r\n        products[productsCount++] = Product(productsCount, _productName, _price_nominator, _price_denominator, _discount_percentage, _assetUrls, _classif, _quantifier, _desc, _sellerId, _categoryId);\r\n        emit ProductCreated(_productName, productsCount - 1);\r\n\r\n    }\r\n    function getProductsForCategory(uint category, uint totalProducts) public returns (Product[] memory){\r\n        uint count = 0;\r\n        Product[] memory y = new Product[](totalProducts);\r\n        for (uint i= 0; i < productsCount; i++) {\r\n            if (products[i].categoryId == category){\r\n                y[count++] = Product(products[i].id,\r\n                    products[i].name,\r\n                    products[i].price_numerator,\r\n                    products[i].price_denominator,\r\n                    products[i].discount_percentage,\r\n                    products[i].assetUrls,\r\n                    products[i].classification,\r\n                    products[i].quantifier,\r\n                    products[i].decs,\r\n                    products[i].sellerId,\r\n                    products[i].categoryId);\r\n            }\r\n        }\r\n        return y;\r\n    }\r\n    function getProductsForCategoryCount(uint category) public returns (uint count){\r\n        uint productsForCategoryCount = 0;\r\n        for (uint i= 0; i < productsCount; i++) {\r\n            if (products[i].categoryId == category){\r\n                productsForCategoryCount++;\r\n            }\r\n        }\r\n        return productsForCategoryCount;\r\n    }\r\n\r\n    function getProductById(uint id) public returns (Product memory){\r\n        Product memory product;\r\n        for (uint i= 0; i < productsCount; i++) {\r\n            if (products[i].id == id){\r\n                product = products[i];\r\n                break;\r\n            }\r\n        }\r\n        return product;\r\n    }\r\n\r\n\r\n    function getSellerProductsCount(uint sellerId) public returns (uint count){\r\n        uint sellerProductsCount = 0;\r\n        for (uint i= 0; i < productsCount; i++) {\r\n            if (products[i].sellerId == sellerId){\r\n                sellerProductsCount++;\r\n            }\r\n        }\r\n        return sellerProductsCount;\r\n    }\r\n    function getSellerProducts(uint sellerId, uint totalProducts) public returns (Product[] memory){\r\n        uint count = 0;\r\n        Product[] memory y = new Product[](totalProducts);\r\n        for (uint i= 0; i < productsCount; i++) {\r\n            if (products[i].sellerId == sellerId){\r\n                y[count++] = Product(products[i].id,\r\n                    products[i].name,\r\n                    products[i].price_numerator,\r\n                    products[i].price_denominator,\r\n                    products[i].discount_percentage,\r\n                    products[i].assetUrls,\r\n                    products[i].classification,\r\n                    products[i].quantifier,\r\n                    products[i].decs,\r\n                    products[i].sellerId,\r\n                    products[i].categoryId);\r\n            }\r\n        }\r\n        return y;\r\n    }\r\n    function contains (string memory what, string memory where) public returns (bool) {\r\n        bytes memory whatBytes = bytes (what);\r\n        bytes memory whereBytes = bytes (where);\r\n        if (keccak256(whatBytes) == keccak256(whereBytes))\r\n            return true;\r\n        bool found = false;\r\n        for (uint i = 0; i < whereBytes.length - whatBytes.length; i++) {\r\n            bool flag = true;\r\n            for (uint j = 0; j < whatBytes.length; j++)\r\n                if (whereBytes [i + j] != whatBytes [j]) {\r\n                    flag = false;\r\n                    break;\r\n                }\r\n            if (flag) {\r\n                found = true;\r\n                break;\r\n            }\r\n        }\r\n        return found;\r\n\r\n    }\r\n    function getQueryProductsCount(string memory query) public returns (uint count){\r\n        uint productsQueryCount = 0;\r\n        for (uint i= 0; i < productsCount; i++) {\r\n            if (contains(_toLower(query), _toLower(products[i].name))){\r\n                productsQueryCount++;\r\n            }\r\n        }\r\n        return productsQueryCount;\r\n    }\r\n    function getQueryProducts(string memory query, uint totalProducts) public returns (Product[] memory){\r\n        uint count = 0;\r\n        Product[] memory y = new Product[](totalProducts);\r\n        for (uint i= 0; i < productsCount; i++) {\r\n            if (contains(_toLower(query), _toLower(products[i].name))){\r\n                y[count++] = Product(products[i].id,\r\n                    products[i].name,\r\n                    products[i].price_numerator,\r\n                    products[i].price_denominator,\r\n                    products[i].discount_percentage,\r\n                    products[i].assetUrls,\r\n                    products[i].classification,\r\n                    products[i].quantifier,\r\n                    products[i].decs,\r\n                    products[i].sellerId,\r\n                    products[i].categoryId);\r\n            }\r\n        }\r\n        return y;\r\n    }\r\n    function _toLower(string memory str) internal returns (string memory) {\r\n        bytes memory bStr = bytes(str);\r\n        bytes memory bLower = new bytes(bStr.length);\r\n        for (uint i = 0; i < bStr.length; i++) {\r\n            // Uppercase character...\r\n            if ((uint8(bStr[i]) >= 65) && (uint8(bStr[i]) <= 90)) {\r\n                bLower[i] = bytes1(uint8(bStr[i]) + 32);\r\n            } else {\r\n                bLower[i] = bStr[i];\r\n            }\r\n        }\r\n        return string(bLower);\r\n    }\r\n    function setSale(uint _product_id, uint _discount_percentage) public{\r\n        for (uint i= 0; i < productsCount; i++) {\r\n            if (products[i].id == _product_id){\r\n                products[i].discount_percentage = _discount_percentage;\r\n                break;\r\n            }\r\n        }\r\n    }\r\n}",
  "sourcePath": "C:/Users/Korisnik/Desktop/dev/Catalyst/src/frontend_mobile/contracts/Products.sol",
  "compiler": {
    "name": "solc",
    "version": "0.5.16+commit.9c3226ce.Emscripten.clang"
  },
  "schemaVersion": "3.3.4",
  "updatedAt": "2021-05-17T15:00:47.978Z",
  "networkType": "ethereum",
  "devdoc": {
    "methods": {}
  },
  "userdoc": {
    "methods": {}
  }
}