{
  "contractName": "Ratings",
  "abi": [
    {
      "inputs": [],
      "payable": false,
      "stateMutability": "nonpayable",
      "type": "constructor"
    },
    {
      "anonymous": false,
      "inputs": [
        {
          "indexed": false,
          "internalType": "uint256",
          "name": "rating",
          "type": "uint256"
        },
        {
          "indexed": false,
          "internalType": "uint256",
          "name": "RatingNumber",
          "type": "uint256"
        }
      ],
      "name": "RatingCreated",
      "type": "event"
    },
    {
      "constant": true,
      "inputs": [
        {
          "internalType": "uint256",
          "name": "",
          "type": "uint256"
        }
      ],
      "name": "ratings",
      "outputs": [
        {
          "internalType": "uint256",
          "name": "id",
          "type": "uint256"
        },
        {
          "internalType": "uint256",
          "name": "productId",
          "type": "uint256"
        },
        {
          "internalType": "uint256",
          "name": "rating",
          "type": "uint256"
        },
        {
          "internalType": "string",
          "name": "desc",
          "type": "string"
        },
        {
          "internalType": "uint256",
          "name": "userId",
          "type": "uint256"
        }
      ],
      "payable": false,
      "stateMutability": "view",
      "type": "function"
    },
    {
      "constant": true,
      "inputs": [],
      "name": "ratingsCount",
      "outputs": [
        {
          "internalType": "uint256",
          "name": "",
          "type": "uint256"
        }
      ],
      "payable": false,
      "stateMutability": "view",
      "type": "function"
    },
    {
      "constant": false,
      "inputs": [
        {
          "internalType": "uint256",
          "name": "_productId",
          "type": "uint256"
        },
        {
          "internalType": "uint256",
          "name": "_rating",
          "type": "uint256"
        },
        {
          "internalType": "string",
          "name": "_desc",
          "type": "string"
        },
        {
          "internalType": "uint256",
          "name": "_userId",
          "type": "uint256"
        }
      ],
      "name": "createRating",
      "outputs": [],
      "payable": false,
      "stateMutability": "nonpayable",
      "type": "function"
    }
  ],
  "bytecode": "0x608060405234801561001057600080fd5b506040518060a001604052806000815260200160018152602001600581526020016040518060400160405280600e81526020017f446f6261722070726f697a766f64000000000000000000000000000000000000815250815260200160018152506001600080815260200190815260200160002060008201518160000155602082015181600101556040820151816002015560608201518160030190805190602001906100be9291906100d9565b5060808201518160040155905050600160008190555061017e565b828054600181600116156101000203166002900490600052602060002090601f016020900481019282601f1061011a57805160ff1916838001178555610148565b82800160010185558215610148579182015b8281111561014757825182559160200191906001019061012c565b5b5090506101559190610159565b5090565b61017b91905b8082111561017757600081600090555060010161015f565b5090565b90565b61048b8061018d6000396000f3fe608060405234801561001057600080fd5b50600436106100415760003560e01c80635d30e84d1461004657806378bba78014610109578063aa5ea17914610127575b600080fd5b6100726004803603602081101561005c57600080fd5b8101908080359060200190929190505050610200565b6040518086815260200185815260200184815260200180602001838152602001828103825284818151815260200191508051906020019080838360005b838110156100ca5780820151818401526020810190506100af565b50505050905090810190601f1680156100f75780820380516001836020036101000a031916815260200191505b50965050505050505060405180910390f35b6101116102ce565b6040518082815260200191505060405180910390f35b6101fe6004803603608081101561013d57600080fd5b8101908080359060200190929190803590602001909291908035906020019064010000000081111561016e57600080fd5b82018360208201111561018057600080fd5b803590602001918460018302840111640100000000831117156101a257600080fd5b91908080601f016020809104026020016040519081016040528093929190818152602001838380828437600081840152601f19601f820116905080830192505050505050509192919290803590602001909291905050506102d4565b005b6001602052806000526040600020600091509050806000015490806001015490806002015490806003018054600181600116156101000203166002900480601f0160208091040260200160405190810160405280929190818152602001828054600181600116156101000203166002900480156102be5780601f10610293576101008083540402835291602001916102be565b820191906000526020600020905b8154815290600101906020018083116102a157829003601f168201915b5050505050908060040154905085565b60005481565b6040518060a001604052806000548152602001858152602001848152602001838152602001828152506001600080600081548092919060010191905055815260200190815260200160002060008201518160000155602082015181600101556040820151816002015560608201518160030190805190602001906103599291906103b1565b50608082015181600401559050507f739ea6024f0f1c5d53189458cf3568317fdc16f98922174e4e42794b3abd3cb683600160005403604051808381526020018281526020019250505060405180910390a150505050565b828054600181600116156101000203166002900490600052602060002090601f016020900481019282601f106103f257805160ff1916838001178555610420565b82800160010185558215610420579182015b8281111561041f578251825591602001919060010190610404565b5b50905061042d9190610431565b5090565b61045391905b8082111561044f576000816000905550600101610437565b5090565b9056fea265627a7a723158202df9fadbb40b650a6377917b3f4aebacc324d3de23d9892264e3108c4dcfd3e464736f6c63430005100032",
  "source": "pragma solidity >=0.4.22 <0.9.0;\r\n\r\ncontract Ratings{\r\n    uint public ratingsCount;\r\n\r\n    struct Rating{\r\n        uint id;\r\n        uint productId;\r\n        uint rating;\r\n        string desc;\r\n        uint userId;\r\n    }\r\n\r\n    mapping (uint => Rating) public ratings;\r\n\r\n    event RatingCreated(uint rating, uint RatingNumber);\r\n\r\n    constructor() public{\r\n\r\n        ratings[0] = Rating(0, 1, 5, \"Dobar proizvod\", 1);\r\n        ratingsCount = 1;\r\n    }\r\n\r\n    function createRating(uint _productId, uint _rating, string memory _desc, uint _userId) public{\r\n\r\n        ratings[ratingsCount++] = Rating(ratingsCount, _productId, _rating, _desc, _userId);\r\n        emit RatingCreated(_rating, ratingsCount - 1);\r\n\r\n    }\r\n}",
  "sourcePath": "C:/Users/Korisnik/Desktop/frontend_mobile/contracts/Ratings.sol",
  "compiler": {
    "name": "solc",
    "version": "0.5.16+commit.9c3226ce.Emscripten.clang"
  },
  "schemaVersion": "3.3.4",
  "updatedAt": "2021-04-04T12:56:10.940Z",
  "networkType": "ethereum",
  "devdoc": {
    "methods": {}
  },
  "userdoc": {
    "methods": {}
  }
}