{
  "contractName": "Reviews",
  "abi": [
    {
      "inputs": [],
      "payable": false,
      "stateMutability": "nonpayable",
      "type": "constructor"
    },
    {
      "anonymous": false,
      "inputs": [
        {
          "indexed": false,
          "internalType": "uint256",
          "name": "review",
          "type": "uint256"
        },
        {
          "indexed": false,
          "internalType": "uint256",
          "name": "reviewNumber",
          "type": "uint256"
        }
      ],
      "name": "ReviewCreated",
      "type": "event"
    },
    {
      "constant": true,
      "inputs": [
        {
          "internalType": "uint256",
          "name": "",
          "type": "uint256"
        }
      ],
      "name": "reviews",
      "outputs": [
        {
          "internalType": "uint256",
          "name": "id",
          "type": "uint256"
        },
        {
          "internalType": "uint256",
          "name": "productId",
          "type": "uint256"
        },
        {
          "internalType": "uint256",
          "name": "rating",
          "type": "uint256"
        },
        {
          "internalType": "string",
          "name": "desc",
          "type": "string"
        },
        {
          "internalType": "uint256",
          "name": "userId",
          "type": "uint256"
        }
      ],
      "payable": false,
      "stateMutability": "view",
      "type": "function"
    },
    {
      "constant": true,
      "inputs": [],
      "name": "reviewsCount",
      "outputs": [
        {
          "internalType": "uint256",
          "name": "",
          "type": "uint256"
        }
      ],
      "payable": false,
      "stateMutability": "view",
      "type": "function"
    },
    {
      "constant": false,
      "inputs": [
        {
          "internalType": "uint256",
          "name": "_productId",
          "type": "uint256"
        },
        {
          "internalType": "uint256",
          "name": "_rating",
          "type": "uint256"
        },
        {
          "internalType": "string",
          "name": "_desc",
          "type": "string"
        },
        {
          "internalType": "uint256",
          "name": "_userId",
          "type": "uint256"
        }
      ],
      "name": "createReview",
      "outputs": [],
      "payable": false,
      "stateMutability": "nonpayable",
      "type": "function"
    },
    {
      "constant": false,
      "inputs": [
        {
          "internalType": "uint256",
          "name": "productId",
          "type": "uint256"
        }
      ],
      "name": "getSum",
      "outputs": [
        {
          "internalType": "uint256",
          "name": "memor",
          "type": "uint256"
        }
      ],
      "payable": false,
      "stateMutability": "nonpayable",
      "type": "function"
    },
    {
      "constant": false,
      "inputs": [
        {
          "internalType": "uint256",
          "name": "productId",
          "type": "uint256"
        },
        {
          "internalType": "uint256",
          "name": "star",
          "type": "uint256"
        }
      ],
      "name": "countStars",
      "outputs": [
        {
          "internalType": "uint256",
          "name": "tem",
          "type": "uint256"
        }
      ],
      "payable": false,
      "stateMutability": "nonpayable",
      "type": "function"
    },
    {
      "constant": false,
      "inputs": [
        {
          "internalType": "uint256",
          "name": "productId",
          "type": "uint256"
        },
        {
          "internalType": "uint256",
          "name": "totalReviews",
          "type": "uint256"
        }
      ],
      "name": "getReviews",
      "outputs": [
        {
          "components": [
            {
              "internalType": "uint256",
              "name": "id",
              "type": "uint256"
            },
            {
              "internalType": "uint256",
              "name": "productId",
              "type": "uint256"
            },
            {
              "internalType": "uint256",
              "name": "rating",
              "type": "uint256"
            },
            {
              "internalType": "string",
              "name": "desc",
              "type": "string"
            },
            {
              "internalType": "uint256",
              "name": "userId",
              "type": "uint256"
            }
          ],
          "internalType": "struct Reviews.Review[]",
          "name": "",
          "type": "tuple[]"
        }
      ],
      "payable": false,
      "stateMutability": "nonpayable",
      "type": "function"
    },
    {
      "constant": false,
      "inputs": [
        {
          "internalType": "uint256",
          "name": "productId",
          "type": "uint256"
        }
      ],
      "name": "getReviewsCount",
      "outputs": [
        {
          "internalType": "uint256",
          "name": "count",
          "type": "uint256"
        }
      ],
      "payable": false,
      "stateMutability": "nonpayable",
      "type": "function"
    },
    {
      "constant": false,
      "inputs": [
        {
          "internalType": "uint256",
          "name": "userId",
          "type": "uint256"
        },
        {
          "internalType": "uint256",
          "name": "productId",
          "type": "uint256"
        }
      ],
      "name": "checkForReview",
      "outputs": [
        {
          "internalType": "bool",
          "name": "b",
          "type": "bool"
        }
      ],
      "payable": false,
      "stateMutability": "nonpayable",
      "type": "function"
    }
  ],
  "bytecode": "0x6080604052600080553480156200001557600080fd5b506040518060a001604052806000815260200160008152602001600581526020016040518060400160405280600e81526020017f446f6261722070726f697a766f6400000000000000000000000000000000000081525081526020016001815250600160008081526020019081526020016000206000820151816000015560208201518160010155604082015181600201556060820151816003019080519060200190620000c5929190620003be565b50608082015181600401559050506040518060a001604052806001815260200160008152602001600581526020016040518060400160405280600e81526020017f446f6261722070726f697a766f64000000000000000000000000000000000000815250815260200160008152506001600060018152602001908152602001600020600082015181600001556020820151816001015560408201518160020155606082015181600301908051906020019062000183929190620003be565b50608082015181600401559050506040518060a0016040528060028152602001600081526020016005815260200160405180610120016040528060e88152602001620011a360e89139815260200160008152506001600060028152602001908152602001600020600082015181600001556020820151816001015560408201518160020155606082015181600301908051906020019062000226929190620003be565b50608082015181600401559050506040518060a001604052806003815260200160018152602001600581526020016040518060400160405280600e81526020017f446f6261722070726f697a766f640000000000000000000000000000000000008152508152602001600181525060016000600381526020019081526020016000206000820151816000015560208201518160010155604082015181600201556060820151816003019080519060200190620002e4929190620003be565b50608082015181600401559050506040518060a001604052806003815260200160018152602001600381526020016040518060400160405280600581526020017f4f6e616b6f0000000000000000000000000000000000000000000000000000008152508152602001600181525060016000600481526020019081526020016000206000820151816000015560208201518160010155604082015181600201556060820151816003019080519060200190620003a2929190620003be565b506080820151816004015590505060056000819055506200046d565b828054600181600116156101000203166002900490600052602060002090601f016020900481019282601f106200040157805160ff191683800117855562000432565b8280016001018555821562000432579182015b828111156200043157825182559160200191906001019062000414565b5b50905062000441919062000445565b5090565b6200046a91905b80821115620004665760008160009055506001016200044c565b5090565b90565b610d26806200047d6000396000f3fe608060405234801561001057600080fd5b50600436106100885760003560e01c8063dcfe3e081161005b578063dcfe3e0814610139578063e7fee98f14610169578063e83ddcea14610187578063e8e0ba01146101bb57610088565b806353a44faf1461008d5780639cc109b9146100bd578063a71e18d3146100ed578063d2d3523c1461011d575b600080fd5b6100a760048036036100a29190810190610874565b6101eb565b6040516100b49190610ac9565b60405180910390f35b6100d760048036036100d29190810190610874565b6103c3565b6040516100e49190610aeb565b60405180910390f35b61010760048036036101029190810190610874565b610437565b6040516101149190610b06565b60405180910390f35b610137600480360361013291908101906108b0565b6104a9565b005b610153600480360361014e919081019061084b565b610580565b6040516101609190610b06565b60405180910390f35b6101716105d5565b60405161017e9190610b06565b60405180910390f35b6101a1600480360361019c919081019061084b565b6105db565b6040516101b2959493929190610b4a565b60405180910390f35b6101d560048036036101d0919081019061084b565b6106a9565b6040516101e29190610b06565b60405180910390f35b6060600080905060608360405190808252806020026020018201604052801561022e57816020015b61021b61070e565b8152602001906001900390816102135790505b50905060008090505b6000548110156103b75785600160008381526020019081526020016000206001015414156103aa576040518060a00160405280600160008481526020019081526020016000206000015481526020016001600084815260200190815260200160002060010154815260200160016000848152602001908152602001600020600201548152602001600160008481526020019081526020016000206003018054600181600116156101000203166002900480601f0160208091040260200160405190810160405280929190818152602001828054600181600116156101000203166002900480156103685780601f1061033d57610100808354040283529160200191610368565b820191906000526020600020905b81548152906001019060200180831161034b57829003601f168201915b50505050508152602001600160008481526020019081526020016000206004015481525082848060010195508151811061039e57fe5b60200260200101819052505b8080600101915050610237565b50809250505092915050565b600080600090505b60005481101561042b5783600160008381526020019081526020016000206004015414801561040f5750826001600083815260200190815260200160002060010154145b1561041e576001915050610431565b80806001019150506103cb565b50600090505b92915050565b60008060009050600061044985610580565b9050606061045786836101eb565b905060008090505b8281101561049c578582828151811061047457fe5b602002602001015160400151141561048f5783806001019450505b808060010191505061045f565b5082935050505092915050565b6040518060a0016040528060005481526020018581526020018481526020018381526020018281525060016000806000815480929190600101919050558152602001908152602001600020600082015181600001556020820151816001015560408201518160020155606082015181600301908051906020019061052e92919061073d565b50608082015181600401559050507f7f81c790a4345d8750e5542a4c0213b9a5969741805deafb58ad031fe113c4cd83600160005403604051610572929190610b21565b60405180910390a150505050565b6000806000905060008090505b6000548110156105cb5783600160008381526020019081526020016000206001015414156105be5781806001019250505b808060010191505061058d565b5080915050919050565b60005481565b6001602052806000526040600020600091509050806000015490806001015490806002015490806003018054600181600116156101000203166002900480601f0160208091040260200160405190810160405280929190818152602001828054600181600116156101000203166002900480156106995780601f1061066e57610100808354040283529160200191610699565b820191906000526020600020905b81548152906001019060200180831161067c57829003601f168201915b5050505050908060040154905085565b6000806000905060006106bb84610580565b905060606106c985836101eb565b905060008090505b82811015610702578181815181106106e557fe5b6020026020010151604001518401935080806001019150506106d1565b50829350505050919050565b6040518060a0016040528060008152602001600081526020016000815260200160608152602001600081525090565b828054600181600116156101000203166002900490600052602060002090601f016020900481019282601f1061077e57805160ff19168380011785556107ac565b828001600101855582156107ac579182015b828111156107ab578251825591602001919060010190610790565b5b5090506107b991906107bd565b5090565b6107df91905b808211156107db5760008160009055506001016107c3565b5090565b90565b600082601f8301126107f357600080fd5b813561080661080182610bd1565b610ba4565b9150808252602083016020830185838301111561082257600080fd5b61082d838284610c79565b50505092915050565b60008135905061084581610ccc565b92915050565b60006020828403121561085d57600080fd5b600061086b84828501610836565b91505092915050565b6000806040838503121561088757600080fd5b600061089585828601610836565b92505060206108a685828601610836565b9150509250929050565b600080600080608085870312156108c657600080fd5b60006108d487828801610836565b94505060206108e587828801610836565b935050604085013567ffffffffffffffff81111561090257600080fd5b61090e878288016107e2565b925050606061091f87828801610836565b91505092959194509250565b60006109378383610a35565b905092915050565b600061094a82610c0d565b6109548185610c30565b93508360208202850161096685610bfd565b8060005b858110156109a25784840389528151610983858261092b565b945061098e83610c23565b925060208a0199505060018101905061096a565b50829750879550505050505092915050565b6109bd81610c63565b82525050565b60006109ce82610c18565b6109d88185610c41565b93506109e8818560208601610c88565b6109f181610cbb565b840191505092915050565b6000610a0782610c18565b610a118185610c52565b9350610a21818560208601610c88565b610a2a81610cbb565b840191505092915050565b600060a083016000830151610a4d6000860182610aab565b506020830151610a606020860182610aab565b506040830151610a736040860182610aab565b5060608301518482036060860152610a8b82826109c3565b9150506080830151610aa06080860182610aab565b508091505092915050565b610ab481610c6f565b82525050565b610ac381610c6f565b82525050565b60006020820190508181036000830152610ae3818461093f565b905092915050565b6000602082019050610b0060008301846109b4565b92915050565b6000602082019050610b1b6000830184610aba565b92915050565b6000604082019050610b366000830185610aba565b610b436020830184610aba565b9392505050565b600060a082019050610b5f6000830188610aba565b610b6c6020830187610aba565b610b796040830186610aba565b8181036060830152610b8b81856109fc565b9050610b9a6080830184610aba565b9695505050505050565b6000604051905081810181811067ffffffffffffffff82111715610bc757600080fd5b8060405250919050565b600067ffffffffffffffff821115610be857600080fd5b601f19601f8301169050602081019050919050565b6000819050602082019050919050565b600081519050919050565b600081519050919050565b6000602082019050919050565b600082825260208201905092915050565b600082825260208201905092915050565b600082825260208201905092915050565b60008115159050919050565b6000819050919050565b82818337600083830152505050565b60005b83811015610ca6578082015181840152602081019050610c8b565b83811115610cb5576000848401525b50505050565b6000601f19601f8301169050919050565b610cd581610c6f565b8114610ce057600080fd5b5056fea365627a7a72315820679e3f37b12a46b2c99b1789c4b0f3fc9e174d2d1d3611f86e431653358cf7866c6578706572696d656e74616cf564736f6c634300051000404c6f72656d20697073756d20646f6c6f722073697420616d65742c20636f6e73656374657475722061646970697363696e6720656c69742c2073656420646f20656975736d6f642074656d706f7220696e6369646964756e74207574206c61626f726520657420646f6c6f7265206d61676e6120616c697175612e20557420656e696d206164206d696e696d2076656e69616d2c2071756973206e6f737472756420657865726369746174696f6e20756c6c616d636f206c61626f726973206e69736920757420616c697175697020657820656120636f6d6d6f646f20636f6e7365717561742e20",
  "source": "pragma solidity >=0.4.22 <0.9.0;\r\npragma experimental ABIEncoderV2;\r\ncontract Reviews{\r\n    uint public reviewsCount = 0;\r\n\r\n    struct Review{\r\n        uint id;\r\n        uint productId;\r\n        uint rating;\r\n        string desc;\r\n        uint userId;\r\n    }\r\n\r\n    mapping (uint => Review) public reviews;\r\n\r\n    event ReviewCreated(uint review, uint reviewNumber);\r\n\r\n    constructor() public{\r\n\r\n        reviews[0] = Review(0, 0, 5, \"Dobar proizvod\", 1);\r\n        reviews[1] = Review(1, 0, 5, \"Dobar proizvod\", 0);\r\n        reviews[2] = Review(2, 0, 5, \"Lorem ipsum dolor sit amet, consectetur adipiscing elit, sed do eiusmod tempor incididunt ut labore et dolore magna aliqua. Ut enim ad minim veniam, quis nostrud exercitation ullamco laboris nisi ut aliquip ex ea commodo consequat. \", 0);\r\n        reviews[3] = Review(3, 1, 5, \"Dobar proizvod\", 1);\r\n        reviews[4] = Review(3, 1, 3, \"Onako\", 1);\r\n        reviewsCount = 5;\r\n    }\r\n\r\n    function createReview(uint _productId, uint _rating, string memory _desc, uint _userId) public{\r\n\r\n        reviews[reviewsCount++] = Review(reviewsCount, _productId, _rating, _desc, _userId);\r\n        emit ReviewCreated(_rating, reviewsCount - 1);\r\n\r\n    }\r\n\r\n    function getSum(uint productId) public returns(uint memor){\r\n        uint sum = 0;\r\n        uint count = getReviewsCount(productId);\r\n        Review[] memory y = getReviews(productId, count);\r\n        for (uint i=0; i<count; i++) {\r\n            sum += y[i].rating;\r\n        }\r\n        return sum;\r\n    }\r\n\r\n    function countStars(uint productId, uint star) public returns(uint tem){\r\n\r\n        uint starsCount = 0;\r\n        uint count = getReviewsCount(productId);\r\n        Review[] memory y = getReviews(productId, count);\r\n        for (uint i=0; i<count; i++) {\r\n            if (y[i].rating == star)\r\n                starsCount++;\r\n        }\r\n        return starsCount;\r\n    }\r\n    function getReviews(uint productId, uint totalReviews) public returns (Review[] memory){\r\n        uint reviewsForProductCount = 0;\r\n        Review[] memory y = new Review[](totalReviews);\r\n        for (uint i= 0; i < reviewsCount; i++) {\r\n            if (reviews[i].productId == productId){\r\n                y[reviewsForProductCount++] = Review(reviews[i].id,reviews[i].productId,reviews[i].rating,reviews[i].desc,reviews[i].userId);\r\n            }\r\n        }\r\n        return y;\r\n    }\r\n    function getReviewsCount(uint productId) public returns (uint count){\r\n        uint reviewsForProductCount = 0;\r\n        for (uint i= 0; i < reviewsCount; i++) {\r\n            if (reviews[i].productId == productId){\r\n                reviewsForProductCount++;\r\n            }\r\n        }\r\n        return reviewsForProductCount;\r\n    }\r\n    function checkForReview(uint userId, uint productId) public returns (bool b){\r\n        for (uint i=0; i< reviewsCount; i++) {\r\n            if (reviews[i].userId == userId && reviews[i].productId ==  productId)\r\n                return true;\r\n        }\r\n        return false;\r\n    }\r\n}",
  "sourcePath": "C:/Users/97ste/Desktop/Catalyst/src/frontend_mobile/contracts/Reviews.sol",
  "compiler": {
    "name": "solc",
    "version": "0.5.16+commit.9c3226ce.Emscripten.clang"
  },
  "schemaVersion": "3.3.4",
  "updatedAt": "2021-05-10T19:22:11.477Z",
  "networkType": "ethereum",
  "devdoc": {
    "methods": {}
  },
  "userdoc": {
    "methods": {}
  }
}