{
  "contractName": "Reviews",
  "abi": [
    {
      "inputs": [],
      "payable": false,
      "stateMutability": "nonpayable",
      "type": "constructor"
    },
    {
      "anonymous": false,
      "inputs": [
        {
          "indexed": false,
          "internalType": "uint256",
          "name": "review",
          "type": "uint256"
        },
        {
          "indexed": false,
          "internalType": "uint256",
          "name": "reviewNumber",
          "type": "uint256"
        }
      ],
      "name": "ReviewCreated",
      "type": "event"
    },
    {
      "constant": true,
      "inputs": [
        {
          "internalType": "uint256",
          "name": "",
          "type": "uint256"
        }
      ],
      "name": "reviews",
      "outputs": [
        {
          "internalType": "uint256",
          "name": "id",
          "type": "uint256"
        },
        {
          "internalType": "uint256",
          "name": "productId",
          "type": "uint256"
        },
        {
          "internalType": "uint256",
          "name": "rating",
          "type": "uint256"
        },
        {
          "internalType": "string",
          "name": "desc",
          "type": "string"
        },
        {
          "internalType": "uint256",
          "name": "userId",
          "type": "uint256"
        }
      ],
      "payable": false,
      "stateMutability": "view",
      "type": "function"
    },
    {
      "constant": true,
      "inputs": [],
      "name": "reviewsCount",
      "outputs": [
        {
          "internalType": "uint256",
          "name": "",
          "type": "uint256"
        }
      ],
      "payable": false,
      "stateMutability": "view",
      "type": "function"
    },
    {
      "constant": true,
      "inputs": [
        {
          "internalType": "uint256",
          "name": "",
          "type": "uint256"
        }
      ],
      "name": "reviewsForProduct",
      "outputs": [
        {
          "internalType": "uint256",
          "name": "id",
          "type": "uint256"
        },
        {
          "internalType": "uint256",
          "name": "productId",
          "type": "uint256"
        },
        {
          "internalType": "uint256",
          "name": "rating",
          "type": "uint256"
        },
        {
          "internalType": "string",
          "name": "desc",
          "type": "string"
        },
        {
          "internalType": "uint256",
          "name": "userId",
          "type": "uint256"
        }
      ],
      "payable": false,
      "stateMutability": "view",
      "type": "function"
    },
    {
      "constant": true,
      "inputs": [],
      "name": "reviewsForProductCount",
      "outputs": [
        {
          "internalType": "uint256",
          "name": "",
          "type": "uint256"
        }
      ],
      "payable": false,
      "stateMutability": "view",
      "type": "function"
    },
    {
      "constant": false,
      "inputs": [
        {
          "internalType": "uint256",
          "name": "_productId",
          "type": "uint256"
        },
        {
          "internalType": "uint256",
          "name": "_rating",
          "type": "uint256"
        },
        {
          "internalType": "string",
          "name": "_desc",
          "type": "string"
        },
        {
          "internalType": "uint256",
          "name": "_userId",
          "type": "uint256"
        }
      ],
      "name": "createReview",
      "outputs": [],
      "payable": false,
      "stateMutability": "nonpayable",
      "type": "function"
    },
    {
      "constant": false,
      "inputs": [],
      "name": "getSum",
      "outputs": [
        {
          "internalType": "uint256",
          "name": "memor",
          "type": "uint256"
        }
      ],
      "payable": false,
      "stateMutability": "nonpayable",
      "type": "function"
    },
    {
      "constant": false,
      "inputs": [
        {
          "internalType": "uint256",
          "name": "productId",
          "type": "uint256"
        }
      ],
      "name": "getReviews",
      "outputs": [],
      "payable": false,
      "stateMutability": "nonpayable",
      "type": "function"
    },
    {
      "constant": false,
      "inputs": [
        {
          "internalType": "uint256",
          "name": "star",
          "type": "uint256"
        }
      ],
      "name": "countStars",
      "outputs": [
        {
          "internalType": "uint256",
          "name": "tem",
          "type": "uint256"
        }
      ],
      "payable": false,
      "stateMutability": "nonpayable",
      "type": "function"
    }
  ],
  "bytecode": "0x60806040526000805534801561001457600080fd5b506040518060a001604052806000815260200160008152602001600581526020016040518060400160405280600e81526020017f446f6261722070726f697a766f64000000000000000000000000000000000000815250815260200160018152506002600080815260200190815260200160002060008201518160000155602082015181600101556040820151816002015560608201518160030190805190602001906100c2929190610311565b50608082015181600401559050506040518060a001604052806001815260200160008152602001600581526020016040518060400160405280600e81526020017f446f6261722070726f697a766f64000000000000000000000000000000000000815250815260200160028152506002600060018152602001908152602001600020600082015181600001556020820151816001015560408201518160020155606082015181600301908051906020019061017e929190610311565b50608082015181600401559050506040518060a001604052806002815260200160008152602001600581526020016040518060400160405280600e81526020017f446f6261722070726f697a766f64000000000000000000000000000000000000815250815260200160038152506002600060028152602001908152602001600020600082015181600001556020820151816001015560408201518160020155606082015181600301908051906020019061023a929190610311565b50608082015181600401559050506040518060a001604052806003815260200160018152602001600581526020016040518060400160405280600e81526020017f446f6261722070726f697a766f6400000000000000000000000000000000000081525081526020016001815250600260006003815260200190815260200160002060008201518160000155602082015181600101556040820151816002015560608201518160030190805190602001906102f6929190610311565b506080820151816004015590505060046000819055506103b6565b828054600181600116156101000203166002900490600052602060002090601f016020900481019282601f1061035257805160ff1916838001178555610380565b82800160010185558215610380579182015b8281111561037f578251825591602001919060010190610364565b5b50905061038d9190610391565b5090565b6103b391905b808211156103af576000816000905550600101610397565b5090565b90565b610991806103c56000396000f3fe608060405234801561001057600080fd5b50600436106100885760003560e01c8063d2d3523c1161005b578063d2d3523c146101de578063e7fee98f146102b7578063e83ddcea146102d5578063ee58c8041461039857610088565b806346becb181461008d578063569c5f6d146100cf57806386019be2146100ed5780639d4a2255146101b0575b600080fd5b6100b9600480360360208110156100a357600080fd5b81019080803590602001909291905050506103b6565b6040518082815260200191505060405180910390f35b6100d761040b565b6040518082815260200191505060405180910390f35b6101196004803603602081101561010357600080fd5b8101908080359060200190929190505050610452565b6040518086815260200185815260200184815260200180602001838152602001828103825284818151815260200191508051906020019080838360005b83811015610171578082015181840152602081019050610156565b50505050905090810190601f16801561019e5780820380516001836020036101000a031916815260200191505b50965050505050505060405180910390f35b6101dc600480360360208110156101c657600080fd5b8101908080359060200190929190505050610520565b005b6102b5600480360360808110156101f457600080fd5b8101908080359060200190929190803590602001909291908035906020019064010000000081111561022557600080fd5b82018360208201111561023757600080fd5b8035906020019184600183028401116401000000008311171561025957600080fd5b91908080601f016020809104026020016040519081016040528093929190818152602001838380828437600081840152601f19601f82011690508083019250505050505050919291929080359060200190929190505050610700565b005b6102bf6107dd565b6040518082815260200191505060405180910390f35b610301600480360360208110156102eb57600080fd5b81019080803590602001909291905050506107e3565b6040518086815260200185815260200184815260200180602001838152602001828103825284818151815260200191508051906020019080838360005b8381101561035957808201518184015260208101905061033e565b50505050905090810190601f1680156103865780820380516001836020036101000a031916815260200191505b50965050505050505060405180910390f35b6103a06108b1565b6040518082815260200191505060405180910390f35b6000806000905060008090505b6000548110156104015783600260008381526020019081526020016000206002015414156103f45781806001019250505b80806001019150506103c3565b5080915050919050565b6000806000905060008090505b60005481101561044a576002600082815260200190815260200160002060020154820191508080600101915050610418565b508091505090565b6003602052806000526040600020600091509050806000015490806001015490806002015490806003018054600181600116156101000203166002900480601f0160208091040260200160405190810160405280929190818152602001828054600181600116156101000203166002900480156105105780601f106104e557610100808354040283529160200191610510565b820191906000526020600020905b8154815290600101906020018083116104f357829003601f168201915b5050505050908060040154905085565b600060018190555060008090505b6000548110156106fc5781600260008381526020019081526020016000206001015414156106ef576040518060a00160405280600260008481526020019081526020016000206000015481526020016002600084815260200190815260200160002060010154815260200160026000848152602001908152602001600020600201548152602001600260008481526020019081526020016000206003018054600181600116156101000203166002900480601f01602080910402602001604051908101604052809291908181526020018280546001816001161561010002031660029004801561065f5780601f106106345761010080835404028352916020019161065f565b820191906000526020600020905b81548152906001019060200180831161064257829003601f168201915b505050505081526020016002600084815260200190815260200160002060040154815250600360006001600081548092919060010191905055815260200190815260200160002060008201518160000155602082015181600101556040820151816002015560608201518160030190805190602001906106e09291906108b7565b50608082015181600401559050505b808060010191505061052e565b5050565b6040518060a001604052806000548152602001858152602001848152602001838152602001828152506002600080600081548092919060010191905055815260200190815260200160002060008201518160000155602082015181600101556040820151816002015560608201518160030190805190602001906107859291906108b7565b50608082015181600401559050507f7f81c790a4345d8750e5542a4c0213b9a5969741805deafb58ad031fe113c4cd83600160005403604051808381526020018281526020019250505060405180910390a150505050565b60005481565b6002602052806000526040600020600091509050806000015490806001015490806002015490806003018054600181600116156101000203166002900480601f0160208091040260200160405190810160405280929190818152602001828054600181600116156101000203166002900480156108a15780601f10610876576101008083540402835291602001916108a1565b820191906000526020600020905b81548152906001019060200180831161088457829003601f168201915b5050505050908060040154905085565b60015481565b828054600181600116156101000203166002900490600052602060002090601f016020900481019282601f106108f857805160ff1916838001178555610926565b82800160010185558215610926579182015b8281111561092557825182559160200191906001019061090a565b5b5090506109339190610937565b5090565b61095991905b8082111561095557600081600090555060010161093d565b5090565b9056fea265627a7a72315820b970e938e5d1265c0bdb1b587fd85da3c2d5cc9490e4bc0efa39f18fbbe12fe064736f6c63430005100032",
  "source": "pragma solidity >=0.4.22 <0.9.0;\r\n\r\ncontract Reviews{\r\n    uint public reviewsCount = 0;\r\n    uint public reviewsForProductCount;\r\n    struct Review{\r\n        uint id;\r\n        uint productId;\r\n        uint rating;\r\n        string desc;\r\n        uint userId;\r\n    }\r\n\r\n    mapping (uint => Review) public reviews;\r\n    mapping (uint => Review) public reviewsForProduct;\r\n    event ReviewCreated(uint review, uint reviewNumber);\r\n\r\n    constructor() public{\r\n\r\n        reviews[0] = Review(0, 0, 5, \"Dobar proizvod\", 1);\r\n        reviews[1] = Review(1, 0, 5, \"Dobar proizvod\", 2);\r\n        reviews[2] = Review(2, 0, 5, \"Dobar proizvod\", 3);\r\n        reviews[3] = Review(3, 1, 5, \"Dobar proizvod\", 1);\r\n        reviewsCount = 4;\r\n    }\r\n\r\n    function createReview(uint _productId, uint _rating, string memory _desc, uint _userId) public{\r\n\r\n        reviews[reviewsCount++] = Review(reviewsCount, _productId, _rating, _desc, _userId);\r\n        emit ReviewCreated(_rating, reviewsCount - 1);\r\n\r\n    }\r\n\r\n    function getSum() public returns(uint memor){\r\n        uint sum = 0;\r\n        for (uint i=0; i<reviewsCount; i++) {\r\n            sum += reviews[i].rating;\r\n        }\r\n        return sum;\r\n    }\r\n\r\n    //last reviews\r\n    function getReviews(uint productId) public{\r\n        reviewsForProductCount = 0;\r\n//        if(reviewsCount > 0){\r\n//            for (uint i= reviewsCount - 1; i >= 0; i--) {\r\n//                if (reviews[i].productId == productId){\r\n//                    reviewsForProduct[reviewsForProductCount++] = Review(reviews[i].id,reviews[i].productId,reviews[i].rating,reviews[i].desc,reviews[i].userId);\r\n//                }\r\n//                if (reviewsForProductCount > 9)\r\n//                    break;\r\n//            }\r\n//        }\r\n        for (uint i= 0; i < reviewsCount; i++) {\r\n            if (reviews[i].productId == productId){\r\n                reviewsForProduct[reviewsForProductCount++] = Review(reviews[i].id,reviews[i].productId,reviews[i].rating,reviews[i].desc,reviews[i].userId);\r\n            }\r\n        }\r\n    }\r\n    function countStars(uint star) public returns(uint tem){\r\n\r\n        uint starsCount = 0;\r\n\r\n        for (uint i=0; i<reviewsCount; i++) {\r\n            if (reviews[i].rating == star)\r\n                starsCount++;\r\n        }\r\n        return starsCount;\r\n    }\r\n\r\n}\r\n",
  "sourcePath": "C:/Users/Korisnik/Desktop/frontend_mobile/contracts/Reviews.sol",
  "compiler": {
    "name": "solc",
    "version": "0.5.16+commit.9c3226ce.Emscripten.clang"
  },
  "schemaVersion": "3.3.4",
  "updatedAt": "2021-04-06T09:09:26.092Z",
  "networkType": "ethereum",
  "devdoc": {
    "methods": {}
  },
  "userdoc": {
    "methods": {}
  }
}