{
  "contractName": "Reviews",
  "abi": [
    {
      "inputs": [],
      "payable": false,
      "stateMutability": "nonpayable",
      "type": "constructor"
    },
    {
      "anonymous": false,
      "inputs": [
        {
          "indexed": false,
          "internalType": "uint256",
          "name": "review",
          "type": "uint256"
        },
        {
          "indexed": false,
          "internalType": "uint256",
          "name": "reviewNumber",
          "type": "uint256"
        }
      ],
      "name": "ReviewCreated",
      "type": "event"
    },
    {
      "constant": true,
      "inputs": [
        {
          "internalType": "uint256",
          "name": "",
          "type": "uint256"
        }
      ],
      "name": "reviews",
      "outputs": [
        {
          "internalType": "uint256",
          "name": "id",
          "type": "uint256"
        },
        {
          "internalType": "uint256",
          "name": "productId",
          "type": "uint256"
        },
        {
          "internalType": "uint256",
          "name": "rating",
          "type": "uint256"
        },
        {
          "internalType": "string",
          "name": "desc",
          "type": "string"
        },
        {
          "internalType": "uint256",
          "name": "userId",
          "type": "uint256"
        },
        {
          "internalType": "string",
          "name": "date",
          "type": "string"
        }
      ],
      "payable": false,
      "stateMutability": "view",
      "type": "function"
    },
    {
      "constant": true,
      "inputs": [],
      "name": "reviewsCount",
      "outputs": [
        {
          "internalType": "uint256",
          "name": "",
          "type": "uint256"
        }
      ],
      "payable": false,
      "stateMutability": "view",
      "type": "function"
    },
    {
      "constant": false,
      "inputs": [
        {
          "internalType": "uint256",
          "name": "_productId",
          "type": "uint256"
        },
        {
          "internalType": "uint256",
          "name": "_rating",
          "type": "uint256"
        },
        {
          "internalType": "string",
          "name": "_desc",
          "type": "string"
        },
        {
          "internalType": "uint256",
          "name": "_userId",
          "type": "uint256"
        },
        {
          "internalType": "string",
          "name": "_date",
          "type": "string"
        }
      ],
      "name": "createReview",
      "outputs": [],
      "payable": false,
      "stateMutability": "nonpayable",
      "type": "function"
    },
    {
      "constant": false,
      "inputs": [
        {
          "internalType": "uint256",
          "name": "productId",
          "type": "uint256"
        }
      ],
      "name": "getSum",
      "outputs": [
        {
          "internalType": "uint256",
          "name": "memor",
          "type": "uint256"
        }
      ],
      "payable": false,
      "stateMutability": "nonpayable",
      "type": "function"
    },
    {
      "constant": false,
      "inputs": [
        {
          "internalType": "uint256",
          "name": "productId",
          "type": "uint256"
        },
        {
          "internalType": "uint256",
          "name": "star",
          "type": "uint256"
        }
      ],
      "name": "countStars",
      "outputs": [
        {
          "internalType": "uint256",
          "name": "tem",
          "type": "uint256"
        }
      ],
      "payable": false,
      "stateMutability": "nonpayable",
      "type": "function"
    },
    {
      "constant": false,
      "inputs": [
        {
          "internalType": "uint256",
          "name": "productId",
          "type": "uint256"
        },
        {
          "internalType": "uint256",
          "name": "totalReviews",
          "type": "uint256"
        }
      ],
      "name": "getReviews",
      "outputs": [
        {
          "components": [
            {
              "internalType": "uint256",
              "name": "id",
              "type": "uint256"
            },
            {
              "internalType": "uint256",
              "name": "productId",
              "type": "uint256"
            },
            {
              "internalType": "uint256",
              "name": "rating",
              "type": "uint256"
            },
            {
              "internalType": "string",
              "name": "desc",
              "type": "string"
            },
            {
              "internalType": "uint256",
              "name": "userId",
              "type": "uint256"
            },
            {
              "internalType": "string",
              "name": "date",
              "type": "string"
            }
          ],
          "internalType": "struct Reviews.Review[]",
          "name": "",
          "type": "tuple[]"
        }
      ],
      "payable": false,
      "stateMutability": "nonpayable",
      "type": "function"
    },
    {
      "constant": false,
      "inputs": [
        {
          "internalType": "uint256",
          "name": "productId",
          "type": "uint256"
        }
      ],
      "name": "getReviewsCount",
      "outputs": [
        {
          "internalType": "uint256",
          "name": "count",
          "type": "uint256"
        }
      ],
      "payable": false,
      "stateMutability": "nonpayable",
      "type": "function"
    },
    {
      "constant": false,
      "inputs": [
        {
          "internalType": "uint256",
          "name": "userId",
          "type": "uint256"
        },
        {
          "internalType": "uint256",
          "name": "productId",
          "type": "uint256"
        }
      ],
      "name": "checkForReview",
      "outputs": [
        {
          "internalType": "bool",
          "name": "b",
          "type": "bool"
        }
      ],
      "payable": false,
      "stateMutability": "nonpayable",
      "type": "function"
    }
  ],
  "bytecode": "0x6080604052600080553480156200001557600080fd5b506040518060c001604052806000815260200160008152602001600581526020016040518060400160405280600e81526020017f446f6261722070726f697a766f640000000000000000000000000000000000008152508152602001603481526020016040518060400160405280601781526020017f323032312d30352d31382030373a30353a30302e3030300000000000000000008152508152506001600080815260200190815260200160002060008201518160000155602082015181600101556040820151816002015560608201518160030190805190602001906200010092919062000580565b506080820151816004015560a08201518160050190805190602001906200012992919062000580565b509050506040518060c001604052806001815260200160038152602001600581526020016040518060400160405280600e81526020017f446f6261722070726f697a766f640000000000000000000000000000000000008152508152602001603481526020016040518060400160405280600a81526020017f323032312d30322d303100000000000000000000000000000000000000000000815250815250600160006001815260200190815260200160002060008201518160000155602082015181600101556040820151816002015560608201518160030190805190602001906200021892919062000580565b506080820151816004015560a08201518160050190805190602001906200024192919062000580565b509050506040518060c0016040528060028152602001600481526020016005815260200160405180610120016040528060e881526020016200153e60e891398152602001603481526020016040518060400160405280600a81526020017f323032312d30322d303100000000000000000000000000000000000000000000815250815250600160006002815260200190815260200160002060008201518160000155602082015181600101556040820151816002015560608201518160030190805190602001906200031592919062000580565b506080820151816004015560a08201518160050190805190602001906200033e92919062000580565b509050506040518060c001604052806003815260200160018152602001600581526020016040518060400160405280600e81526020017f446f6261722070726f697a766f640000000000000000000000000000000000008152508152602001603481526020016040518060400160405280600a81526020017f323032312d30322d303100000000000000000000000000000000000000000000815250815250600160006003815260200190815260200160002060008201518160000155602082015181600101556040820151816002015560608201518160030190805190602001906200042d92919062000580565b506080820151816004015560a08201518160050190805190602001906200045692919062000580565b509050506040518060c001604052806003815260200160028152602001600381526020016040518060400160405280600581526020017f4f6e616b6f0000000000000000000000000000000000000000000000000000008152508152602001603481526020016040518060400160405280600a81526020017f323032312d30322d303100000000000000000000000000000000000000000000815250815250600160006004815260200190815260200160002060008201518160000155602082015181600101556040820151816002015560608201518160030190805190602001906200054592919062000580565b506080820151816004015560a08201518160050190805190602001906200056e92919062000580565b5090505060056000819055506200062f565b828054600181600116156101000203166002900490600052602060002090601f016020900481019282601f10620005c357805160ff1916838001178555620005f4565b82800160010185558215620005f4579182015b82811115620005f3578251825591602001919060010190620005d6565b5b50905062000603919062000607565b5090565b6200062c91905b80821115620006285760008160009055506001016200060e565b5090565b90565b610eff806200063f6000396000f3fe608060405234801561001057600080fd5b50600436106100885760003560e01c8063dcfe3e081161005b578063dcfe3e0814610139578063e7fee98f14610169578063e83ddcea14610187578063e8e0ba01146101bc57610088565b80633115291f1461008d57806353a44faf146100a95780639cc109b9146100d9578063a71e18d314610109575b600080fd5b6100a760048036036100a29190810190610a2e565b6101ec565b005b6100c360048036036100be91908101906109f2565b6102e7565b6040516100d09190610c8d565b60405180910390f35b6100f360048036036100ee91908101906109f2565b610573565b6040516101009190610caf565b60405180910390f35b610123600480360361011e91908101906109f2565b6105e7565b6040516101309190610cca565b60405180910390f35b610153600480360361014e91908101906109c9565b610659565b6040516101609190610cca565b60405180910390f35b6101716106ae565b60405161017e9190610cca565b60405180910390f35b6101a1600480360361019c91908101906109c9565b6106b4565b6040516101b396959493929190610d0e565b60405180910390f35b6101d660048036036101d191908101906109c9565b610820565b6040516101e39190610cca565b60405180910390f35b6040518060c00160405280600054815260200186815260200185815260200184815260200183815260200182815250600160008060008154809291906001019190505581526020019081526020016000206000820151816000015560208201518160010155604082015181600201556060820151816003019080519060200190610277929190610885565b506080820151816004015560a082015181600501908051906020019061029e929190610885565b509050507f7f81c790a4345d8750e5542a4c0213b9a5969741805deafb58ad031fe113c4cd846001600054036040516102d8929190610ce5565b60405180910390a15050505050565b6060600080905060608360405190808252806020026020018201604052801561032a57816020015b610317610905565b81526020019060019003908161030f5790505b50905060008090505b60005481101561056757856001600083815260200190815260200160002060010154141561055a576040518060c00160405280600160008481526020019081526020016000206000015481526020016001600084815260200190815260200160002060010154815260200160016000848152602001908152602001600020600201548152602001600160008481526020019081526020016000206003018054600181600116156101000203166002900480601f0160208091040260200160405190810160405280929190818152602001828054600181600116156101000203166002900480156104645780601f1061043957610100808354040283529160200191610464565b820191906000526020600020905b81548152906001019060200180831161044757829003601f168201915b5050505050815260200160016000848152602001908152602001600020600401548152602001600160008481526020019081526020016000206005018054600181600116156101000203166002900480601f0160208091040260200160405190810160405280929190818152602001828054600181600116156101000203166002900480156105345780601f1061050957610100808354040283529160200191610534565b820191906000526020600020905b81548152906001019060200180831161051757829003601f168201915b505050505081525082848060010195508151811061054e57fe5b60200260200101819052505b8080600101915050610333565b50809250505092915050565b600080600090505b6000548110156105db578360016000838152602001908152602001600020600401541480156105bf5750826001600083815260200190815260200160002060010154145b156105ce5760019150506105e1565b808060010191505061057b565b50600090505b92915050565b6000806000905060006105f985610659565b9050606061060786836102e7565b905060008090505b8281101561064c578582828151811061062457fe5b602002602001015160400151141561063f5783806001019450505b808060010191505061060f565b5082935050505092915050565b6000806000905060008090505b6000548110156106a45783600160008381526020019081526020016000206001015414156106975781806001019250505b8080600101915050610666565b5080915050919050565b60005481565b6001602052806000526040600020600091509050806000015490806001015490806002015490806003018054600181600116156101000203166002900480601f0160208091040260200160405190810160405280929190818152602001828054600181600116156101000203166002900480156107725780601f1061074757610100808354040283529160200191610772565b820191906000526020600020905b81548152906001019060200180831161075557829003601f168201915b505050505090806004015490806005018054600181600116156101000203166002900480601f0160208091040260200160405190810160405280929190818152602001828054600181600116156101000203166002900480156108165780601f106107eb57610100808354040283529160200191610816565b820191906000526020600020905b8154815290600101906020018083116107f957829003601f168201915b5050505050905086565b60008060009050600061083284610659565b9050606061084085836102e7565b905060008090505b828110156108795781818151811061085c57fe5b602002602001015160400151840193508080600101915050610848565b50829350505050919050565b828054600181600116156101000203166002900490600052602060002090601f016020900481019282601f106108c657805160ff19168380011785556108f4565b828001600101855582156108f4579182015b828111156108f35782518255916020019190600101906108d8565b5b509050610901919061093b565b5090565b6040518060c001604052806000815260200160008152602001600081526020016060815260200160008152602001606081525090565b61095d91905b80821115610959576000816000905550600101610941565b5090565b90565b600082601f83011261097157600080fd5b813561098461097f82610daa565b610d7d565b915080825260208301602083018583830111156109a057600080fd5b6109ab838284610e52565b50505092915050565b6000813590506109c381610ea5565b92915050565b6000602082840312156109db57600080fd5b60006109e9848285016109b4565b91505092915050565b60008060408385031215610a0557600080fd5b6000610a13858286016109b4565b9250506020610a24858286016109b4565b9150509250929050565b600080600080600060a08688031215610a4657600080fd5b6000610a54888289016109b4565b9550506020610a65888289016109b4565b945050604086013567ffffffffffffffff811115610a8257600080fd5b610a8e88828901610960565b9350506060610a9f888289016109b4565b925050608086013567ffffffffffffffff811115610abc57600080fd5b610ac888828901610960565b9150509295509295909350565b6000610ae18383610bdf565b905092915050565b6000610af482610de6565b610afe8185610e09565b935083602082028501610b1085610dd6565b8060005b85811015610b4c5784840389528151610b2d8582610ad5565b9450610b3883610dfc565b925060208a01995050600181019050610b14565b50829750879550505050505092915050565b610b6781610e3c565b82525050565b6000610b7882610df1565b610b828185610e1a565b9350610b92818560208601610e61565b610b9b81610e94565b840191505092915050565b6000610bb182610df1565b610bbb8185610e2b565b9350610bcb818560208601610e61565b610bd481610e94565b840191505092915050565b600060c083016000830151610bf76000860182610c6f565b506020830151610c0a6020860182610c6f565b506040830151610c1d6040860182610c6f565b5060608301518482036060860152610c358282610b6d565b9150506080830151610c4a6080860182610c6f565b5060a083015184820360a0860152610c628282610b6d565b9150508091505092915050565b610c7881610e48565b82525050565b610c8781610e48565b82525050565b60006020820190508181036000830152610ca78184610ae9565b905092915050565b6000602082019050610cc46000830184610b5e565b92915050565b6000602082019050610cdf6000830184610c7e565b92915050565b6000604082019050610cfa6000830185610c7e565b610d076020830184610c7e565b9392505050565b600060c082019050610d236000830189610c7e565b610d306020830188610c7e565b610d3d6040830187610c7e565b8181036060830152610d4f8186610ba6565b9050610d5e6080830185610c7e565b81810360a0830152610d708184610ba6565b9050979650505050505050565b6000604051905081810181811067ffffffffffffffff82111715610da057600080fd5b8060405250919050565b600067ffffffffffffffff821115610dc157600080fd5b601f19601f8301169050602081019050919050565b6000819050602082019050919050565b600081519050919050565b600081519050919050565b6000602082019050919050565b600082825260208201905092915050565b600082825260208201905092915050565b600082825260208201905092915050565b60008115159050919050565b6000819050919050565b82818337600083830152505050565b60005b83811015610e7f578082015181840152602081019050610e64565b83811115610e8e576000848401525b50505050565b6000601f19601f8301169050919050565b610eae81610e48565b8114610eb957600080fd5b5056fea365627a7a72315820aef5468d9759663cb8a08e297a3f90b07716244ada4f6ec35ac865dacc0b2b8d6c6578706572696d656e74616cf564736f6c634300051000404c6f72656d20697073756d20646f6c6f722073697420616d65742c20636f6e73656374657475722061646970697363696e6720656c69742c2073656420646f20656975736d6f642074656d706f7220696e6369646964756e74207574206c61626f726520657420646f6c6f7265206d61676e6120616c697175612e20557420656e696d206164206d696e696d2076656e69616d2c2071756973206e6f737472756420657865726369746174696f6e20756c6c616d636f206c61626f726973206e69736920757420616c697175697020657820656120636f6d6d6f646f20636f6e7365717561742e20",
  "source": "pragma solidity >=0.4.22 <0.9.0;\npragma experimental ABIEncoderV2;\ncontract Reviews{\n    uint public reviewsCount = 0;\n\n    struct Review{\n        uint id;\n        uint productId;\n        uint rating;\n        string desc;\n        uint userId;\n        string date;\n    }\n\n    mapping (uint => Review) public reviews;\n\n    event ReviewCreated(uint review, uint reviewNumber);\n\n    constructor() public{\n\n        reviews[0] = Review(0, 0, 5, \"Dobar proizvod\", 52, \"2021-05-18 07:05:00.000\");\n        reviews[1] = Review(1, 3, 5, \"Dobar proizvod\", 52, \"2021-02-01\");\n        reviews[2] = Review(2, 4, 5, \"Lorem ipsum dolor sit amet, consectetur adipiscing elit, sed do eiusmod tempor incididunt ut labore et dolore magna aliqua. Ut enim ad minim veniam, quis nostrud exercitation ullamco laboris nisi ut aliquip ex ea commodo consequat. \", 52, \"2021-02-01\");\n        reviews[3] = Review(3, 1, 5, \"Dobar proizvod\", 52, \"2021-02-01\");\n        reviews[4] = Review(3, 2, 3, \"Onako\", 52, \"2021-02-01\");\n        reviewsCount = 5;\n    }\n\n    function createReview(uint _productId, uint _rating, string memory _desc, uint _userId, string memory _date) public{\n\n        reviews[reviewsCount++] = Review(reviewsCount, _productId, _rating, _desc, _userId, _date);\n        emit ReviewCreated(_rating, reviewsCount - 1);\n\n    }\n\n    function getSum(uint productId) public returns(uint memor){\n        uint sum = 0;\n        uint count = getReviewsCount(productId);\n        Review[] memory y = getReviews(productId, count);\n        for (uint i=0; i<count; i++) {\n            sum += y[i].rating;\n        }\n        return sum;\n    }\n\n    function countStars(uint productId, uint star) public returns(uint tem){\n\n        uint starsCount = 0;\n        uint count = getReviewsCount(productId);\n        Review[] memory y = getReviews(productId, count);\n        for (uint i=0; i<count; i++) {\n            if (y[i].rating == star)\n                starsCount++;\n        }\n        return starsCount;\n    }\n    function getReviews(uint productId, uint totalReviews) public returns (Review[] memory){\n        uint reviewsForProductCount = 0;\n        Review[] memory y = new Review[](totalReviews);\n        for (uint i= 0; i < reviewsCount; i++) {\n            if (reviews[i].productId == productId){\n                y[reviewsForProductCount++] = Review(reviews[i].id,reviews[i].productId,reviews[i].rating,reviews[i].desc,reviews[i].userId, reviews[i].date);\n            }\n        }\n        return y;\n    }\n    function getReviewsCount(uint productId) public returns (uint count){\n        uint reviewsForProductCount = 0;\n        for (uint i= 0; i < reviewsCount; i++) {\n            if (reviews[i].productId == productId){\n                reviewsForProductCount++;\n            }\n        }\n        return reviewsForProductCount;\n    }\n    function checkForReview(uint userId, uint productId) public returns (bool b){\n        for (uint i=0; i< reviewsCount; i++) {\n            if (reviews[i].userId == userId && reviews[i].productId ==  productId)\n                return true;\n        }\n        return false;\n    }\n}",
  "sourcePath": "/home/jovan/Catalyst/src/frontend_mobile/contracts/Reviews.sol",
  "compiler": {
    "name": "solc",
    "version": "0.5.16+commit.9c3226ce.Emscripten.clang"
  },
  "schemaVersion": "3.3.4",
  "updatedAt": "2021-06-04T17:08:57.578Z",
  "networkType": "ethereum",
  "devdoc": {
    "methods": {}
  },
  "userdoc": {
    "methods": {}
  }
}