{
  "contractName": "Reviews",
  "abi": [
    {
      "inputs": [],
      "payable": false,
      "stateMutability": "nonpayable",
      "type": "constructor"
    },
    {
      "anonymous": false,
      "inputs": [
        {
          "indexed": false,
          "internalType": "uint256",
          "name": "review",
          "type": "uint256"
        },
        {
          "indexed": false,
          "internalType": "uint256",
          "name": "reviewNumber",
          "type": "uint256"
        }
      ],
      "name": "ReviewCreated",
      "type": "event"
    },
    {
      "constant": true,
      "inputs": [
        {
          "internalType": "uint256",
          "name": "",
          "type": "uint256"
        }
      ],
      "name": "reviews",
      "outputs": [
        {
          "internalType": "uint256",
          "name": "id",
          "type": "uint256"
        },
        {
          "internalType": "uint256",
          "name": "productId",
          "type": "uint256"
        },
        {
          "internalType": "uint256",
          "name": "rating",
          "type": "uint256"
        },
        {
          "internalType": "string",
          "name": "desc",
          "type": "string"
        },
        {
          "internalType": "uint256",
          "name": "userId",
          "type": "uint256"
        }
      ],
      "payable": false,
      "stateMutability": "view",
      "type": "function"
    },
    {
      "constant": true,
      "inputs": [],
      "name": "reviewsCount",
      "outputs": [
        {
          "internalType": "uint256",
          "name": "",
          "type": "uint256"
        }
      ],
      "payable": false,
      "stateMutability": "view",
      "type": "function"
    },
    {
      "constant": false,
      "inputs": [
        {
          "internalType": "uint256",
          "name": "_productId",
          "type": "uint256"
        },
        {
          "internalType": "uint256",
          "name": "_rating",
          "type": "uint256"
        },
        {
          "internalType": "string",
          "name": "_desc",
          "type": "string"
        },
        {
          "internalType": "uint256",
          "name": "_userId",
          "type": "uint256"
        }
      ],
      "name": "createReview",
      "outputs": [],
      "payable": false,
      "stateMutability": "nonpayable",
      "type": "function"
    },
    {
      "constant": false,
      "inputs": [
        {
          "internalType": "uint256",
          "name": "productId",
          "type": "uint256"
        }
      ],
      "name": "getSum",
      "outputs": [
        {
          "internalType": "uint256",
          "name": "memor",
          "type": "uint256"
        }
      ],
      "payable": false,
      "stateMutability": "nonpayable",
      "type": "function"
    },
    {
      "constant": false,
      "inputs": [
        {
          "internalType": "uint256",
          "name": "productId",
          "type": "uint256"
        },
        {
          "internalType": "uint256",
          "name": "star",
          "type": "uint256"
        }
      ],
      "name": "countStars",
      "outputs": [
        {
          "internalType": "uint256",
          "name": "tem",
          "type": "uint256"
        }
      ],
      "payable": false,
      "stateMutability": "nonpayable",
      "type": "function"
    },
    {
      "constant": false,
      "inputs": [
        {
          "internalType": "uint256",
          "name": "productId",
          "type": "uint256"
        },
        {
          "internalType": "uint256",
          "name": "totalReviews",
          "type": "uint256"
        }
      ],
      "name": "getReviews",
      "outputs": [
        {
          "components": [
            {
              "internalType": "uint256",
              "name": "id",
              "type": "uint256"
            },
            {
              "internalType": "uint256",
              "name": "productId",
              "type": "uint256"
            },
            {
              "internalType": "uint256",
              "name": "rating",
              "type": "uint256"
            },
            {
              "internalType": "string",
              "name": "desc",
              "type": "string"
            },
            {
              "internalType": "uint256",
              "name": "userId",
              "type": "uint256"
            }
          ],
          "internalType": "struct Reviews.Review[]",
          "name": "",
          "type": "tuple[]"
        }
      ],
      "payable": false,
      "stateMutability": "nonpayable",
      "type": "function"
    },
    {
      "constant": false,
      "inputs": [
        {
          "internalType": "uint256",
          "name": "productId",
          "type": "uint256"
        }
      ],
      "name": "getReviewsCount",
      "outputs": [
        {
          "internalType": "uint256",
          "name": "count",
          "type": "uint256"
        }
      ],
      "payable": false,
      "stateMutability": "nonpayable",
      "type": "function"
    }
  ],
  "bytecode": "0x6080604052600080553480156200001557600080fd5b506040518060a001604052806000815260200160008152602001600581526020016040518060400160405280600e81526020017f446f6261722070726f697a766f6400000000000000000000000000000000000081525081526020016001815250600160008081526020019081526020016000206000820151816000015560208201518160010155604082015181600201556060820151816003019080519060200190620000c5929190620003be565b50608082015181600401559050506040518060a001604052806001815260200160008152602001600581526020016040518060400160405280600e81526020017f446f6261722070726f697a766f64000000000000000000000000000000000000815250815260200160028152506001600060018152602001908152602001600020600082015181600001556020820151816001015560408201518160020155606082015181600301908051906020019062000183929190620003be565b50608082015181600401559050506040518060a0016040528060028152602001600081526020016005815260200160405180610120016040528060e88152602001620010be60e89139815260200160038152506001600060028152602001908152602001600020600082015181600001556020820151816001015560408201518160020155606082015181600301908051906020019062000226929190620003be565b50608082015181600401559050506040518060a001604052806003815260200160018152602001600581526020016040518060400160405280600e81526020017f446f6261722070726f697a766f640000000000000000000000000000000000008152508152602001600181525060016000600381526020019081526020016000206000820151816000015560208201518160010155604082015181600201556060820151816003019080519060200190620002e4929190620003be565b50608082015181600401559050506040518060a001604052806003815260200160018152602001600381526020016040518060400160405280600581526020017f4f6e616b6f0000000000000000000000000000000000000000000000000000008152508152602001600181525060016000600481526020019081526020016000206000820151816000015560208201518160010155604082015181600201556060820151816003019080519060200190620003a2929190620003be565b506080820151816004015590505060056000819055506200046d565b828054600181600116156101000203166002900490600052602060002090601f016020900481019282601f106200040157805160ff191683800117855562000432565b8280016001018555821562000432579182015b828111156200043157825182559160200191906001019062000414565b5b50905062000441919062000445565b5090565b6200046a91905b80821115620004665760008160009055506001016200044c565b5090565b90565b610c41806200047d6000396000f3fe608060405234801561001057600080fd5b506004361061007d5760003560e01c8063dcfe3e081161005b578063dcfe3e08146100fe578063e7fee98f1461012e578063e83ddcea1461014c578063e8e0ba01146101805761007d565b806353a44faf14610082578063a71e18d3146100b2578063d2d3523c146100e2575b600080fd5b61009c600480360361009791908101906107c5565b6101b0565b6040516100a99190610a0b565b60405180910390f35b6100cc60048036036100c791908101906107c5565b610388565b6040516100d99190610a2d565b60405180910390f35b6100fc60048036036100f79190810190610801565b6103fa565b005b6101186004803603610113919081019061079c565b6104d1565b6040516101259190610a2d565b60405180910390f35b610136610526565b6040516101439190610a2d565b60405180910390f35b6101666004803603610161919081019061079c565b61052c565b604051610177959493929190610a71565b60405180910390f35b61019a6004803603610195919081019061079c565b6105fa565b6040516101a79190610a2d565b60405180910390f35b606060008090506060836040519080825280602002602001820160405280156101f357816020015b6101e061065f565b8152602001906001900390816101d85790505b50905060008090505b60005481101561037c57856001600083815260200190815260200160002060010154141561036f576040518060a00160405280600160008481526020019081526020016000206000015481526020016001600084815260200190815260200160002060010154815260200160016000848152602001908152602001600020600201548152602001600160008481526020019081526020016000206003018054600181600116156101000203166002900480601f01602080910402602001604051908101604052809291908181526020018280546001816001161561010002031660029004801561032d5780601f106103025761010080835404028352916020019161032d565b820191906000526020600020905b81548152906001019060200180831161031057829003601f168201915b50505050508152602001600160008481526020019081526020016000206004015481525082848060010195508151811061036357fe5b60200260200101819052505b80806001019150506101fc565b50809250505092915050565b60008060009050600061039a856104d1565b905060606103a886836101b0565b905060008090505b828110156103ed57858282815181106103c557fe5b60200260200101516040015114156103e05783806001019450505b80806001019150506103b0565b5082935050505092915050565b6040518060a0016040528060005481526020018581526020018481526020018381526020018281525060016000806000815480929190600101919050558152602001908152602001600020600082015181600001556020820151816001015560408201518160020155606082015181600301908051906020019061047f92919061068e565b50608082015181600401559050507f7f81c790a4345d8750e5542a4c0213b9a5969741805deafb58ad031fe113c4cd836001600054036040516104c3929190610a48565b60405180910390a150505050565b6000806000905060008090505b60005481101561051c57836001600083815260200190815260200160002060010154141561050f5781806001019250505b80806001019150506104de565b5080915050919050565b60005481565b6001602052806000526040600020600091509050806000015490806001015490806002015490806003018054600181600116156101000203166002900480601f0160208091040260200160405190810160405280929190818152602001828054600181600116156101000203166002900480156105ea5780601f106105bf576101008083540402835291602001916105ea565b820191906000526020600020905b8154815290600101906020018083116105cd57829003601f168201915b5050505050908060040154905085565b60008060009050600061060c846104d1565b9050606061061a85836101b0565b905060008090505b828110156106535781818151811061063657fe5b602002602001015160400151840193508080600101915050610622565b50829350505050919050565b6040518060a0016040528060008152602001600081526020016000815260200160608152602001600081525090565b828054600181600116156101000203166002900490600052602060002090601f016020900481019282601f106106cf57805160ff19168380011785556106fd565b828001600101855582156106fd579182015b828111156106fc5782518255916020019190600101906106e1565b5b50905061070a919061070e565b5090565b61073091905b8082111561072c576000816000905550600101610714565b5090565b90565b600082601f83011261074457600080fd5b813561075761075282610af8565b610acb565b9150808252602083016020830185838301111561077357600080fd5b61077e838284610b94565b50505092915050565b60008135905061079681610be7565b92915050565b6000602082840312156107ae57600080fd5b60006107bc84828501610787565b91505092915050565b600080604083850312156107d857600080fd5b60006107e685828601610787565b92505060206107f785828601610787565b9150509250929050565b6000806000806080858703121561081757600080fd5b600061082587828801610787565b945050602061083687828801610787565b935050604085013567ffffffffffffffff81111561085357600080fd5b61085f87828801610733565b925050606061087087828801610787565b91505092959194509250565b60006108888383610977565b905092915050565b600061089b82610b34565b6108a58185610b57565b9350836020820285016108b785610b24565b8060005b858110156108f357848403895281516108d4858261087c565b94506108df83610b4a565b925060208a019950506001810190506108bb565b50829750879550505050505092915050565b600061091082610b3f565b61091a8185610b68565b935061092a818560208601610ba3565b61093381610bd6565b840191505092915050565b600061094982610b3f565b6109538185610b79565b9350610963818560208601610ba3565b61096c81610bd6565b840191505092915050565b600060a08301600083015161098f60008601826109ed565b5060208301516109a260208601826109ed565b5060408301516109b560408601826109ed565b50606083015184820360608601526109cd8282610905565b91505060808301516109e260808601826109ed565b508091505092915050565b6109f681610b8a565b82525050565b610a0581610b8a565b82525050565b60006020820190508181036000830152610a258184610890565b905092915050565b6000602082019050610a4260008301846109fc565b92915050565b6000604082019050610a5d60008301856109fc565b610a6a60208301846109fc565b9392505050565b600060a082019050610a8660008301886109fc565b610a9360208301876109fc565b610aa060408301866109fc565b8181036060830152610ab2818561093e565b9050610ac160808301846109fc565b9695505050505050565b6000604051905081810181811067ffffffffffffffff82111715610aee57600080fd5b8060405250919050565b600067ffffffffffffffff821115610b0f57600080fd5b601f19601f8301169050602081019050919050565b6000819050602082019050919050565b600081519050919050565b600081519050919050565b6000602082019050919050565b600082825260208201905092915050565b600082825260208201905092915050565b600082825260208201905092915050565b6000819050919050565b82818337600083830152505050565b60005b83811015610bc1578082015181840152602081019050610ba6565b83811115610bd0576000848401525b50505050565b6000601f19601f8301169050919050565b610bf081610b8a565b8114610bfb57600080fd5b5056fea365627a7a7231582048b28de989799b61c6f94d1429ee6dfacf8294f6fe1a6ddd652376fd0c7439b36c6578706572696d656e74616cf564736f6c634300051000404c6f72656d20697073756d20646f6c6f722073697420616d65742c20636f6e73656374657475722061646970697363696e6720656c69742c2073656420646f20656975736d6f642074656d706f7220696e6369646964756e74207574206c61626f726520657420646f6c6f7265206d61676e6120616c697175612e20557420656e696d206164206d696e696d2076656e69616d2c2071756973206e6f737472756420657865726369746174696f6e20756c6c616d636f206c61626f726973206e69736920757420616c697175697020657820656120636f6d6d6f646f20636f6e7365717561742e20",
  "source": "pragma solidity >=0.4.22 <0.9.0;\r\npragma experimental ABIEncoderV2;\r\ncontract Reviews{\r\n    uint public reviewsCount = 0;\r\n\r\n    struct Review{\r\n        uint id;\r\n        uint productId;\r\n        uint rating;\r\n        string desc;\r\n        uint userId;\r\n    }\r\n\r\n    mapping (uint => Review) public reviews;\r\n\r\n    event ReviewCreated(uint review, uint reviewNumber);\r\n\r\n    constructor() public{\r\n\r\n        reviews[0] = Review(0, 0, 5, \"Dobar proizvod\", 1);\r\n        reviews[1] = Review(1, 0, 5, \"Dobar proizvod\", 2);\r\n        reviews[2] = Review(2, 0, 5, \"Lorem ipsum dolor sit amet, consectetur adipiscing elit, sed do eiusmod tempor incididunt ut labore et dolore magna aliqua. Ut enim ad minim veniam, quis nostrud exercitation ullamco laboris nisi ut aliquip ex ea commodo consequat. \", 3);\r\n        reviews[3] = Review(3, 1, 5, \"Dobar proizvod\", 1);\r\n        reviews[4] = Review(3, 1, 3, \"Onako\", 1);\r\n        reviewsCount = 5;\r\n    }\r\n\r\n    function createReview(uint _productId, uint _rating, string memory _desc, uint _userId) public{\r\n\r\n        reviews[reviewsCount++] = Review(reviewsCount, _productId, _rating, _desc, _userId);\r\n        emit ReviewCreated(_rating, reviewsCount - 1);\r\n\r\n    }\r\n\r\n    function getSum(uint productId) public returns(uint memor){\r\n        uint sum = 0;\r\n        uint count = getReviewsCount(productId);\r\n        Review[] memory y = getReviews(productId, count);\r\n        for (uint i=0; i<count; i++) {\r\n            sum += y[i].rating;\r\n        }\r\n        return sum;\r\n    }\r\n\r\n    function countStars(uint productId, uint star) public returns(uint tem){\r\n\r\n        uint starsCount = 0;\r\n        uint count = getReviewsCount(productId);\r\n        Review[] memory y = getReviews(productId, count);\r\n        for (uint i=0; i<count; i++) {\r\n            if (y[i].rating == star)\r\n                starsCount++;\r\n        }\r\n        return starsCount;\r\n    }\r\n    function getReviews(uint productId, uint totalReviews) public returns (Review[] memory){\r\n        uint reviewsForProductCount = 0;\r\n        Review[] memory y = new Review[](totalReviews);\r\n        for (uint i= 0; i < reviewsCount; i++) {\r\n            if (reviews[i].productId == productId){\r\n                y[reviewsForProductCount++] = Review(reviews[i].id,reviews[i].productId,reviews[i].rating,reviews[i].desc,reviews[i].userId);\r\n            }\r\n        }\r\n        return y;\r\n    }\r\n    function getReviewsCount(uint productId) public returns (uint count){\r\n        uint reviewsForProductCount = 0;\r\n        for (uint i= 0; i < reviewsCount; i++) {\r\n            if (reviews[i].productId == productId){\r\n                reviewsForProductCount++;\r\n            }\r\n        }\r\n        return reviewsForProductCount;\r\n    }\r\n}\r\n",
  "sourcePath": "C:/Users/Korisnik/Desktop/frontend_mobile/contracts/Reviews.sol",
  "compiler": {
    "name": "solc",
    "version": "0.5.16+commit.9c3226ce.Emscripten.clang"
  },
  "schemaVersion": "3.3.4",
  "updatedAt": "2021-04-08T17:55:58.493Z",
  "networkType": "ethereum",
  "devdoc": {
    "methods": {}
  },
  "userdoc": {
    "methods": {}
  }
}