{
  "contractName": "Users",
  "abi": [
    {
      "inputs": [],
      "payable": false,
      "stateMutability": "nonpayable",
      "type": "constructor"
    },
    {
      "anonymous": false,
      "inputs": [
        {
          "indexed": false,
          "internalType": "string",
          "name": "user",
          "type": "string"
        },
        {
          "indexed": false,
          "internalType": "uint256",
          "name": "userNumber",
          "type": "uint256"
        }
      ],
      "name": "UserCreated",
      "type": "event"
    },
    {
      "constant": true,
      "inputs": [
        {
          "internalType": "uint256",
          "name": "",
          "type": "uint256"
        }
      ],
      "name": "users",
      "outputs": [
        {
          "internalType": "uint256",
          "name": "id",
          "type": "uint256"
        },
        {
          "internalType": "string",
          "name": "name",
          "type": "string"
        },
        {
          "internalType": "string",
          "name": "surname",
          "type": "string"
        },
        {
          "internalType": "string",
          "name": "privateKey",
          "type": "string"
        },
        {
          "internalType": "string",
          "name": "metamaskAddress",
          "type": "string"
        },
        {
          "internalType": "string",
          "name": "photoUrl",
          "type": "string"
        },
        {
          "internalType": "string",
          "name": "desc",
          "type": "string"
        },
        {
          "internalType": "string",
          "name": "email",
          "type": "string"
        },
        {
          "internalType": "string",
          "name": "phoneNumber",
          "type": "string"
        },
        {
          "internalType": "string",
          "name": "homeAddress",
          "type": "string"
        },
        {
          "internalType": "string",
          "name": "birthday",
          "type": "string"
        },
        {
          "internalType": "uint256",
          "name": "uType",
          "type": "uint256"
        }
      ],
      "payable": false,
      "stateMutability": "view",
      "type": "function"
    },
    {
      "constant": true,
      "inputs": [],
      "name": "usersCount",
      "outputs": [
        {
          "internalType": "uint256",
          "name": "",
          "type": "uint256"
        }
      ],
      "payable": false,
      "stateMutability": "view",
      "type": "function"
    },
    {
      "constant": false,
      "inputs": [
        {
          "internalType": "string",
          "name": "_name",
          "type": "string"
        },
        {
          "internalType": "string",
          "name": "_surname",
          "type": "string"
        },
        {
          "internalType": "string",
          "name": "_privateKey",
          "type": "string"
        },
        {
          "internalType": "string",
          "name": "_metamaskAddress",
          "type": "string"
        },
        {
          "internalType": "string",
          "name": "_photoUrl",
          "type": "string"
        },
        {
          "internalType": "string",
          "name": "_desc",
          "type": "string"
        },
        {
          "internalType": "string",
          "name": "_email",
          "type": "string"
        },
        {
          "internalType": "string",
          "name": "_phoneNumber",
          "type": "string"
        },
        {
          "internalType": "string",
          "name": "_homeAddress",
          "type": "string"
        },
        {
          "internalType": "string",
          "name": "_birthday",
          "type": "string"
        },
        {
          "internalType": "uint256",
          "name": "_uType",
          "type": "uint256"
        }
      ],
      "name": "createUser",
      "outputs": [
        {
          "internalType": "uint256",
          "name": "",
          "type": "uint256"
        }
      ],
      "payable": false,
      "stateMutability": "nonpayable",
      "type": "function"
    },
    {
      "constant": false,
      "inputs": [
        {
          "internalType": "string",
          "name": "_metamaskAddress",
          "type": "string"
        },
        {
          "internalType": "string",
          "name": "_privateKey",
          "type": "string"
        }
      ],
      "name": "checkForUser",
      "outputs": [
        {
          "internalType": "uint256",
          "name": "bl",
          "type": "uint256"
        }
      ],
      "payable": false,
      "stateMutability": "nonpayable",
      "type": "function"
    },
    {
      "constant": false,
      "inputs": [
        {
          "internalType": "string",
          "name": "privateKey",
          "type": "string"
        },
        {
          "internalType": "string",
          "name": "accountAddress",
          "type": "string"
        }
      ],
      "name": "getUser",
      "outputs": [
        {
          "components": [
            {
              "internalType": "uint256",
              "name": "id",
              "type": "uint256"
            },
            {
              "internalType": "string",
              "name": "name",
              "type": "string"
            },
            {
              "internalType": "string",
              "name": "surname",
              "type": "string"
            },
            {
              "internalType": "string",
              "name": "privateKey",
              "type": "string"
            },
            {
              "internalType": "string",
              "name": "metamaskAddress",
              "type": "string"
            },
            {
              "internalType": "string",
              "name": "photoUrl",
              "type": "string"
            },
            {
              "internalType": "string",
              "name": "desc",
              "type": "string"
            },
            {
              "internalType": "string",
              "name": "email",
              "type": "string"
            },
            {
              "internalType": "string",
              "name": "phoneNumber",
              "type": "string"
            },
            {
              "internalType": "string",
              "name": "homeAddress",
              "type": "string"
            },
            {
              "internalType": "string",
              "name": "birthday",
              "type": "string"
            },
            {
              "internalType": "uint256",
              "name": "uType",
              "type": "uint256"
            }
          ],
          "internalType": "struct Users.User",
          "name": "",
          "type": "tuple"
        }
      ],
      "payable": false,
      "stateMutability": "nonpayable",
      "type": "function"
    },
    {
      "constant": false,
      "inputs": [
        {
          "internalType": "uint256",
          "name": "id",
          "type": "uint256"
        }
      ],
      "name": "getUserById",
      "outputs": [
        {
          "components": [
            {
              "internalType": "uint256",
              "name": "id",
              "type": "uint256"
            },
            {
              "internalType": "string",
              "name": "name",
              "type": "string"
            },
            {
              "internalType": "string",
              "name": "surname",
              "type": "string"
            },
            {
              "internalType": "string",
              "name": "privateKey",
              "type": "string"
            },
            {
              "internalType": "string",
              "name": "metamaskAddress",
              "type": "string"
            },
            {
              "internalType": "string",
              "name": "photoUrl",
              "type": "string"
            },
            {
              "internalType": "string",
              "name": "desc",
              "type": "string"
            },
            {
              "internalType": "string",
              "name": "email",
              "type": "string"
            },
            {
              "internalType": "string",
              "name": "phoneNumber",
              "type": "string"
            },
            {
              "internalType": "string",
              "name": "homeAddress",
              "type": "string"
            },
            {
              "internalType": "string",
              "name": "birthday",
              "type": "string"
            },
            {
              "internalType": "uint256",
              "name": "uType",
              "type": "uint256"
            }
          ],
          "internalType": "struct Users.User",
          "name": "",
          "type": "tuple"
        }
      ],
      "payable": false,
      "stateMutability": "nonpayable",
      "type": "function"
    },
    {
      "constant": false,
      "inputs": [
        {
          "internalType": "uint256",
          "name": "_id",
          "type": "uint256"
        },
        {
          "internalType": "string",
          "name": "_photoUrl",
          "type": "string"
        },
        {
          "internalType": "string",
          "name": "_desc",
          "type": "string"
        },
        {
          "internalType": "string",
          "name": "_email",
          "type": "string"
        },
        {
          "internalType": "string",
          "name": "_phoneNumber",
          "type": "string"
        },
        {
          "internalType": "string",
          "name": "_homeAddress",
          "type": "string"
        }
      ],
      "name": "editUser",
      "outputs": [],
      "payable": false,
      "stateMutability": "nonpayable",
      "type": "function"
    }
  ],
  "bytecode": "0x6080604052600080553480156200001557600080fd5b50604051806101800160405280603481526020016040518060400160405280600581526020017f4a6f76616e00000000000000000000000000000000000000000000000000000081525081526020016040518060400160405280600881526020017f506574726f7669630000000000000000000000000000000000000000000000008152508152602001604051806060016040528060408152602001620032816040913981526020016040518060600160405280602881526020016200323160289139815260200160405180608001604052806043815260200162003301604391398152602001604051806060016040528060268152602001620031a36026913981526020016040518060400160405280601381526020017f6a706574726f76696340676d61696c2e636f6d0000000000000000000000000081525081526020016040518060400160405280600a81526020017f303632333439363532310000000000000000000000000000000000000000000081525081526020016040518060400160405280600881526020017f4e6f76692073616400000000000000000000000000000000000000000000000081525081526020016040518060400160405280600881526020017f323032302d332d3300000000000000000000000000000000000000000000000081525081526020016001815250600160008081526020019081526020016000206000820151816000015560208201518160010190805190602001906200024792919062000a34565b5060408201518160020190805190602001906200026692919062000a34565b5060608201518160030190805190602001906200028592919062000a34565b506080820151816004019080519060200190620002a492919062000a34565b5060a0820151816005019080519060200190620002c392919062000a34565b5060c0820151816006019080519060200190620002e292919062000a34565b5060e08201518160070190805190602001906200030192919062000a34565b506101008201518160080190805190602001906200032192919062000a34565b506101208201518160090190805190602001906200034192919062000a34565b5061014082015181600a0190805190602001906200036192919062000a34565b5061016082015181600b0155905050604051806101800160405280603581526020016040518060400160405280600581526020017f447573616e00000000000000000000000000000000000000000000000000000081525081526020016040518060400160405280600b81526020017f4a616b6f766c6a657669630000000000000000000000000000000000000000008152508152602001604051806060016040528060408152602001620031c96040913981526020016040518060600160405280602881526020016200320960289139815260200160405180608001604052806043815260200162003301604391398152602001604051806060016040528060268152602001620031a36026913981526020016040518060400160405280601681526020017f646a616b6f766c6a6576696340676d61696c2e636f6d0000000000000000000081525081526020016040518060400160405280600a81526020017f303634313336393935340000000000000000000000000000000000000000000081525081526020016040518060400160405280600a81526020017f4b726167756a657661630000000000000000000000000000000000000000000081525081526020016040518060400160405280600881526020017f323032302d332d33000000000000000000000000000000000000000000000000815250815260200160018152506001600060018152602001908152602001600020600082015181600001556020820151816001019080519060200190620005a292919062000a34565b506040820151816002019080519060200190620005c192919062000a34565b506060820151816003019080519060200190620005e092919062000a34565b506080820151816004019080519060200190620005ff92919062000a34565b5060a08201518160050190805190602001906200061e92919062000a34565b5060c08201518160060190805190602001906200063d92919062000a34565b5060e08201518160070190805190602001906200065c92919062000a34565b506101008201518160080190805190602001906200067c92919062000a34565b506101208201518160090190805190602001906200069c92919062000a34565b5061014082015181600a019080519060200190620006bc92919062000a34565b5061016082015181600b0155905050604051806101800160405280603681526020016040518060400160405280600681526020017f53746576616e000000000000000000000000000000000000000000000000000081525081526020016040518060400160405280600881526020017f4d6974726f7669630000000000000000000000000000000000000000000000008152508152602001604051806060016040528060408152602001620032c16040913981526020016040518060600160405280602881526020016200325960289139815260200160405180608001604052806043815260200162003301604391398152602001604051806060016040528060268152602001620031a36026913981526020016040518060400160405280601381526020017f736d6974726f76696340676d61696c2e636f6d0000000000000000000000000081525081526020016040518060400160405280600981526020017f303636333231343539000000000000000000000000000000000000000000000081525081526020016040518060400160405280600781526020017f42656f677261640000000000000000000000000000000000000000000000000081525081526020016040518060400160405280600881526020017f323032302d332d33000000000000000000000000000000000000000000000000815250815260200160018152506001600060028152602001908152602001600020600082015181600001556020820151816001019080519060200190620008fd92919062000a34565b5060408201518160020190805190602001906200091c92919062000a34565b5060608201518160030190805190602001906200093b92919062000a34565b5060808201518160040190805190602001906200095a92919062000a34565b5060a08201518160050190805190602001906200097992919062000a34565b5060c08201518160060190805190602001906200099892919062000a34565b5060e0820151816007019080519060200190620009b792919062000a34565b50610100820151816008019080519060200190620009d792919062000a34565b50610120820151816009019080519060200190620009f792919062000a34565b5061014082015181600a01908051906020019062000a1792919062000a34565b5061016082015181600b0155905050600360008190555062000ae3565b828054600181600116156101000203166002900490600052602060002090601f016020900481019282601f1062000a7757805160ff191683800117855562000aa8565b8280016001018555821562000aa8579182015b8281111562000aa757825182559160200191906001019062000a8a565b5b50905062000ab7919062000abb565b5090565b62000ae091905b8082111562000adc57600081600090555060010162000ac2565b5090565b90565b6126b08062000af36000396000f3fe608060405234801561001057600080fd5b506004361061007d5760003560e01c80636ba13a821161005b5780636ba13a82146101095780636ed6da9e1461012757806383e6858f1461015757806388dce9e7146101875761007d565b80632c4141c214610082578063365b98b2146100b257806346e6f94a146100ed575b600080fd5b61009c60048036036100979190810190611e79565b6101b7565b6040516100a9919061244d565b60405180910390f35b6100cc60048036036100c791908101906120c5565b61037f565b6040516100e49c9b9a99989796959493929190612468565b60405180910390f35b610107600480360361010291908101906120ee565b6109cf565b005b610111610aef565b60405161011e919061244d565b60405180910390f35b610141600480360361013c91908101906120c5565b610af5565b60405161014e919061242b565b60405180910390f35b610171600480360361016c9190810190611e79565b6111d8565b60405161017e919061242b565b60405180910390f35b6101a1600480360361019c9190810190611ee5565b611a1e565b6040516101ae919061244d565b60405180910390f35b600080600090505b60005481101561037257610281600160008381526020019081526020016000206004018054600181600116156101000203166002900480601f0160208091040260200160405190810160405280929190818152602001828054600181600116156101000203166002900480156102765780601f1061024b57610100808354040283529160200191610276565b820191906000526020600020905b81548152906001019060200180831161025957829003601f168201915b505050505085611c5c565b80156103415750610340600160008381526020019081526020016000206003018054600181600116156101000203166002900480601f0160208091040260200160405190810160405280929190818152602001828054600181600116156101000203166002900480156103355780601f1061030a57610100808354040283529160200191610335565b820191906000526020600020905b81548152906001019060200180831161031857829003601f168201915b505050505084611c5c565b5b15610365576001600082815260200190815260200160002060000154915050610379565b80806001019150506101bf565b5060005490505b92915050565b6001602052806000526040600020600091509050806000015490806001018054600181600116156101000203166002900480601f0160208091040260200160405190810160405280929190818152602001828054600181600116156101000203166002900480156104315780601f1061040657610100808354040283529160200191610431565b820191906000526020600020905b81548152906001019060200180831161041457829003601f168201915b505050505090806002018054600181600116156101000203166002900480601f0160208091040260200160405190810160405280929190818152602001828054600181600116156101000203166002900480156104cf5780601f106104a4576101008083540402835291602001916104cf565b820191906000526020600020905b8154815290600101906020018083116104b257829003601f168201915b505050505090806003018054600181600116156101000203166002900480601f01602080910402602001604051908101604052809291908181526020018280546001816001161561010002031660029004801561056d5780601f106105425761010080835404028352916020019161056d565b820191906000526020600020905b81548152906001019060200180831161055057829003601f168201915b505050505090806004018054600181600116156101000203166002900480601f01602080910402602001604051908101604052809291908181526020018280546001816001161561010002031660029004801561060b5780601f106105e05761010080835404028352916020019161060b565b820191906000526020600020905b8154815290600101906020018083116105ee57829003601f168201915b505050505090806005018054600181600116156101000203166002900480601f0160208091040260200160405190810160405280929190818152602001828054600181600116156101000203166002900480156106a95780601f1061067e576101008083540402835291602001916106a9565b820191906000526020600020905b81548152906001019060200180831161068c57829003601f168201915b505050505090806006018054600181600116156101000203166002900480601f0160208091040260200160405190810160405280929190818152602001828054600181600116156101000203166002900480156107475780601f1061071c57610100808354040283529160200191610747565b820191906000526020600020905b81548152906001019060200180831161072a57829003601f168201915b505050505090806007018054600181600116156101000203166002900480601f0160208091040260200160405190810160405280929190818152602001828054600181600116156101000203166002900480156107e55780601f106107ba576101008083540402835291602001916107e5565b820191906000526020600020905b8154815290600101906020018083116107c857829003601f168201915b505050505090806008018054600181600116156101000203166002900480601f0160208091040260200160405190810160405280929190818152602001828054600181600116156101000203166002900480156108835780601f1061085857610100808354040283529160200191610883565b820191906000526020600020905b81548152906001019060200180831161086657829003601f168201915b505050505090806009018054600181600116156101000203166002900480601f0160208091040260200160405190810160405280929190818152602001828054600181600116156101000203166002900480156109215780601f106108f657610100808354040283529160200191610921565b820191906000526020600020905b81548152906001019060200180831161090457829003601f168201915b50505050509080600a018054600181600116156101000203166002900480601f0160208091040260200160405190810160405280929190818152602001828054600181600116156101000203166002900480156109bf5780601f10610994576101008083540402835291602001916109bf565b820191906000526020600020905b8154815290600101906020018083116109a257829003601f168201915b50505050509080600b015490508c565b60008090505b600054811015610ae6578660016000838152602001908152602001600020600001541415610ad95785600160008381526020019081526020016000206005019080519060200190610a27929190611c8a565b5084600160008381526020019081526020016000206006019080519060200190610a52929190611c8a565b5083600160008381526020019081526020016000206007019080519060200190610a7d929190611c8a565b5082600160008381526020019081526020016000206008019080519060200190610aa8929190611c8a565b5081600160008381526020019081526020016000206009019080519060200190610ad3929190611c8a565b50610ae6565b80806001019150506109d5565b50505050505050565b60005481565b610afd611d0a565b610b05611d0a565b60008090505b6000548110156111ce5783600160008381526020019081526020016000206000015414156111c157600160008281526020019081526020016000206040518061018001604052908160008201548152602001600182018054600181600116156101000203166002900480601f016020809104026020016040519081016040528092919081815260200182805460018160011615610100020316600290048015610bf55780601f10610bca57610100808354040283529160200191610bf5565b820191906000526020600020905b815481529060010190602001808311610bd857829003601f168201915b50505050508152602001600282018054600181600116156101000203166002900480601f016020809104026020016040519081016040528092919081815260200182805460018160011615610100020316600290048015610c975780601f10610c6c57610100808354040283529160200191610c97565b820191906000526020600020905b815481529060010190602001808311610c7a57829003601f168201915b50505050508152602001600382018054600181600116156101000203166002900480601f016020809104026020016040519081016040528092919081815260200182805460018160011615610100020316600290048015610d395780601f10610d0e57610100808354040283529160200191610d39565b820191906000526020600020905b815481529060010190602001808311610d1c57829003601f168201915b50505050508152602001600482018054600181600116156101000203166002900480601f016020809104026020016040519081016040528092919081815260200182805460018160011615610100020316600290048015610ddb5780601f10610db057610100808354040283529160200191610ddb565b820191906000526020600020905b815481529060010190602001808311610dbe57829003601f168201915b50505050508152602001600582018054600181600116156101000203166002900480601f016020809104026020016040519081016040528092919081815260200182805460018160011615610100020316600290048015610e7d5780601f10610e5257610100808354040283529160200191610e7d565b820191906000526020600020905b815481529060010190602001808311610e6057829003601f168201915b50505050508152602001600682018054600181600116156101000203166002900480601f016020809104026020016040519081016040528092919081815260200182805460018160011615610100020316600290048015610f1f5780601f10610ef457610100808354040283529160200191610f1f565b820191906000526020600020905b815481529060010190602001808311610f0257829003601f168201915b50505050508152602001600782018054600181600116156101000203166002900480601f016020809104026020016040519081016040528092919081815260200182805460018160011615610100020316600290048015610fc15780601f10610f9657610100808354040283529160200191610fc1565b820191906000526020600020905b815481529060010190602001808311610fa457829003601f168201915b50505050508152602001600882018054600181600116156101000203166002900480601f0160208091040260200160405190810160405280929190818152602001828054600181600116156101000203166002900480156110635780601f1061103857610100808354040283529160200191611063565b820191906000526020600020905b81548152906001019060200180831161104657829003601f168201915b50505050508152602001600982018054600181600116156101000203166002900480601f0160208091040260200160405190810160405280929190818152602001828054600181600116156101000203166002900480156111055780601f106110da57610100808354040283529160200191611105565b820191906000526020600020905b8154815290600101906020018083116110e857829003601f168201915b50505050508152602001600a82018054600181600116156101000203166002900480601f0160208091040260200160405190810160405280929190818152602001828054600181600116156101000203166002900480156111a75780601f1061117c576101008083540402835291602001916111a7565b820191906000526020600020905b81548152906001019060200180831161118a57829003601f168201915b50505050508152602001600b8201548152505091506111ce565b8080600101915050610b0b565b5080915050919050565b6111e0611d0a565b6111e8611d0a565b60008090505b600054811015611a12576112b0600160008381526020019081526020016000206003018054600181600116156101000203166002900480601f0160208091040260200160405190810160405280929190818152602001828054600181600116156101000203166002900480156112a55780601f1061127a576101008083540402835291602001916112a5565b820191906000526020600020905b81548152906001019060200180831161128857829003601f168201915b505050505086611c5c565b8015611370575061136f600160008381526020019081526020016000206004018054600181600116156101000203166002900480601f0160208091040260200160405190810160405280929190818152602001828054600181600116156101000203166002900480156113645780601f1061133957610100808354040283529160200191611364565b820191906000526020600020905b81548152906001019060200180831161134757829003601f168201915b505050505085611c5c565b5b15611a0557600160008281526020019081526020016000206040518061018001604052908160008201548152602001600182018054600181600116156101000203166002900480601f0160208091040260200160405190810160405280929190818152602001828054600181600116156101000203166002900480156114375780601f1061140c57610100808354040283529160200191611437565b820191906000526020600020905b81548152906001019060200180831161141a57829003601f168201915b50505050508152602001600282018054600181600116156101000203166002900480601f0160208091040260200160405190810160405280929190818152602001828054600181600116156101000203166002900480156114d95780601f106114ae576101008083540402835291602001916114d9565b820191906000526020600020905b8154815290600101906020018083116114bc57829003601f168201915b50505050508152602001600382018054600181600116156101000203166002900480601f01602080910402602001604051908101604052809291908181526020018280546001816001161561010002031660029004801561157b5780601f106115505761010080835404028352916020019161157b565b820191906000526020600020905b81548152906001019060200180831161155e57829003601f168201915b50505050508152602001600482018054600181600116156101000203166002900480601f01602080910402602001604051908101604052809291908181526020018280546001816001161561010002031660029004801561161d5780601f106115f25761010080835404028352916020019161161d565b820191906000526020600020905b81548152906001019060200180831161160057829003601f168201915b50505050508152602001600582018054600181600116156101000203166002900480601f0160208091040260200160405190810160405280929190818152602001828054600181600116156101000203166002900480156116bf5780601f10611694576101008083540402835291602001916116bf565b820191906000526020600020905b8154815290600101906020018083116116a257829003601f168201915b50505050508152602001600682018054600181600116156101000203166002900480601f0160208091040260200160405190810160405280929190818152602001828054600181600116156101000203166002900480156117615780601f1061173657610100808354040283529160200191611761565b820191906000526020600020905b81548152906001019060200180831161174457829003601f168201915b50505050508152602001600782018054600181600116156101000203166002900480601f0160208091040260200160405190810160405280929190818152602001828054600181600116156101000203166002900480156118035780601f106117d857610100808354040283529160200191611803565b820191906000526020600020905b8154815290600101906020018083116117e657829003601f168201915b50505050508152602001600882018054600181600116156101000203166002900480601f0160208091040260200160405190810160405280929190818152602001828054600181600116156101000203166002900480156118a55780601f1061187a576101008083540402835291602001916118a5565b820191906000526020600020905b81548152906001019060200180831161188857829003601f168201915b50505050508152602001600982018054600181600116156101000203166002900480601f0160208091040260200160405190810160405280929190818152602001828054600181600116156101000203166002900480156119475780601f1061191c57610100808354040283529160200191611947565b820191906000526020600020905b81548152906001019060200180831161192a57829003601f168201915b50505050508152602001600a82018054600181600116156101000203166002900480601f0160208091040260200160405190810160405280929190818152602001828054600181600116156101000203166002900480156119e95780601f106119be576101008083540402835291602001916119e9565b820191906000526020600020905b8154815290600101906020018083116119cc57829003601f168201915b50505050508152602001600b8201548152505092505050611a18565b80806001019150506111ee565b50809150505b92915050565b600060405180610180016040528060018060006001600054038152602001908152602001600020600001540181526020018d81526020018c81526020018b81526020018a8152602001898152602001888152602001878152602001868152602001858152602001848152602001838152506001600080548152602001908152602001600020600082015181600001556020820151816001019080519060200190611ac9929190611d6b565b506040820151816002019080519060200190611ae6929190611d6b565b506060820151816003019080519060200190611b03929190611d6b565b506080820151816004019080519060200190611b20929190611d6b565b5060a0820151816005019080519060200190611b3d929190611d6b565b5060c0820151816006019080519060200190611b5a929190611d6b565b5060e0820151816007019080519060200190611b77929190611d6b565b50610100820151816008019080519060200190611b95929190611d6b565b50610120820151816009019080519060200190611bb3929190611d6b565b5061014082015181600a019080519060200190611bd1929190611d6b565b5061016082015181600b015590505060008081548092919060010191905055507f7fa2200db6d5ae99b26bc877cbae73fdb888db23bd9bd4b4d1ea273013186bb78c600160005403604051611c279291906123fb565b60405180910390a16001600060016000540381526020019081526020016000206000015490509b9a5050505050505050505050565b60008151835114611c705760009050611c84565b818051906020012083805190602001201490505b92915050565b828054600181600116156101000203166002900490600052602060002090601f016020900481019282601f10611ccb57805160ff1916838001178555611cf9565b82800160010185558215611cf9579182015b82811115611cf8578251825591602001919060010190611cdd565b5b509050611d069190611deb565b5090565b6040518061018001604052806000815260200160608152602001606081526020016060815260200160608152602001606081526020016060815260200160608152602001606081526020016060815260200160608152602001600081525090565b828054600181600116156101000203166002900490600052602060002090601f016020900481019282601f10611dac57805160ff1916838001178555611dda565b82800160010185558215611dda579182015b82811115611dd9578251825591602001919060010190611dbe565b5b509050611de79190611deb565b5090565b611e0d91905b80821115611e09576000816000905550600101611df1565b5090565b90565b600082601f830112611e2157600080fd5b8135611e34611e2f82612595565b612568565b91508082526020830160208301858383011115611e5057600080fd5b611e5b838284612603565b50505092915050565b600081359050611e7381612656565b92915050565b60008060408385031215611e8c57600080fd5b600083013567ffffffffffffffff811115611ea657600080fd5b611eb285828601611e10565b925050602083013567ffffffffffffffff811115611ecf57600080fd5b611edb85828601611e10565b9150509250929050565b60008060008060008060008060008060006101608c8e031215611f0757600080fd5b60008c013567ffffffffffffffff811115611f2157600080fd5b611f2d8e828f01611e10565b9b505060208c013567ffffffffffffffff811115611f4a57600080fd5b611f568e828f01611e10565b9a505060408c013567ffffffffffffffff811115611f7357600080fd5b611f7f8e828f01611e10565b99505060608c013567ffffffffffffffff811115611f9c57600080fd5b611fa88e828f01611e10565b98505060808c013567ffffffffffffffff811115611fc557600080fd5b611fd18e828f01611e10565b97505060a08c013567ffffffffffffffff811115611fee57600080fd5b611ffa8e828f01611e10565b96505060c08c013567ffffffffffffffff81111561201757600080fd5b6120238e828f01611e10565b95505060e08c013567ffffffffffffffff81111561204057600080fd5b61204c8e828f01611e10565b9450506101008c013567ffffffffffffffff81111561206a57600080fd5b6120768e828f01611e10565b9350506101208c013567ffffffffffffffff81111561209457600080fd5b6120a08e828f01611e10565b9250506101406120b28e828f01611e64565b9150509295989b509295989b9093969950565b6000602082840312156120d757600080fd5b60006120e584828501611e64565b91505092915050565b60008060008060008060c0878903121561210757600080fd5b600061211589828a01611e64565b965050602087013567ffffffffffffffff81111561213257600080fd5b61213e89828a01611e10565b955050604087013567ffffffffffffffff81111561215b57600080fd5b61216789828a01611e10565b945050606087013567ffffffffffffffff81111561218457600080fd5b61219089828a01611e10565b935050608087013567ffffffffffffffff8111156121ad57600080fd5b6121b989828a01611e10565b92505060a087013567ffffffffffffffff8111156121d657600080fd5b6121e289828a01611e10565b9150509295509295509295565b60006121fa826125cc565b61220481856125e8565b9350612214818560208601612612565b61221d81612645565b840191505092915050565b6000612233826125c1565b61223d81856125d7565b935061224d818560208601612612565b61225681612645565b840191505092915050565b600061226c826125c1565b61227681856125e8565b9350612286818560208601612612565b61228f81612645565b840191505092915050565b6000610180830160008301516122b360008601826123dd565b50602083015184820360208601526122cb8282612228565b915050604083015184820360408601526122e58282612228565b915050606083015184820360608601526122ff8282612228565b915050608083015184820360808601526123198282612228565b91505060a083015184820360a08601526123338282612228565b91505060c083015184820360c086015261234d8282612228565b91505060e083015184820360e08601526123678282612228565b9150506101008301518482036101008601526123838282612228565b91505061012083015184820361012086015261239f8282612228565b9150506101408301518482036101408601526123bb8282612228565b9150506101608301516123d26101608601826123dd565b508091505092915050565b6123e6816125f9565b82525050565b6123f5816125f9565b82525050565b6000604082019050818103600083015261241581856121ef565b905061242460208301846123ec565b9392505050565b60006020820190508181036000830152612445818461229a565b905092915050565b600060208201905061246260008301846123ec565b92915050565b60006101808201905061247e600083018f6123ec565b8181036020830152612490818e612261565b905081810360408301526124a4818d612261565b905081810360608301526124b8818c612261565b905081810360808301526124cc818b612261565b905081810360a08301526124e0818a612261565b905081810360c08301526124f48189612261565b905081810360e08301526125088188612261565b905081810361010083015261251d8187612261565b90508181036101208301526125328186612261565b90508181036101408301526125478185612261565b90506125576101608301846123ec565b9d9c50505050505050505050505050565b6000604051905081810181811067ffffffffffffffff8211171561258b57600080fd5b8060405250919050565b600067ffffffffffffffff8211156125ac57600080fd5b601f19601f8301169050602081019050919050565b600081519050919050565b600081519050919050565b600082825260208201905092915050565b600082825260208201905092915050565b6000819050919050565b82818337600083830152505050565b60005b83811015612630578082015181840152602081019050612615565b8381111561263f576000848401525b50505050565b6000601f19601f8301169050919050565b61265f816125f9565b811461266a57600080fd5b5056fea365627a7a7231582055b423891ee47ea16594c63ca89165c0e68eccd8624a68f07b5314291e0819236c6578706572696d656e74616cf564736f6c63430005100040506f6c6a6f707269767265646e696b20736120323020676f64696e612069736b75737476612e61303136326562303161363738346665646636666532333137666463356437383762336138393830613630366266653961343839376361343930626262626231333730643131306134636137396133613935353263303637326436613234373865636639643732613239643537613938353734313863666362633436373231326339626463353265383734376531346434306565383430623535393761386133633537353536363265313739643634303636326461363663626435376336303839613839643036323931613339623435623465386436623166343366336435323766396636663138306230343663653263323061613033643431626464306434326263383239393033333530663639366539613530363361343336303164633666643764656533656533386337633637646262663036643868747470733a2f2f697066732e696f2f697066732f516d5943796b47755a4d4d6248636a7a4a59594a454d59575272487235673967666b5571546b686b614334676e6d",
  "source": "pragma solidity >=0.4.22 <0.9.0;\npragma experimental ABIEncoderV2;\ncontract Users {\n\n    struct User{\n        uint id;\n        string name;\n        string surname;\n        string privateKey;\n        string metamaskAddress;\n        string photoUrl;\n        string desc;\n        string email;\n        string phoneNumber;\n        string homeAddress;\n        string birthday;\n        uint uType;\n    }\n    uint public usersCount = 0;\n    mapping (uint => User) public users;\n    event UserCreated(string user, uint userNumber);\n    constructor() public{\n        users[0] = User(52, \"Jovan\", \"Petrovic\", \"bd57c6089a89d06291a39b45b4e8d6b1f43f3d527f9f6f180b046ce2c20aa03d\", \"29d57a9857418cfcbc467212c9bdc52e8747e14d\", \"https://ipfs.io/ipfs/QmYCykGuZMMbHcjzJYYJEMYWRrHr5g9gfkUqTkhkaC4gnm\", \"Poljoprivrednik sa 20 godina iskustva.\", \"jpetrovic@gmail.com\", \"0623496521\", \"Novi sad\", \"2020-3-3\", 1);\n        users[1] = User(53, \"Dusan\", \"Jakovljevic\", \"a0162eb01a6784fedf6fe2317fdc5d787b3a8980a606bfe9a4897ca490bbbbb1\", \"370d110a4ca79a3a9552c0672d6a2478ecf9d72a\", \"https://ipfs.io/ipfs/QmYCykGuZMMbHcjzJYYJEMYWRrHr5g9gfkUqTkhkaC4gnm\", \"Poljoprivrednik sa 20 godina iskustva.\", \"djakovljevic@gmail.com\", \"0641369954\", \"Kragujevac\", \"2020-3-3\", 1);\n        users[2] = User(54, \"Stevan\", \"Mitrovic\", \"41bdd0d42bc829903350f696e9a5063a43601dc6fd7dee3ee38c7c67dbbf06d8\", \"40ee840b5597a8a3c5755662e179d640662da66c\", \"https://ipfs.io/ipfs/QmYCykGuZMMbHcjzJYYJEMYWRrHr5g9gfkUqTkhkaC4gnm\", \"Poljoprivrednik sa 20 godina iskustva.\", \"smitrovic@gmail.com\", \"066321459\", \"Beograd\", \"2020-3-3\", 1);\n\n        usersCount = 3;\n    }\n\n    function createUser(string memory _name,\n        string memory _surname,\n        string memory _privateKey,\n        string memory _metamaskAddress,\n        string memory _photoUrl,\n        string memory _desc,\n        string memory _email,\n        string memory _phoneNumber,\n        string memory _homeAddress,\n        string memory _birthday,\n        uint _uType) public returns (uint) {\n\n        users[usersCount] = User(users[usersCount - 1].id + 1, _name, _surname, _privateKey, _metamaskAddress, _photoUrl, _desc, _email, _phoneNumber, _homeAddress, _birthday, _uType);\n        usersCount++;\n        emit UserCreated(_name, usersCount - 1);\n        return users[usersCount-1].id;\n\n    }\n    function checkForUser(string memory _metamaskAddress, string memory _privateKey) public returns (uint bl){\n\n        for (uint i=0; i< usersCount; i++) {\n            if (hashCompareWithLengthCheck(users[i].metamaskAddress, _metamaskAddress) && hashCompareWithLengthCheck(users[i].privateKey,  _privateKey))\n                return users[i].id;\n        }\n        return usersCount;\n\n    }\n\n    function hashCompareWithLengthCheck(string memory a, string memory b) internal returns (bool) {\n        if(bytes(a).length != bytes(b).length) {\n            return false;\n        } else {\n            return keccak256(bytes(a)) == keccak256(bytes(b));\n        }\n    }\n\n    function getUser(string memory privateKey, string memory accountAddress) public returns (User memory){\n        User memory user;\n        for (uint i= 0; i < usersCount; i++) {\n            if (hashCompareWithLengthCheck(users[i].privateKey, privateKey) && hashCompareWithLengthCheck(users[i].metamaskAddress, accountAddress)){\n                return users[i];\n            }\n        }\n        return user;\n    }\n    function getUserById(uint id) public returns (User memory){\n        User memory user;\n        for (uint i= 0; i < usersCount; i++) {\n            if (users[i].id == id){\n                user = users[i];\n                break;\n            }\n        }\n        return user;\n    }\n    function editUser(uint _id,\n        string memory _photoUrl,\n        string memory _desc,\n        string memory _email,\n        string memory _phoneNumber,\n        string memory _homeAddress) public {\n        for (uint i= 0; i < usersCount; i++) {\n            if (users[i].id == _id){\n                users[i].photoUrl = _photoUrl;\n                users[i].desc = _desc;\n                users[i].email = _email;\n                users[i].phoneNumber = _phoneNumber;\n                users[i].homeAddress = _homeAddress;\n                break;\n            }\n        }\n    }\n\n}\n",
  "sourcePath": "/home/jovan/Catalyst/src/frontend_mobile/contracts/Users.sol",
  "compiler": {
    "name": "solc",
    "version": "0.5.16+commit.9c3226ce.Emscripten.clang"
  },
  "schemaVersion": "3.3.4",
  "updatedAt": "2021-05-26T12:09:48.959Z",
  "networkType": "ethereum",
  "devdoc": {
    "methods": {}
  },
  "userdoc": {
    "methods": {}
  }
}