{
  "contractName": "Users",
  "abi": [
    {
      "inputs": [],
      "payable": false,
      "stateMutability": "nonpayable",
      "type": "constructor"
    },
    {
      "anonymous": false,
      "inputs": [
        {
          "indexed": false,
          "internalType": "string",
          "name": "user",
          "type": "string"
        },
        {
          "indexed": false,
          "internalType": "uint256",
          "name": "userNumber",
          "type": "uint256"
        }
      ],
      "name": "UserCreated",
      "type": "event"
    },
    {
      "constant": true,
      "inputs": [
        {
          "internalType": "uint256",
          "name": "",
          "type": "uint256"
        }
      ],
      "name": "users",
      "outputs": [
        {
          "internalType": "uint256",
          "name": "id",
          "type": "uint256"
        },
        {
          "internalType": "string",
          "name": "name",
          "type": "string"
        },
        {
          "internalType": "string",
          "name": "surname",
          "type": "string"
        },
        {
          "internalType": "string",
          "name": "privateKey",
          "type": "string"
        },
        {
          "internalType": "string",
          "name": "metamaskAddress",
          "type": "string"
        },
        {
          "internalType": "string",
          "name": "photoUrl",
          "type": "string"
        },
        {
          "internalType": "string",
          "name": "desc",
          "type": "string"
        },
        {
          "internalType": "string",
          "name": "email",
          "type": "string"
        },
        {
          "internalType": "string",
          "name": "phoneNumber",
          "type": "string"
        },
        {
          "internalType": "string",
          "name": "homeAddress",
          "type": "string"
        },
        {
          "internalType": "string",
          "name": "birthday",
          "type": "string"
        },
        {
          "internalType": "uint256",
          "name": "uType",
          "type": "uint256"
        }
      ],
      "payable": false,
      "stateMutability": "view",
      "type": "function"
    },
    {
      "constant": true,
      "inputs": [],
      "name": "usersCount",
      "outputs": [
        {
          "internalType": "uint256",
          "name": "",
          "type": "uint256"
        }
      ],
      "payable": false,
      "stateMutability": "view",
      "type": "function"
    },
    {
      "constant": false,
      "inputs": [
        {
          "internalType": "string",
          "name": "_name",
          "type": "string"
        },
        {
          "internalType": "string",
          "name": "_surname",
          "type": "string"
        },
        {
          "internalType": "string",
          "name": "_privateKey",
          "type": "string"
        },
        {
          "internalType": "string",
          "name": "_metamaskAddress",
          "type": "string"
        },
        {
          "internalType": "string",
          "name": "_photoUrl",
          "type": "string"
        },
        {
          "internalType": "string",
          "name": "_desc",
          "type": "string"
        },
        {
          "internalType": "string",
          "name": "_email",
          "type": "string"
        },
        {
          "internalType": "string",
          "name": "_phoneNumber",
          "type": "string"
        },
        {
          "internalType": "string",
          "name": "_homeAddress",
          "type": "string"
        },
        {
          "internalType": "string",
          "name": "_birthday",
          "type": "string"
        },
        {
          "internalType": "uint256",
          "name": "_uType",
          "type": "uint256"
        }
      ],
      "name": "createUser",
      "outputs": [],
      "payable": false,
      "stateMutability": "nonpayable",
      "type": "function"
    },
    {
      "constant": false,
      "inputs": [
        {
          "internalType": "string",
          "name": "_metamaskAddress",
          "type": "string"
        },
        {
          "internalType": "string",
          "name": "_privateKey",
          "type": "string"
        }
      ],
      "name": "checkForUser",
      "outputs": [
        {
          "internalType": "bool",
          "name": "bl",
          "type": "bool"
        }
      ],
      "payable": false,
      "stateMutability": "nonpayable",
      "type": "function"
    }
  ],
  "bytecode": "0x6080604052600080553480156200001557600080fd5b50604051806101800160405280600081526020016040518060400160405280600581526020017f506574617200000000000000000000000000000000000000000000000000000081525081526020016040518060400160405280600881526020017f506574726f76696300000000000000000000000000000000000000000000000081525081526020016040518060400160405280600381526020017f6b6579000000000000000000000000000000000000000000000000000000000081525081526020016040518060400160405280600781526020017f616464726573730000000000000000000000000000000000000000000000000081525081526020016040518060400160405280600581526020017f666177666100000000000000000000000000000000000000000000000000000081525081526020016040518060400160405280601181526020017f6f7069732070726f697a766f646a61636100000000000000000000000000000081525081526020016040518060400160405280600f81526020017f656d61696c40676d61696c2e636f6d000000000000000000000000000000000081525081526020016040518060400160405280600a81526020017f313335313335313335310000000000000000000000000000000000000000000081525081526020016040518060400160405280600881526020017f4e6f76692073616400000000000000000000000000000000000000000000000081525081526020016040518060400160405280600881526020017f323032302d332d330000000000000000000000000000000000000000000000008152508152602001600181525060016000808152602001908152602001600020600082015181600001556020820151816001019080519060200190620002b7929190620007b9565b506040820151816002019080519060200190620002d6929190620007b9565b506060820151816003019080519060200190620002f5929190620007b9565b50608082015181600401908051906020019062000314929190620007b9565b5060a082015181600501908051906020019062000333929190620007b9565b5060c082015181600601908051906020019062000352929190620007b9565b5060e082015181600701908051906020019062000371929190620007b9565b5061010082015181600801908051906020019062000391929190620007b9565b50610120820151816009019080519060200190620003b1929190620007b9565b5061014082015181600a019080519060200190620003d1929190620007b9565b5061016082015181600b0155905050604051806101800160405280600181526020016040518060400160405280600481526020017f4c756b610000000000000000000000000000000000000000000000000000000081525081526020016040518060400160405280600481526020017f4c616c610000000000000000000000000000000000000000000000000000000081525081526020016040518060400160405280600e81526020017f667734746733773467337734673300000000000000000000000000000000000081525081526020016040518060400160405280600d81526020017f656766736165726773726567730000000000000000000000000000000000000081525081526020016040518060400160405280600581526020017f666177666100000000000000000000000000000000000000000000000000000081525081526020016040518060400160405280601181526020017f6f7069732070726f697a766f646a61636100000000000000000000000000000081525081526020016040518060400160405280600f81526020017f656d61696c40676d61696c2e636f6d000000000000000000000000000000000081525081526020016040518060400160405280600a81526020017f313335313335313335310000000000000000000000000000000000000000000081525081526020016040518060400160405280600881526020017f4e6f76692073616400000000000000000000000000000000000000000000000081525081526020016040518060400160405280600881526020017f323032302d332d3300000000000000000000000000000000000000000000000081525081526020016001815250600160006001815260200190815260200160002060008201518160000155602082015181600101908051906020019062000682929190620007b9565b506040820151816002019080519060200190620006a1929190620007b9565b506060820151816003019080519060200190620006c0929190620007b9565b506080820151816004019080519060200190620006df929190620007b9565b5060a0820151816005019080519060200190620006fe929190620007b9565b5060c08201518160060190805190602001906200071d929190620007b9565b5060e08201518160070190805190602001906200073c929190620007b9565b506101008201518160080190805190602001906200075c929190620007b9565b506101208201518160090190805190602001906200077c929190620007b9565b5061014082015181600a0190805190602001906200079c929190620007b9565b5061016082015181600b0155905050600260008190555062000868565b828054600181600116156101000203166002900490600052602060002090601f016020900481019282601f10620007fc57805160ff19168380011785556200082d565b828001600101855582156200082d579182015b828111156200082c5782518255916020019190600101906200080f565b5b5090506200083c919062000840565b5090565b6200086591905b808211156200086157600081600090555060010162000847565b5090565b90565b6111e680620008786000396000f3fe608060405234801561001057600080fd5b506004361061004c5760003560e01c80632c4141c214610051578063365b98b2146100815780636ba13a82146100bc57806388dce9e7146100da575b600080fd5b61006b60048036036100669190810190610c38565b6100f6565b6040516100789190610f3d565b60405180910390f35b61009b60048036036100969190810190610e84565b6102a8565b6040516100b39c9b9a99989796959493929190610fa3565b60405180910390f35b6100c46108f8565b6040516100d19190610f88565b60405180910390f35b6100f460048036036100ef9190810190610ca4565b6108fe565b005b600080600090505b60005481101561029c576101c0600160008381526020019081526020016000206004018054600181600116156101000203166002900480601f0160208091040260200160405190810160405280929190818152602001828054600181600116156101000203166002900480156101b55780601f1061018a576101008083540402835291602001916101b5565b820191906000526020600020905b81548152906001019060200180831161019857829003601f168201915b505050505085610afc565b8015610280575061027f600160008381526020019081526020016000206003018054600181600116156101000203166002900480601f0160208091040260200160405190810160405280929190818152602001828054600181600116156101000203166002900480156102745780601f1061024957610100808354040283529160200191610274565b820191906000526020600020905b81548152906001019060200180831161025757829003601f168201915b505050505084610afc565b5b1561028f5760019150506102a2565b80806001019150506100fe565b50600090505b92915050565b6001602052806000526040600020600091509050806000015490806001018054600181600116156101000203166002900480601f01602080910402602001604051908101604052809291908181526020018280546001816001161561010002031660029004801561035a5780601f1061032f5761010080835404028352916020019161035a565b820191906000526020600020905b81548152906001019060200180831161033d57829003601f168201915b505050505090806002018054600181600116156101000203166002900480601f0160208091040260200160405190810160405280929190818152602001828054600181600116156101000203166002900480156103f85780601f106103cd576101008083540402835291602001916103f8565b820191906000526020600020905b8154815290600101906020018083116103db57829003601f168201915b505050505090806003018054600181600116156101000203166002900480601f0160208091040260200160405190810160405280929190818152602001828054600181600116156101000203166002900480156104965780601f1061046b57610100808354040283529160200191610496565b820191906000526020600020905b81548152906001019060200180831161047957829003601f168201915b505050505090806004018054600181600116156101000203166002900480601f0160208091040260200160405190810160405280929190818152602001828054600181600116156101000203166002900480156105345780601f1061050957610100808354040283529160200191610534565b820191906000526020600020905b81548152906001019060200180831161051757829003601f168201915b505050505090806005018054600181600116156101000203166002900480601f0160208091040260200160405190810160405280929190818152602001828054600181600116156101000203166002900480156105d25780601f106105a7576101008083540402835291602001916105d2565b820191906000526020600020905b8154815290600101906020018083116105b557829003601f168201915b505050505090806006018054600181600116156101000203166002900480601f0160208091040260200160405190810160405280929190818152602001828054600181600116156101000203166002900480156106705780601f1061064557610100808354040283529160200191610670565b820191906000526020600020905b81548152906001019060200180831161065357829003601f168201915b505050505090806007018054600181600116156101000203166002900480601f01602080910402602001604051908101604052809291908181526020018280546001816001161561010002031660029004801561070e5780601f106106e35761010080835404028352916020019161070e565b820191906000526020600020905b8154815290600101906020018083116106f157829003601f168201915b505050505090806008018054600181600116156101000203166002900480601f0160208091040260200160405190810160405280929190818152602001828054600181600116156101000203166002900480156107ac5780601f10610781576101008083540402835291602001916107ac565b820191906000526020600020905b81548152906001019060200180831161078f57829003601f168201915b505050505090806009018054600181600116156101000203166002900480601f01602080910402602001604051908101604052809291908181526020018280546001816001161561010002031660029004801561084a5780601f1061081f5761010080835404028352916020019161084a565b820191906000526020600020905b81548152906001019060200180831161082d57829003601f168201915b50505050509080600a018054600181600116156101000203166002900480601f0160208091040260200160405190810160405280929190818152602001828054600181600116156101000203166002900480156108e85780601f106108bd576101008083540402835291602001916108e8565b820191906000526020600020905b8154815290600101906020018083116108cb57829003601f168201915b50505050509080600b015490508c565b60005481565b60405180610180016040528060005481526020018c81526020018b81526020018a8152602001898152602001888152602001878152602001868152602001858152602001848152602001838152602001828152506001600080600081548092919060010191905055815260200190815260200160002060008201518160000155602082015181600101908051906020019061099a929190610b2a565b5060408201518160020190805190602001906109b7929190610b2a565b5060608201518160030190805190602001906109d4929190610b2a565b5060808201518160040190805190602001906109f1929190610b2a565b5060a0820151816005019080519060200190610a0e929190610b2a565b5060c0820151816006019080519060200190610a2b929190610b2a565b5060e0820151816007019080519060200190610a48929190610b2a565b50610100820151816008019080519060200190610a66929190610b2a565b50610120820151816009019080519060200190610a84929190610b2a565b5061014082015181600a019080519060200190610aa2929190610b2a565b5061016082015181600b01559050507f7fa2200db6d5ae99b26bc877cbae73fdb888db23bd9bd4b4d1ea273013186bb78b600160005403604051610ae7929190610f58565b60405180910390a15050505050505050505050565b60008151835114610b105760009050610b24565b818051906020012083805190602001201490505b92915050565b828054600181600116156101000203166002900490600052602060002090601f016020900481019282601f10610b6b57805160ff1916838001178555610b99565b82800160010185558215610b99579182015b82811115610b98578251825591602001919060010190610b7d565b5b509050610ba69190610baa565b5090565b610bcc91905b80821115610bc8576000816000905550600101610bb0565b5090565b90565b600082601f830112610be057600080fd5b8135610bf3610bee826110d0565b6110a3565b91508082526020830160208301858383011115610c0f57600080fd5b610c1a838284611139565b50505092915050565b600081359050610c328161118c565b92915050565b60008060408385031215610c4b57600080fd5b600083013567ffffffffffffffff811115610c6557600080fd5b610c7185828601610bcf565b925050602083013567ffffffffffffffff811115610c8e57600080fd5b610c9a85828601610bcf565b9150509250929050565b60008060008060008060008060008060006101608c8e031215610cc657600080fd5b60008c013567ffffffffffffffff811115610ce057600080fd5b610cec8e828f01610bcf565b9b505060208c013567ffffffffffffffff811115610d0957600080fd5b610d158e828f01610bcf565b9a505060408c013567ffffffffffffffff811115610d3257600080fd5b610d3e8e828f01610bcf565b99505060608c013567ffffffffffffffff811115610d5b57600080fd5b610d678e828f01610bcf565b98505060808c013567ffffffffffffffff811115610d8457600080fd5b610d908e828f01610bcf565b97505060a08c013567ffffffffffffffff811115610dad57600080fd5b610db98e828f01610bcf565b96505060c08c013567ffffffffffffffff811115610dd657600080fd5b610de28e828f01610bcf565b95505060e08c013567ffffffffffffffff811115610dff57600080fd5b610e0b8e828f01610bcf565b9450506101008c013567ffffffffffffffff811115610e2957600080fd5b610e358e828f01610bcf565b9350506101208c013567ffffffffffffffff811115610e5357600080fd5b610e5f8e828f01610bcf565b925050610140610e718e828f01610c23565b9150509295989b509295989b9093969950565b600060208284031215610e9657600080fd5b6000610ea484828501610c23565b91505092915050565b610eb681611123565b82525050565b6000610ec782611107565b610ed18185611112565b9350610ee1818560208601611148565b610eea8161117b565b840191505092915050565b6000610f00826110fc565b610f0a8185611112565b9350610f1a818560208601611148565b610f238161117b565b840191505092915050565b610f378161112f565b82525050565b6000602082019050610f526000830184610ead565b92915050565b60006040820190508181036000830152610f728185610ebc565b9050610f816020830184610f2e565b9392505050565b6000602082019050610f9d6000830184610f2e565b92915050565b600061018082019050610fb9600083018f610f2e565b8181036020830152610fcb818e610ef5565b90508181036040830152610fdf818d610ef5565b90508181036060830152610ff3818c610ef5565b90508181036080830152611007818b610ef5565b905081810360a083015261101b818a610ef5565b905081810360c083015261102f8189610ef5565b905081810360e08301526110438188610ef5565b90508181036101008301526110588187610ef5565b905081810361012083015261106d8186610ef5565b90508181036101408301526110828185610ef5565b9050611092610160830184610f2e565b9d9c50505050505050505050505050565b6000604051905081810181811067ffffffffffffffff821117156110c657600080fd5b8060405250919050565b600067ffffffffffffffff8211156110e757600080fd5b601f19601f8301169050602081019050919050565b600081519050919050565b600081519050919050565b600082825260208201905092915050565b60008115159050919050565b6000819050919050565b82818337600083830152505050565b60005b8381101561116657808201518184015260208101905061114b565b83811115611175576000848401525b50505050565b6000601f19601f8301169050919050565b6111958161112f565b81146111a057600080fd5b5056fea365627a7a7231582041d95e33f5273a62b4d4411f96ef7f8bc1d55c29817d97dac805c0d404c67d466c6578706572696d656e74616cf564736f6c63430005100040",
  "source": "pragma solidity >=0.4.22 <0.9.0;\npragma experimental ABIEncoderV2;\ncontract Users {\n\n    struct User{\n        uint id;\n        string name;\n        string surname;\n        string privateKey;\n        string metamaskAddress;\n        string photoUrl;\n        string desc;\n        string email;\n        string phoneNumber;\n        string homeAddress;\n        string birthday;\n        uint uType;\n    }\n    uint public usersCount = 0;\n    mapping (uint => User) public users;\n    event UserCreated(string user, uint userNumber);\n    constructor() public{\n\n        users[0] = User(0, \"Petar\", \"Petrovic\", \"key\", \"address\", \"fawfa\", \"opis proizvodjaca\", \"email@gmail.com\", \"1351351351\", \"Novi sad\", \"2020-3-3\", 1);\n        users[1] = User(1, \"Luka\", \"Lala\", \"fw4tg3w4g3w4g3\", \"egfsaergsregs\", \"fawfa\", \"opis proizvodjaca\", \"email@gmail.com\", \"1351351351\", \"Novi sad\", \"2020-3-3\", 1);\n        usersCount = 2;\n    }\n\n    function createUser(string memory _name,\n        string memory _surname,\n        string memory _privateKey,\n        string memory _metamaskAddress,\n        string memory _photoUrl,\n        string memory _desc,\n        string memory _email,\n        string memory _phoneNumber,\n        string memory _homeAddress,\n        string memory _birthday,\n        uint _uType) public {\n\n        users[usersCount++] = User(usersCount, _name, _surname, _privateKey, _metamaskAddress, _photoUrl, _desc, _email, _phoneNumber, _homeAddress, _birthday, _uType);\n        emit UserCreated(_name, usersCount - 1);\n\n    }\n    function checkForUser(string memory _metamaskAddress, string memory _privateKey) public returns (bool bl){\n\n        for (uint i=0; i< usersCount; i++) {\n            if (hashCompareWithLengthCheck(users[i].metamaskAddress, _metamaskAddress) && hashCompareWithLengthCheck(users[i].privateKey,  _privateKey))\n                return true;\n        }\n        return false;\n\n    }\n\n    function hashCompareWithLengthCheck(string memory a, string memory b) internal returns (bool) {\n        if(bytes(a).length != bytes(b).length) {\n            return false;\n        } else {\n            return keccak256(bytes(a)) == keccak256(bytes(b));\n        }\n    }\n    //TODO get users by id\n}\n",
  "sourcePath": "/home/jovan/Catalyst/src/frontend_mobile/contracts/Users.sol",
  "compiler": {
    "name": "solc",
    "version": "0.5.16+commit.9c3226ce.Emscripten.clang"
  },
  "schemaVersion": "3.3.4",
  "updatedAt": "2021-05-02T22:05:15.780Z",
  "devdoc": {
    "methods": {}
  },
  "userdoc": {
    "methods": {}
  }
}