{
  "contractName": "Users",
  "abi": [
    {
      "inputs": [],
      "payable": false,
      "stateMutability": "nonpayable",
      "type": "constructor"
    },
    {
      "anonymous": false,
      "inputs": [
        {
          "indexed": false,
          "internalType": "string",
          "name": "user",
          "type": "string"
        },
        {
          "indexed": false,
          "internalType": "uint256",
          "name": "userNumber",
          "type": "uint256"
        }
      ],
      "name": "UserCreated",
      "type": "event"
    },
    {
      "constant": true,
      "inputs": [
        {
          "internalType": "uint256",
          "name": "",
          "type": "uint256"
        }
      ],
      "name": "users",
      "outputs": [
        {
          "internalType": "uint256",
          "name": "id",
          "type": "uint256"
        },
        {
          "internalType": "string",
          "name": "name",
          "type": "string"
        },
        {
          "internalType": "string",
          "name": "surname",
          "type": "string"
        },
        {
          "internalType": "string",
          "name": "privateKey",
          "type": "string"
        },
        {
          "internalType": "string",
          "name": "metamaskAddress",
          "type": "string"
        },
        {
          "internalType": "string",
          "name": "photoUrl",
          "type": "string"
        },
        {
          "internalType": "string",
          "name": "desc",
          "type": "string"
        },
        {
          "internalType": "string",
          "name": "email",
          "type": "string"
        },
        {
          "internalType": "string",
          "name": "phoneNumber",
          "type": "string"
        },
        {
          "internalType": "string",
          "name": "homeAddress",
          "type": "string"
        },
        {
          "internalType": "string",
          "name": "birthday",
          "type": "string"
        },
        {
          "internalType": "uint256",
          "name": "uType",
          "type": "uint256"
        }
      ],
      "payable": false,
      "stateMutability": "view",
      "type": "function"
    },
    {
      "constant": true,
      "inputs": [],
      "name": "usersCount",
      "outputs": [
        {
          "internalType": "uint256",
          "name": "",
          "type": "uint256"
        }
      ],
      "payable": false,
      "stateMutability": "view",
      "type": "function"
    },
    {
      "constant": false,
      "inputs": [
        {
          "internalType": "string",
          "name": "_name",
          "type": "string"
        },
        {
          "internalType": "string",
          "name": "_surname",
          "type": "string"
        },
        {
          "internalType": "string",
          "name": "_privateKey",
          "type": "string"
        },
        {
          "internalType": "string",
          "name": "_metamaskAddress",
          "type": "string"
        },
        {
          "internalType": "string",
          "name": "_photoUrl",
          "type": "string"
        },
        {
          "internalType": "string",
          "name": "_desc",
          "type": "string"
        },
        {
          "internalType": "string",
          "name": "_email",
          "type": "string"
        },
        {
          "internalType": "string",
          "name": "_phoneNumber",
          "type": "string"
        },
        {
          "internalType": "string",
          "name": "_homeAddress",
          "type": "string"
        },
        {
          "internalType": "string",
          "name": "_birthday",
          "type": "string"
        },
        {
          "internalType": "uint256",
          "name": "_uType",
          "type": "uint256"
        }
      ],
      "name": "createUser",
      "outputs": [
        {
          "internalType": "uint256",
          "name": "",
          "type": "uint256"
        }
      ],
      "payable": false,
      "stateMutability": "nonpayable",
      "type": "function"
    },
    {
      "constant": false,
      "inputs": [
        {
          "internalType": "string",
          "name": "_metamaskAddress",
          "type": "string"
        },
        {
          "internalType": "string",
          "name": "_privateKey",
          "type": "string"
        }
      ],
      "name": "checkForUser",
      "outputs": [
        {
          "internalType": "uint256",
          "name": "bl",
          "type": "uint256"
        }
      ],
      "payable": false,
      "stateMutability": "nonpayable",
      "type": "function"
    },
    {
      "constant": false,
      "inputs": [
        {
          "internalType": "string",
          "name": "privateKey",
          "type": "string"
        },
        {
          "internalType": "string",
          "name": "accountAddress",
          "type": "string"
        }
      ],
      "name": "getUser",
      "outputs": [
        {
          "components": [
            {
              "internalType": "uint256",
              "name": "id",
              "type": "uint256"
            },
            {
              "internalType": "string",
              "name": "name",
              "type": "string"
            },
            {
              "internalType": "string",
              "name": "surname",
              "type": "string"
            },
            {
              "internalType": "string",
              "name": "privateKey",
              "type": "string"
            },
            {
              "internalType": "string",
              "name": "metamaskAddress",
              "type": "string"
            },
            {
              "internalType": "string",
              "name": "photoUrl",
              "type": "string"
            },
            {
              "internalType": "string",
              "name": "desc",
              "type": "string"
            },
            {
              "internalType": "string",
              "name": "email",
              "type": "string"
            },
            {
              "internalType": "string",
              "name": "phoneNumber",
              "type": "string"
            },
            {
              "internalType": "string",
              "name": "homeAddress",
              "type": "string"
            },
            {
              "internalType": "string",
              "name": "birthday",
              "type": "string"
            },
            {
              "internalType": "uint256",
              "name": "uType",
              "type": "uint256"
            }
          ],
          "internalType": "struct Users.User",
          "name": "",
          "type": "tuple"
        }
      ],
      "payable": false,
      "stateMutability": "nonpayable",
      "type": "function"
    },
    {
      "constant": false,
      "inputs": [
        {
          "internalType": "uint256",
          "name": "id",
          "type": "uint256"
        }
      ],
      "name": "getUserById",
      "outputs": [
        {
          "components": [
            {
              "internalType": "uint256",
              "name": "id",
              "type": "uint256"
            },
            {
              "internalType": "string",
              "name": "name",
              "type": "string"
            },
            {
              "internalType": "string",
              "name": "surname",
              "type": "string"
            },
            {
              "internalType": "string",
              "name": "privateKey",
              "type": "string"
            },
            {
              "internalType": "string",
              "name": "metamaskAddress",
              "type": "string"
            },
            {
              "internalType": "string",
              "name": "photoUrl",
              "type": "string"
            },
            {
              "internalType": "string",
              "name": "desc",
              "type": "string"
            },
            {
              "internalType": "string",
              "name": "email",
              "type": "string"
            },
            {
              "internalType": "string",
              "name": "phoneNumber",
              "type": "string"
            },
            {
              "internalType": "string",
              "name": "homeAddress",
              "type": "string"
            },
            {
              "internalType": "string",
              "name": "birthday",
              "type": "string"
            },
            {
              "internalType": "uint256",
              "name": "uType",
              "type": "uint256"
            }
          ],
          "internalType": "struct Users.User",
          "name": "",
          "type": "tuple"
        }
      ],
      "payable": false,
      "stateMutability": "nonpayable",
      "type": "function"
    }
  ],
  "bytecode": "0x6080604052600080553480156200001557600080fd5b50604051806101800160405280600081526020016040518060400160405280600581526020017f506574617200000000000000000000000000000000000000000000000000000081525081526020016040518060400160405280600881526020017f506574726f76696300000000000000000000000000000000000000000000000081525081526020016040518060400160405280600481526020017f6b6579310000000000000000000000000000000000000000000000000000000081525081526020016040518060400160405280600881526020017f616464726573733100000000000000000000000000000000000000000000000081525081526020016040518060400160405280601b81526020017f6173736574732f69636f6e732f55736572436972636c652e706e67000000000081525081526020016040518060400160405280601181526020017f6f7069732070726f697a766f646a61636100000000000000000000000000000081525081526020016040518060400160405280600f81526020017f656d61696c40676d61696c2e636f6d000000000000000000000000000000000081525081526020016040518060400160405280600a81526020017f313335313335313335310000000000000000000000000000000000000000000081525081526020016040518060400160405280600881526020017f4e6f76692073616400000000000000000000000000000000000000000000000081525081526020016040518060400160405280600881526020017f323032302d332d330000000000000000000000000000000000000000000000008152508152602001600181525060016000808152602001908152602001600020600082015181600001556020820151816001019080519060200190620002b7929190620007b9565b506040820151816002019080519060200190620002d6929190620007b9565b506060820151816003019080519060200190620002f5929190620007b9565b50608082015181600401908051906020019062000314929190620007b9565b5060a082015181600501908051906020019062000333929190620007b9565b5060c082015181600601908051906020019062000352929190620007b9565b5060e082015181600701908051906020019062000371929190620007b9565b5061010082015181600801908051906020019062000391929190620007b9565b50610120820151816009019080519060200190620003b1929190620007b9565b5061014082015181600a019080519060200190620003d1929190620007b9565b5061016082015181600b0155905050604051806101800160405280600181526020016040518060400160405280600581526020017f4d61726b6f00000000000000000000000000000000000000000000000000000081525081526020016040518060400160405280600881526020017f4d61726b6f76696300000000000000000000000000000000000000000000000081525081526020016040518060400160405280600481526020017f6b6579320000000000000000000000000000000000000000000000000000000081525081526020016040518060400160405280600881526020017f616464726573733200000000000000000000000000000000000000000000000081525081526020016040518060400160405280601b81526020017f6173736574732f69636f6e732f55736572436972636c652e706e67000000000081525081526020016040518060400160405280601181526020017f6f7069732070726f697a766f646a61636100000000000000000000000000000081525081526020016040518060400160405280600f81526020017f656d61696c40676d61696c2e636f6d000000000000000000000000000000000081525081526020016040518060400160405280600a81526020017f313335313335313335310000000000000000000000000000000000000000000081525081526020016040518060400160405280600881526020017f4e6f76692073616400000000000000000000000000000000000000000000000081525081526020016040518060400160405280600881526020017f323032302d332d3300000000000000000000000000000000000000000000000081525081526020016001815250600160006001815260200190815260200160002060008201518160000155602082015181600101908051906020019062000682929190620007b9565b506040820151816002019080519060200190620006a1929190620007b9565b506060820151816003019080519060200190620006c0929190620007b9565b506080820151816004019080519060200190620006df929190620007b9565b5060a0820151816005019080519060200190620006fe929190620007b9565b5060c08201518160060190805190602001906200071d929190620007b9565b5060e08201518160070190805190602001906200073c929190620007b9565b506101008201518160080190805190602001906200075c929190620007b9565b506101208201518160090190805190602001906200077c929190620007b9565b5061014082015181600a0190805190602001906200079c929190620007b9565b5061016082015181600b0155905050600260008190555062000868565b828054600181600116156101000203166002900490600052602060002090601f016020900481019282601f10620007fc57805160ff19168380011785556200082d565b828001600101855582156200082d579182015b828111156200082c5782518255916020019190600101906200080f565b5b5090506200083c919062000840565b5090565b6200086591905b808211156200086157600081600090555060010162000847565b5090565b90565b6123a480620008786000396000f3fe608060405234801561001057600080fd5b50600436106100625760003560e01c80632c4141c214610067578063365b98b2146100975780636ba13a82146100d25780636ed6da9e146100f057806383e6858f1461012057806388dce9e714610150575b600080fd5b610081600480360361007c9190810190611c6e565b610180565b60405161008e9190612141565b60405180910390f35b6100b160048036036100ac9190810190611eba565b610348565b6040516100c99c9b9a9998979695949392919061215c565b60405180910390f35b6100da610998565b6040516100e79190612141565b60405180910390f35b61010a60048036036101059190810190611eba565b61099e565b604051610117919061211f565b60405180910390f35b61013a60048036036101359190810190611c6e565b611081565b604051610147919061211f565b60405180910390f35b61016a60048036036101659190810190611cda565b6118c7565b6040516101779190612141565b60405180910390f35b600080600090505b60005481101561033b5761024a600160008381526020019081526020016000206004018054600181600116156101000203166002900480601f01602080910402602001604051908101604052809291908181526020018280546001816001161561010002031660029004801561023f5780601f106102145761010080835404028352916020019161023f565b820191906000526020600020905b81548152906001019060200180831161022257829003601f168201915b505050505085611ad1565b801561030a5750610309600160008381526020019081526020016000206003018054600181600116156101000203166002900480601f0160208091040260200160405190810160405280929190818152602001828054600181600116156101000203166002900480156102fe5780601f106102d3576101008083540402835291602001916102fe565b820191906000526020600020905b8154815290600101906020018083116102e157829003601f168201915b505050505084611ad1565b5b1561032e576001600082815260200190815260200160002060000154915050610342565b8080600101915050610188565b5060005490505b92915050565b6001602052806000526040600020600091509050806000015490806001018054600181600116156101000203166002900480601f0160208091040260200160405190810160405280929190818152602001828054600181600116156101000203166002900480156103fa5780601f106103cf576101008083540402835291602001916103fa565b820191906000526020600020905b8154815290600101906020018083116103dd57829003601f168201915b505050505090806002018054600181600116156101000203166002900480601f0160208091040260200160405190810160405280929190818152602001828054600181600116156101000203166002900480156104985780601f1061046d57610100808354040283529160200191610498565b820191906000526020600020905b81548152906001019060200180831161047b57829003601f168201915b505050505090806003018054600181600116156101000203166002900480601f0160208091040260200160405190810160405280929190818152602001828054600181600116156101000203166002900480156105365780601f1061050b57610100808354040283529160200191610536565b820191906000526020600020905b81548152906001019060200180831161051957829003601f168201915b505050505090806004018054600181600116156101000203166002900480601f0160208091040260200160405190810160405280929190818152602001828054600181600116156101000203166002900480156105d45780601f106105a9576101008083540402835291602001916105d4565b820191906000526020600020905b8154815290600101906020018083116105b757829003601f168201915b505050505090806005018054600181600116156101000203166002900480601f0160208091040260200160405190810160405280929190818152602001828054600181600116156101000203166002900480156106725780601f1061064757610100808354040283529160200191610672565b820191906000526020600020905b81548152906001019060200180831161065557829003601f168201915b505050505090806006018054600181600116156101000203166002900480601f0160208091040260200160405190810160405280929190818152602001828054600181600116156101000203166002900480156107105780601f106106e557610100808354040283529160200191610710565b820191906000526020600020905b8154815290600101906020018083116106f357829003601f168201915b505050505090806007018054600181600116156101000203166002900480601f0160208091040260200160405190810160405280929190818152602001828054600181600116156101000203166002900480156107ae5780601f10610783576101008083540402835291602001916107ae565b820191906000526020600020905b81548152906001019060200180831161079157829003601f168201915b505050505090806008018054600181600116156101000203166002900480601f01602080910402602001604051908101604052809291908181526020018280546001816001161561010002031660029004801561084c5780601f106108215761010080835404028352916020019161084c565b820191906000526020600020905b81548152906001019060200180831161082f57829003601f168201915b505050505090806009018054600181600116156101000203166002900480601f0160208091040260200160405190810160405280929190818152602001828054600181600116156101000203166002900480156108ea5780601f106108bf576101008083540402835291602001916108ea565b820191906000526020600020905b8154815290600101906020018083116108cd57829003601f168201915b50505050509080600a018054600181600116156101000203166002900480601f0160208091040260200160405190810160405280929190818152602001828054600181600116156101000203166002900480156109885780601f1061095d57610100808354040283529160200191610988565b820191906000526020600020905b81548152906001019060200180831161096b57829003601f168201915b50505050509080600b015490508c565b60005481565b6109a6611aff565b6109ae611aff565b60008090505b60005481101561107757836001600083815260200190815260200160002060000154141561106a57600160008281526020019081526020016000206040518061018001604052908160008201548152602001600182018054600181600116156101000203166002900480601f016020809104026020016040519081016040528092919081815260200182805460018160011615610100020316600290048015610a9e5780601f10610a7357610100808354040283529160200191610a9e565b820191906000526020600020905b815481529060010190602001808311610a8157829003601f168201915b50505050508152602001600282018054600181600116156101000203166002900480601f016020809104026020016040519081016040528092919081815260200182805460018160011615610100020316600290048015610b405780601f10610b1557610100808354040283529160200191610b40565b820191906000526020600020905b815481529060010190602001808311610b2357829003601f168201915b50505050508152602001600382018054600181600116156101000203166002900480601f016020809104026020016040519081016040528092919081815260200182805460018160011615610100020316600290048015610be25780601f10610bb757610100808354040283529160200191610be2565b820191906000526020600020905b815481529060010190602001808311610bc557829003601f168201915b50505050508152602001600482018054600181600116156101000203166002900480601f016020809104026020016040519081016040528092919081815260200182805460018160011615610100020316600290048015610c845780601f10610c5957610100808354040283529160200191610c84565b820191906000526020600020905b815481529060010190602001808311610c6757829003601f168201915b50505050508152602001600582018054600181600116156101000203166002900480601f016020809104026020016040519081016040528092919081815260200182805460018160011615610100020316600290048015610d265780601f10610cfb57610100808354040283529160200191610d26565b820191906000526020600020905b815481529060010190602001808311610d0957829003601f168201915b50505050508152602001600682018054600181600116156101000203166002900480601f016020809104026020016040519081016040528092919081815260200182805460018160011615610100020316600290048015610dc85780601f10610d9d57610100808354040283529160200191610dc8565b820191906000526020600020905b815481529060010190602001808311610dab57829003601f168201915b50505050508152602001600782018054600181600116156101000203166002900480601f016020809104026020016040519081016040528092919081815260200182805460018160011615610100020316600290048015610e6a5780601f10610e3f57610100808354040283529160200191610e6a565b820191906000526020600020905b815481529060010190602001808311610e4d57829003601f168201915b50505050508152602001600882018054600181600116156101000203166002900480601f016020809104026020016040519081016040528092919081815260200182805460018160011615610100020316600290048015610f0c5780601f10610ee157610100808354040283529160200191610f0c565b820191906000526020600020905b815481529060010190602001808311610eef57829003601f168201915b50505050508152602001600982018054600181600116156101000203166002900480601f016020809104026020016040519081016040528092919081815260200182805460018160011615610100020316600290048015610fae5780601f10610f8357610100808354040283529160200191610fae565b820191906000526020600020905b815481529060010190602001808311610f9157829003601f168201915b50505050508152602001600a82018054600181600116156101000203166002900480601f0160208091040260200160405190810160405280929190818152602001828054600181600116156101000203166002900480156110505780601f1061102557610100808354040283529160200191611050565b820191906000526020600020905b81548152906001019060200180831161103357829003601f168201915b50505050508152602001600b820154815250509150611077565b80806001019150506109b4565b5080915050919050565b611089611aff565b611091611aff565b60008090505b6000548110156118bb57611159600160008381526020019081526020016000206003018054600181600116156101000203166002900480601f01602080910402602001604051908101604052809291908181526020018280546001816001161561010002031660029004801561114e5780601f106111235761010080835404028352916020019161114e565b820191906000526020600020905b81548152906001019060200180831161113157829003601f168201915b505050505086611ad1565b80156112195750611218600160008381526020019081526020016000206004018054600181600116156101000203166002900480601f01602080910402602001604051908101604052809291908181526020018280546001816001161561010002031660029004801561120d5780601f106111e25761010080835404028352916020019161120d565b820191906000526020600020905b8154815290600101906020018083116111f057829003601f168201915b505050505085611ad1565b5b156118ae57600160008281526020019081526020016000206040518061018001604052908160008201548152602001600182018054600181600116156101000203166002900480601f0160208091040260200160405190810160405280929190818152602001828054600181600116156101000203166002900480156112e05780601f106112b5576101008083540402835291602001916112e0565b820191906000526020600020905b8154815290600101906020018083116112c357829003601f168201915b50505050508152602001600282018054600181600116156101000203166002900480601f0160208091040260200160405190810160405280929190818152602001828054600181600116156101000203166002900480156113825780601f1061135757610100808354040283529160200191611382565b820191906000526020600020905b81548152906001019060200180831161136557829003601f168201915b50505050508152602001600382018054600181600116156101000203166002900480601f0160208091040260200160405190810160405280929190818152602001828054600181600116156101000203166002900480156114245780601f106113f957610100808354040283529160200191611424565b820191906000526020600020905b81548152906001019060200180831161140757829003601f168201915b50505050508152602001600482018054600181600116156101000203166002900480601f0160208091040260200160405190810160405280929190818152602001828054600181600116156101000203166002900480156114c65780601f1061149b576101008083540402835291602001916114c6565b820191906000526020600020905b8154815290600101906020018083116114a957829003601f168201915b50505050508152602001600582018054600181600116156101000203166002900480601f0160208091040260200160405190810160405280929190818152602001828054600181600116156101000203166002900480156115685780601f1061153d57610100808354040283529160200191611568565b820191906000526020600020905b81548152906001019060200180831161154b57829003601f168201915b50505050508152602001600682018054600181600116156101000203166002900480601f01602080910402602001604051908101604052809291908181526020018280546001816001161561010002031660029004801561160a5780601f106115df5761010080835404028352916020019161160a565b820191906000526020600020905b8154815290600101906020018083116115ed57829003601f168201915b50505050508152602001600782018054600181600116156101000203166002900480601f0160208091040260200160405190810160405280929190818152602001828054600181600116156101000203166002900480156116ac5780601f10611681576101008083540402835291602001916116ac565b820191906000526020600020905b81548152906001019060200180831161168f57829003601f168201915b50505050508152602001600882018054600181600116156101000203166002900480601f01602080910402602001604051908101604052809291908181526020018280546001816001161561010002031660029004801561174e5780601f106117235761010080835404028352916020019161174e565b820191906000526020600020905b81548152906001019060200180831161173157829003601f168201915b50505050508152602001600982018054600181600116156101000203166002900480601f0160208091040260200160405190810160405280929190818152602001828054600181600116156101000203166002900480156117f05780601f106117c5576101008083540402835291602001916117f0565b820191906000526020600020905b8154815290600101906020018083116117d357829003601f168201915b50505050508152602001600a82018054600181600116156101000203166002900480601f0160208091040260200160405190810160405280929190818152602001828054600181600116156101000203166002900480156118925780601f1061186757610100808354040283529160200191611892565b820191906000526020600020905b81548152906001019060200180831161187557829003601f168201915b50505050508152602001600b82015481525050925050506118c1565b8080600101915050611097565b50809150505b92915050565b600060405180610180016040528060005481526020018d81526020018c81526020018b81526020018a81526020018981526020018881526020018781526020018681526020018581526020018481526020018381525060016000806000815480929190600101919050558152602001908152602001600020600082015181600001556020820151816001019080519060200190611965929190611b60565b506040820151816002019080519060200190611982929190611b60565b50606082015181600301908051906020019061199f929190611b60565b5060808201518160040190805190602001906119bc929190611b60565b5060a08201518160050190805190602001906119d9929190611b60565b5060c08201518160060190805190602001906119f6929190611b60565b5060e0820151816007019080519060200190611a13929190611b60565b50610100820151816008019080519060200190611a31929190611b60565b50610120820151816009019080519060200190611a4f929190611b60565b5061014082015181600a019080519060200190611a6d929190611b60565b5061016082015181600b01559050507f7fa2200db6d5ae99b26bc877cbae73fdb888db23bd9bd4b4d1ea273013186bb78c600160005403604051611ab29291906120ef565b60405180910390a160016000540390509b9a5050505050505050505050565b60008151835114611ae55760009050611af9565b818051906020012083805190602001201490505b92915050565b6040518061018001604052806000815260200160608152602001606081526020016060815260200160608152602001606081526020016060815260200160608152602001606081526020016060815260200160608152602001600081525090565b828054600181600116156101000203166002900490600052602060002090601f016020900481019282601f10611ba157805160ff1916838001178555611bcf565b82800160010185558215611bcf579182015b82811115611bce578251825591602001919060010190611bb3565b5b509050611bdc9190611be0565b5090565b611c0291905b80821115611bfe576000816000905550600101611be6565b5090565b90565b600082601f830112611c1657600080fd5b8135611c29611c2482612289565b61225c565b91508082526020830160208301858383011115611c4557600080fd5b611c508382846122f7565b50505092915050565b600081359050611c688161234a565b92915050565b60008060408385031215611c8157600080fd5b600083013567ffffffffffffffff811115611c9b57600080fd5b611ca785828601611c05565b925050602083013567ffffffffffffffff811115611cc457600080fd5b611cd085828601611c05565b9150509250929050565b60008060008060008060008060008060006101608c8e031215611cfc57600080fd5b60008c013567ffffffffffffffff811115611d1657600080fd5b611d228e828f01611c05565b9b505060208c013567ffffffffffffffff811115611d3f57600080fd5b611d4b8e828f01611c05565b9a505060408c013567ffffffffffffffff811115611d6857600080fd5b611d748e828f01611c05565b99505060608c013567ffffffffffffffff811115611d9157600080fd5b611d9d8e828f01611c05565b98505060808c013567ffffffffffffffff811115611dba57600080fd5b611dc68e828f01611c05565b97505060a08c013567ffffffffffffffff811115611de357600080fd5b611def8e828f01611c05565b96505060c08c013567ffffffffffffffff811115611e0c57600080fd5b611e188e828f01611c05565b95505060e08c013567ffffffffffffffff811115611e3557600080fd5b611e418e828f01611c05565b9450506101008c013567ffffffffffffffff811115611e5f57600080fd5b611e6b8e828f01611c05565b9350506101208c013567ffffffffffffffff811115611e8957600080fd5b611e958e828f01611c05565b925050610140611ea78e828f01611c59565b9150509295989b509295989b9093969950565b600060208284031215611ecc57600080fd5b6000611eda84828501611c59565b91505092915050565b6000611eee826122c0565b611ef881856122dc565b9350611f08818560208601612306565b611f1181612339565b840191505092915050565b6000611f27826122b5565b611f3181856122cb565b9350611f41818560208601612306565b611f4a81612339565b840191505092915050565b6000611f60826122b5565b611f6a81856122dc565b9350611f7a818560208601612306565b611f8381612339565b840191505092915050565b600061018083016000830151611fa760008601826120d1565b5060208301518482036020860152611fbf8282611f1c565b91505060408301518482036040860152611fd98282611f1c565b91505060608301518482036060860152611ff38282611f1c565b9150506080830151848203608086015261200d8282611f1c565b91505060a083015184820360a08601526120278282611f1c565b91505060c083015184820360c08601526120418282611f1c565b91505060e083015184820360e086015261205b8282611f1c565b9150506101008301518482036101008601526120778282611f1c565b9150506101208301518482036101208601526120938282611f1c565b9150506101408301518482036101408601526120af8282611f1c565b9150506101608301516120c66101608601826120d1565b508091505092915050565b6120da816122ed565b82525050565b6120e9816122ed565b82525050565b600060408201905081810360008301526121098185611ee3565b905061211860208301846120e0565b9392505050565b600060208201905081810360008301526121398184611f8e565b905092915050565b600060208201905061215660008301846120e0565b92915050565b600061018082019050612172600083018f6120e0565b8181036020830152612184818e611f55565b90508181036040830152612198818d611f55565b905081810360608301526121ac818c611f55565b905081810360808301526121c0818b611f55565b905081810360a08301526121d4818a611f55565b905081810360c08301526121e88189611f55565b905081810360e08301526121fc8188611f55565b90508181036101008301526122118187611f55565b90508181036101208301526122268186611f55565b905081810361014083015261223b8185611f55565b905061224b6101608301846120e0565b9d9c50505050505050505050505050565b6000604051905081810181811067ffffffffffffffff8211171561227f57600080fd5b8060405250919050565b600067ffffffffffffffff8211156122a057600080fd5b601f19601f8301169050602081019050919050565b600081519050919050565b600081519050919050565b600082825260208201905092915050565b600082825260208201905092915050565b6000819050919050565b82818337600083830152505050565b60005b83811015612324578082015181840152602081019050612309565b83811115612333576000848401525b50505050565b6000601f19601f8301169050919050565b612353816122ed565b811461235e57600080fd5b5056fea365627a7a72315820079e90f2621073008a4bda837a5596ae1af2539ca35fbc920e10c27f9803390a6c6578706572696d656e74616cf564736f6c63430005100040",
  "source": "pragma solidity >=0.4.22 <0.9.0;\r\npragma experimental ABIEncoderV2;\r\ncontract Users {\r\n\r\n    struct User{\r\n        uint id;\r\n        string name;\r\n        string surname;\r\n        string privateKey;\r\n        string metamaskAddress;\r\n        string photoUrl;\r\n        string desc;\r\n        string email;\r\n        string phoneNumber;\r\n        string homeAddress;\r\n        string birthday;\r\n        uint uType;\r\n    }\r\n    uint public usersCount = 0;\r\n    mapping (uint => User) public users;\r\n    event UserCreated(string user, uint userNumber);\r\n    constructor() public{\r\n\r\n        users[0] = User(0, \"Petar\", \"Petrovic\", \"key1\", \"address1\", \"assets/icons/UserCircle.png\", \"opis proizvodjaca\", \"email@gmail.com\", \"1351351351\", \"Novi sad\", \"2020-3-3\", 1);\r\n        users[1] = User(1, \"Marko\", \"Markovic\", \"key2\", \"address2\", \"assets/icons/UserCircle.png\", \"opis proizvodjaca\", \"email@gmail.com\", \"1351351351\", \"Novi sad\", \"2020-3-3\", 1);\r\n        usersCount = 2;\r\n    }\r\n\r\n    function createUser(string memory _name,\r\n        string memory _surname,\r\n        string memory _privateKey,\r\n        string memory _metamaskAddress,\r\n        string memory _photoUrl,\r\n        string memory _desc,\r\n        string memory _email,\r\n        string memory _phoneNumber,\r\n        string memory _homeAddress,\r\n        string memory _birthday,\r\n        uint _uType) public returns (uint) {\r\n\r\n        users[usersCount++] = User(usersCount, _name, _surname, _privateKey, _metamaskAddress, _photoUrl, _desc, _email, _phoneNumber, _homeAddress, _birthday, _uType);\r\n        emit UserCreated(_name, usersCount - 1);\r\n        return usersCount-1;\r\n\r\n    }\r\n    function checkForUser(string memory _metamaskAddress, string memory _privateKey) public returns (uint bl){\r\n\r\n        for (uint i=0; i< usersCount; i++) {\r\n            if (hashCompareWithLengthCheck(users[i].metamaskAddress, _metamaskAddress) && hashCompareWithLengthCheck(users[i].privateKey,  _privateKey))\r\n                return users[i].id;\r\n        }\r\n        return usersCount;\r\n\r\n    }\r\n\r\n    function hashCompareWithLengthCheck(string memory a, string memory b) internal returns (bool) {\r\n        if(bytes(a).length != bytes(b).length) {\r\n            return false;\r\n        } else {\r\n            return keccak256(bytes(a)) == keccak256(bytes(b));\r\n        }\r\n    }\r\n\r\n    function getUser(string memory privateKey, string memory accountAddress) public returns (User memory){\r\n        User memory user;\r\n        for (uint i= 0; i < usersCount; i++) {\r\n            if (hashCompareWithLengthCheck(users[i].privateKey, privateKey) && hashCompareWithLengthCheck(users[i].metamaskAddress, accountAddress)){\r\n                return users[i];\r\n            }\r\n        }\r\n        return user;\r\n    }\r\n    function getUserById(uint id) public returns (User memory){\r\n        User memory user;\r\n        for (uint i= 0; i < usersCount; i++) {\r\n            if (users[i].id == id){\r\n                user = users[i];\r\n                break;\r\n            }\r\n        }\r\n        return user;\r\n    }\r\n}\r\n",
  "sourcePath": "C:/Users/Korisnik/Desktop/dev/Catalyst/src/frontend_mobile/contracts/Users.sol",
  "compiler": {
    "name": "solc",
    "version": "0.5.16+commit.9c3226ce.Emscripten.clang"
  },
  "schemaVersion": "3.3.4",
  "updatedAt": "2021-05-03T00:52:39.644Z",
  "networkType": "ethereum",
  "devdoc": {
    "methods": {}
  },
  "userdoc": {
    "methods": {}
  }
}