{
  "contractName": "Users",
  "abi": [
    {
      "inputs": [],
      "payable": false,
      "stateMutability": "nonpayable",
      "type": "constructor"
    },
    {
      "anonymous": false,
      "inputs": [
        {
          "indexed": false,
          "internalType": "string",
          "name": "user",
          "type": "string"
        },
        {
          "indexed": false,
          "internalType": "uint256",
          "name": "userNumber",
          "type": "uint256"
        }
      ],
      "name": "UserCreated",
      "type": "event"
    },
    {
      "constant": true,
      "inputs": [
        {
          "internalType": "uint256",
          "name": "",
          "type": "uint256"
        }
      ],
      "name": "users",
      "outputs": [
        {
          "internalType": "uint256",
          "name": "id",
          "type": "uint256"
        },
        {
          "internalType": "string",
          "name": "name",
          "type": "string"
        },
        {
          "internalType": "string",
          "name": "surname",
          "type": "string"
        },
        {
          "internalType": "string",
          "name": "privateKey",
          "type": "string"
        },
        {
          "internalType": "string",
          "name": "metamaskAddress",
          "type": "string"
        },
        {
          "internalType": "string",
          "name": "photoUrl",
          "type": "string"
        },
        {
          "internalType": "string",
          "name": "desc",
          "type": "string"
        },
        {
          "internalType": "string",
          "name": "email",
          "type": "string"
        },
        {
          "internalType": "string",
          "name": "phoneNumber",
          "type": "string"
        },
        {
          "internalType": "string",
          "name": "homeAddress",
          "type": "string"
        },
        {
          "internalType": "string",
          "name": "birthday",
          "type": "string"
        },
        {
          "components": [
            {
              "internalType": "int256",
              "name": "reputationPositive",
              "type": "int256"
            },
            {
              "internalType": "int256",
              "name": "reputationNegative",
              "type": "int256"
            }
          ],
          "internalType": "struct Users.Reps",
          "name": "reputation",
          "type": "tuple"
        }
      ],
      "payable": false,
      "stateMutability": "view",
      "type": "function"
    },
    {
      "constant": true,
      "inputs": [],
      "name": "usersCount",
      "outputs": [
        {
          "internalType": "uint256",
          "name": "",
          "type": "uint256"
        }
      ],
      "payable": false,
      "stateMutability": "view",
      "type": "function"
    },
    {
      "constant": false,
      "inputs": [
        {
          "internalType": "string",
          "name": "_name",
          "type": "string"
        },
        {
          "internalType": "string",
          "name": "_surname",
          "type": "string"
        },
        {
          "internalType": "string",
          "name": "_privateKey",
          "type": "string"
        },
        {
          "internalType": "string",
          "name": "_metamaskAddress",
          "type": "string"
        },
        {
          "internalType": "string",
          "name": "_photoUrl",
          "type": "string"
        },
        {
          "internalType": "string",
          "name": "_desc",
          "type": "string"
        },
        {
          "internalType": "string",
          "name": "_email",
          "type": "string"
        },
        {
          "internalType": "string",
          "name": "_phoneNumber",
          "type": "string"
        },
        {
          "internalType": "string",
          "name": "_homeAddress",
          "type": "string"
        },
        {
          "internalType": "string",
          "name": "_birthday",
          "type": "string"
        }
      ],
      "name": "createUser",
      "outputs": [
        {
          "internalType": "uint256",
          "name": "",
          "type": "uint256"
        }
      ],
      "payable": false,
      "stateMutability": "nonpayable",
      "type": "function"
    },
    {
      "constant": false,
      "inputs": [
        {
          "internalType": "string",
          "name": "_metamaskAddress",
          "type": "string"
        },
        {
          "internalType": "string",
          "name": "_privateKey",
          "type": "string"
        }
      ],
      "name": "checkForUser",
      "outputs": [
        {
          "internalType": "uint256",
          "name": "bl",
          "type": "uint256"
        }
      ],
      "payable": false,
      "stateMutability": "nonpayable",
      "type": "function"
    },
    {
      "constant": false,
      "inputs": [
        {
          "internalType": "string",
          "name": "privateKey",
          "type": "string"
        },
        {
          "internalType": "string",
          "name": "accountAddress",
          "type": "string"
        }
      ],
      "name": "getUser",
      "outputs": [
        {
          "components": [
            {
              "internalType": "uint256",
              "name": "id",
              "type": "uint256"
            },
            {
              "internalType": "string",
              "name": "name",
              "type": "string"
            },
            {
              "internalType": "string",
              "name": "surname",
              "type": "string"
            },
            {
              "internalType": "string",
              "name": "privateKey",
              "type": "string"
            },
            {
              "internalType": "string",
              "name": "metamaskAddress",
              "type": "string"
            },
            {
              "internalType": "string",
              "name": "photoUrl",
              "type": "string"
            },
            {
              "internalType": "string",
              "name": "desc",
              "type": "string"
            },
            {
              "internalType": "string",
              "name": "email",
              "type": "string"
            },
            {
              "internalType": "string",
              "name": "phoneNumber",
              "type": "string"
            },
            {
              "internalType": "string",
              "name": "homeAddress",
              "type": "string"
            },
            {
              "internalType": "string",
              "name": "birthday",
              "type": "string"
            },
            {
              "components": [
                {
                  "internalType": "int256",
                  "name": "reputationPositive",
                  "type": "int256"
                },
                {
                  "internalType": "int256",
                  "name": "reputationNegative",
                  "type": "int256"
                }
              ],
              "internalType": "struct Users.Reps",
              "name": "reputation",
              "type": "tuple"
            }
          ],
          "internalType": "struct Users.User",
          "name": "",
          "type": "tuple"
        }
      ],
      "payable": false,
      "stateMutability": "nonpayable",
      "type": "function"
    },
    {
      "constant": false,
      "inputs": [
        {
          "internalType": "uint256",
          "name": "id",
          "type": "uint256"
        }
      ],
      "name": "getUserById",
      "outputs": [
        {
          "components": [
            {
              "internalType": "uint256",
              "name": "id",
              "type": "uint256"
            },
            {
              "internalType": "string",
              "name": "name",
              "type": "string"
            },
            {
              "internalType": "string",
              "name": "surname",
              "type": "string"
            },
            {
              "internalType": "string",
              "name": "privateKey",
              "type": "string"
            },
            {
              "internalType": "string",
              "name": "metamaskAddress",
              "type": "string"
            },
            {
              "internalType": "string",
              "name": "photoUrl",
              "type": "string"
            },
            {
              "internalType": "string",
              "name": "desc",
              "type": "string"
            },
            {
              "internalType": "string",
              "name": "email",
              "type": "string"
            },
            {
              "internalType": "string",
              "name": "phoneNumber",
              "type": "string"
            },
            {
              "internalType": "string",
              "name": "homeAddress",
              "type": "string"
            },
            {
              "internalType": "string",
              "name": "birthday",
              "type": "string"
            },
            {
              "components": [
                {
                  "internalType": "int256",
                  "name": "reputationPositive",
                  "type": "int256"
                },
                {
                  "internalType": "int256",
                  "name": "reputationNegative",
                  "type": "int256"
                }
              ],
              "internalType": "struct Users.Reps",
              "name": "reputation",
              "type": "tuple"
            }
          ],
          "internalType": "struct Users.User",
          "name": "",
          "type": "tuple"
        }
      ],
      "payable": false,
      "stateMutability": "nonpayable",
      "type": "function"
    },
    {
      "constant": false,
      "inputs": [
        {
          "internalType": "uint256",
          "name": "_id",
          "type": "uint256"
        },
        {
          "internalType": "string",
          "name": "_photoUrl",
          "type": "string"
        },
        {
          "internalType": "string",
          "name": "_desc",
          "type": "string"
        },
        {
          "internalType": "string",
          "name": "_email",
          "type": "string"
        },
        {
          "internalType": "string",
          "name": "_phoneNumber",
          "type": "string"
        },
        {
          "internalType": "string",
          "name": "_homeAddress",
          "type": "string"
        }
      ],
      "name": "editUser",
      "outputs": [],
      "payable": false,
      "stateMutability": "nonpayable",
      "type": "function"
    },
    {
      "constant": false,
      "inputs": [
        {
          "internalType": "uint256",
          "name": "_id",
          "type": "uint256"
        },
        {
          "internalType": "uint256",
          "name": "_vote",
          "type": "uint256"
        }
      ],
      "name": "vote",
      "outputs": [],
      "payable": false,
      "stateMutability": "nonpayable",
      "type": "function"
    }
  ],
  "bytecode": "0x6080604052600080553480156200001557600080fd5b50604051806101800160405280603481526020016040518060400160405280600581526020017f4a6f76616e00000000000000000000000000000000000000000000000000000081525081526020016040518060400160405280600881526020017f506574726f76696300000000000000000000000000000000000000000000000081525081526020016040518060600160405280604081526020016200350e604091398152602001604051806060016040528060288152602001620034be6028913981526020016040518060800160405280604381526020016200358e604391398152602001604051806060016040528060268152602001620034306026913981526020016040518060400160405280601381526020017f6a706574726f76696340676d61696c2e636f6d0000000000000000000000000081525081526020016040518060400160405280600a81526020017f303632333439363532310000000000000000000000000000000000000000000081525081526020016040518060400160405280600881526020017f4e6f76692073616400000000000000000000000000000000000000000000000081525081526020016040518060400160405280600881526020017f323032302d332d3300000000000000000000000000000000000000000000000081525081526020016040518060400160405280600081526020016000815250815250600160008081526020019081526020016000206000820151816000015560208201518160010190805190602001906200025c92919062000ab2565b5060408201518160020190805190602001906200027b92919062000ab2565b5060608201518160030190805190602001906200029a92919062000ab2565b506080820151816004019080519060200190620002b992919062000ab2565b5060a0820151816005019080519060200190620002d892919062000ab2565b5060c0820151816006019080519060200190620002f792919062000ab2565b5060e08201518160070190805190602001906200031692919062000ab2565b506101008201518160080190805190602001906200033692919062000ab2565b506101208201518160090190805190602001906200035692919062000ab2565b5061014082015181600a0190805190602001906200037692919062000ab2565b5061016082015181600b0160008201518160000155602082015181600101555050905050604051806101800160405280603581526020016040518060400160405280600581526020017f447573616e00000000000000000000000000000000000000000000000000000081525081526020016040518060400160405280600b81526020017f4a616b6f766c6a65766963000000000000000000000000000000000000000000815250815260200160405180606001604052806040815260200162003456604091398152602001604051806060016040528060288152602001620034966028913981526020016040518060800160405280604381526020016200358e604391398152602001604051806060016040528060268152602001620034306026913981526020016040518060400160405280601681526020017f646a616b6f766c6a6576696340676d61696c2e636f6d0000000000000000000081525081526020016040518060400160405280600a81526020017f303634313336393935340000000000000000000000000000000000000000000081525081526020016040518060400160405280600a81526020017f4b726167756a657661630000000000000000000000000000000000000000000081525081526020016040518060400160405280600881526020017f323032302d332d33000000000000000000000000000000000000000000000000815250815260200160405180604001604052806000815260200160008152508152506001600060018152602001908152602001600020600082015181600001556020820151816001019080519060200190620005e192919062000ab2565b5060408201518160020190805190602001906200060092919062000ab2565b5060608201518160030190805190602001906200061f92919062000ab2565b5060808201518160040190805190602001906200063e92919062000ab2565b5060a08201518160050190805190602001906200065d92919062000ab2565b5060c08201518160060190805190602001906200067c92919062000ab2565b5060e08201518160070190805190602001906200069b92919062000ab2565b50610100820151816008019080519060200190620006bb92919062000ab2565b50610120820151816009019080519060200190620006db92919062000ab2565b5061014082015181600a019080519060200190620006fb92919062000ab2565b5061016082015181600b0160008201518160000155602082015181600101555050905050604051806101800160405280603681526020016040518060400160405280600681526020017f53746576616e000000000000000000000000000000000000000000000000000081525081526020016040518060400160405280600881526020017f4d6974726f76696300000000000000000000000000000000000000000000000081525081526020016040518060600160405280604081526020016200354e604091398152602001604051806060016040528060288152602001620034e66028913981526020016040518060800160405280604381526020016200358e604391398152602001604051806060016040528060268152602001620034306026913981526020016040518060400160405280601381526020017f736d6974726f76696340676d61696c2e636f6d0000000000000000000000000081525081526020016040518060400160405280600981526020017f303636333231343539000000000000000000000000000000000000000000000081525081526020016040518060400160405280600781526020017f42656f677261640000000000000000000000000000000000000000000000000081525081526020016040518060400160405280600881526020017f323032302d332d330000000000000000000000000000000000000000000000008152508152602001604051806040016040528060008152602001600081525081525060016000600281526020019081526020016000206000820151816000015560208201518160010190805190602001906200096692919062000ab2565b5060408201518160020190805190602001906200098592919062000ab2565b506060820151816003019080519060200190620009a492919062000ab2565b506080820151816004019080519060200190620009c392919062000ab2565b5060a0820151816005019080519060200190620009e292919062000ab2565b5060c082015181600601908051906020019062000a0192919062000ab2565b5060e082015181600701908051906020019062000a2092919062000ab2565b5061010082015181600801908051906020019062000a4092919062000ab2565b5061012082015181600901908051906020019062000a6092919062000ab2565b5061014082015181600a01908051906020019062000a8092919062000ab2565b5061016082015181600b0160008201518160000155602082015181600101555050905050600360008190555062000b61565b828054600181600116156101000203166002900490600052602060002090601f016020900481019282601f1062000af557805160ff191683800117855562000b26565b8280016001018555821562000b26579182015b8281111562000b2557825182559160200191906001019062000b08565b5b50905062000b35919062000b39565b5090565b62000b5e91905b8082111562000b5a57600081600090555060010162000b40565b5090565b90565b6128bf8062000b716000396000f3fe608060405234801561001057600080fd5b50600436106100885760003560e01c80636ed6da9e1161005b5780636ed6da9e1461013257806383e6858f14610162578063b384abef14610192578063c0860bf6146101ae57610088565b80632c4141c21461008d578063365b98b2146100bd57806346e6f94a146100f85780636ba13a8214610114575b600080fd5b6100a760048036036100a29190810190611fea565b6101de565b6040516100b49190612652565b60405180910390f35b6100d760048036036100d29190810190612221565b6103a6565b6040516100ef9c9b9a9998979695949392919061266d565b60405180910390f35b610112600480360361010d919081019061224a565b610a14565b005b61011c610b34565b6040516101299190612652565b60405180910390f35b61014c60048036036101479190810190612221565b610b3a565b6040516101599190612630565b60405180910390f35b61017c60048036036101779190810190611fea565b61123b565b6040516101899190612630565b60405180910390f35b6101ac60048036036101a7919081019061234b565b611a9f565b005b6101c860048036036101c39190810190612056565b611b45565b6040516101d59190612652565b60405180910390f35b600080600090505b600054811015610399576102a8600160008381526020019081526020016000206004018054600181600116156101000203166002900480601f01602080910402602001604051908101604052809291908181526020018280546001816001161561010002031660029004801561029d5780601f106102725761010080835404028352916020019161029d565b820191906000526020600020905b81548152906001019060200180831161028057829003601f168201915b505050505085611dad565b80156103685750610367600160008381526020019081526020016000206003018054600181600116156101000203166002900480601f01602080910402602001604051908101604052809291908181526020018280546001816001161561010002031660029004801561035c5780601f106103315761010080835404028352916020019161035c565b820191906000526020600020905b81548152906001019060200180831161033f57829003601f168201915b505050505084611dad565b5b1561038c5760016000828152602001908152602001600020600001549150506103a0565b80806001019150506101e6565b5060005490505b92915050565b6001602052806000526040600020600091509050806000015490806001018054600181600116156101000203166002900480601f0160208091040260200160405190810160405280929190818152602001828054600181600116156101000203166002900480156104585780601f1061042d57610100808354040283529160200191610458565b820191906000526020600020905b81548152906001019060200180831161043b57829003601f168201915b505050505090806002018054600181600116156101000203166002900480601f0160208091040260200160405190810160405280929190818152602001828054600181600116156101000203166002900480156104f65780601f106104cb576101008083540402835291602001916104f6565b820191906000526020600020905b8154815290600101906020018083116104d957829003601f168201915b505050505090806003018054600181600116156101000203166002900480601f0160208091040260200160405190810160405280929190818152602001828054600181600116156101000203166002900480156105945780601f1061056957610100808354040283529160200191610594565b820191906000526020600020905b81548152906001019060200180831161057757829003601f168201915b505050505090806004018054600181600116156101000203166002900480601f0160208091040260200160405190810160405280929190818152602001828054600181600116156101000203166002900480156106325780601f1061060757610100808354040283529160200191610632565b820191906000526020600020905b81548152906001019060200180831161061557829003601f168201915b505050505090806005018054600181600116156101000203166002900480601f0160208091040260200160405190810160405280929190818152602001828054600181600116156101000203166002900480156106d05780601f106106a5576101008083540402835291602001916106d0565b820191906000526020600020905b8154815290600101906020018083116106b357829003601f168201915b505050505090806006018054600181600116156101000203166002900480601f01602080910402602001604051908101604052809291908181526020018280546001816001161561010002031660029004801561076e5780601f106107435761010080835404028352916020019161076e565b820191906000526020600020905b81548152906001019060200180831161075157829003601f168201915b505050505090806007018054600181600116156101000203166002900480601f01602080910402602001604051908101604052809291908181526020018280546001816001161561010002031660029004801561080c5780601f106107e15761010080835404028352916020019161080c565b820191906000526020600020905b8154815290600101906020018083116107ef57829003601f168201915b505050505090806008018054600181600116156101000203166002900480601f0160208091040260200160405190810160405280929190818152602001828054600181600116156101000203166002900480156108aa5780601f1061087f576101008083540402835291602001916108aa565b820191906000526020600020905b81548152906001019060200180831161088d57829003601f168201915b505050505090806009018054600181600116156101000203166002900480601f0160208091040260200160405190810160405280929190818152602001828054600181600116156101000203166002900480156109485780601f1061091d57610100808354040283529160200191610948565b820191906000526020600020905b81548152906001019060200180831161092b57829003601f168201915b50505050509080600a018054600181600116156101000203166002900480601f0160208091040260200160405190810160405280929190818152602001828054600181600116156101000203166002900480156109e65780601f106109bb576101008083540402835291602001916109e6565b820191906000526020600020905b8154815290600101906020018083116109c957829003601f168201915b50505050509080600b016040518060400160405290816000820154815260200160018201548152505090508c565b60008090505b600054811015610b2b578660016000838152602001908152602001600020600001541415610b1e5785600160008381526020019081526020016000206005019080519060200190610a6c929190611ddb565b5084600160008381526020019081526020016000206006019080519060200190610a97929190611ddb565b5083600160008381526020019081526020016000206007019080519060200190610ac2929190611ddb565b5082600160008381526020019081526020016000206008019080519060200190610aed929190611ddb565b5081600160008381526020019081526020016000206009019080519060200190610b18929190611ddb565b50610b2b565b8080600101915050610a1a565b50505050505050565b60005481565b610b42611e5b565b610b4a611e5b565b60008090505b60005481101561123157836001600083815260200190815260200160002060000154141561122457600160008281526020019081526020016000206040518061018001604052908160008201548152602001600182018054600181600116156101000203166002900480601f016020809104026020016040519081016040528092919081815260200182805460018160011615610100020316600290048015610c3a5780601f10610c0f57610100808354040283529160200191610c3a565b820191906000526020600020905b815481529060010190602001808311610c1d57829003601f168201915b50505050508152602001600282018054600181600116156101000203166002900480601f016020809104026020016040519081016040528092919081815260200182805460018160011615610100020316600290048015610cdc5780601f10610cb157610100808354040283529160200191610cdc565b820191906000526020600020905b815481529060010190602001808311610cbf57829003601f168201915b50505050508152602001600382018054600181600116156101000203166002900480601f016020809104026020016040519081016040528092919081815260200182805460018160011615610100020316600290048015610d7e5780601f10610d5357610100808354040283529160200191610d7e565b820191906000526020600020905b815481529060010190602001808311610d6157829003601f168201915b50505050508152602001600482018054600181600116156101000203166002900480601f016020809104026020016040519081016040528092919081815260200182805460018160011615610100020316600290048015610e205780601f10610df557610100808354040283529160200191610e20565b820191906000526020600020905b815481529060010190602001808311610e0357829003601f168201915b50505050508152602001600582018054600181600116156101000203166002900480601f016020809104026020016040519081016040528092919081815260200182805460018160011615610100020316600290048015610ec25780601f10610e9757610100808354040283529160200191610ec2565b820191906000526020600020905b815481529060010190602001808311610ea557829003601f168201915b50505050508152602001600682018054600181600116156101000203166002900480601f016020809104026020016040519081016040528092919081815260200182805460018160011615610100020316600290048015610f645780601f10610f3957610100808354040283529160200191610f64565b820191906000526020600020905b815481529060010190602001808311610f4757829003601f168201915b50505050508152602001600782018054600181600116156101000203166002900480601f0160208091040260200160405190810160405280929190818152602001828054600181600116156101000203166002900480156110065780601f10610fdb57610100808354040283529160200191611006565b820191906000526020600020905b815481529060010190602001808311610fe957829003601f168201915b50505050508152602001600882018054600181600116156101000203166002900480601f0160208091040260200160405190810160405280929190818152602001828054600181600116156101000203166002900480156110a85780601f1061107d576101008083540402835291602001916110a8565b820191906000526020600020905b81548152906001019060200180831161108b57829003601f168201915b50505050508152602001600982018054600181600116156101000203166002900480601f01602080910402602001604051908101604052809291908181526020018280546001816001161561010002031660029004801561114a5780601f1061111f5761010080835404028352916020019161114a565b820191906000526020600020905b81548152906001019060200180831161112d57829003601f168201915b50505050508152602001600a82018054600181600116156101000203166002900480601f0160208091040260200160405190810160405280929190818152602001828054600181600116156101000203166002900480156111ec5780601f106111c1576101008083540402835291602001916111ec565b820191906000526020600020905b8154815290600101906020018083116111cf57829003601f168201915b50505050508152602001600b820160405180604001604052908160008201548152602001600182015481525050815250509150611231565b8080600101915050610b50565b5080915050919050565b611243611e5b565b61124b611e5b565b60008090505b600054811015611a9357611313600160008381526020019081526020016000206003018054600181600116156101000203166002900480601f0160208091040260200160405190810160405280929190818152602001828054600181600116156101000203166002900480156113085780601f106112dd57610100808354040283529160200191611308565b820191906000526020600020905b8154815290600101906020018083116112eb57829003601f168201915b505050505086611dad565b80156113d357506113d2600160008381526020019081526020016000206004018054600181600116156101000203166002900480601f0160208091040260200160405190810160405280929190818152602001828054600181600116156101000203166002900480156113c75780601f1061139c576101008083540402835291602001916113c7565b820191906000526020600020905b8154815290600101906020018083116113aa57829003601f168201915b505050505085611dad565b5b15611a8657600160008281526020019081526020016000206040518061018001604052908160008201548152602001600182018054600181600116156101000203166002900480601f01602080910402602001604051908101604052809291908181526020018280546001816001161561010002031660029004801561149a5780601f1061146f5761010080835404028352916020019161149a565b820191906000526020600020905b81548152906001019060200180831161147d57829003601f168201915b50505050508152602001600282018054600181600116156101000203166002900480601f01602080910402602001604051908101604052809291908181526020018280546001816001161561010002031660029004801561153c5780601f106115115761010080835404028352916020019161153c565b820191906000526020600020905b81548152906001019060200180831161151f57829003601f168201915b50505050508152602001600382018054600181600116156101000203166002900480601f0160208091040260200160405190810160405280929190818152602001828054600181600116156101000203166002900480156115de5780601f106115b3576101008083540402835291602001916115de565b820191906000526020600020905b8154815290600101906020018083116115c157829003601f168201915b50505050508152602001600482018054600181600116156101000203166002900480601f0160208091040260200160405190810160405280929190818152602001828054600181600116156101000203166002900480156116805780601f1061165557610100808354040283529160200191611680565b820191906000526020600020905b81548152906001019060200180831161166357829003601f168201915b50505050508152602001600582018054600181600116156101000203166002900480601f0160208091040260200160405190810160405280929190818152602001828054600181600116156101000203166002900480156117225780601f106116f757610100808354040283529160200191611722565b820191906000526020600020905b81548152906001019060200180831161170557829003601f168201915b50505050508152602001600682018054600181600116156101000203166002900480601f0160208091040260200160405190810160405280929190818152602001828054600181600116156101000203166002900480156117c45780601f10611799576101008083540402835291602001916117c4565b820191906000526020600020905b8154815290600101906020018083116117a757829003601f168201915b50505050508152602001600782018054600181600116156101000203166002900480601f0160208091040260200160405190810160405280929190818152602001828054600181600116156101000203166002900480156118665780601f1061183b57610100808354040283529160200191611866565b820191906000526020600020905b81548152906001019060200180831161184957829003601f168201915b50505050508152602001600882018054600181600116156101000203166002900480601f0160208091040260200160405190810160405280929190818152602001828054600181600116156101000203166002900480156119085780601f106118dd57610100808354040283529160200191611908565b820191906000526020600020905b8154815290600101906020018083116118eb57829003601f168201915b50505050508152602001600982018054600181600116156101000203166002900480601f0160208091040260200160405190810160405280929190818152602001828054600181600116156101000203166002900480156119aa5780601f1061197f576101008083540402835291602001916119aa565b820191906000526020600020905b81548152906001019060200180831161198d57829003601f168201915b50505050508152602001600a82018054600181600116156101000203166002900480601f016020809104026020016040519081016040528092919081815260200182805460018160011615610100020316600290048015611a4c5780601f10611a2157610100808354040283529160200191611a4c565b820191906000526020600020905b815481529060010190602001808311611a2f57829003601f168201915b50505050508152602001600b8201604051806040016040529081600082015481526020016001820154815250508152505092505050611a99565b8080600101915050611251565b50809150505b92915050565b60008090505b600054811015611b40578260016000838152602001908152602001600020600001541415611b33576001821415611b045760016000828152602001908152602001600020600b0160000160008154809291906001019190505550611b2e565b60016000828152602001908152602001600020600b01600101600081548092919060010191905055505b611b40565b8080600101915050611aa5565b505050565b600060405180610180016040528060018060006001600054038152602001908152602001600020600001540181526020018c81526020018b81526020018a815260200189815260200188815260200187815260200186815260200185815260200184815260200183815260200160405180604001604052806000815260200160008152508152506001600080548152602001908152602001600020600082015181600001556020820151816001019080519060200190611c06929190611ec2565b506040820151816002019080519060200190611c23929190611ec2565b506060820151816003019080519060200190611c40929190611ec2565b506080820151816004019080519060200190611c5d929190611ec2565b5060a0820151816005019080519060200190611c7a929190611ec2565b5060c0820151816006019080519060200190611c97929190611ec2565b5060e0820151816007019080519060200190611cb4929190611ec2565b50610100820151816008019080519060200190611cd2929190611ec2565b50610120820151816009019080519060200190611cf0929190611ec2565b5061014082015181600a019080519060200190611d0e929190611ec2565b5061016082015181600b016000820151816000015560208201518160010155505090505060008081548092919060010191905055507f7fa2200db6d5ae99b26bc877cbae73fdb888db23bd9bd4b4d1ea273013186bb78b600160005403604051611d79929190612600565b60405180910390a16001600060016000540381526020019081526020016000206000015490509a9950505050505050505050565b60008151835114611dc15760009050611dd5565b818051906020012083805190602001201490505b92915050565b828054600181600116156101000203166002900490600052602060002090601f016020900481019282601f10611e1c57805160ff1916838001178555611e4a565b82800160010185558215611e4a579182015b82811115611e49578251825591602001919060010190611e2e565b5b509050611e579190611f42565b5090565b6040518061018001604052806000815260200160608152602001606081526020016060815260200160608152602001606081526020016060815260200160608152602001606081526020016060815260200160608152602001611ebc611f67565b81525090565b828054600181600116156101000203166002900490600052602060002090601f016020900481019282601f10611f0357805160ff1916838001178555611f31565b82800160010185558215611f31579182015b82811115611f30578251825591602001919060010190611f15565b5b509050611f3e9190611f42565b5090565b611f6491905b80821115611f60576000816000905550600101611f48565b5090565b90565b604051806040016040528060008152602001600081525090565b600082601f830112611f9257600080fd5b8135611fa5611fa08261279a565b61276d565b91508082526020830160208301858383011115611fc157600080fd5b611fcc838284612812565b50505092915050565b600081359050611fe481612865565b92915050565b60008060408385031215611ffd57600080fd5b600083013567ffffffffffffffff81111561201757600080fd5b61202385828601611f81565b925050602083013567ffffffffffffffff81111561204057600080fd5b61204c85828601611f81565b9150509250929050565b6000806000806000806000806000806101408b8d03121561207657600080fd5b60008b013567ffffffffffffffff81111561209057600080fd5b61209c8d828e01611f81565b9a505060208b013567ffffffffffffffff8111156120b957600080fd5b6120c58d828e01611f81565b99505060408b013567ffffffffffffffff8111156120e257600080fd5b6120ee8d828e01611f81565b98505060608b013567ffffffffffffffff81111561210b57600080fd5b6121178d828e01611f81565b97505060808b013567ffffffffffffffff81111561213457600080fd5b6121408d828e01611f81565b96505060a08b013567ffffffffffffffff81111561215d57600080fd5b6121698d828e01611f81565b95505060c08b013567ffffffffffffffff81111561218657600080fd5b6121928d828e01611f81565b94505060e08b013567ffffffffffffffff8111156121af57600080fd5b6121bb8d828e01611f81565b9350506101008b013567ffffffffffffffff8111156121d957600080fd5b6121e58d828e01611f81565b9250506101208b013567ffffffffffffffff81111561220357600080fd5b61220f8d828e01611f81565b9150509295989b9194979a5092959850565b60006020828403121561223357600080fd5b600061224184828501611fd5565b91505092915050565b60008060008060008060c0878903121561226357600080fd5b600061227189828a01611fd5565b965050602087013567ffffffffffffffff81111561228e57600080fd5b61229a89828a01611f81565b955050604087013567ffffffffffffffff8111156122b757600080fd5b6122c389828a01611f81565b945050606087013567ffffffffffffffff8111156122e057600080fd5b6122ec89828a01611f81565b935050608087013567ffffffffffffffff81111561230957600080fd5b61231589828a01611f81565b92505060a087013567ffffffffffffffff81111561233257600080fd5b61233e89828a01611f81565b9150509295509295509295565b6000806040838503121561235e57600080fd5b600061236c85828601611fd5565b925050602061237d85828601611fd5565b9150509250929050565b612390816127fe565b82525050565b60006123a1826127d1565b6123ab81856127ed565b93506123bb818560208601612821565b6123c481612854565b840191505092915050565b60006123da826127c6565b6123e481856127dc565b93506123f4818560208601612821565b6123fd81612854565b840191505092915050565b6000612413826127c6565b61241d81856127ed565b935061242d818560208601612821565b61243681612854565b840191505092915050565b6040820160008201516124576000850182612387565b50602082015161246a6020850182612387565b50505050565b6040820160008201516124866000850182612387565b5060208201516124996020850182612387565b50505050565b60006101a0830160008301516124b860008601826125e2565b50602083015184820360208601526124d082826123cf565b915050604083015184820360408601526124ea82826123cf565b9150506060830151848203606086015261250482826123cf565b9150506080830151848203608086015261251e82826123cf565b91505060a083015184820360a086015261253882826123cf565b91505060c083015184820360c086015261255282826123cf565b91505060e083015184820360e086015261256c82826123cf565b91505061010083015184820361010086015261258882826123cf565b9150506101208301518482036101208601526125a482826123cf565b9150506101408301518482036101408601526125c082826123cf565b9150506101608301516125d7610160860182612441565b508091505092915050565b6125eb81612808565b82525050565b6125fa81612808565b82525050565b6000604082019050818103600083015261261a8185612396565b905061262960208301846125f1565b9392505050565b6000602082019050818103600083015261264a818461249f565b905092915050565b600060208201905061266760008301846125f1565b92915050565b60006101a082019050612683600083018f6125f1565b8181036020830152612695818e612408565b905081810360408301526126a9818d612408565b905081810360608301526126bd818c612408565b905081810360808301526126d1818b612408565b905081810360a08301526126e5818a612408565b905081810360c08301526126f98189612408565b905081810360e083015261270d8188612408565b90508181036101008301526127228187612408565b90508181036101208301526127378186612408565b905081810361014083015261274c8185612408565b905061275c610160830184612470565b9d9c50505050505050505050505050565b6000604051905081810181811067ffffffffffffffff8211171561279057600080fd5b8060405250919050565b600067ffffffffffffffff8211156127b157600080fd5b601f19601f8301169050602081019050919050565b600081519050919050565b600081519050919050565b600082825260208201905092915050565b600082825260208201905092915050565b6000819050919050565b6000819050919050565b82818337600083830152505050565b60005b8381101561283f578082015181840152602081019050612824565b8381111561284e576000848401525b50505050565b6000601f19601f8301169050919050565b61286e81612808565b811461287957600080fd5b5056fea365627a7a7231582092390895c537bce5cbadaeafd1d2691106116308df4e23725b0761f534c128686c6578706572696d656e74616cf564736f6c63430005100040506f6c6a6f707269767265646e696b20736120323020676f64696e612069736b75737476612e61303136326562303161363738346665646636666532333137666463356437383762336138393830613630366266653961343839376361343930626262626231333730643131306134636137396133613935353263303637326436613234373865636639643732613239643537613938353734313863666362633436373231326339626463353265383734376531346434306565383430623535393761386133633537353536363265313739643634303636326461363663626435376336303839613839643036323931613339623435623465386436623166343366336435323766396636663138306230343663653263323061613033643431626464306434326263383239393033333530663639366539613530363361343336303164633666643764656533656533386337633637646262663036643868747470733a2f2f697066732e696f2f697066732f516d5943796b47755a4d4d6248636a7a4a59594a454d59575272487235673967666b5571546b686b614334676e6d",
  "source": "pragma solidity >=0.4.22 <0.9.0;\npragma experimental ABIEncoderV2;\ncontract Users {\n\n    struct User{\n        uint id;\n        string name;\n        string surname;\n        string privateKey;\n        string metamaskAddress;\n        string photoUrl;\n        string desc;\n        string email;\n        string phoneNumber;\n        string homeAddress;\n        string birthday;\n        Reps reputation;\n    }\n    struct Reps{\n        int reputationPositive;\n        int reputationNegative;\n    }\n\n    uint public usersCount = 0;\n    mapping (uint => User) public users;\n    event UserCreated(string user, uint userNumber);\n    constructor() public{\n        users[0] = User(52, \"Jovan\", \"Petrovic\", \"bd57c6089a89d06291a39b45b4e8d6b1f43f3d527f9f6f180b046ce2c20aa03d\", \"29d57a9857418cfcbc467212c9bdc52e8747e14d\", \"https://ipfs.io/ipfs/QmYCykGuZMMbHcjzJYYJEMYWRrHr5g9gfkUqTkhkaC4gnm\", \"Poljoprivrednik sa 20 godina iskustva.\", \"jpetrovic@gmail.com\", \"0623496521\", \"Novi sad\", \"2020-3-3\", Reps(0, 0));\n        users[1] = User(53, \"Dusan\", \"Jakovljevic\", \"a0162eb01a6784fedf6fe2317fdc5d787b3a8980a606bfe9a4897ca490bbbbb1\", \"370d110a4ca79a3a9552c0672d6a2478ecf9d72a\", \"https://ipfs.io/ipfs/QmYCykGuZMMbHcjzJYYJEMYWRrHr5g9gfkUqTkhkaC4gnm\", \"Poljoprivrednik sa 20 godina iskustva.\", \"djakovljevic@gmail.com\", \"0641369954\", \"Kragujevac\", \"2020-3-3\", Reps(0, 0));\n        users[2] = User(54, \"Stevan\", \"Mitrovic\", \"41bdd0d42bc829903350f696e9a5063a43601dc6fd7dee3ee38c7c67dbbf06d8\", \"40ee840b5597a8a3c5755662e179d640662da66c\", \"https://ipfs.io/ipfs/QmYCykGuZMMbHcjzJYYJEMYWRrHr5g9gfkUqTkhkaC4gnm\", \"Poljoprivrednik sa 20 godina iskustva.\", \"smitrovic@gmail.com\", \"066321459\", \"Beograd\", \"2020-3-3\", Reps(0, 0));\n\n        usersCount = 3;\n    }\n\n    function createUser(string memory _name,\n        string memory _surname,\n        string memory _privateKey,\n        string memory _metamaskAddress,\n        string memory _photoUrl,\n        string memory _desc,\n        string memory _email,\n        string memory _phoneNumber,\n        string memory _homeAddress,\n        string memory _birthday) public returns (uint) {\n\n        users[usersCount] = User(users[usersCount - 1].id + 1, _name, _surname, _privateKey, _metamaskAddress, _photoUrl, _desc, _email, _phoneNumber, _homeAddress, _birthday, Reps(0, 0));\n        usersCount++;\n        emit UserCreated(_name, usersCount - 1);\n        return users[usersCount-1].id;\n\n    }\n    function checkForUser(string memory _metamaskAddress, string memory _privateKey) public returns (uint bl){\n\n        for (uint i=0; i< usersCount; i++) {\n            if (hashCompareWithLengthCheck(users[i].metamaskAddress, _metamaskAddress) && hashCompareWithLengthCheck(users[i].privateKey,  _privateKey))\n                return users[i].id;\n        }\n        return usersCount;\n\n    }\n\n    function hashCompareWithLengthCheck(string memory a, string memory b) internal returns (bool) {\n        if(bytes(a).length != bytes(b).length) {\n            return false;\n        } else {\n            return keccak256(bytes(a)) == keccak256(bytes(b));\n        }\n    }\n\n    function getUser(string memory privateKey, string memory accountAddress) public returns (User memory){\n        User memory user;\n        for (uint i= 0; i < usersCount; i++) {\n            if (hashCompareWithLengthCheck(users[i].privateKey, privateKey) && hashCompareWithLengthCheck(users[i].metamaskAddress, accountAddress)){\n                return users[i];\n            }\n        }\n        return user;\n    }\n    function getUserById(uint id) public returns (User memory){\n        User memory user;\n        for (uint i= 0; i < usersCount; i++) {\n            if (users[i].id == id){\n                user = users[i];\n                break;\n            }\n        }\n        return user;\n    }\n    function editUser(uint _id,\n        string memory _photoUrl,\n        string memory _desc,\n        string memory _email,\n        string memory _phoneNumber,\n        string memory _homeAddress) public {\n        for (uint i= 0; i < usersCount; i++) {\n            if (users[i].id == _id){\n                users[i].photoUrl = _photoUrl;\n                users[i].desc = _desc;\n                users[i].email = _email;\n                users[i].phoneNumber = _phoneNumber;\n                users[i].homeAddress = _homeAddress;\n                break;\n            }\n        }\n    }\n    function vote(uint _id, uint _vote) public{\n        for (uint i= 0; i < usersCount; i++) {\n            if (users[i].id == _id){\n                if (_vote == 1)\n                    users[i].reputation.reputationPositive++;\n                else\n                    users[i].reputation.reputationNegative++;\n                break;\n            }\n        }\n    }\n\n}\n",
  "sourcePath": "/home/jovan/Catalyst/src/frontend_mobile/contracts/Users.sol",
  "compiler": {
    "name": "solc",
    "version": "0.5.16+commit.9c3226ce.Emscripten.clang"
  },
  "schemaVersion": "3.3.4",
  "updatedAt": "2021-06-05T11:19:15.198Z",
  "networkType": "ethereum",
  "devdoc": {
    "methods": {}
  },
  "userdoc": {
    "methods": {}
  }
}