{
  "contractName": "Users",
  "abi": [
    {
      "inputs": [],
      "payable": false,
      "stateMutability": "nonpayable",
      "type": "constructor"
    },
    {
      "anonymous": false,
      "inputs": [
        {
          "indexed": false,
          "internalType": "string",
          "name": "user",
          "type": "string"
        },
        {
          "indexed": false,
          "internalType": "uint256",
          "name": "userNumber",
          "type": "uint256"
        }
      ],
      "name": "UserCreated",
      "type": "event"
    },
    {
      "constant": true,
      "inputs": [
        {
          "internalType": "uint256",
          "name": "",
          "type": "uint256"
        }
      ],
      "name": "users",
      "outputs": [
        {
          "internalType": "uint256",
          "name": "id",
          "type": "uint256"
        },
        {
          "internalType": "string",
          "name": "name",
          "type": "string"
        },
        {
          "internalType": "string",
          "name": "surname",
          "type": "string"
        },
        {
          "internalType": "string",
          "name": "privateKey",
          "type": "string"
        },
        {
          "internalType": "string",
          "name": "metamaskAddress",
          "type": "string"
        },
        {
          "internalType": "string",
          "name": "photoUrl",
          "type": "string"
        },
        {
          "internalType": "string",
          "name": "desc",
          "type": "string"
        },
        {
          "internalType": "string",
          "name": "email",
          "type": "string"
        },
        {
          "internalType": "string",
          "name": "phoneNumber",
          "type": "string"
        },
        {
          "internalType": "string",
          "name": "homeAddress",
          "type": "string"
        },
        {
          "internalType": "string",
          "name": "birthday",
          "type": "string"
        },
        {
          "internalType": "uint256",
          "name": "uType",
          "type": "uint256"
        }
      ],
      "payable": false,
      "stateMutability": "view",
      "type": "function"
    },
    {
      "constant": true,
      "inputs": [],
      "name": "usersCount",
      "outputs": [
        {
          "internalType": "uint256",
          "name": "",
          "type": "uint256"
        }
      ],
      "payable": false,
      "stateMutability": "view",
      "type": "function"
    },
    {
      "constant": false,
      "inputs": [
        {
          "internalType": "string",
          "name": "_name",
          "type": "string"
        },
        {
          "internalType": "string",
          "name": "_surname",
          "type": "string"
        },
        {
          "internalType": "string",
          "name": "_privateKey",
          "type": "string"
        },
        {
          "internalType": "string",
          "name": "_metamaskAddress",
          "type": "string"
        },
        {
          "internalType": "string",
          "name": "_photoUrl",
          "type": "string"
        },
        {
          "internalType": "string",
          "name": "_desc",
          "type": "string"
        },
        {
          "internalType": "string",
          "name": "_email",
          "type": "string"
        },
        {
          "internalType": "string",
          "name": "_phoneNumber",
          "type": "string"
        },
        {
          "internalType": "string",
          "name": "_homeAddress",
          "type": "string"
        },
        {
          "internalType": "string",
          "name": "_birthday",
          "type": "string"
        },
        {
          "internalType": "uint256",
          "name": "_uType",
          "type": "uint256"
        }
      ],
      "name": "createUser",
      "outputs": [
        {
          "internalType": "uint256",
          "name": "",
          "type": "uint256"
        }
      ],
      "payable": false,
      "stateMutability": "nonpayable",
      "type": "function"
    },
    {
      "constant": false,
      "inputs": [
        {
          "internalType": "string",
          "name": "_metamaskAddress",
          "type": "string"
        },
        {
          "internalType": "string",
          "name": "_privateKey",
          "type": "string"
        }
      ],
      "name": "checkForUser",
      "outputs": [
        {
          "internalType": "bool",
          "name": "bl",
          "type": "bool"
        }
      ],
      "payable": false,
      "stateMutability": "nonpayable",
      "type": "function"
    },
    {
      "constant": false,
      "inputs": [
        {
          "internalType": "string",
          "name": "privateKey",
          "type": "string"
        },
        {
          "internalType": "string",
          "name": "accountAddress",
          "type": "string"
        }
      ],
      "name": "getUser",
      "outputs": [
        {
          "components": [
            {
              "internalType": "uint256",
              "name": "id",
              "type": "uint256"
            },
            {
              "internalType": "string",
              "name": "name",
              "type": "string"
            },
            {
              "internalType": "string",
              "name": "surname",
              "type": "string"
            },
            {
              "internalType": "string",
              "name": "privateKey",
              "type": "string"
            },
            {
              "internalType": "string",
              "name": "metamaskAddress",
              "type": "string"
            },
            {
              "internalType": "string",
              "name": "photoUrl",
              "type": "string"
            },
            {
              "internalType": "string",
              "name": "desc",
              "type": "string"
            },
            {
              "internalType": "string",
              "name": "email",
              "type": "string"
            },
            {
              "internalType": "string",
              "name": "phoneNumber",
              "type": "string"
            },
            {
              "internalType": "string",
              "name": "homeAddress",
              "type": "string"
            },
            {
              "internalType": "string",
              "name": "birthday",
              "type": "string"
            },
            {
              "internalType": "uint256",
              "name": "uType",
              "type": "uint256"
            }
          ],
          "internalType": "struct Users.User",
          "name": "",
          "type": "tuple"
        }
      ],
      "payable": false,
      "stateMutability": "nonpayable",
      "type": "function"
    }
  ],
  "bytecode": "0x6080604052600080553480156200001557600080fd5b50604051806101800160405280600081526020016040518060400160405280600581526020017f506574617200000000000000000000000000000000000000000000000000000081525081526020016040518060400160405280600881526020017f506574726f76696300000000000000000000000000000000000000000000000081525081526020016040518060400160405280600381526020017f6b6579000000000000000000000000000000000000000000000000000000000081525081526020016040518060400160405280600781526020017f616464726573730000000000000000000000000000000000000000000000000081525081526020016040518060400160405280600581526020017f666177666100000000000000000000000000000000000000000000000000000081525081526020016040518060400160405280601181526020017f6f7069732070726f697a766f646a61636100000000000000000000000000000081525081526020016040518060400160405280600f81526020017f656d61696c40676d61696c2e636f6d000000000000000000000000000000000081525081526020016040518060400160405280600a81526020017f313335313335313335310000000000000000000000000000000000000000000081525081526020016040518060400160405280600881526020017f4e6f76692073616400000000000000000000000000000000000000000000000081525081526020016040518060400160405280600881526020017f323032302d332d330000000000000000000000000000000000000000000000008152508152602001600181525060016000808152602001908152602001600020600082015181600001556020820151816001019080519060200190620002b7929190620007b9565b506040820151816002019080519060200190620002d6929190620007b9565b506060820151816003019080519060200190620002f5929190620007b9565b50608082015181600401908051906020019062000314929190620007b9565b5060a082015181600501908051906020019062000333929190620007b9565b5060c082015181600601908051906020019062000352929190620007b9565b5060e082015181600701908051906020019062000371929190620007b9565b5061010082015181600801908051906020019062000391929190620007b9565b50610120820151816009019080519060200190620003b1929190620007b9565b5061014082015181600a019080519060200190620003d1929190620007b9565b5061016082015181600b0155905050604051806101800160405280600181526020016040518060400160405280600481526020017f4c756b610000000000000000000000000000000000000000000000000000000081525081526020016040518060400160405280600481526020017f4c616c610000000000000000000000000000000000000000000000000000000081525081526020016040518060400160405280600e81526020017f667734746733773467337734673300000000000000000000000000000000000081525081526020016040518060400160405280600d81526020017f656766736165726773726567730000000000000000000000000000000000000081525081526020016040518060400160405280600581526020017f666177666100000000000000000000000000000000000000000000000000000081525081526020016040518060400160405280601181526020017f6f7069732070726f697a766f646a61636100000000000000000000000000000081525081526020016040518060400160405280600f81526020017f656d61696c40676d61696c2e636f6d000000000000000000000000000000000081525081526020016040518060400160405280600a81526020017f313335313335313335310000000000000000000000000000000000000000000081525081526020016040518060400160405280600881526020017f4e6f76692073616400000000000000000000000000000000000000000000000081525081526020016040518060400160405280600881526020017f323032302d332d3300000000000000000000000000000000000000000000000081525081526020016001815250600160006001815260200190815260200160002060008201518160000155602082015181600101908051906020019062000682929190620007b9565b506040820151816002019080519060200190620006a1929190620007b9565b506060820151816003019080519060200190620006c0929190620007b9565b506080820151816004019080519060200190620006df929190620007b9565b5060a0820151816005019080519060200190620006fe929190620007b9565b5060c08201518160060190805190602001906200071d929190620007b9565b5060e08201518160070190805190602001906200073c929190620007b9565b506101008201518160080190805190602001906200075c929190620007b9565b506101208201518160090190805190602001906200077c929190620007b9565b5061014082015181600a0190805190602001906200079c929190620007b9565b5061016082015181600b0155905050600260008190555062000868565b828054600181600116156101000203166002900490600052602060002090601f016020900481019282601f10620007fc57805160ff19168380011785556200082d565b828001600101855582156200082d579182015b828111156200082c5782518255916020019190600101906200080f565b5b5090506200083c919062000840565b5090565b6200086591905b808211156200086157600081600090555060010162000847565b5090565b90565b611b3580620008786000396000f3fe608060405234801561001057600080fd5b50600436106100575760003560e01c80632c4141c21461005c578063365b98b21461008c5780636ba13a82146100c757806383e6858f146100e557806388dce9e714610115575b600080fd5b610076600480360361007191908101906113c9565b610145565b6040516100839190611859565b60405180910390f35b6100a660048036036100a19190810190611615565b6102f7565b6040516100be9c9b9a999897969594939291906118e1565b60405180910390f35b6100cf610947565b6040516100dc91906118c6565b60405180910390f35b6100ff60048036036100fa91908101906113c9565b61094d565b60405161010c91906118a4565b60405180910390f35b61012f600480360361012a9190810190611435565b611022565b60405161013c91906118c6565b60405180910390f35b600080600090505b6000548110156102eb5761020f600160008381526020019081526020016000206004018054600181600116156101000203166002900480601f0160208091040260200160405190810160405280929190818152602001828054600181600116156101000203166002900480156102045780601f106101d957610100808354040283529160200191610204565b820191906000526020600020905b8154815290600101906020018083116101e757829003601f168201915b50505050508561122c565b80156102cf57506102ce600160008381526020019081526020016000206003018054600181600116156101000203166002900480601f0160208091040260200160405190810160405280929190818152602001828054600181600116156101000203166002900480156102c35780601f10610298576101008083540402835291602001916102c3565b820191906000526020600020905b8154815290600101906020018083116102a657829003601f168201915b50505050508461122c565b5b156102de5760019150506102f1565b808060010191505061014d565b50600090505b92915050565b6001602052806000526040600020600091509050806000015490806001018054600181600116156101000203166002900480601f0160208091040260200160405190810160405280929190818152602001828054600181600116156101000203166002900480156103a95780601f1061037e576101008083540402835291602001916103a9565b820191906000526020600020905b81548152906001019060200180831161038c57829003601f168201915b505050505090806002018054600181600116156101000203166002900480601f0160208091040260200160405190810160405280929190818152602001828054600181600116156101000203166002900480156104475780601f1061041c57610100808354040283529160200191610447565b820191906000526020600020905b81548152906001019060200180831161042a57829003601f168201915b505050505090806003018054600181600116156101000203166002900480601f0160208091040260200160405190810160405280929190818152602001828054600181600116156101000203166002900480156104e55780601f106104ba576101008083540402835291602001916104e5565b820191906000526020600020905b8154815290600101906020018083116104c857829003601f168201915b505050505090806004018054600181600116156101000203166002900480601f0160208091040260200160405190810160405280929190818152602001828054600181600116156101000203166002900480156105835780601f1061055857610100808354040283529160200191610583565b820191906000526020600020905b81548152906001019060200180831161056657829003601f168201915b505050505090806005018054600181600116156101000203166002900480601f0160208091040260200160405190810160405280929190818152602001828054600181600116156101000203166002900480156106215780601f106105f657610100808354040283529160200191610621565b820191906000526020600020905b81548152906001019060200180831161060457829003601f168201915b505050505090806006018054600181600116156101000203166002900480601f0160208091040260200160405190810160405280929190818152602001828054600181600116156101000203166002900480156106bf5780601f10610694576101008083540402835291602001916106bf565b820191906000526020600020905b8154815290600101906020018083116106a257829003601f168201915b505050505090806007018054600181600116156101000203166002900480601f01602080910402602001604051908101604052809291908181526020018280546001816001161561010002031660029004801561075d5780601f106107325761010080835404028352916020019161075d565b820191906000526020600020905b81548152906001019060200180831161074057829003601f168201915b505050505090806008018054600181600116156101000203166002900480601f0160208091040260200160405190810160405280929190818152602001828054600181600116156101000203166002900480156107fb5780601f106107d0576101008083540402835291602001916107fb565b820191906000526020600020905b8154815290600101906020018083116107de57829003601f168201915b505050505090806009018054600181600116156101000203166002900480601f0160208091040260200160405190810160405280929190818152602001828054600181600116156101000203166002900480156108995780601f1061086e57610100808354040283529160200191610899565b820191906000526020600020905b81548152906001019060200180831161087c57829003601f168201915b50505050509080600a018054600181600116156101000203166002900480601f0160208091040260200160405190810160405280929190818152602001828054600181600116156101000203166002900480156109375780601f1061090c57610100808354040283529160200191610937565b820191906000526020600020905b81548152906001019060200180831161091a57829003601f168201915b50505050509080600b015490508c565b60005481565b61095561125a565b61095d61125a565b60008090505b600054811015611017576109778585610145565b1561100a57600160008281526020019081526020016000206040518061018001604052908160008201548152602001600182018054600181600116156101000203166002900480601f016020809104026020016040519081016040528092919081815260200182805460018160011615610100020316600290048015610a3e5780601f10610a1357610100808354040283529160200191610a3e565b820191906000526020600020905b815481529060010190602001808311610a2157829003601f168201915b50505050508152602001600282018054600181600116156101000203166002900480601f016020809104026020016040519081016040528092919081815260200182805460018160011615610100020316600290048015610ae05780601f10610ab557610100808354040283529160200191610ae0565b820191906000526020600020905b815481529060010190602001808311610ac357829003601f168201915b50505050508152602001600382018054600181600116156101000203166002900480601f016020809104026020016040519081016040528092919081815260200182805460018160011615610100020316600290048015610b825780601f10610b5757610100808354040283529160200191610b82565b820191906000526020600020905b815481529060010190602001808311610b6557829003601f168201915b50505050508152602001600482018054600181600116156101000203166002900480601f016020809104026020016040519081016040528092919081815260200182805460018160011615610100020316600290048015610c245780601f10610bf957610100808354040283529160200191610c24565b820191906000526020600020905b815481529060010190602001808311610c0757829003601f168201915b50505050508152602001600582018054600181600116156101000203166002900480601f016020809104026020016040519081016040528092919081815260200182805460018160011615610100020316600290048015610cc65780601f10610c9b57610100808354040283529160200191610cc6565b820191906000526020600020905b815481529060010190602001808311610ca957829003601f168201915b50505050508152602001600682018054600181600116156101000203166002900480601f016020809104026020016040519081016040528092919081815260200182805460018160011615610100020316600290048015610d685780601f10610d3d57610100808354040283529160200191610d68565b820191906000526020600020905b815481529060010190602001808311610d4b57829003601f168201915b50505050508152602001600782018054600181600116156101000203166002900480601f016020809104026020016040519081016040528092919081815260200182805460018160011615610100020316600290048015610e0a5780601f10610ddf57610100808354040283529160200191610e0a565b820191906000526020600020905b815481529060010190602001808311610ded57829003601f168201915b50505050508152602001600882018054600181600116156101000203166002900480601f016020809104026020016040519081016040528092919081815260200182805460018160011615610100020316600290048015610eac5780601f10610e8157610100808354040283529160200191610eac565b820191906000526020600020905b815481529060010190602001808311610e8f57829003601f168201915b50505050508152602001600982018054600181600116156101000203166002900480601f016020809104026020016040519081016040528092919081815260200182805460018160011615610100020316600290048015610f4e5780601f10610f2357610100808354040283529160200191610f4e565b820191906000526020600020905b815481529060010190602001808311610f3157829003601f168201915b50505050508152602001600a82018054600181600116156101000203166002900480601f016020809104026020016040519081016040528092919081815260200182805460018160011615610100020316600290048015610ff05780601f10610fc557610100808354040283529160200191610ff0565b820191906000526020600020905b815481529060010190602001808311610fd357829003601f168201915b50505050508152602001600b820154815250509150611017565b8080600101915050610963565b508091505092915050565b600060405180610180016040528060005481526020018d81526020018c81526020018b81526020018a815260200189815260200188815260200187815260200186815260200185815260200184815260200183815250600160008060008154809291906001019190505581526020019081526020016000206000820151816000015560208201518160010190805190602001906110c09291906112bb565b5060408201518160020190805190602001906110dd9291906112bb565b5060608201518160030190805190602001906110fa9291906112bb565b5060808201518160040190805190602001906111179291906112bb565b5060a08201518160050190805190602001906111349291906112bb565b5060c08201518160060190805190602001906111519291906112bb565b5060e082015181600701908051906020019061116e9291906112bb565b5061010082015181600801908051906020019061118c9291906112bb565b506101208201518160090190805190602001906111aa9291906112bb565b5061014082015181600a0190805190602001906111c89291906112bb565b5061016082015181600b01559050507f7fa2200db6d5ae99b26bc877cbae73fdb888db23bd9bd4b4d1ea273013186bb78c60016000540360405161120d929190611874565b60405180910390a160016000540390509b9a5050505050505050505050565b600081518351146112405760009050611254565b818051906020012083805190602001201490505b92915050565b6040518061018001604052806000815260200160608152602001606081526020016060815260200160608152602001606081526020016060815260200160608152602001606081526020016060815260200160608152602001600081525090565b828054600181600116156101000203166002900490600052602060002090601f016020900481019282601f106112fc57805160ff191683800117855561132a565b8280016001018555821561132a579182015b8281111561132957825182559160200191906001019061130e565b5b509050611337919061133b565b5090565b61135d91905b80821115611359576000816000905550600101611341565b5090565b90565b600082601f83011261137157600080fd5b813561138461137f82611a0e565b6119e1565b915080825260208301602083018583830111156113a057600080fd5b6113ab838284611a88565b50505092915050565b6000813590506113c381611adb565b92915050565b600080604083850312156113dc57600080fd5b600083013567ffffffffffffffff8111156113f657600080fd5b61140285828601611360565b925050602083013567ffffffffffffffff81111561141f57600080fd5b61142b85828601611360565b9150509250929050565b60008060008060008060008060008060006101608c8e03121561145757600080fd5b60008c013567ffffffffffffffff81111561147157600080fd5b61147d8e828f01611360565b9b505060208c013567ffffffffffffffff81111561149a57600080fd5b6114a68e828f01611360565b9a505060408c013567ffffffffffffffff8111156114c357600080fd5b6114cf8e828f01611360565b99505060608c013567ffffffffffffffff8111156114ec57600080fd5b6114f88e828f01611360565b98505060808c013567ffffffffffffffff81111561151557600080fd5b6115218e828f01611360565b97505060a08c013567ffffffffffffffff81111561153e57600080fd5b61154a8e828f01611360565b96505060c08c013567ffffffffffffffff81111561156757600080fd5b6115738e828f01611360565b95505060e08c013567ffffffffffffffff81111561159057600080fd5b61159c8e828f01611360565b9450506101008c013567ffffffffffffffff8111156115ba57600080fd5b6115c68e828f01611360565b9350506101208c013567ffffffffffffffff8111156115e457600080fd5b6115f08e828f01611360565b9250506101406116028e828f016113b4565b9150509295989b509295989b9093969950565b60006020828403121561162757600080fd5b6000611635848285016113b4565b91505092915050565b61164781611a72565b82525050565b600061165882611a45565b6116628185611a61565b9350611672818560208601611a97565b61167b81611aca565b840191505092915050565b600061169182611a3a565b61169b8185611a50565b93506116ab818560208601611a97565b6116b481611aca565b840191505092915050565b60006116ca82611a3a565b6116d48185611a61565b93506116e4818560208601611a97565b6116ed81611aca565b840191505092915050565b600061018083016000830151611711600086018261183b565b50602083015184820360208601526117298282611686565b915050604083015184820360408601526117438282611686565b9150506060830151848203606086015261175d8282611686565b915050608083015184820360808601526117778282611686565b91505060a083015184820360a08601526117918282611686565b91505060c083015184820360c08601526117ab8282611686565b91505060e083015184820360e08601526117c58282611686565b9150506101008301518482036101008601526117e18282611686565b9150506101208301518482036101208601526117fd8282611686565b9150506101408301518482036101408601526118198282611686565b91505061016083015161183061016086018261183b565b508091505092915050565b61184481611a7e565b82525050565b61185381611a7e565b82525050565b600060208201905061186e600083018461163e565b92915050565b6000604082019050818103600083015261188e818561164d565b905061189d602083018461184a565b9392505050565b600060208201905081810360008301526118be81846116f8565b905092915050565b60006020820190506118db600083018461184a565b92915050565b6000610180820190506118f7600083018f61184a565b8181036020830152611909818e6116bf565b9050818103604083015261191d818d6116bf565b90508181036060830152611931818c6116bf565b90508181036080830152611945818b6116bf565b905081810360a0830152611959818a6116bf565b905081810360c083015261196d81896116bf565b905081810360e083015261198181886116bf565b905081810361010083015261199681876116bf565b90508181036101208301526119ab81866116bf565b90508181036101408301526119c081856116bf565b90506119d061016083018461184a565b9d9c50505050505050505050505050565b6000604051905081810181811067ffffffffffffffff82111715611a0457600080fd5b8060405250919050565b600067ffffffffffffffff821115611a2557600080fd5b601f19601f8301169050602081019050919050565b600081519050919050565b600081519050919050565b600082825260208201905092915050565b600082825260208201905092915050565b60008115159050919050565b6000819050919050565b82818337600083830152505050565b60005b83811015611ab5578082015181840152602081019050611a9a565b83811115611ac4576000848401525b50505050565b6000601f19601f8301169050919050565b611ae481611a7e565b8114611aef57600080fd5b5056fea365627a7a723158207a842b52a8d82a6e4e93b563512576e4122fee6a8b55115fe74d2083617f17e26c6578706572696d656e74616cf564736f6c63430005100040",
  "source": "pragma solidity >=0.4.22 <0.9.0;\r\npragma experimental ABIEncoderV2;\r\ncontract Users {\r\n\r\n    struct User{\r\n        uint id;\r\n        string name;\r\n        string surname;\r\n        string privateKey;\r\n        string metamaskAddress;\r\n        string photoUrl;\r\n        string desc;\r\n        string email;\r\n        string phoneNumber;\r\n        string homeAddress;\r\n        string birthday;\r\n        uint uType;\r\n    }\r\n    uint public usersCount = 0;\r\n    mapping (uint => User) public users;\r\n    event UserCreated(string user, uint userNumber);\r\n    constructor() public{\r\n\r\n        users[0] = User(0, \"Petar\", \"Petrovic\", \"key\", \"address\", \"fawfa\", \"opis proizvodjaca\", \"email@gmail.com\", \"1351351351\", \"Novi sad\", \"2020-3-3\", 1);\r\n        users[1] = User(1, \"Luka\", \"Lala\", \"fw4tg3w4g3w4g3\", \"egfsaergsregs\", \"fawfa\", \"opis proizvodjaca\", \"email@gmail.com\", \"1351351351\", \"Novi sad\", \"2020-3-3\", 1);\r\n        usersCount = 2;\r\n    }\r\n\r\n    function createUser(string memory _name,\r\n        string memory _surname,\r\n        string memory _privateKey,\r\n        string memory _metamaskAddress,\r\n        string memory _photoUrl,\r\n        string memory _desc,\r\n        string memory _email,\r\n        string memory _phoneNumber,\r\n        string memory _homeAddress,\r\n        string memory _birthday,\r\n        uint _uType) public returns (uint) {\r\n\r\n        users[usersCount++] = User(usersCount, _name, _surname, _privateKey, _metamaskAddress, _photoUrl, _desc, _email, _phoneNumber, _homeAddress, _birthday, _uType);\r\n        emit UserCreated(_name, usersCount - 1);\r\n        return usersCount-1;\r\n\r\n    }\r\n    function checkForUser(string memory _metamaskAddress, string memory _privateKey) public returns (bool bl){\r\n\r\n        for (uint i=0; i< usersCount; i++) {\r\n            if (hashCompareWithLengthCheck(users[i].metamaskAddress, _metamaskAddress) && hashCompareWithLengthCheck(users[i].privateKey,  _privateKey))\r\n                return true;\r\n        }\r\n        return false;\r\n\r\n    }\r\n\r\n    function hashCompareWithLengthCheck(string memory a, string memory b) internal returns (bool) {\r\n        if(bytes(a).length != bytes(b).length) {\r\n            return false;\r\n        } else {\r\n            return keccak256(bytes(a)) == keccak256(bytes(b));\r\n        }\r\n    }\r\n\r\n    function getUser(string memory privateKey, string memory accountAddress) public returns (User memory){\r\n        User memory user;\r\n        for (uint i= 0; i < usersCount; i++) {\r\n            if (checkForUser(privateKey, accountAddress)){\r\n                user = users[i];\r\n                break;\r\n            }\r\n        }\r\n        return user;\r\n    }\r\n\r\n}\r\n",
  "sourcePath": "C:/Users/Korisnik/Desktop/dev/Catalyst/src/frontend_mobile/contracts/Users.sol",
  "compiler": {
    "name": "solc",
    "version": "0.5.16+commit.9c3226ce.Emscripten.clang"
  },
  "schemaVersion": "3.3.4",
  "updatedAt": "2021-05-01T18:18:19.129Z",
  "networkType": "ethereum",
  "devdoc": {
    "methods": {}
  },
  "userdoc": {
    "methods": {}
  }
}