{
  "contractName": "Users",
  "abi": [
    {
      "inputs": [],
      "payable": false,
      "stateMutability": "nonpayable",
      "type": "constructor"
    },
    {
      "anonymous": false,
      "inputs": [
        {
          "indexed": false,
          "internalType": "string",
          "name": "user",
          "type": "string"
        },
        {
          "indexed": false,
          "internalType": "uint256",
          "name": "userNumber",
          "type": "uint256"
        }
      ],
      "name": "UserCreated",
      "type": "event"
    },
    {
      "constant": true,
      "inputs": [
        {
          "internalType": "uint256",
          "name": "",
          "type": "uint256"
        }
      ],
      "name": "users",
      "outputs": [
        {
          "internalType": "uint256",
          "name": "id",
          "type": "uint256"
        },
        {
          "internalType": "string",
          "name": "name",
          "type": "string"
        },
        {
          "internalType": "string",
          "name": "surname",
          "type": "string"
        },
        {
          "internalType": "string",
          "name": "privateKey",
          "type": "string"
        },
        {
          "internalType": "string",
          "name": "metamaskAddress",
          "type": "string"
        },
        {
          "internalType": "string",
          "name": "photoUrl",
          "type": "string"
        },
        {
          "internalType": "string",
          "name": "desc",
          "type": "string"
        },
        {
          "internalType": "string",
          "name": "email",
          "type": "string"
        },
        {
          "internalType": "string",
          "name": "phoneNumber",
          "type": "string"
        },
        {
          "internalType": "string",
          "name": "homeAddress",
          "type": "string"
        },
        {
          "internalType": "string",
          "name": "birthday",
          "type": "string"
        },
        {
          "internalType": "uint256",
          "name": "uType",
          "type": "uint256"
        }
      ],
      "payable": false,
      "stateMutability": "view",
      "type": "function"
    },
    {
      "constant": true,
      "inputs": [],
      "name": "usersCount",
      "outputs": [
        {
          "internalType": "uint256",
          "name": "",
          "type": "uint256"
        }
      ],
      "payable": false,
      "stateMutability": "view",
      "type": "function"
    },
    {
      "constant": false,
      "inputs": [
        {
          "internalType": "string",
          "name": "_name",
          "type": "string"
        },
        {
          "internalType": "string",
          "name": "_surname",
          "type": "string"
        },
        {
          "internalType": "string",
          "name": "_privateKey",
          "type": "string"
        },
        {
          "internalType": "string",
          "name": "_metamaskAddress",
          "type": "string"
        },
        {
          "internalType": "string",
          "name": "_photoUrl",
          "type": "string"
        },
        {
          "internalType": "string",
          "name": "_desc",
          "type": "string"
        },
        {
          "internalType": "string",
          "name": "_email",
          "type": "string"
        },
        {
          "internalType": "string",
          "name": "_phoneNumber",
          "type": "string"
        },
        {
          "internalType": "string",
          "name": "_homeAddress",
          "type": "string"
        },
        {
          "internalType": "string",
          "name": "_birthday",
          "type": "string"
        },
        {
          "internalType": "uint256",
          "name": "_uType",
          "type": "uint256"
        }
      ],
      "name": "createUser",
      "outputs": [
        {
          "internalType": "uint256",
          "name": "",
          "type": "uint256"
        }
      ],
      "payable": false,
      "stateMutability": "nonpayable",
      "type": "function"
    },
    {
      "constant": false,
      "inputs": [
        {
          "internalType": "string",
          "name": "_metamaskAddress",
          "type": "string"
        },
        {
          "internalType": "string",
          "name": "_privateKey",
          "type": "string"
        }
      ],
      "name": "checkForUser",
      "outputs": [
        {
          "internalType": "bool",
          "name": "bl",
          "type": "bool"
        }
      ],
      "payable": false,
      "stateMutability": "nonpayable",
      "type": "function"
    },
    {
      "constant": false,
      "inputs": [
        {
          "internalType": "string",
          "name": "privateKey",
          "type": "string"
        },
        {
          "internalType": "string",
          "name": "accountAddress",
          "type": "string"
        }
      ],
      "name": "getUser",
      "outputs": [
        {
          "components": [
            {
              "internalType": "uint256",
              "name": "id",
              "type": "uint256"
            },
            {
              "internalType": "string",
              "name": "name",
              "type": "string"
            },
            {
              "internalType": "string",
              "name": "surname",
              "type": "string"
            },
            {
              "internalType": "string",
              "name": "privateKey",
              "type": "string"
            },
            {
              "internalType": "string",
              "name": "metamaskAddress",
              "type": "string"
            },
            {
              "internalType": "string",
              "name": "photoUrl",
              "type": "string"
            },
            {
              "internalType": "string",
              "name": "desc",
              "type": "string"
            },
            {
              "internalType": "string",
              "name": "email",
              "type": "string"
            },
            {
              "internalType": "string",
              "name": "phoneNumber",
              "type": "string"
            },
            {
              "internalType": "string",
              "name": "homeAddress",
              "type": "string"
            },
            {
              "internalType": "string",
              "name": "birthday",
              "type": "string"
            },
            {
              "internalType": "uint256",
              "name": "uType",
              "type": "uint256"
            }
          ],
          "internalType": "struct Users.User",
          "name": "",
          "type": "tuple"
        }
      ],
      "payable": false,
      "stateMutability": "nonpayable",
      "type": "function"
    }
  ],
  "bytecode": "0x6080604052600080553480156200001557600080fd5b50604051806101800160405280600081526020016040518060400160405280600581526020017f506574617200000000000000000000000000000000000000000000000000000081525081526020016040518060400160405280600881526020017f506574726f76696300000000000000000000000000000000000000000000000081525081526020016040518060400160405280600381526020017f6b6579000000000000000000000000000000000000000000000000000000000081525081526020016040518060400160405280600781526020017f616464726573730000000000000000000000000000000000000000000000000081525081526020016040518060400160405280600581526020017f666177666100000000000000000000000000000000000000000000000000000081525081526020016040518060400160405280601181526020017f6f7069732070726f697a766f646a61636100000000000000000000000000000081525081526020016040518060400160405280600f81526020017f656d61696c40676d61696c2e636f6d000000000000000000000000000000000081525081526020016040518060400160405280600a81526020017f313335313335313335310000000000000000000000000000000000000000000081525081526020016040518060400160405280600881526020017f4e6f76692073616400000000000000000000000000000000000000000000000081525081526020016040518060400160405280600881526020017f323032302d332d330000000000000000000000000000000000000000000000008152508152602001600181525060016000808152602001908152602001600020600082015181600001556020820151816001019080519060200190620002b7929190620007b9565b506040820151816002019080519060200190620002d6929190620007b9565b506060820151816003019080519060200190620002f5929190620007b9565b50608082015181600401908051906020019062000314929190620007b9565b5060a082015181600501908051906020019062000333929190620007b9565b5060c082015181600601908051906020019062000352929190620007b9565b5060e082015181600701908051906020019062000371929190620007b9565b5061010082015181600801908051906020019062000391929190620007b9565b50610120820151816009019080519060200190620003b1929190620007b9565b5061014082015181600a019080519060200190620003d1929190620007b9565b5061016082015181600b0155905050604051806101800160405280600181526020016040518060400160405280600481526020017f4c756b610000000000000000000000000000000000000000000000000000000081525081526020016040518060400160405280600481526020017f4c616c610000000000000000000000000000000000000000000000000000000081525081526020016040518060400160405280600e81526020017f667734746733773467337734673300000000000000000000000000000000000081525081526020016040518060400160405280600d81526020017f656766736165726773726567730000000000000000000000000000000000000081525081526020016040518060400160405280600581526020017f666177666100000000000000000000000000000000000000000000000000000081525081526020016040518060400160405280601181526020017f6f7069732070726f697a766f646a61636100000000000000000000000000000081525081526020016040518060400160405280600f81526020017f656d61696c40676d61696c2e636f6d000000000000000000000000000000000081525081526020016040518060400160405280600a81526020017f313335313335313335310000000000000000000000000000000000000000000081525081526020016040518060400160405280600881526020017f4e6f76692073616400000000000000000000000000000000000000000000000081525081526020016040518060400160405280600881526020017f323032302d332d3300000000000000000000000000000000000000000000000081525081526020016001815250600160006001815260200190815260200160002060008201518160000155602082015181600101908051906020019062000682929190620007b9565b506040820151816002019080519060200190620006a1929190620007b9565b506060820151816003019080519060200190620006c0929190620007b9565b506080820151816004019080519060200190620006df929190620007b9565b5060a0820151816005019080519060200190620006fe929190620007b9565b5060c08201518160060190805190602001906200071d929190620007b9565b5060e08201518160070190805190602001906200073c929190620007b9565b506101008201518160080190805190602001906200075c929190620007b9565b506101208201518160090190805190602001906200077c929190620007b9565b5061014082015181600a0190805190602001906200079c929190620007b9565b5061016082015181600b0155905050600260008190555062000868565b828054600181600116156101000203166002900490600052602060002090601f016020900481019282601f10620007fc57805160ff19168380011785556200082d565b828001600101855582156200082d579182015b828111156200082c5782518255916020019190600101906200080f565b5b5090506200083c919062000840565b5090565b6200086591905b808211156200086157600081600090555060010162000847565b5090565b90565b611ca680620008786000396000f3fe608060405234801561001057600080fd5b50600436106100575760003560e01c80632c4141c21461005c578063365b98b21461008c5780636ba13a82146100c757806383e6858f146100e557806388dce9e714610115575b600080fd5b6100766004803603610071919081019061153a565b610145565b60405161008391906119ca565b60405180910390f35b6100a660048036036100a19190810190611786565b6102f7565b6040516100be9c9b9a99989796959493929190611a52565b60405180910390f35b6100cf610947565b6040516100dc9190611a37565b60405180910390f35b6100ff60048036036100fa919081019061153a565b61094d565b60405161010c9190611a15565b60405180910390f35b61012f600480360361012a91908101906115a6565b611193565b60405161013c9190611a37565b60405180910390f35b600080600090505b6000548110156102eb5761020f600160008381526020019081526020016000206004018054600181600116156101000203166002900480601f0160208091040260200160405190810160405280929190818152602001828054600181600116156101000203166002900480156102045780601f106101d957610100808354040283529160200191610204565b820191906000526020600020905b8154815290600101906020018083116101e757829003601f168201915b50505050508561139d565b80156102cf57506102ce600160008381526020019081526020016000206003018054600181600116156101000203166002900480601f0160208091040260200160405190810160405280929190818152602001828054600181600116156101000203166002900480156102c35780601f10610298576101008083540402835291602001916102c3565b820191906000526020600020905b8154815290600101906020018083116102a657829003601f168201915b50505050508461139d565b5b156102de5760019150506102f1565b808060010191505061014d565b50600090505b92915050565b6001602052806000526040600020600091509050806000015490806001018054600181600116156101000203166002900480601f0160208091040260200160405190810160405280929190818152602001828054600181600116156101000203166002900480156103a95780601f1061037e576101008083540402835291602001916103a9565b820191906000526020600020905b81548152906001019060200180831161038c57829003601f168201915b505050505090806002018054600181600116156101000203166002900480601f0160208091040260200160405190810160405280929190818152602001828054600181600116156101000203166002900480156104475780601f1061041c57610100808354040283529160200191610447565b820191906000526020600020905b81548152906001019060200180831161042a57829003601f168201915b505050505090806003018054600181600116156101000203166002900480601f0160208091040260200160405190810160405280929190818152602001828054600181600116156101000203166002900480156104e55780601f106104ba576101008083540402835291602001916104e5565b820191906000526020600020905b8154815290600101906020018083116104c857829003601f168201915b505050505090806004018054600181600116156101000203166002900480601f0160208091040260200160405190810160405280929190818152602001828054600181600116156101000203166002900480156105835780601f1061055857610100808354040283529160200191610583565b820191906000526020600020905b81548152906001019060200180831161056657829003601f168201915b505050505090806005018054600181600116156101000203166002900480601f0160208091040260200160405190810160405280929190818152602001828054600181600116156101000203166002900480156106215780601f106105f657610100808354040283529160200191610621565b820191906000526020600020905b81548152906001019060200180831161060457829003601f168201915b505050505090806006018054600181600116156101000203166002900480601f0160208091040260200160405190810160405280929190818152602001828054600181600116156101000203166002900480156106bf5780601f10610694576101008083540402835291602001916106bf565b820191906000526020600020905b8154815290600101906020018083116106a257829003601f168201915b505050505090806007018054600181600116156101000203166002900480601f01602080910402602001604051908101604052809291908181526020018280546001816001161561010002031660029004801561075d5780601f106107325761010080835404028352916020019161075d565b820191906000526020600020905b81548152906001019060200180831161074057829003601f168201915b505050505090806008018054600181600116156101000203166002900480601f0160208091040260200160405190810160405280929190818152602001828054600181600116156101000203166002900480156107fb5780601f106107d0576101008083540402835291602001916107fb565b820191906000526020600020905b8154815290600101906020018083116107de57829003601f168201915b505050505090806009018054600181600116156101000203166002900480601f0160208091040260200160405190810160405280929190818152602001828054600181600116156101000203166002900480156108995780601f1061086e57610100808354040283529160200191610899565b820191906000526020600020905b81548152906001019060200180831161087c57829003601f168201915b50505050509080600a018054600181600116156101000203166002900480601f0160208091040260200160405190810160405280929190818152602001828054600181600116156101000203166002900480156109375780601f1061090c57610100808354040283529160200191610937565b820191906000526020600020905b81548152906001019060200180831161091a57829003601f168201915b50505050509080600b015490508c565b60005481565b6109556113cb565b61095d6113cb565b60008090505b60005481101561118757610a25600160008381526020019081526020016000206003018054600181600116156101000203166002900480601f016020809104026020016040519081016040528092919081815260200182805460018160011615610100020316600290048015610a1a5780601f106109ef57610100808354040283529160200191610a1a565b820191906000526020600020905b8154815290600101906020018083116109fd57829003601f168201915b50505050508661139d565b8015610ae55750610ae4600160008381526020019081526020016000206004018054600181600116156101000203166002900480601f016020809104026020016040519081016040528092919081815260200182805460018160011615610100020316600290048015610ad95780601f10610aae57610100808354040283529160200191610ad9565b820191906000526020600020905b815481529060010190602001808311610abc57829003601f168201915b50505050508561139d565b5b1561117a57600160008281526020019081526020016000206040518061018001604052908160008201548152602001600182018054600181600116156101000203166002900480601f016020809104026020016040519081016040528092919081815260200182805460018160011615610100020316600290048015610bac5780601f10610b8157610100808354040283529160200191610bac565b820191906000526020600020905b815481529060010190602001808311610b8f57829003601f168201915b50505050508152602001600282018054600181600116156101000203166002900480601f016020809104026020016040519081016040528092919081815260200182805460018160011615610100020316600290048015610c4e5780601f10610c2357610100808354040283529160200191610c4e565b820191906000526020600020905b815481529060010190602001808311610c3157829003601f168201915b50505050508152602001600382018054600181600116156101000203166002900480601f016020809104026020016040519081016040528092919081815260200182805460018160011615610100020316600290048015610cf05780601f10610cc557610100808354040283529160200191610cf0565b820191906000526020600020905b815481529060010190602001808311610cd357829003601f168201915b50505050508152602001600482018054600181600116156101000203166002900480601f016020809104026020016040519081016040528092919081815260200182805460018160011615610100020316600290048015610d925780601f10610d6757610100808354040283529160200191610d92565b820191906000526020600020905b815481529060010190602001808311610d7557829003601f168201915b50505050508152602001600582018054600181600116156101000203166002900480601f016020809104026020016040519081016040528092919081815260200182805460018160011615610100020316600290048015610e345780601f10610e0957610100808354040283529160200191610e34565b820191906000526020600020905b815481529060010190602001808311610e1757829003601f168201915b50505050508152602001600682018054600181600116156101000203166002900480601f016020809104026020016040519081016040528092919081815260200182805460018160011615610100020316600290048015610ed65780601f10610eab57610100808354040283529160200191610ed6565b820191906000526020600020905b815481529060010190602001808311610eb957829003601f168201915b50505050508152602001600782018054600181600116156101000203166002900480601f016020809104026020016040519081016040528092919081815260200182805460018160011615610100020316600290048015610f785780601f10610f4d57610100808354040283529160200191610f78565b820191906000526020600020905b815481529060010190602001808311610f5b57829003601f168201915b50505050508152602001600882018054600181600116156101000203166002900480601f01602080910402602001604051908101604052809291908181526020018280546001816001161561010002031660029004801561101a5780601f10610fef5761010080835404028352916020019161101a565b820191906000526020600020905b815481529060010190602001808311610ffd57829003601f168201915b50505050508152602001600982018054600181600116156101000203166002900480601f0160208091040260200160405190810160405280929190818152602001828054600181600116156101000203166002900480156110bc5780601f10611091576101008083540402835291602001916110bc565b820191906000526020600020905b81548152906001019060200180831161109f57829003601f168201915b50505050508152602001600a82018054600181600116156101000203166002900480601f01602080910402602001604051908101604052809291908181526020018280546001816001161561010002031660029004801561115e5780601f106111335761010080835404028352916020019161115e565b820191906000526020600020905b81548152906001019060200180831161114157829003601f168201915b50505050508152602001600b820154815250509250505061118d565b8080600101915050610963565b50809150505b92915050565b600060405180610180016040528060005481526020018d81526020018c81526020018b81526020018a8152602001898152602001888152602001878152602001868152602001858152602001848152602001838152506001600080600081548092919060010191905055815260200190815260200160002060008201518160000155602082015181600101908051906020019061123192919061142c565b50604082015181600201908051906020019061124e92919061142c565b50606082015181600301908051906020019061126b92919061142c565b50608082015181600401908051906020019061128892919061142c565b5060a08201518160050190805190602001906112a592919061142c565b5060c08201518160060190805190602001906112c292919061142c565b5060e08201518160070190805190602001906112df92919061142c565b506101008201518160080190805190602001906112fd92919061142c565b5061012082015181600901908051906020019061131b92919061142c565b5061014082015181600a01908051906020019061133992919061142c565b5061016082015181600b01559050507f7fa2200db6d5ae99b26bc877cbae73fdb888db23bd9bd4b4d1ea273013186bb78c60016000540360405161137e9291906119e5565b60405180910390a160016000540390509b9a5050505050505050505050565b600081518351146113b157600090506113c5565b818051906020012083805190602001201490505b92915050565b6040518061018001604052806000815260200160608152602001606081526020016060815260200160608152602001606081526020016060815260200160608152602001606081526020016060815260200160608152602001600081525090565b828054600181600116156101000203166002900490600052602060002090601f016020900481019282601f1061146d57805160ff191683800117855561149b565b8280016001018555821561149b579182015b8281111561149a57825182559160200191906001019061147f565b5b5090506114a891906114ac565b5090565b6114ce91905b808211156114ca5760008160009055506001016114b2565b5090565b90565b600082601f8301126114e257600080fd5b81356114f56114f082611b7f565b611b52565b9150808252602083016020830185838301111561151157600080fd5b61151c838284611bf9565b50505092915050565b60008135905061153481611c4c565b92915050565b6000806040838503121561154d57600080fd5b600083013567ffffffffffffffff81111561156757600080fd5b611573858286016114d1565b925050602083013567ffffffffffffffff81111561159057600080fd5b61159c858286016114d1565b9150509250929050565b60008060008060008060008060008060006101608c8e0312156115c857600080fd5b60008c013567ffffffffffffffff8111156115e257600080fd5b6115ee8e828f016114d1565b9b505060208c013567ffffffffffffffff81111561160b57600080fd5b6116178e828f016114d1565b9a505060408c013567ffffffffffffffff81111561163457600080fd5b6116408e828f016114d1565b99505060608c013567ffffffffffffffff81111561165d57600080fd5b6116698e828f016114d1565b98505060808c013567ffffffffffffffff81111561168657600080fd5b6116928e828f016114d1565b97505060a08c013567ffffffffffffffff8111156116af57600080fd5b6116bb8e828f016114d1565b96505060c08c013567ffffffffffffffff8111156116d857600080fd5b6116e48e828f016114d1565b95505060e08c013567ffffffffffffffff81111561170157600080fd5b61170d8e828f016114d1565b9450506101008c013567ffffffffffffffff81111561172b57600080fd5b6117378e828f016114d1565b9350506101208c013567ffffffffffffffff81111561175557600080fd5b6117618e828f016114d1565b9250506101406117738e828f01611525565b9150509295989b509295989b9093969950565b60006020828403121561179857600080fd5b60006117a684828501611525565b91505092915050565b6117b881611be3565b82525050565b60006117c982611bb6565b6117d38185611bd2565b93506117e3818560208601611c08565b6117ec81611c3b565b840191505092915050565b600061180282611bab565b61180c8185611bc1565b935061181c818560208601611c08565b61182581611c3b565b840191505092915050565b600061183b82611bab565b6118458185611bd2565b9350611855818560208601611c08565b61185e81611c3b565b840191505092915050565b60006101808301600083015161188260008601826119ac565b506020830151848203602086015261189a82826117f7565b915050604083015184820360408601526118b482826117f7565b915050606083015184820360608601526118ce82826117f7565b915050608083015184820360808601526118e882826117f7565b91505060a083015184820360a086015261190282826117f7565b91505060c083015184820360c086015261191c82826117f7565b91505060e083015184820360e086015261193682826117f7565b91505061010083015184820361010086015261195282826117f7565b91505061012083015184820361012086015261196e82826117f7565b91505061014083015184820361014086015261198a82826117f7565b9150506101608301516119a16101608601826119ac565b508091505092915050565b6119b581611bef565b82525050565b6119c481611bef565b82525050565b60006020820190506119df60008301846117af565b92915050565b600060408201905081810360008301526119ff81856117be565b9050611a0e60208301846119bb565b9392505050565b60006020820190508181036000830152611a2f8184611869565b905092915050565b6000602082019050611a4c60008301846119bb565b92915050565b600061018082019050611a68600083018f6119bb565b8181036020830152611a7a818e611830565b90508181036040830152611a8e818d611830565b90508181036060830152611aa2818c611830565b90508181036080830152611ab6818b611830565b905081810360a0830152611aca818a611830565b905081810360c0830152611ade8189611830565b905081810360e0830152611af28188611830565b9050818103610100830152611b078187611830565b9050818103610120830152611b1c8186611830565b9050818103610140830152611b318185611830565b9050611b416101608301846119bb565b9d9c50505050505050505050505050565b6000604051905081810181811067ffffffffffffffff82111715611b7557600080fd5b8060405250919050565b600067ffffffffffffffff821115611b9657600080fd5b601f19601f8301169050602081019050919050565b600081519050919050565b600081519050919050565b600082825260208201905092915050565b600082825260208201905092915050565b60008115159050919050565b6000819050919050565b82818337600083830152505050565b60005b83811015611c26578082015181840152602081019050611c0b565b83811115611c35576000848401525b50505050565b6000601f19601f8301169050919050565b611c5581611bef565b8114611c6057600080fd5b5056fea365627a7a72315820569c5190700f03404a27bc288c81cb75a914307b9a79e4af008b0ef3d2c71b4a6c6578706572696d656e74616cf564736f6c63430005100040",
  "source": "pragma solidity >=0.4.22 <0.9.0;\r\npragma experimental ABIEncoderV2;\r\ncontract Users {\r\n\r\n    struct User{\r\n        uint id;\r\n        string name;\r\n        string surname;\r\n        string privateKey;\r\n        string metamaskAddress;\r\n        string photoUrl;\r\n        string desc;\r\n        string email;\r\n        string phoneNumber;\r\n        string homeAddress;\r\n        string birthday;\r\n        uint uType;\r\n    }\r\n    uint public usersCount = 0;\r\n    mapping (uint => User) public users;\r\n    event UserCreated(string user, uint userNumber);\r\n    constructor() public{\r\n\r\n        users[0] = User(0, \"Petar\", \"Petrovic\", \"key\", \"address\", \"fawfa\", \"opis proizvodjaca\", \"email@gmail.com\", \"1351351351\", \"Novi sad\", \"2020-3-3\", 1);\r\n        users[1] = User(1, \"Luka\", \"Lala\", \"fw4tg3w4g3w4g3\", \"egfsaergsregs\", \"fawfa\", \"opis proizvodjaca\", \"email@gmail.com\", \"1351351351\", \"Novi sad\", \"2020-3-3\", 1);\r\n        usersCount = 2;\r\n    }\r\n\r\n    function createUser(string memory _name,\r\n        string memory _surname,\r\n        string memory _privateKey,\r\n        string memory _metamaskAddress,\r\n        string memory _photoUrl,\r\n        string memory _desc,\r\n        string memory _email,\r\n        string memory _phoneNumber,\r\n        string memory _homeAddress,\r\n        string memory _birthday,\r\n        uint _uType) public returns (uint) {\r\n\r\n        users[usersCount++] = User(usersCount, _name, _surname, _privateKey, _metamaskAddress, _photoUrl, _desc, _email, _phoneNumber, _homeAddress, _birthday, _uType);\r\n        emit UserCreated(_name, usersCount - 1);\r\n        return usersCount-1;\r\n\r\n    }\r\n    function checkForUser(string memory _metamaskAddress, string memory _privateKey) public returns (bool bl){\r\n\r\n        for (uint i=0; i< usersCount; i++) {\r\n            if (hashCompareWithLengthCheck(users[i].metamaskAddress, _metamaskAddress) && hashCompareWithLengthCheck(users[i].privateKey,  _privateKey))\r\n                return true;\r\n        }\r\n        return false;\r\n\r\n    }\r\n\r\n    function hashCompareWithLengthCheck(string memory a, string memory b) internal returns (bool) {\r\n        if(bytes(a).length != bytes(b).length) {\r\n            return false;\r\n        } else {\r\n            return keccak256(bytes(a)) == keccak256(bytes(b));\r\n        }\r\n    }\r\n\r\n    function getUser(string memory privateKey, string memory accountAddress) public returns (User memory){\r\n        User memory user;\r\n        for (uint i= 0; i < usersCount; i++) {\r\n            if (hashCompareWithLengthCheck(users[i].privateKey, privateKey) && hashCompareWithLengthCheck(users[i].metamaskAddress, accountAddress)){\r\n                return users[i];\r\n            }\r\n        }\r\n        return user;\r\n    }\r\n\r\n}\r\n",
  "sourcePath": "C:/Users/Korisnik/Desktop/dev/Catalyst/src/frontend_mobile/contracts/Users.sol",
  "compiler": {
    "name": "solc",
    "version": "0.5.16+commit.9c3226ce.Emscripten.clang"
  },
  "schemaVersion": "3.3.4",
  "updatedAt": "2021-05-01T19:33:27.334Z",
  "networkType": "ethereum",
  "devdoc": {
    "methods": {}
  },
  "userdoc": {
    "methods": {}
  }
}